{
	"NFTIncentives_flattened.sol": {
		"IncentiveNFTs": {
			"abi": [
				{
					"inputs": [],
					"stateMutability": "nonpayable",
					"type": "constructor"
				},
				{
					"inputs": [
						{
							"internalType": "address",
							"name": "sender",
							"type": "address"
						},
						{
							"internalType": "uint256",
							"name": "tokenId",
							"type": "uint256"
						},
						{
							"internalType": "address",
							"name": "owner",
							"type": "address"
						}
					],
					"name": "ERC721IncorrectOwner",
					"type": "error"
				},
				{
					"inputs": [
						{
							"internalType": "address",
							"name": "operator",
							"type": "address"
						},
						{
							"internalType": "uint256",
							"name": "tokenId",
							"type": "uint256"
						}
					],
					"name": "ERC721InsufficientApproval",
					"type": "error"
				},
				{
					"inputs": [
						{
							"internalType": "address",
							"name": "approver",
							"type": "address"
						}
					],
					"name": "ERC721InvalidApprover",
					"type": "error"
				},
				{
					"inputs": [
						{
							"internalType": "address",
							"name": "operator",
							"type": "address"
						}
					],
					"name": "ERC721InvalidOperator",
					"type": "error"
				},
				{
					"inputs": [
						{
							"internalType": "address",
							"name": "owner",
							"type": "address"
						}
					],
					"name": "ERC721InvalidOwner",
					"type": "error"
				},
				{
					"inputs": [
						{
							"internalType": "address",
							"name": "receiver",
							"type": "address"
						}
					],
					"name": "ERC721InvalidReceiver",
					"type": "error"
				},
				{
					"inputs": [
						{
							"internalType": "address",
							"name": "sender",
							"type": "address"
						}
					],
					"name": "ERC721InvalidSender",
					"type": "error"
				},
				{
					"inputs": [
						{
							"internalType": "uint256",
							"name": "tokenId",
							"type": "uint256"
						}
					],
					"name": "ERC721NonexistentToken",
					"type": "error"
				},
				{
					"inputs": [
						{
							"internalType": "address",
							"name": "owner",
							"type": "address"
						}
					],
					"name": "OwnableInvalidOwner",
					"type": "error"
				},
				{
					"inputs": [
						{
							"internalType": "address",
							"name": "account",
							"type": "address"
						}
					],
					"name": "OwnableUnauthorizedAccount",
					"type": "error"
				},
				{
					"anonymous": false,
					"inputs": [
						{
							"indexed": true,
							"internalType": "address",
							"name": "owner",
							"type": "address"
						},
						{
							"indexed": true,
							"internalType": "address",
							"name": "approved",
							"type": "address"
						},
						{
							"indexed": true,
							"internalType": "uint256",
							"name": "tokenId",
							"type": "uint256"
						}
					],
					"name": "Approval",
					"type": "event"
				},
				{
					"anonymous": false,
					"inputs": [
						{
							"indexed": true,
							"internalType": "address",
							"name": "owner",
							"type": "address"
						},
						{
							"indexed": true,
							"internalType": "address",
							"name": "operator",
							"type": "address"
						},
						{
							"indexed": false,
							"internalType": "bool",
							"name": "approved",
							"type": "bool"
						}
					],
					"name": "ApprovalForAll",
					"type": "event"
				},
				{
					"anonymous": false,
					"inputs": [
						{
							"indexed": false,
							"internalType": "uint256",
							"name": "_fromTokenId",
							"type": "uint256"
						},
						{
							"indexed": false,
							"internalType": "uint256",
							"name": "_toTokenId",
							"type": "uint256"
						}
					],
					"name": "BatchMetadataUpdate",
					"type": "event"
				},
				{
					"anonymous": false,
					"inputs": [
						{
							"indexed": false,
							"internalType": "uint256",
							"name": "_tokenId",
							"type": "uint256"
						}
					],
					"name": "MetadataUpdate",
					"type": "event"
				},
				{
					"anonymous": false,
					"inputs": [
						{
							"indexed": true,
							"internalType": "address",
							"name": "previousOwner",
							"type": "address"
						},
						{
							"indexed": true,
							"internalType": "address",
							"name": "newOwner",
							"type": "address"
						}
					],
					"name": "OwnershipTransferred",
					"type": "event"
				},
				{
					"anonymous": false,
					"inputs": [
						{
							"indexed": true,
							"internalType": "address",
							"name": "from",
							"type": "address"
						},
						{
							"indexed": true,
							"internalType": "address",
							"name": "to",
							"type": "address"
						},
						{
							"indexed": true,
							"internalType": "uint256",
							"name": "tokenId",
							"type": "uint256"
						}
					],
					"name": "Transfer",
					"type": "event"
				},
				{
					"inputs": [],
					"name": "Progress",
					"outputs": [
						{
							"internalType": "contract IProgress",
							"name": "",
							"type": "address"
						}
					],
					"stateMutability": "view",
					"type": "function"
				},
				{
					"inputs": [
						{
							"internalType": "address",
							"name": "to",
							"type": "address"
						},
						{
							"internalType": "uint256",
							"name": "tokenId",
							"type": "uint256"
						}
					],
					"name": "approve",
					"outputs": [],
					"stateMutability": "nonpayable",
					"type": "function"
				},
				{
					"inputs": [
						{
							"internalType": "address",
							"name": "owner",
							"type": "address"
						}
					],
					"name": "balanceOf",
					"outputs": [
						{
							"internalType": "uint256",
							"name": "",
							"type": "uint256"
						}
					],
					"stateMutability": "view",
					"type": "function"
				},
				{
					"inputs": [
						{
							"internalType": "uint256",
							"name": "tokenId",
							"type": "uint256"
						}
					],
					"name": "getApproved",
					"outputs": [
						{
							"internalType": "address",
							"name": "",
							"type": "address"
						}
					],
					"stateMutability": "view",
					"type": "function"
				},
				{
					"inputs": [
						{
							"internalType": "address",
							"name": "owner",
							"type": "address"
						},
						{
							"internalType": "address",
							"name": "operator",
							"type": "address"
						}
					],
					"name": "isApprovedForAll",
					"outputs": [
						{
							"internalType": "bool",
							"name": "",
							"type": "bool"
						}
					],
					"stateMutability": "view",
					"type": "function"
				},
				{
					"inputs": [
						{
							"internalType": "string",
							"name": "_tokenURI",
							"type": "string"
						}
					],
					"name": "mint",
					"outputs": [
						{
							"internalType": "uint256",
							"name": "",
							"type": "uint256"
						}
					],
					"stateMutability": "nonpayable",
					"type": "function"
				},
				{
					"inputs": [],
					"name": "name",
					"outputs": [
						{
							"internalType": "string",
							"name": "",
							"type": "string"
						}
					],
					"stateMutability": "view",
					"type": "function"
				},
				{
					"inputs": [],
					"name": "owner",
					"outputs": [
						{
							"internalType": "address",
							"name": "",
							"type": "address"
						}
					],
					"stateMutability": "view",
					"type": "function"
				},
				{
					"inputs": [
						{
							"internalType": "uint256",
							"name": "tokenId",
							"type": "uint256"
						}
					],
					"name": "ownerOf",
					"outputs": [
						{
							"internalType": "address",
							"name": "",
							"type": "address"
						}
					],
					"stateMutability": "view",
					"type": "function"
				},
				{
					"inputs": [],
					"name": "renounceOwnership",
					"outputs": [],
					"stateMutability": "nonpayable",
					"type": "function"
				},
				{
					"inputs": [
						{
							"internalType": "address",
							"name": "from",
							"type": "address"
						},
						{
							"internalType": "address",
							"name": "to",
							"type": "address"
						},
						{
							"internalType": "uint256",
							"name": "tokenId",
							"type": "uint256"
						}
					],
					"name": "safeTransferFrom",
					"outputs": [],
					"stateMutability": "nonpayable",
					"type": "function"
				},
				{
					"inputs": [
						{
							"internalType": "address",
							"name": "from",
							"type": "address"
						},
						{
							"internalType": "address",
							"name": "to",
							"type": "address"
						},
						{
							"internalType": "uint256",
							"name": "tokenId",
							"type": "uint256"
						},
						{
							"internalType": "bytes",
							"name": "data",
							"type": "bytes"
						}
					],
					"name": "safeTransferFrom",
					"outputs": [],
					"stateMutability": "nonpayable",
					"type": "function"
				},
				{
					"inputs": [
						{
							"internalType": "address",
							"name": "operator",
							"type": "address"
						},
						{
							"internalType": "bool",
							"name": "approved",
							"type": "bool"
						}
					],
					"name": "setApprovalForAll",
					"outputs": [],
					"stateMutability": "nonpayable",
					"type": "function"
				},
				{
					"inputs": [
						{
							"internalType": "address",
							"name": "_progressSC",
							"type": "address"
						}
					],
					"name": "setProgressSC",
					"outputs": [],
					"stateMutability": "nonpayable",
					"type": "function"
				},
				{
					"inputs": [
						{
							"internalType": "bytes4",
							"name": "interfaceId",
							"type": "bytes4"
						}
					],
					"name": "supportsInterface",
					"outputs": [
						{
							"internalType": "bool",
							"name": "",
							"type": "bool"
						}
					],
					"stateMutability": "view",
					"type": "function"
				},
				{
					"inputs": [],
					"name": "symbol",
					"outputs": [
						{
							"internalType": "string",
							"name": "",
							"type": "string"
						}
					],
					"stateMutability": "view",
					"type": "function"
				},
				{
					"inputs": [],
					"name": "tokenCount",
					"outputs": [
						{
							"internalType": "uint256",
							"name": "",
							"type": "uint256"
						}
					],
					"stateMutability": "view",
					"type": "function"
				},
				{
					"inputs": [
						{
							"internalType": "uint256",
							"name": "tokenId",
							"type": "uint256"
						}
					],
					"name": "tokenURI",
					"outputs": [
						{
							"internalType": "string",
							"name": "",
							"type": "string"
						}
					],
					"stateMutability": "view",
					"type": "function"
				},
				{
					"inputs": [
						{
							"internalType": "address",
							"name": "from",
							"type": "address"
						},
						{
							"internalType": "address",
							"name": "to",
							"type": "address"
						},
						{
							"internalType": "uint256",
							"name": "tokenId",
							"type": "uint256"
						}
					],
					"name": "transferFrom",
					"outputs": [],
					"stateMutability": "nonpayable",
					"type": "function"
				},
				{
					"inputs": [
						{
							"internalType": "address",
							"name": "newOwner",
							"type": "address"
						}
					],
					"name": "transferOwnership",
					"outputs": [],
					"stateMutability": "nonpayable",
					"type": "function"
				}
			],
			"devdoc": {
				"errors": {
					"ERC721IncorrectOwner(address,uint256,address)": [
						{
							"details": "Indicates an error related to the ownership over a particular token. Used in transfers.",
							"params": {
								"owner": "Address of the current owner of a token.",
								"sender": "Address whose tokens are being transferred.",
								"tokenId": "Identifier number of a token."
							}
						}
					],
					"ERC721InsufficientApproval(address,uint256)": [
						{
							"details": "Indicates a failure with the `operator`’s approval. Used in transfers.",
							"params": {
								"operator": "Address that may be allowed to operate on tokens without being their owner.",
								"tokenId": "Identifier number of a token."
							}
						}
					],
					"ERC721InvalidApprover(address)": [
						{
							"details": "Indicates a failure with the `approver` of a token to be approved. Used in approvals.",
							"params": {
								"approver": "Address initiating an approval operation."
							}
						}
					],
					"ERC721InvalidOperator(address)": [
						{
							"details": "Indicates a failure with the `operator` to be approved. Used in approvals.",
							"params": {
								"operator": "Address that may be allowed to operate on tokens without being their owner."
							}
						}
					],
					"ERC721InvalidOwner(address)": [
						{
							"details": "Indicates that an address can't be an owner. For example, `address(0)` is a forbidden owner in EIP-20. Used in balance queries.",
							"params": {
								"owner": "Address of the current owner of a token."
							}
						}
					],
					"ERC721InvalidReceiver(address)": [
						{
							"details": "Indicates a failure with the token `receiver`. Used in transfers.",
							"params": {
								"receiver": "Address to which tokens are being transferred."
							}
						}
					],
					"ERC721InvalidSender(address)": [
						{
							"details": "Indicates a failure with the token `sender`. Used in transfers.",
							"params": {
								"sender": "Address whose tokens are being transferred."
							}
						}
					],
					"ERC721NonexistentToken(uint256)": [
						{
							"details": "Indicates a `tokenId` whose `owner` is the zero address.",
							"params": {
								"tokenId": "Identifier number of a token."
							}
						}
					],
					"OwnableInvalidOwner(address)": [
						{
							"details": "The owner is not a valid owner account. (eg. `address(0)`)"
						}
					],
					"OwnableUnauthorizedAccount(address)": [
						{
							"details": "The caller account is not authorized to perform an operation."
						}
					]
				},
				"events": {
					"Approval(address,address,uint256)": {
						"details": "Emitted when `owner` enables `approved` to manage the `tokenId` token."
					},
					"ApprovalForAll(address,address,bool)": {
						"details": "Emitted when `owner` enables or disables (`approved`) `operator` to manage all of its assets."
					},
					"BatchMetadataUpdate(uint256,uint256)": {
						"details": "This event emits when the metadata of a range of tokens is changed. So that the third-party platforms such as NFT market could timely update the images and related attributes of the NFTs."
					},
					"MetadataUpdate(uint256)": {
						"details": "This event emits when the metadata of a token is changed. So that the third-party platforms such as NFT market could timely update the images and related attributes of the NFT."
					},
					"Transfer(address,address,uint256)": {
						"details": "Emitted when `tokenId` token is transferred from `from` to `to`."
					}
				},
				"kind": "dev",
				"methods": {
					"approve(address,uint256)": {
						"details": "See {IERC721-approve}."
					},
					"balanceOf(address)": {
						"details": "See {IERC721-balanceOf}."
					},
					"getApproved(uint256)": {
						"details": "See {IERC721-getApproved}."
					},
					"isApprovedForAll(address,address)": {
						"details": "See {IERC721-isApprovedForAll}."
					},
					"name()": {
						"details": "See {IERC721Metadata-name}."
					},
					"owner()": {
						"details": "Returns the address of the current owner."
					},
					"ownerOf(uint256)": {
						"details": "See {IERC721-ownerOf}."
					},
					"renounceOwnership()": {
						"details": "Leaves the contract without owner. It will not be possible to call `onlyOwner` functions. Can only be called by the current owner. NOTE: Renouncing ownership will leave the contract without an owner, thereby disabling any functionality that is only available to the owner."
					},
					"safeTransferFrom(address,address,uint256)": {
						"details": "See {IERC721-safeTransferFrom}."
					},
					"safeTransferFrom(address,address,uint256,bytes)": {
						"details": "See {IERC721-safeTransferFrom}."
					},
					"setApprovalForAll(address,bool)": {
						"details": "See {IERC721-setApprovalForAll}."
					},
					"supportsInterface(bytes4)": {
						"details": "See {IERC165-supportsInterface}"
					},
					"symbol()": {
						"details": "See {IERC721Metadata-symbol}."
					},
					"tokenURI(uint256)": {
						"details": "See {IERC721Metadata-tokenURI}."
					},
					"transferFrom(address,address,uint256)": {
						"details": "See {IERC721-transferFrom}."
					},
					"transferOwnership(address)": {
						"details": "Transfers ownership of the contract to a new account (`newOwner`). Can only be called by the current owner."
					}
				},
				"version": 1
			},
			"evm": {
				"assembly": "    /* \"NFTIncentives_flattened.sol\":59993:60801  contract IncentiveNFTs is ERC721URIStorage, Ownable(msg.sender){... */\n  mstore(0x40, 0x80)\n    /* \"NFTIncentives_flattened.sol\":60122:60167  constructor () ERC721(\"Incentives\", \"INFT\"){} */\n  callvalue\n  dup1\n  iszero\n  tag_1\n  jumpi\n  0x00\n  dup1\n  revert\ntag_1:\n  pop\n    /* \"NFTIncentives_flattened.sol\":60045:60055  msg.sender */\n  caller\n    /* \"NFTIncentives_flattened.sol\":40798:40911  constructor(string memory name_, string memory symbol_) {... */\n  mload(0x40)\n  dup1\n  0x40\n  add\n  0x40\n  mstore\n  dup1\n  0x0a\n  dup2\n  mstore\n  0x20\n  add\n  0x496e63656e746976657300000000000000000000000000000000000000000000\n  dup2\n  mstore\n  pop\n  mload(0x40)\n  dup1\n  0x40\n  add\n  0x40\n  mstore\n  dup1\n  0x04\n  dup2\n  mstore\n  0x20\n  add\n  0x494e465400000000000000000000000000000000000000000000000000000000\n  dup2\n  mstore\n  pop\n    /* \"NFTIncentives_flattened.sol\":40872:40877  name_ */\n  dup2\n    /* \"NFTIncentives_flattened.sol\":40864:40869  _name */\n  0x00\n    /* \"NFTIncentives_flattened.sol\":40864:40877  _name = name_ */\n  swap1\n  dup2\n  tag_6\n  swap2\n  swap1\n  tag_7\n  jump\t// in\ntag_6:\n  pop\n    /* \"NFTIncentives_flattened.sol\":40897:40904  symbol_ */\n  dup1\n    /* \"NFTIncentives_flattened.sol\":40887:40894  _symbol */\n  0x01\n    /* \"NFTIncentives_flattened.sol\":40887:40904  _symbol = symbol_ */\n  swap1\n  dup2\n  tag_8\n  swap2\n  swap1\n  tag_7\n  jump\t// in\ntag_8:\n  pop\n    /* \"NFTIncentives_flattened.sol\":40798:40911  constructor(string memory name_, string memory symbol_) {... */\n  pop\n  pop\n    /* \"NFTIncentives_flattened.sol\":28327:28328  0 */\n  0x00\n    /* \"NFTIncentives_flattened.sol\":28303:28329  initialOwner == address(0) */\n  0xffffffffffffffffffffffffffffffffffffffff\n  and\n    /* \"NFTIncentives_flattened.sol\":28303:28315  initialOwner */\n  dup2\n    /* \"NFTIncentives_flattened.sol\":28303:28329  initialOwner == address(0) */\n  0xffffffffffffffffffffffffffffffffffffffff\n  and\n  sub\n    /* \"NFTIncentives_flattened.sol\":28299:28394  if (initialOwner == address(0)) {... */\n  tag_10\n  jumpi\n    /* \"NFTIncentives_flattened.sol\":28380:28381  0 */\n  0x00\n    /* \"NFTIncentives_flattened.sol\":28352:28383  OwnableInvalidOwner(address(0)) */\n  mload(0x40)\n  0x1e4fbdf700000000000000000000000000000000000000000000000000000000\n  dup2\n  mstore\n  0x04\n  add\n  tag_11\n  swap2\n  swap1\n  tag_12\n  jump\t// in\ntag_11:\n  mload(0x40)\n  dup1\n  swap2\n  sub\n  swap1\n  revert\n    /* \"NFTIncentives_flattened.sol\":28299:28394  if (initialOwner == address(0)) {... */\ntag_10:\n    /* \"NFTIncentives_flattened.sol\":28403:28435  _transferOwnership(initialOwner) */\n  tag_13\n    /* \"NFTIncentives_flattened.sol\":28422:28434  initialOwner */\n  dup2\n    /* \"NFTIncentives_flattened.sol\":28403:28421  _transferOwnership */\n  shl(0x20, tag_14)\n    /* \"NFTIncentives_flattened.sol\":28403:28435  _transferOwnership(initialOwner) */\n  0x20\n  shr\n  jump\t// in\ntag_13:\n    /* \"NFTIncentives_flattened.sol\":28255:28442  constructor(address initialOwner) {... */\n  pop\n    /* \"NFTIncentives_flattened.sol\":59993:60801  contract IncentiveNFTs is ERC721URIStorage, Ownable(msg.sender){... */\n  jump(tag_16)\n    /* \"NFTIncentives_flattened.sol\":29942:30129  function _transferOwnership(address newOwner) internal virtual {... */\ntag_14:\n    /* \"NFTIncentives_flattened.sol\":30015:30031  address oldOwner */\n  0x00\n    /* \"NFTIncentives_flattened.sol\":30034:30040  _owner */\n  0x07\n  0x00\n  swap1\n  sload\n  swap1\n  0x0100\n  exp\n  swap1\n  div\n  0xffffffffffffffffffffffffffffffffffffffff\n  and\n    /* \"NFTIncentives_flattened.sol\":30015:30040  address oldOwner = _owner */\n  swap1\n  pop\n    /* \"NFTIncentives_flattened.sol\":30059:30067  newOwner */\n  dup2\n    /* \"NFTIncentives_flattened.sol\":30050:30056  _owner */\n  0x07\n  0x00\n    /* \"NFTIncentives_flattened.sol\":30050:30067  _owner = newOwner */\n  0x0100\n  exp\n  dup2\n  sload\n  dup2\n  0xffffffffffffffffffffffffffffffffffffffff\n  mul\n  not\n  and\n  swap1\n  dup4\n  0xffffffffffffffffffffffffffffffffffffffff\n  and\n  mul\n  or\n  swap1\n  sstore\n  pop\n    /* \"NFTIncentives_flattened.sol\":30113:30121  newOwner */\n  dup2\n    /* \"NFTIncentives_flattened.sol\":30082:30122  OwnershipTransferred(oldOwner, newOwner) */\n  0xffffffffffffffffffffffffffffffffffffffff\n  and\n    /* \"NFTIncentives_flattened.sol\":30103:30111  oldOwner */\n  dup2\n    /* \"NFTIncentives_flattened.sol\":30082:30122  OwnershipTransferred(oldOwner, newOwner) */\n  0xffffffffffffffffffffffffffffffffffffffff\n  and\n  0x8be0079c531659141344cd1fd0a4f28419497f9722a3daafe3b4186f6b6457e0\n  mload(0x40)\n  mload(0x40)\n  dup1\n  swap2\n  sub\n  swap1\n  log3\n    /* \"NFTIncentives_flattened.sol\":30005:30129  {... */\n  pop\n    /* \"NFTIncentives_flattened.sol\":29942:30129  function _transferOwnership(address newOwner) internal virtual {... */\n  pop\n  jump\t// out\n    /* \"#utility.yul\":7:106   */\ntag_18:\n    /* \"#utility.yul\":59:65   */\n  0x00\n    /* \"#utility.yul\":93:98   */\n  dup2\n    /* \"#utility.yul\":87:99   */\n  mload\n    /* \"#utility.yul\":77:99   */\n  swap1\n  pop\n    /* \"#utility.yul\":7:106   */\n  swap2\n  swap1\n  pop\n  jump\t// out\n    /* \"#utility.yul\":112:292   */\ntag_19:\n    /* \"#utility.yul\":160:237   */\n  0x4e487b7100000000000000000000000000000000000000000000000000000000\n    /* \"#utility.yul\":157:158   */\n  0x00\n    /* \"#utility.yul\":150:238   */\n  mstore\n    /* \"#utility.yul\":257:261   */\n  0x41\n    /* \"#utility.yul\":254:255   */\n  0x04\n    /* \"#utility.yul\":247:262   */\n  mstore\n    /* \"#utility.yul\":281:285   */\n  0x24\n    /* \"#utility.yul\":278:279   */\n  0x00\n    /* \"#utility.yul\":271:286   */\n  revert\n    /* \"#utility.yul\":298:478   */\ntag_20:\n    /* \"#utility.yul\":346:423   */\n  0x4e487b7100000000000000000000000000000000000000000000000000000000\n    /* \"#utility.yul\":343:344   */\n  0x00\n    /* \"#utility.yul\":336:424   */\n  mstore\n    /* \"#utility.yul\":443:447   */\n  0x22\n    /* \"#utility.yul\":440:441   */\n  0x04\n    /* \"#utility.yul\":433:448   */\n  mstore\n    /* \"#utility.yul\":467:471   */\n  0x24\n    /* \"#utility.yul\":464:465   */\n  0x00\n    /* \"#utility.yul\":457:472   */\n  revert\n    /* \"#utility.yul\":484:804   */\ntag_21:\n    /* \"#utility.yul\":528:534   */\n  0x00\n    /* \"#utility.yul\":565:566   */\n  0x02\n    /* \"#utility.yul\":559:563   */\n  dup3\n    /* \"#utility.yul\":555:567   */\n  div\n    /* \"#utility.yul\":545:567   */\n  swap1\n  pop\n    /* \"#utility.yul\":612:613   */\n  0x01\n    /* \"#utility.yul\":606:610   */\n  dup3\n    /* \"#utility.yul\":602:614   */\n  and\n    /* \"#utility.yul\":633:651   */\n  dup1\n    /* \"#utility.yul\":623:704   */\n  tag_46\n  jumpi\n    /* \"#utility.yul\":689:693   */\n  0x7f\n    /* \"#utility.yul\":681:687   */\n  dup3\n    /* \"#utility.yul\":677:694   */\n  and\n    /* \"#utility.yul\":667:694   */\n  swap2\n  pop\n    /* \"#utility.yul\":623:704   */\ntag_46:\n    /* \"#utility.yul\":751:753   */\n  0x20\n    /* \"#utility.yul\":743:749   */\n  dup3\n    /* \"#utility.yul\":740:754   */\n  lt\n    /* \"#utility.yul\":720:738   */\n  dup2\n    /* \"#utility.yul\":717:755   */\n  sub\n    /* \"#utility.yul\":714:798   */\n  tag_47\n  jumpi\n    /* \"#utility.yul\":770:788   */\n  tag_48\n  tag_20\n  jump\t// in\ntag_48:\n    /* \"#utility.yul\":714:798   */\ntag_47:\n    /* \"#utility.yul\":535:804   */\n  pop\n    /* \"#utility.yul\":484:804   */\n  swap2\n  swap1\n  pop\n  jump\t// out\n    /* \"#utility.yul\":810:951   */\ntag_22:\n    /* \"#utility.yul\":859:863   */\n  0x00\n    /* \"#utility.yul\":882:885   */\n  dup2\n    /* \"#utility.yul\":874:885   */\n  swap1\n  pop\n    /* \"#utility.yul\":905:908   */\n  dup2\n    /* \"#utility.yul\":902:903   */\n  0x00\n    /* \"#utility.yul\":895:909   */\n  mstore\n    /* \"#utility.yul\":939:943   */\n  0x20\n    /* \"#utility.yul\":936:937   */\n  0x00\n    /* \"#utility.yul\":926:944   */\n  keccak256\n    /* \"#utility.yul\":918:944   */\n  swap1\n  pop\n    /* \"#utility.yul\":810:951   */\n  swap2\n  swap1\n  pop\n  jump\t// out\n    /* \"#utility.yul\":957:1050   */\ntag_23:\n    /* \"#utility.yul\":994:1000   */\n  0x00\n    /* \"#utility.yul\":1041:1043   */\n  0x20\n    /* \"#utility.yul\":1036:1038   */\n  0x1f\n    /* \"#utility.yul\":1029:1034   */\n  dup4\n    /* \"#utility.yul\":1025:1039   */\n  add\n    /* \"#utility.yul\":1021:1044   */\n  div\n    /* \"#utility.yul\":1011:1044   */\n  swap1\n  pop\n    /* \"#utility.yul\":957:1050   */\n  swap2\n  swap1\n  pop\n  jump\t// out\n    /* \"#utility.yul\":1056:1163   */\ntag_24:\n    /* \"#utility.yul\":1100:1108   */\n  0x00\n    /* \"#utility.yul\":1150:1155   */\n  dup3\n    /* \"#utility.yul\":1144:1148   */\n  dup3\n    /* \"#utility.yul\":1140:1156   */\n  shl\n    /* \"#utility.yul\":1119:1156   */\n  swap1\n  pop\n    /* \"#utility.yul\":1056:1163   */\n  swap3\n  swap2\n  pop\n  pop\n  jump\t// out\n    /* \"#utility.yul\":1169:1562   */\ntag_25:\n    /* \"#utility.yul\":1238:1244   */\n  0x00\n    /* \"#utility.yul\":1288:1289   */\n  0x08\n    /* \"#utility.yul\":1276:1286   */\n  dup4\n    /* \"#utility.yul\":1272:1290   */\n  mul\n    /* \"#utility.yul\":1311:1408   */\n  tag_53\n    /* \"#utility.yul\":1341:1407   */\n  0xffffffffffffffffffffffffffffffffffffffffffffffffffffffffffffffff\n    /* \"#utility.yul\":1330:1339   */\n  dup3\n    /* \"#utility.yul\":1311:1408   */\n  tag_24\n  jump\t// in\ntag_53:\n    /* \"#utility.yul\":1429:1468   */\n  tag_54\n    /* \"#utility.yul\":1459:1467   */\n  dup7\n    /* \"#utility.yul\":1448:1457   */\n  dup4\n    /* \"#utility.yul\":1429:1468   */\n  tag_24\n  jump\t// in\ntag_54:\n    /* \"#utility.yul\":1417:1468   */\n  swap6\n  pop\n    /* \"#utility.yul\":1501:1505   */\n  dup1\n    /* \"#utility.yul\":1497:1506   */\n  not\n    /* \"#utility.yul\":1490:1495   */\n  dup5\n    /* \"#utility.yul\":1486:1507   */\n  and\n    /* \"#utility.yul\":1477:1507   */\n  swap4\n  pop\n    /* \"#utility.yul\":1550:1554   */\n  dup1\n    /* \"#utility.yul\":1540:1548   */\n  dup7\n    /* \"#utility.yul\":1536:1555   */\n  and\n    /* \"#utility.yul\":1529:1534   */\n  dup5\n    /* \"#utility.yul\":1526:1556   */\n  or\n    /* \"#utility.yul\":1516:1556   */\n  swap3\n  pop\n    /* \"#utility.yul\":1245:1562   */\n  pop\n  pop\n    /* \"#utility.yul\":1169:1562   */\n  swap4\n  swap3\n  pop\n  pop\n  pop\n  jump\t// out\n    /* \"#utility.yul\":1568:1645   */\ntag_26:\n    /* \"#utility.yul\":1605:1612   */\n  0x00\n    /* \"#utility.yul\":1634:1639   */\n  dup2\n    /* \"#utility.yul\":1623:1639   */\n  swap1\n  pop\n    /* \"#utility.yul\":1568:1645   */\n  swap2\n  swap1\n  pop\n  jump\t// out\n    /* \"#utility.yul\":1651:1711   */\ntag_27:\n    /* \"#utility.yul\":1679:1682   */\n  0x00\n    /* \"#utility.yul\":1700:1705   */\n  dup2\n    /* \"#utility.yul\":1693:1705   */\n  swap1\n  pop\n    /* \"#utility.yul\":1651:1711   */\n  swap2\n  swap1\n  pop\n  jump\t// out\n    /* \"#utility.yul\":1717:1859   */\ntag_28:\n    /* \"#utility.yul\":1767:1776   */\n  0x00\n    /* \"#utility.yul\":1800:1853   */\n  tag_58\n    /* \"#utility.yul\":1818:1852   */\n  tag_59\n    /* \"#utility.yul\":1827:1851   */\n  tag_60\n    /* \"#utility.yul\":1845:1850   */\n  dup5\n    /* \"#utility.yul\":1827:1851   */\n  tag_26\n  jump\t// in\ntag_60:\n    /* \"#utility.yul\":1818:1852   */\n  tag_27\n  jump\t// in\ntag_59:\n    /* \"#utility.yul\":1800:1853   */\n  tag_26\n  jump\t// in\ntag_58:\n    /* \"#utility.yul\":1787:1853   */\n  swap1\n  pop\n    /* \"#utility.yul\":1717:1859   */\n  swap2\n  swap1\n  pop\n  jump\t// out\n    /* \"#utility.yul\":1865:1940   */\ntag_29:\n    /* \"#utility.yul\":1908:1911   */\n  0x00\n    /* \"#utility.yul\":1929:1934   */\n  dup2\n    /* \"#utility.yul\":1922:1934   */\n  swap1\n  pop\n    /* \"#utility.yul\":1865:1940   */\n  swap2\n  swap1\n  pop\n  jump\t// out\n    /* \"#utility.yul\":1946:2215   */\ntag_30:\n    /* \"#utility.yul\":2056:2095   */\n  tag_63\n    /* \"#utility.yul\":2087:2094   */\n  dup4\n    /* \"#utility.yul\":2056:2095   */\n  tag_28\n  jump\t// in\ntag_63:\n    /* \"#utility.yul\":2117:2208   */\n  tag_64\n    /* \"#utility.yul\":2166:2207   */\n  tag_65\n    /* \"#utility.yul\":2190:2206   */\n  dup3\n    /* \"#utility.yul\":2166:2207   */\n  tag_29\n  jump\t// in\ntag_65:\n    /* \"#utility.yul\":2158:2164   */\n  dup5\n    /* \"#utility.yul\":2151:2155   */\n  dup5\n    /* \"#utility.yul\":2145:2156   */\n  sload\n    /* \"#utility.yul\":2117:2208   */\n  tag_25\n  jump\t// in\ntag_64:\n    /* \"#utility.yul\":2111:2115   */\n  dup3\n    /* \"#utility.yul\":2104:2209   */\n  sstore\n    /* \"#utility.yul\":2022:2215   */\n  pop\n    /* \"#utility.yul\":1946:2215   */\n  pop\n  pop\n  pop\n  jump\t// out\n    /* \"#utility.yul\":2221:2294   */\ntag_31:\n    /* \"#utility.yul\":2266:2269   */\n  0x00\n    /* \"#utility.yul\":2221:2294   */\n  swap1\n  jump\t// out\n    /* \"#utility.yul\":2300:2489   */\ntag_32:\n    /* \"#utility.yul\":2377:2409   */\n  tag_68\n  tag_31\n  jump\t// in\ntag_68:\n    /* \"#utility.yul\":2418:2483   */\n  tag_69\n    /* \"#utility.yul\":2476:2482   */\n  dup2\n    /* \"#utility.yul\":2468:2474   */\n  dup5\n    /* \"#utility.yul\":2462:2466   */\n  dup5\n    /* \"#utility.yul\":2418:2483   */\n  tag_30\n  jump\t// in\ntag_69:\n    /* \"#utility.yul\":2353:2489   */\n  pop\n    /* \"#utility.yul\":2300:2489   */\n  pop\n  pop\n  jump\t// out\n    /* \"#utility.yul\":2495:2681   */\ntag_33:\n    /* \"#utility.yul\":2555:2675   */\ntag_71:\n    /* \"#utility.yul\":2572:2575   */\n  dup2\n    /* \"#utility.yul\":2565:2570   */\n  dup2\n    /* \"#utility.yul\":2562:2576   */\n  lt\n    /* \"#utility.yul\":2555:2675   */\n  iszero\n  tag_73\n  jumpi\n    /* \"#utility.yul\":2626:2665   */\n  tag_74\n    /* \"#utility.yul\":2663:2664   */\n  0x00\n    /* \"#utility.yul\":2656:2661   */\n  dup3\n    /* \"#utility.yul\":2626:2665   */\n  tag_32\n  jump\t// in\ntag_74:\n    /* \"#utility.yul\":2599:2600   */\n  0x01\n    /* \"#utility.yul\":2592:2597   */\n  dup2\n    /* \"#utility.yul\":2588:2601   */\n  add\n    /* \"#utility.yul\":2579:2601   */\n  swap1\n  pop\n    /* \"#utility.yul\":2555:2675   */\n  jump(tag_71)\ntag_73:\n    /* \"#utility.yul\":2495:2681   */\n  pop\n  pop\n  jump\t// out\n    /* \"#utility.yul\":2687:3230   */\ntag_34:\n    /* \"#utility.yul\":2788:2790   */\n  0x1f\n    /* \"#utility.yul\":2783:2786   */\n  dup3\n    /* \"#utility.yul\":2780:2791   */\n  gt\n    /* \"#utility.yul\":2777:3223   */\n  iszero\n  tag_76\n  jumpi\n    /* \"#utility.yul\":2822:2860   */\n  tag_77\n    /* \"#utility.yul\":2854:2859   */\n  dup2\n    /* \"#utility.yul\":2822:2860   */\n  tag_22\n  jump\t// in\ntag_77:\n    /* \"#utility.yul\":2906:2935   */\n  tag_78\n    /* \"#utility.yul\":2924:2934   */\n  dup5\n    /* \"#utility.yul\":2906:2935   */\n  tag_23\n  jump\t// in\ntag_78:\n    /* \"#utility.yul\":2896:2904   */\n  dup2\n    /* \"#utility.yul\":2892:2936   */\n  add\n    /* \"#utility.yul\":3089:3091   */\n  0x20\n    /* \"#utility.yul\":3077:3087   */\n  dup6\n    /* \"#utility.yul\":3074:3092   */\n  lt\n    /* \"#utility.yul\":3071:3120   */\n  iszero\n  tag_79\n  jumpi\n    /* \"#utility.yul\":3110:3118   */\n  dup2\n    /* \"#utility.yul\":3095:3118   */\n  swap1\n  pop\n    /* \"#utility.yul\":3071:3120   */\ntag_79:\n    /* \"#utility.yul\":3133:3213   */\n  tag_80\n    /* \"#utility.yul\":3189:3211   */\n  tag_81\n    /* \"#utility.yul\":3207:3210   */\n  dup6\n    /* \"#utility.yul\":3189:3211   */\n  tag_23\n  jump\t// in\ntag_81:\n    /* \"#utility.yul\":3179:3187   */\n  dup4\n    /* \"#utility.yul\":3175:3212   */\n  add\n    /* \"#utility.yul\":3162:3173   */\n  dup3\n    /* \"#utility.yul\":3133:3213   */\n  tag_33\n  jump\t// in\ntag_80:\n    /* \"#utility.yul\":2792:3223   */\n  pop\n  pop\n    /* \"#utility.yul\":2777:3223   */\ntag_76:\n    /* \"#utility.yul\":2687:3230   */\n  pop\n  pop\n  pop\n  jump\t// out\n    /* \"#utility.yul\":3236:3353   */\ntag_35:\n    /* \"#utility.yul\":3290:3298   */\n  0x00\n    /* \"#utility.yul\":3340:3345   */\n  dup3\n    /* \"#utility.yul\":3334:3338   */\n  dup3\n    /* \"#utility.yul\":3330:3346   */\n  shr\n    /* \"#utility.yul\":3309:3346   */\n  swap1\n  pop\n    /* \"#utility.yul\":3236:3353   */\n  swap3\n  swap2\n  pop\n  pop\n  jump\t// out\n    /* \"#utility.yul\":3359:3528   */\ntag_36:\n    /* \"#utility.yul\":3403:3409   */\n  0x00\n    /* \"#utility.yul\":3436:3487   */\n  tag_84\n    /* \"#utility.yul\":3484:3485   */\n  0x00\n    /* \"#utility.yul\":3480:3486   */\n  not\n    /* \"#utility.yul\":3472:3477   */\n  dup5\n    /* \"#utility.yul\":3469:3470   */\n  0x08\n    /* \"#utility.yul\":3465:3478   */\n  mul\n    /* \"#utility.yul\":3436:3487   */\n  tag_35\n  jump\t// in\ntag_84:\n    /* \"#utility.yul\":3432:3488   */\n  not\n    /* \"#utility.yul\":3517:3521   */\n  dup1\n    /* \"#utility.yul\":3511:3515   */\n  dup4\n    /* \"#utility.yul\":3507:3522   */\n  and\n    /* \"#utility.yul\":3497:3522   */\n  swap2\n  pop\n    /* \"#utility.yul\":3410:3528   */\n  pop\n    /* \"#utility.yul\":3359:3528   */\n  swap3\n  swap2\n  pop\n  pop\n  jump\t// out\n    /* \"#utility.yul\":3533:3828   */\ntag_37:\n    /* \"#utility.yul\":3609:3613   */\n  0x00\n    /* \"#utility.yul\":3755:3784   */\n  tag_86\n    /* \"#utility.yul\":3780:3783   */\n  dup4\n    /* \"#utility.yul\":3774:3778   */\n  dup4\n    /* \"#utility.yul\":3755:3784   */\n  tag_36\n  jump\t// in\ntag_86:\n    /* \"#utility.yul\":3747:3784   */\n  swap2\n  pop\n    /* \"#utility.yul\":3817:3820   */\n  dup3\n    /* \"#utility.yul\":3814:3815   */\n  0x02\n    /* \"#utility.yul\":3810:3821   */\n  mul\n    /* \"#utility.yul\":3804:3808   */\n  dup3\n    /* \"#utility.yul\":3801:3822   */\n  or\n    /* \"#utility.yul\":3793:3822   */\n  swap1\n  pop\n    /* \"#utility.yul\":3533:3828   */\n  swap3\n  swap2\n  pop\n  pop\n  jump\t// out\n    /* \"#utility.yul\":3833:5228   */\ntag_7:\n    /* \"#utility.yul\":3950:3987   */\n  tag_88\n    /* \"#utility.yul\":3983:3986   */\n  dup3\n    /* \"#utility.yul\":3950:3987   */\n  tag_18\n  jump\t// in\ntag_88:\n    /* \"#utility.yul\":4052:4070   */\n  0xffffffffffffffff\n    /* \"#utility.yul\":4044:4050   */\n  dup2\n    /* \"#utility.yul\":4041:4071   */\n  gt\n    /* \"#utility.yul\":4038:4094   */\n  iszero\n  tag_89\n  jumpi\n    /* \"#utility.yul\":4074:4092   */\n  tag_90\n  tag_19\n  jump\t// in\ntag_90:\n    /* \"#utility.yul\":4038:4094   */\ntag_89:\n    /* \"#utility.yul\":4118:4156   */\n  tag_91\n    /* \"#utility.yul\":4150:4154   */\n  dup3\n    /* \"#utility.yul\":4144:4155   */\n  sload\n    /* \"#utility.yul\":4118:4156   */\n  tag_21\n  jump\t// in\ntag_91:\n    /* \"#utility.yul\":4203:4270   */\n  tag_92\n    /* \"#utility.yul\":4263:4269   */\n  dup3\n    /* \"#utility.yul\":4255:4261   */\n  dup3\n    /* \"#utility.yul\":4249:4253   */\n  dup6\n    /* \"#utility.yul\":4203:4270   */\n  tag_34\n  jump\t// in\ntag_92:\n    /* \"#utility.yul\":4297:4298   */\n  0x00\n    /* \"#utility.yul\":4321:4325   */\n  0x20\n    /* \"#utility.yul\":4308:4325   */\n  swap1\n  pop\n    /* \"#utility.yul\":4353:4355   */\n  0x1f\n    /* \"#utility.yul\":4345:4351   */\n  dup4\n    /* \"#utility.yul\":4342:4356   */\n  gt\n    /* \"#utility.yul\":4370:4371   */\n  0x01\n    /* \"#utility.yul\":4365:4983   */\n  dup2\n  eq\n  tag_94\n  jumpi\n    /* \"#utility.yul\":5027:5028   */\n  0x00\n    /* \"#utility.yul\":5044:5050   */\n  dup5\n    /* \"#utility.yul\":5041:5118   */\n  iszero\n  tag_95\n  jumpi\n    /* \"#utility.yul\":5093:5102   */\n  dup3\n    /* \"#utility.yul\":5088:5091   */\n  dup8\n    /* \"#utility.yul\":5084:5103   */\n  add\n    /* \"#utility.yul\":5078:5104   */\n  mload\n    /* \"#utility.yul\":5069:5104   */\n  swap1\n  pop\n    /* \"#utility.yul\":5041:5118   */\ntag_95:\n    /* \"#utility.yul\":5144:5211   */\n  tag_96\n    /* \"#utility.yul\":5204:5210   */\n  dup6\n    /* \"#utility.yul\":5197:5202   */\n  dup3\n    /* \"#utility.yul\":5144:5211   */\n  tag_37\n  jump\t// in\ntag_96:\n    /* \"#utility.yul\":5138:5142   */\n  dup7\n    /* \"#utility.yul\":5131:5212   */\n  sstore\n    /* \"#utility.yul\":5000:5222   */\n  pop\n    /* \"#utility.yul\":4335:5222   */\n  jump(tag_93)\n    /* \"#utility.yul\":4365:4983   */\ntag_94:\n    /* \"#utility.yul\":4417:4421   */\n  0x1f\n    /* \"#utility.yul\":4413:4422   */\n  not\n    /* \"#utility.yul\":4405:4411   */\n  dup5\n    /* \"#utility.yul\":4401:4423   */\n  and\n    /* \"#utility.yul\":4451:4488   */\n  tag_97\n    /* \"#utility.yul\":4483:4487   */\n  dup7\n    /* \"#utility.yul\":4451:4488   */\n  tag_22\n  jump\t// in\ntag_97:\n    /* \"#utility.yul\":4510:4511   */\n  0x00\n    /* \"#utility.yul\":4524:4732   */\ntag_98:\n    /* \"#utility.yul\":4538:4545   */\n  dup3\n    /* \"#utility.yul\":4535:4536   */\n  dup2\n    /* \"#utility.yul\":4532:4546   */\n  lt\n    /* \"#utility.yul\":4524:4732   */\n  iszero\n  tag_100\n  jumpi\n    /* \"#utility.yul\":4617:4626   */\n  dup5\n    /* \"#utility.yul\":4612:4615   */\n  dup10\n    /* \"#utility.yul\":4608:4627   */\n  add\n    /* \"#utility.yul\":4602:4628   */\n  mload\n    /* \"#utility.yul\":4594:4600   */\n  dup3\n    /* \"#utility.yul\":4587:4629   */\n  sstore\n    /* \"#utility.yul\":4668:4669   */\n  0x01\n    /* \"#utility.yul\":4660:4666   */\n  dup3\n    /* \"#utility.yul\":4656:4670   */\n  add\n    /* \"#utility.yul\":4646:4670   */\n  swap2\n  pop\n    /* \"#utility.yul\":4715:4717   */\n  0x20\n    /* \"#utility.yul\":4704:4713   */\n  dup6\n    /* \"#utility.yul\":4700:4718   */\n  add\n    /* \"#utility.yul\":4687:4718   */\n  swap5\n  pop\n    /* \"#utility.yul\":4561:4565   */\n  0x20\n    /* \"#utility.yul\":4558:4559   */\n  dup2\n    /* \"#utility.yul\":4554:4566   */\n  add\n    /* \"#utility.yul\":4549:4566   */\n  swap1\n  pop\n    /* \"#utility.yul\":4524:4732   */\n  jump(tag_98)\ntag_100:\n    /* \"#utility.yul\":4760:4766   */\n  dup7\n    /* \"#utility.yul\":4751:4758   */\n  dup4\n    /* \"#utility.yul\":4748:4767   */\n  lt\n    /* \"#utility.yul\":4745:4924   */\n  iszero\n  tag_101\n  jumpi\n    /* \"#utility.yul\":4818:4827   */\n  dup5\n    /* \"#utility.yul\":4813:4816   */\n  dup10\n    /* \"#utility.yul\":4809:4828   */\n  add\n    /* \"#utility.yul\":4803:4829   */\n  mload\n    /* \"#utility.yul\":4861:4909   */\n  tag_102\n    /* \"#utility.yul\":4903:4907   */\n  0x1f\n    /* \"#utility.yul\":4895:4901   */\n  dup10\n    /* \"#utility.yul\":4891:4908   */\n  and\n    /* \"#utility.yul\":4880:4889   */\n  dup3\n    /* \"#utility.yul\":4861:4909   */\n  tag_36\n  jump\t// in\ntag_102:\n    /* \"#utility.yul\":4853:4859   */\n  dup4\n    /* \"#utility.yul\":4846:4910   */\n  sstore\n    /* \"#utility.yul\":4768:4924   */\n  pop\n    /* \"#utility.yul\":4745:4924   */\ntag_101:\n    /* \"#utility.yul\":4970:4971   */\n  0x01\n    /* \"#utility.yul\":4966:4967   */\n  0x02\n    /* \"#utility.yul\":4958:4964   */\n  dup9\n    /* \"#utility.yul\":4954:4968   */\n  mul\n    /* \"#utility.yul\":4950:4972   */\n  add\n    /* \"#utility.yul\":4944:4948   */\n  dup9\n    /* \"#utility.yul\":4937:4973   */\n  sstore\n    /* \"#utility.yul\":4372:4983   */\n  pop\n  pop\n  pop\n    /* \"#utility.yul\":4335:5222   */\ntag_93:\n  pop\n    /* \"#utility.yul\":3925:5228   */\n  pop\n  pop\n  pop\n    /* \"#utility.yul\":3833:5228   */\n  pop\n  pop\n  jump\t// out\n    /* \"#utility.yul\":5234:5360   */\ntag_38:\n    /* \"#utility.yul\":5271:5278   */\n  0x00\n    /* \"#utility.yul\":5311:5353   */\n  0xffffffffffffffffffffffffffffffffffffffff\n    /* \"#utility.yul\":5304:5309   */\n  dup3\n    /* \"#utility.yul\":5300:5354   */\n  and\n    /* \"#utility.yul\":5289:5354   */\n  swap1\n  pop\n    /* \"#utility.yul\":5234:5360   */\n  swap2\n  swap1\n  pop\n  jump\t// out\n    /* \"#utility.yul\":5366:5462   */\ntag_39:\n    /* \"#utility.yul\":5403:5410   */\n  0x00\n    /* \"#utility.yul\":5432:5456   */\n  tag_105\n    /* \"#utility.yul\":5450:5455   */\n  dup3\n    /* \"#utility.yul\":5432:5456   */\n  tag_38\n  jump\t// in\ntag_105:\n    /* \"#utility.yul\":5421:5456   */\n  swap1\n  pop\n    /* \"#utility.yul\":5366:5462   */\n  swap2\n  swap1\n  pop\n  jump\t// out\n    /* \"#utility.yul\":5468:5586   */\ntag_40:\n    /* \"#utility.yul\":5555:5579   */\n  tag_107\n    /* \"#utility.yul\":5573:5578   */\n  dup2\n    /* \"#utility.yul\":5555:5579   */\n  tag_39\n  jump\t// in\ntag_107:\n    /* \"#utility.yul\":5550:5553   */\n  dup3\n    /* \"#utility.yul\":5543:5580   */\n  mstore\n    /* \"#utility.yul\":5468:5586   */\n  pop\n  pop\n  jump\t// out\n    /* \"#utility.yul\":5592:5814   */\ntag_12:\n    /* \"#utility.yul\":5685:5689   */\n  0x00\n    /* \"#utility.yul\":5723:5725   */\n  0x20\n    /* \"#utility.yul\":5712:5721   */\n  dup3\n    /* \"#utility.yul\":5708:5726   */\n  add\n    /* \"#utility.yul\":5700:5726   */\n  swap1\n  pop\n    /* \"#utility.yul\":5736:5807   */\n  tag_109\n    /* \"#utility.yul\":5804:5805   */\n  0x00\n    /* \"#utility.yul\":5793:5802   */\n  dup4\n    /* \"#utility.yul\":5789:5806   */\n  add\n    /* \"#utility.yul\":5780:5786   */\n  dup5\n    /* \"#utility.yul\":5736:5807   */\n  tag_40\n  jump\t// in\ntag_109:\n    /* \"#utility.yul\":5592:5814   */\n  swap3\n  swap2\n  pop\n  pop\n  jump\t// out\n    /* \"NFTIncentives_flattened.sol\":59993:60801  contract IncentiveNFTs is ERC721URIStorage, Ownable(msg.sender){... */\ntag_16:\n  dataSize(sub_0)\n  dup1\n  dataOffset(sub_0)\n  0x00\n  codecopy\n  0x00\n  return\nstop\n\nsub_0: assembly {\n        /* \"NFTIncentives_flattened.sol\":59993:60801  contract IncentiveNFTs is ERC721URIStorage, Ownable(msg.sender){... */\n      mstore(0x40, 0x80)\n      callvalue\n      dup1\n      iszero\n      tag_1\n      jumpi\n      0x00\n      dup1\n      revert\n    tag_1:\n      pop\n      jumpi(tag_2, lt(calldatasize, 0x04))\n      shr(0xe0, calldataload(0x00))\n      dup1\n      0x8da5cb5b\n      gt\n      tag_23\n      jumpi\n      dup1\n      0xb88d4fde\n      gt\n      tag_24\n      jumpi\n      dup1\n      0xb88d4fde\n      eq\n      tag_18\n      jumpi\n      dup1\n      0xc87b56dd\n      eq\n      tag_19\n      jumpi\n      dup1\n      0xd85d3d27\n      eq\n      tag_20\n      jumpi\n      dup1\n      0xe985e9c5\n      eq\n      tag_21\n      jumpi\n      dup1\n      0xf2fde38b\n      eq\n      tag_22\n      jumpi\n      jump(tag_2)\n    tag_24:\n      dup1\n      0x8da5cb5b\n      eq\n      tag_13\n      jumpi\n      dup1\n      0x95d89b41\n      eq\n      tag_14\n      jumpi\n      dup1\n      0x9f181b5e\n      eq\n      tag_15\n      jumpi\n      dup1\n      0xa22cb465\n      eq\n      tag_16\n      jumpi\n      dup1\n      0xb876e3b6\n      eq\n      tag_17\n      jumpi\n      jump(tag_2)\n    tag_23:\n      dup1\n      0x42842e0e\n      gt\n      tag_25\n      jumpi\n      dup1\n      0x42842e0e\n      eq\n      tag_8\n      jumpi\n      dup1\n      0x5f53575f\n      eq\n      tag_9\n      jumpi\n      dup1\n      0x6352211e\n      eq\n      tag_10\n      jumpi\n      dup1\n      0x70a08231\n      eq\n      tag_11\n      jumpi\n      dup1\n      0x715018a6\n      eq\n      tag_12\n      jumpi\n      jump(tag_2)\n    tag_25:\n      dup1\n      0x01ffc9a7\n      eq\n      tag_3\n      jumpi\n      dup1\n      0x06fdde03\n      eq\n      tag_4\n      jumpi\n      dup1\n      0x081812fc\n      eq\n      tag_5\n      jumpi\n      dup1\n      0x095ea7b3\n      eq\n      tag_6\n      jumpi\n      dup1\n      0x23b872dd\n      eq\n      tag_7\n      jumpi\n    tag_2:\n      0x00\n      dup1\n      revert\n        /* \"NFTIncentives_flattened.sol\":58739:58946  function supportsInterface(bytes4 interfaceId) public view virtual override(ERC721, IERC165) returns (bool) {... */\n    tag_3:\n      tag_26\n      0x04\n      dup1\n      calldatasize\n      sub\n      dup2\n      add\n      swap1\n      tag_27\n      swap2\n      swap1\n      tag_28\n      jump\t// in\n    tag_27:\n      tag_29\n      jump\t// in\n    tag_26:\n      mload(0x40)\n      tag_30\n      swap2\n      swap1\n      tag_31\n      jump\t// in\n    tag_30:\n      mload(0x40)\n      dup1\n      swap2\n      sub\n      swap1\n      return\n        /* \"NFTIncentives_flattened.sol\":41782:41871  function name() public view virtual returns (string memory) {... */\n    tag_4:\n      tag_32\n      tag_33\n      jump\t// in\n    tag_32:\n      mload(0x40)\n      tag_34\n      swap2\n      swap1\n      tag_35\n      jump\t// in\n    tag_34:\n      mload(0x40)\n      dup1\n      swap2\n      sub\n      swap1\n      return\n        /* \"NFTIncentives_flattened.sol\":42914:43068  function getApproved(uint256 tokenId) public view virtual returns (address) {... */\n    tag_5:\n      tag_36\n      0x04\n      dup1\n      calldatasize\n      sub\n      dup2\n      add\n      swap1\n      tag_37\n      swap2\n      swap1\n      tag_38\n      jump\t// in\n    tag_37:\n      tag_39\n      jump\t// in\n    tag_36:\n      mload(0x40)\n      tag_40\n      swap2\n      swap1\n      tag_41\n      jump\t// in\n    tag_40:\n      mload(0x40)\n      dup1\n      swap2\n      sub\n      swap1\n      return\n        /* \"NFTIncentives_flattened.sol\":42740:42853  function approve(address to, uint256 tokenId) public virtual {... */\n    tag_6:\n      tag_42\n      0x04\n      dup1\n      calldatasize\n      sub\n      dup2\n      add\n      swap1\n      tag_43\n      swap2\n      swap1\n      tag_44\n      jump\t// in\n    tag_43:\n      tag_45\n      jump\t// in\n    tag_42:\n      stop\n        /* \"NFTIncentives_flattened.sol\":43560:44138  function transferFrom(address from, address to, uint256 tokenId) public virtual {... */\n    tag_7:\n      tag_46\n      0x04\n      dup1\n      calldatasize\n      sub\n      dup2\n      add\n      swap1\n      tag_47\n      swap2\n      swap1\n      tag_48\n      jump\t// in\n    tag_47:\n      tag_49\n      jump\t// in\n    tag_46:\n      stop\n        /* \"NFTIncentives_flattened.sol\":44204:44336  function safeTransferFrom(address from, address to, uint256 tokenId) public {... */\n    tag_8:\n      tag_50\n      0x04\n      dup1\n      calldatasize\n      sub\n      dup2\n      add\n      swap1\n      tag_51\n      swap2\n      swap1\n      tag_48\n      jump\t// in\n    tag_51:\n      tag_52\n      jump\t// in\n    tag_50:\n      stop\n        /* \"NFTIncentives_flattened.sol\":60063:60088  IProgress public Progress */\n    tag_9:\n      tag_53\n      tag_54\n      jump\t// in\n    tag_53:\n      mload(0x40)\n      tag_55\n      swap2\n      swap1\n      tag_56\n      jump\t// in\n    tag_55:\n      mload(0x40)\n      dup1\n      swap2\n      sub\n      swap1\n      return\n        /* \"NFTIncentives_flattened.sol\":41602:41720  function ownerOf(uint256 tokenId) public view virtual returns (address) {... */\n    tag_10:\n      tag_57\n      0x04\n      dup1\n      calldatasize\n      sub\n      dup2\n      add\n      swap1\n      tag_58\n      swap2\n      swap1\n      tag_38\n      jump\t// in\n    tag_58:\n      tag_59\n      jump\t// in\n    tag_57:\n      mload(0x40)\n      tag_60\n      swap2\n      swap1\n      tag_41\n      jump\t// in\n    tag_60:\n      mload(0x40)\n      dup1\n      swap2\n      sub\n      swap1\n      return\n        /* \"NFTIncentives_flattened.sol\":41337:41545  function balanceOf(address owner) public view virtual returns (uint256) {... */\n    tag_11:\n      tag_61\n      0x04\n      dup1\n      calldatasize\n      sub\n      dup2\n      add\n      swap1\n      tag_62\n      swap2\n      swap1\n      tag_63\n      jump\t// in\n    tag_62:\n      tag_64\n      jump\t// in\n    tag_61:\n      mload(0x40)\n      tag_65\n      swap2\n      swap1\n      tag_66\n      jump\t// in\n    tag_65:\n      mload(0x40)\n      dup1\n      swap2\n      sub\n      swap1\n      return\n        /* \"NFTIncentives_flattened.sol\":29323:29424  function renounceOwnership() public virtual onlyOwner {... */\n    tag_12:\n      tag_67\n      tag_68\n      jump\t// in\n    tag_67:\n      stop\n        /* \"NFTIncentives_flattened.sol\":28668:28753  function owner() public view virtual returns (address) {... */\n    tag_13:\n      tag_69\n      tag_70\n      jump\t// in\n    tag_69:\n      mload(0x40)\n      tag_71\n      swap2\n      swap1\n      tag_41\n      jump\t// in\n    tag_71:\n      mload(0x40)\n      dup1\n      swap2\n      sub\n      swap1\n      return\n        /* \"NFTIncentives_flattened.sol\":41935:42028  function symbol() public view virtual returns (string memory) {... */\n    tag_14:\n      tag_72\n      tag_73\n      jump\t// in\n    tag_72:\n      mload(0x40)\n      tag_74\n      swap2\n      swap1\n      tag_35\n      jump\t// in\n    tag_74:\n      mload(0x40)\n      dup1\n      swap2\n      sub\n      swap1\n      return\n        /* \"NFTIncentives_flattened.sol\":60094:60116  uint public tokenCount */\n    tag_15:\n      tag_75\n      tag_76\n      jump\t// in\n    tag_75:\n      mload(0x40)\n      tag_77\n      swap2\n      swap1\n      tag_66\n      jump\t// in\n    tag_77:\n      mload(0x40)\n      dup1\n      swap2\n      sub\n      swap1\n      return\n        /* \"NFTIncentives_flattened.sol\":43135:43279  function setApprovalForAll(address operator, bool approved) public virtual {... */\n    tag_16:\n      tag_78\n      0x04\n      dup1\n      calldatasize\n      sub\n      dup2\n      add\n      swap1\n      tag_79\n      swap2\n      swap1\n      tag_80\n      jump\t// in\n    tag_79:\n      tag_81\n      jump\t// in\n    tag_78:\n      stop\n        /* \"NFTIncentives_flattened.sol\":60313:60425  function setProgressSC(address _progressSC) external onlyOwner{... */\n    tag_17:\n      tag_82\n      0x04\n      dup1\n      calldatasize\n      sub\n      dup2\n      add\n      swap1\n      tag_83\n      swap2\n      swap1\n      tag_63\n      jump\t// in\n    tag_83:\n      tag_84\n      jump\t// in\n    tag_82:\n      stop\n        /* \"NFTIncentives_flattened.sol\":44402:44610  function safeTransferFrom(address from, address to, uint256 tokenId, bytes memory data) public virtual {... */\n    tag_18:\n      tag_85\n      0x04\n      dup1\n      calldatasize\n      sub\n      dup2\n      add\n      swap1\n      tag_86\n      swap2\n      swap1\n      tag_87\n      jump\t// in\n    tag_86:\n      tag_88\n      jump\t// in\n    tag_85:\n      stop\n        /* \"NFTIncentives_flattened.sol\":59012:59605  function tokenURI(uint256 tokenId) public view virtual override returns (string memory) {... */\n    tag_19:\n      tag_89\n      0x04\n      dup1\n      calldatasize\n      sub\n      dup2\n      add\n      swap1\n      tag_90\n      swap2\n      swap1\n      tag_38\n      jump\t// in\n    tag_90:\n      tag_91\n      jump\t// in\n    tag_89:\n      mload(0x40)\n      tag_92\n      swap2\n      swap1\n      tag_35\n      jump\t// in\n    tag_92:\n      mload(0x40)\n      dup1\n      swap2\n      sub\n      swap1\n      return\n        /* \"NFTIncentives_flattened.sol\":60501:60797  function mint(string memory _tokenURI) external returns(uint){... */\n    tag_20:\n      tag_93\n      0x04\n      dup1\n      calldatasize\n      sub\n      dup2\n      add\n      swap1\n      tag_94\n      swap2\n      swap1\n      tag_95\n      jump\t// in\n    tag_94:\n      tag_96\n      jump\t// in\n    tag_93:\n      mload(0x40)\n      tag_97\n      swap2\n      swap1\n      tag_66\n      jump\t// in\n    tag_97:\n      mload(0x40)\n      dup1\n      swap2\n      sub\n      swap1\n      return\n        /* \"NFTIncentives_flattened.sol\":43345:43498  function isApprovedForAll(address owner, address operator) public view virtual returns (bool) {... */\n    tag_21:\n      tag_98\n      0x04\n      dup1\n      calldatasize\n      sub\n      dup2\n      add\n      swap1\n      tag_99\n      swap2\n      swap1\n      tag_100\n      jump\t// in\n    tag_99:\n      tag_101\n      jump\t// in\n    tag_98:\n      mload(0x40)\n      tag_102\n      swap2\n      swap1\n      tag_31\n      jump\t// in\n    tag_102:\n      mload(0x40)\n      dup1\n      swap2\n      sub\n      swap1\n      return\n        /* \"NFTIncentives_flattened.sol\":29573:29788  function transferOwnership(address newOwner) public virtual onlyOwner {... */\n    tag_22:\n      tag_103\n      0x04\n      dup1\n      calldatasize\n      sub\n      dup2\n      add\n      swap1\n      tag_104\n      swap2\n      swap1\n      tag_63\n      jump\t// in\n    tag_104:\n      tag_105\n      jump\t// in\n    tag_103:\n      stop\n        /* \"NFTIncentives_flattened.sol\":58739:58946  function supportsInterface(bytes4 interfaceId) public view virtual override(ERC721, IERC165) returns (bool) {... */\n    tag_29:\n        /* \"NFTIncentives_flattened.sol\":58841:58845  bool */\n      0x00\n        /* \"NFTIncentives_flattened.sol\":58562:58572  0x49064906 */\n      0x49064906\n        /* \"NFTIncentives_flattened.sol\":58555:58573  bytes4(0x49064906) */\n      0xe0\n      shl\n        /* \"NFTIncentives_flattened.sol\":58864:58899  interfaceId == ERC4906_INTERFACE_ID */\n      not(0xffffffffffffffffffffffffffffffffffffffffffffffffffffffff)\n      and\n        /* \"NFTIncentives_flattened.sol\":58864:58875  interfaceId */\n      dup3\n        /* \"NFTIncentives_flattened.sol\":58864:58899  interfaceId == ERC4906_INTERFACE_ID */\n      not(0xffffffffffffffffffffffffffffffffffffffffffffffffffffffff)\n      and\n      eq\n        /* \"NFTIncentives_flattened.sol\":58864:58939  interfaceId == ERC4906_INTERFACE_ID || super.supportsInterface(interfaceId) */\n      dup1\n      tag_107\n      jumpi\n      pop\n        /* \"NFTIncentives_flattened.sol\":58903:58939  super.supportsInterface(interfaceId) */\n      tag_108\n        /* \"NFTIncentives_flattened.sol\":58927:58938  interfaceId */\n      dup3\n        /* \"NFTIncentives_flattened.sol\":58903:58926  super.supportsInterface */\n      tag_109\n        /* \"NFTIncentives_flattened.sol\":58903:58939  super.supportsInterface(interfaceId) */\n      jump\t// in\n    tag_108:\n        /* \"NFTIncentives_flattened.sol\":58864:58939  interfaceId == ERC4906_INTERFACE_ID || super.supportsInterface(interfaceId) */\n    tag_107:\n        /* \"NFTIncentives_flattened.sol\":58857:58939  return interfaceId == ERC4906_INTERFACE_ID || super.supportsInterface(interfaceId) */\n      swap1\n      pop\n        /* \"NFTIncentives_flattened.sol\":58739:58946  function supportsInterface(bytes4 interfaceId) public view virtual override(ERC721, IERC165) returns (bool) {... */\n      swap2\n      swap1\n      pop\n      jump\t// out\n        /* \"NFTIncentives_flattened.sol\":41782:41871  function name() public view virtual returns (string memory) {... */\n    tag_33:\n        /* \"NFTIncentives_flattened.sol\":41827:41840  string memory */\n      0x60\n        /* \"NFTIncentives_flattened.sol\":41859:41864  _name */\n      0x00\n        /* \"NFTIncentives_flattened.sol\":41852:41864  return _name */\n      dup1\n      sload\n      tag_111\n      swap1\n      tag_112\n      jump\t// in\n    tag_111:\n      dup1\n      0x1f\n      add\n      0x20\n      dup1\n      swap2\n      div\n      mul\n      0x20\n      add\n      mload(0x40)\n      swap1\n      dup2\n      add\n      0x40\n      mstore\n      dup1\n      swap3\n      swap2\n      swap1\n      dup2\n      dup2\n      mstore\n      0x20\n      add\n      dup3\n      dup1\n      sload\n      tag_113\n      swap1\n      tag_112\n      jump\t// in\n    tag_113:\n      dup1\n      iszero\n      tag_114\n      jumpi\n      dup1\n      0x1f\n      lt\n      tag_115\n      jumpi\n      0x0100\n      dup1\n      dup4\n      sload\n      div\n      mul\n      dup4\n      mstore\n      swap2\n      0x20\n      add\n      swap2\n      jump(tag_114)\n    tag_115:\n      dup3\n      add\n      swap2\n      swap1\n      0x00\n      mstore\n      keccak256(0x00, 0x20)\n      swap1\n    tag_116:\n      dup2\n      sload\n      dup2\n      mstore\n      swap1\n      0x01\n      add\n      swap1\n      0x20\n      add\n      dup1\n      dup4\n      gt\n      tag_116\n      jumpi\n      dup3\n      swap1\n      sub\n      0x1f\n      and\n      dup3\n      add\n      swap2\n    tag_114:\n      pop\n      pop\n      pop\n      pop\n      pop\n      swap1\n      pop\n        /* \"NFTIncentives_flattened.sol\":41782:41871  function name() public view virtual returns (string memory) {... */\n      swap1\n      jump\t// out\n        /* \"NFTIncentives_flattened.sol\":42914:43068  function getApproved(uint256 tokenId) public view virtual returns (address) {... */\n    tag_39:\n        /* \"NFTIncentives_flattened.sol\":42981:42988  address */\n      0x00\n        /* \"NFTIncentives_flattened.sol\":43000:43022  _requireOwned(tokenId) */\n      tag_118\n        /* \"NFTIncentives_flattened.sol\":43014:43021  tokenId */\n      dup3\n        /* \"NFTIncentives_flattened.sol\":43000:43013  _requireOwned */\n      tag_119\n        /* \"NFTIncentives_flattened.sol\":43000:43022  _requireOwned(tokenId) */\n      jump\t// in\n    tag_118:\n      pop\n        /* \"NFTIncentives_flattened.sol\":43040:43061  _getApproved(tokenId) */\n      tag_120\n        /* \"NFTIncentives_flattened.sol\":43053:43060  tokenId */\n      dup3\n        /* \"NFTIncentives_flattened.sol\":43040:43052  _getApproved */\n      tag_121\n        /* \"NFTIncentives_flattened.sol\":43040:43061  _getApproved(tokenId) */\n      jump\t// in\n    tag_120:\n        /* \"NFTIncentives_flattened.sol\":43033:43061  return _getApproved(tokenId) */\n      swap1\n      pop\n        /* \"NFTIncentives_flattened.sol\":42914:43068  function getApproved(uint256 tokenId) public view virtual returns (address) {... */\n      swap2\n      swap1\n      pop\n      jump\t// out\n        /* \"NFTIncentives_flattened.sol\":42740:42853  function approve(address to, uint256 tokenId) public virtual {... */\n    tag_45:\n        /* \"NFTIncentives_flattened.sol\":42811:42846  _approve(to, tokenId, _msgSender()) */\n      tag_123\n        /* \"NFTIncentives_flattened.sol\":42820:42822  to */\n      dup3\n        /* \"NFTIncentives_flattened.sol\":42824:42831  tokenId */\n      dup3\n        /* \"NFTIncentives_flattened.sol\":42833:42845  _msgSender() */\n      tag_124\n        /* \"NFTIncentives_flattened.sol\":42833:42843  _msgSender */\n      tag_125\n        /* \"NFTIncentives_flattened.sol\":42833:42845  _msgSender() */\n      jump\t// in\n    tag_124:\n        /* \"NFTIncentives_flattened.sol\":42811:42819  _approve */\n      tag_126\n        /* \"NFTIncentives_flattened.sol\":42811:42846  _approve(to, tokenId, _msgSender()) */\n      jump\t// in\n    tag_123:\n        /* \"NFTIncentives_flattened.sol\":42740:42853  function approve(address to, uint256 tokenId) public virtual {... */\n      pop\n      pop\n      jump\t// out\n        /* \"NFTIncentives_flattened.sol\":43560:44138  function transferFrom(address from, address to, uint256 tokenId) public virtual {... */\n    tag_49:\n        /* \"NFTIncentives_flattened.sol\":43668:43669  0 */\n      0x00\n        /* \"NFTIncentives_flattened.sol\":43654:43670  to == address(0) */\n      0xffffffffffffffffffffffffffffffffffffffff\n      and\n        /* \"NFTIncentives_flattened.sol\":43654:43656  to */\n      dup3\n        /* \"NFTIncentives_flattened.sol\":43654:43670  to == address(0) */\n      0xffffffffffffffffffffffffffffffffffffffff\n      and\n      sub\n        /* \"NFTIncentives_flattened.sol\":43650:43737  if (to == address(0)) {... */\n      tag_128\n      jumpi\n        /* \"NFTIncentives_flattened.sol\":43723:43724  0 */\n      0x00\n        /* \"NFTIncentives_flattened.sol\":43693:43726  ERC721InvalidReceiver(address(0)) */\n      mload(0x40)\n      0x64a0ae9200000000000000000000000000000000000000000000000000000000\n      dup2\n      mstore\n      0x04\n      add\n      tag_129\n      swap2\n      swap1\n      tag_41\n      jump\t// in\n    tag_129:\n      mload(0x40)\n      dup1\n      swap2\n      sub\n      swap1\n      revert\n        /* \"NFTIncentives_flattened.sol\":43650:43737  if (to == address(0)) {... */\n    tag_128:\n        /* \"NFTIncentives_flattened.sol\":43955:43976  address previousOwner */\n      0x00\n        /* \"NFTIncentives_flattened.sol\":43979:44013  _update(to, tokenId, _msgSender()) */\n      tag_130\n        /* \"NFTIncentives_flattened.sol\":43987:43989  to */\n      dup4\n        /* \"NFTIncentives_flattened.sol\":43991:43998  tokenId */\n      dup4\n        /* \"NFTIncentives_flattened.sol\":44000:44012  _msgSender() */\n      tag_131\n        /* \"NFTIncentives_flattened.sol\":44000:44010  _msgSender */\n      tag_125\n        /* \"NFTIncentives_flattened.sol\":44000:44012  _msgSender() */\n      jump\t// in\n    tag_131:\n        /* \"NFTIncentives_flattened.sol\":43979:43986  _update */\n      tag_132\n        /* \"NFTIncentives_flattened.sol\":43979:44013  _update(to, tokenId, _msgSender()) */\n      jump\t// in\n    tag_130:\n        /* \"NFTIncentives_flattened.sol\":43955:44013  address previousOwner = _update(to, tokenId, _msgSender()) */\n      swap1\n      pop\n        /* \"NFTIncentives_flattened.sol\":44044:44048  from */\n      dup4\n        /* \"NFTIncentives_flattened.sol\":44027:44048  previousOwner != from */\n      0xffffffffffffffffffffffffffffffffffffffff\n      and\n        /* \"NFTIncentives_flattened.sol\":44027:44040  previousOwner */\n      dup2\n        /* \"NFTIncentives_flattened.sol\":44027:44048  previousOwner != from */\n      0xffffffffffffffffffffffffffffffffffffffff\n      and\n      eq\n        /* \"NFTIncentives_flattened.sol\":44023:44132  if (previousOwner != from) {... */\n      tag_133\n      jumpi\n        /* \"NFTIncentives_flattened.sol\":44092:44096  from */\n      dup4\n        /* \"NFTIncentives_flattened.sol\":44098:44105  tokenId */\n      dup3\n        /* \"NFTIncentives_flattened.sol\":44107:44120  previousOwner */\n      dup3\n        /* \"NFTIncentives_flattened.sol\":44071:44121  ERC721IncorrectOwner(from, tokenId, previousOwner) */\n      mload(0x40)\n      0x64283d7b00000000000000000000000000000000000000000000000000000000\n      dup2\n      mstore\n      0x04\n      add\n      tag_134\n      swap4\n      swap3\n      swap2\n      swap1\n      tag_135\n      jump\t// in\n    tag_134:\n      mload(0x40)\n      dup1\n      swap2\n      sub\n      swap1\n      revert\n        /* \"NFTIncentives_flattened.sol\":44023:44132  if (previousOwner != from) {... */\n    tag_133:\n        /* \"NFTIncentives_flattened.sol\":43640:44138  {... */\n      pop\n        /* \"NFTIncentives_flattened.sol\":43560:44138  function transferFrom(address from, address to, uint256 tokenId) public virtual {... */\n      pop\n      pop\n      pop\n      jump\t// out\n        /* \"NFTIncentives_flattened.sol\":44204:44336  function safeTransferFrom(address from, address to, uint256 tokenId) public {... */\n    tag_52:\n        /* \"NFTIncentives_flattened.sol\":44290:44329  safeTransferFrom(from, to, tokenId, \"\") */\n      tag_137\n        /* \"NFTIncentives_flattened.sol\":44307:44311  from */\n      dup4\n        /* \"NFTIncentives_flattened.sol\":44313:44315  to */\n      dup4\n        /* \"NFTIncentives_flattened.sol\":44317:44324  tokenId */\n      dup4\n        /* \"NFTIncentives_flattened.sol\":44290:44329  safeTransferFrom(from, to, tokenId, \"\") */\n      mload(0x40)\n      dup1\n      0x20\n      add\n      0x40\n      mstore\n      dup1\n      0x00\n      dup2\n      mstore\n      pop\n        /* \"NFTIncentives_flattened.sol\":44290:44306  safeTransferFrom */\n      tag_88\n        /* \"NFTIncentives_flattened.sol\":44290:44329  safeTransferFrom(from, to, tokenId, \"\") */\n      jump\t// in\n    tag_137:\n        /* \"NFTIncentives_flattened.sol\":44204:44336  function safeTransferFrom(address from, address to, uint256 tokenId) public {... */\n      pop\n      pop\n      pop\n      jump\t// out\n        /* \"NFTIncentives_flattened.sol\":60063:60088  IProgress public Progress */\n    tag_54:\n      0x08\n      0x00\n      swap1\n      sload\n      swap1\n      0x0100\n      exp\n      swap1\n      div\n      0xffffffffffffffffffffffffffffffffffffffff\n      and\n      dup2\n      jump\t// out\n        /* \"NFTIncentives_flattened.sol\":41602:41720  function ownerOf(uint256 tokenId) public view virtual returns (address) {... */\n    tag_59:\n        /* \"NFTIncentives_flattened.sol\":41665:41672  address */\n      0x00\n        /* \"NFTIncentives_flattened.sol\":41691:41713  _requireOwned(tokenId) */\n      tag_139\n        /* \"NFTIncentives_flattened.sol\":41705:41712  tokenId */\n      dup3\n        /* \"NFTIncentives_flattened.sol\":41691:41704  _requireOwned */\n      tag_119\n        /* \"NFTIncentives_flattened.sol\":41691:41713  _requireOwned(tokenId) */\n      jump\t// in\n    tag_139:\n        /* \"NFTIncentives_flattened.sol\":41684:41713  return _requireOwned(tokenId) */\n      swap1\n      pop\n        /* \"NFTIncentives_flattened.sol\":41602:41720  function ownerOf(uint256 tokenId) public view virtual returns (address) {... */\n      swap2\n      swap1\n      pop\n      jump\t// out\n        /* \"NFTIncentives_flattened.sol\":41337:41545  function balanceOf(address owner) public view virtual returns (uint256) {... */\n    tag_64:\n        /* \"NFTIncentives_flattened.sol\":41400:41407  uint256 */\n      0x00\n        /* \"NFTIncentives_flattened.sol\":41440:41441  0 */\n      dup1\n        /* \"NFTIncentives_flattened.sol\":41423:41442  owner == address(0) */\n      0xffffffffffffffffffffffffffffffffffffffff\n      and\n        /* \"NFTIncentives_flattened.sol\":41423:41428  owner */\n      dup3\n        /* \"NFTIncentives_flattened.sol\":41423:41442  owner == address(0) */\n      0xffffffffffffffffffffffffffffffffffffffff\n      and\n      sub\n        /* \"NFTIncentives_flattened.sol\":41419:41506  if (owner == address(0)) {... */\n      tag_141\n      jumpi\n        /* \"NFTIncentives_flattened.sol\":41492:41493  0 */\n      0x00\n        /* \"NFTIncentives_flattened.sol\":41465:41495  ERC721InvalidOwner(address(0)) */\n      mload(0x40)\n      0x89c62b6400000000000000000000000000000000000000000000000000000000\n      dup2\n      mstore\n      0x04\n      add\n      tag_142\n      swap2\n      swap1\n      tag_41\n      jump\t// in\n    tag_142:\n      mload(0x40)\n      dup1\n      swap2\n      sub\n      swap1\n      revert\n        /* \"NFTIncentives_flattened.sol\":41419:41506  if (owner == address(0)) {... */\n    tag_141:\n        /* \"NFTIncentives_flattened.sol\":41522:41531  _balances */\n      0x03\n        /* \"NFTIncentives_flattened.sol\":41522:41538  _balances[owner] */\n      0x00\n        /* \"NFTIncentives_flattened.sol\":41532:41537  owner */\n      dup4\n        /* \"NFTIncentives_flattened.sol\":41522:41538  _balances[owner] */\n      0xffffffffffffffffffffffffffffffffffffffff\n      and\n      0xffffffffffffffffffffffffffffffffffffffff\n      and\n      dup2\n      mstore\n      0x20\n      add\n      swap1\n      dup2\n      mstore\n      0x20\n      add\n      0x00\n      keccak256\n      sload\n        /* \"NFTIncentives_flattened.sol\":41515:41538  return _balances[owner] */\n      swap1\n      pop\n        /* \"NFTIncentives_flattened.sol\":41337:41545  function balanceOf(address owner) public view virtual returns (uint256) {... */\n      swap2\n      swap1\n      pop\n      jump\t// out\n        /* \"NFTIncentives_flattened.sol\":29323:29424  function renounceOwnership() public virtual onlyOwner {... */\n    tag_68:\n        /* \"NFTIncentives_flattened.sol\":28561:28574  _checkOwner() */\n      tag_144\n        /* \"NFTIncentives_flattened.sol\":28561:28572  _checkOwner */\n      tag_145\n        /* \"NFTIncentives_flattened.sol\":28561:28574  _checkOwner() */\n      jump\t// in\n    tag_144:\n        /* \"NFTIncentives_flattened.sol\":29387:29417  _transferOwnership(address(0)) */\n      tag_147\n        /* \"NFTIncentives_flattened.sol\":29414:29415  0 */\n      0x00\n        /* \"NFTIncentives_flattened.sol\":29387:29405  _transferOwnership */\n      tag_148\n        /* \"NFTIncentives_flattened.sol\":29387:29417  _transferOwnership(address(0)) */\n      jump\t// in\n    tag_147:\n        /* \"NFTIncentives_flattened.sol\":29323:29424  function renounceOwnership() public virtual onlyOwner {... */\n      jump\t// out\n        /* \"NFTIncentives_flattened.sol\":28668:28753  function owner() public view virtual returns (address) {... */\n    tag_70:\n        /* \"NFTIncentives_flattened.sol\":28714:28721  address */\n      0x00\n        /* \"NFTIncentives_flattened.sol\":28740:28746  _owner */\n      0x07\n      0x00\n      swap1\n      sload\n      swap1\n      0x0100\n      exp\n      swap1\n      div\n      0xffffffffffffffffffffffffffffffffffffffff\n      and\n        /* \"NFTIncentives_flattened.sol\":28733:28746  return _owner */\n      swap1\n      pop\n        /* \"NFTIncentives_flattened.sol\":28668:28753  function owner() public view virtual returns (address) {... */\n      swap1\n      jump\t// out\n        /* \"NFTIncentives_flattened.sol\":41935:42028  function symbol() public view virtual returns (string memory) {... */\n    tag_73:\n        /* \"NFTIncentives_flattened.sol\":41982:41995  string memory */\n      0x60\n        /* \"NFTIncentives_flattened.sol\":42014:42021  _symbol */\n      0x01\n        /* \"NFTIncentives_flattened.sol\":42007:42021  return _symbol */\n      dup1\n      sload\n      tag_151\n      swap1\n      tag_112\n      jump\t// in\n    tag_151:\n      dup1\n      0x1f\n      add\n      0x20\n      dup1\n      swap2\n      div\n      mul\n      0x20\n      add\n      mload(0x40)\n      swap1\n      dup2\n      add\n      0x40\n      mstore\n      dup1\n      swap3\n      swap2\n      swap1\n      dup2\n      dup2\n      mstore\n      0x20\n      add\n      dup3\n      dup1\n      sload\n      tag_152\n      swap1\n      tag_112\n      jump\t// in\n    tag_152:\n      dup1\n      iszero\n      tag_153\n      jumpi\n      dup1\n      0x1f\n      lt\n      tag_154\n      jumpi\n      0x0100\n      dup1\n      dup4\n      sload\n      div\n      mul\n      dup4\n      mstore\n      swap2\n      0x20\n      add\n      swap2\n      jump(tag_153)\n    tag_154:\n      dup3\n      add\n      swap2\n      swap1\n      0x00\n      mstore\n      keccak256(0x00, 0x20)\n      swap1\n    tag_155:\n      dup2\n      sload\n      dup2\n      mstore\n      swap1\n      0x01\n      add\n      swap1\n      0x20\n      add\n      dup1\n      dup4\n      gt\n      tag_155\n      jumpi\n      dup3\n      swap1\n      sub\n      0x1f\n      and\n      dup3\n      add\n      swap2\n    tag_153:\n      pop\n      pop\n      pop\n      pop\n      pop\n      swap1\n      pop\n        /* \"NFTIncentives_flattened.sol\":41935:42028  function symbol() public view virtual returns (string memory) {... */\n      swap1\n      jump\t// out\n        /* \"NFTIncentives_flattened.sol\":60094:60116  uint public tokenCount */\n    tag_76:\n      sload(0x09)\n      dup2\n      jump\t// out\n        /* \"NFTIncentives_flattened.sol\":43135:43279  function setApprovalForAll(address operator, bool approved) public virtual {... */\n    tag_81:\n        /* \"NFTIncentives_flattened.sol\":43220:43272  _setApprovalForAll(_msgSender(), operator, approved) */\n      tag_157\n        /* \"NFTIncentives_flattened.sol\":43239:43251  _msgSender() */\n      tag_158\n        /* \"NFTIncentives_flattened.sol\":43239:43249  _msgSender */\n      tag_125\n        /* \"NFTIncentives_flattened.sol\":43239:43251  _msgSender() */\n      jump\t// in\n    tag_158:\n        /* \"NFTIncentives_flattened.sol\":43253:43261  operator */\n      dup4\n        /* \"NFTIncentives_flattened.sol\":43263:43271  approved */\n      dup4\n        /* \"NFTIncentives_flattened.sol\":43220:43238  _setApprovalForAll */\n      tag_159\n        /* \"NFTIncentives_flattened.sol\":43220:43272  _setApprovalForAll(_msgSender(), operator, approved) */\n      jump\t// in\n    tag_157:\n        /* \"NFTIncentives_flattened.sol\":43135:43279  function setApprovalForAll(address operator, bool approved) public virtual {... */\n      pop\n      pop\n      jump\t// out\n        /* \"NFTIncentives_flattened.sol\":60313:60425  function setProgressSC(address _progressSC) external onlyOwner{... */\n    tag_84:\n        /* \"NFTIncentives_flattened.sol\":28561:28574  _checkOwner() */\n      tag_161\n        /* \"NFTIncentives_flattened.sol\":28561:28572  _checkOwner */\n      tag_145\n        /* \"NFTIncentives_flattened.sol\":28561:28574  _checkOwner() */\n      jump\t// in\n    tag_161:\n        /* \"NFTIncentives_flattened.sol\":60406:60417  _progressSC */\n      dup1\n        /* \"NFTIncentives_flattened.sol\":60385:60393  Progress */\n      0x08\n      0x00\n        /* \"NFTIncentives_flattened.sol\":60385:60418  Progress = IProgress(_progressSC) */\n      0x0100\n      exp\n      dup2\n      sload\n      dup2\n      0xffffffffffffffffffffffffffffffffffffffff\n      mul\n      not\n      and\n      swap1\n      dup4\n      0xffffffffffffffffffffffffffffffffffffffff\n      and\n      mul\n      or\n      swap1\n      sstore\n      pop\n        /* \"NFTIncentives_flattened.sol\":60313:60425  function setProgressSC(address _progressSC) external onlyOwner{... */\n      pop\n      jump\t// out\n        /* \"NFTIncentives_flattened.sol\":44402:44610  function safeTransferFrom(address from, address to, uint256 tokenId, bytes memory data) public virtual {... */\n    tag_88:\n        /* \"NFTIncentives_flattened.sol\":44515:44546  transferFrom(from, to, tokenId) */\n      tag_164\n        /* \"NFTIncentives_flattened.sol\":44528:44532  from */\n      dup5\n        /* \"NFTIncentives_flattened.sol\":44534:44536  to */\n      dup5\n        /* \"NFTIncentives_flattened.sol\":44538:44545  tokenId */\n      dup5\n        /* \"NFTIncentives_flattened.sol\":44515:44527  transferFrom */\n      tag_49\n        /* \"NFTIncentives_flattened.sol\":44515:44546  transferFrom(from, to, tokenId) */\n      jump\t// in\n    tag_164:\n        /* \"NFTIncentives_flattened.sol\":44556:44603  _checkOnERC721Received(from, to, tokenId, data) */\n      tag_165\n        /* \"NFTIncentives_flattened.sol\":44579:44583  from */\n      dup5\n        /* \"NFTIncentives_flattened.sol\":44585:44587  to */\n      dup5\n        /* \"NFTIncentives_flattened.sol\":44589:44596  tokenId */\n      dup5\n        /* \"NFTIncentives_flattened.sol\":44598:44602  data */\n      dup5\n        /* \"NFTIncentives_flattened.sol\":44556:44578  _checkOnERC721Received */\n      tag_166\n        /* \"NFTIncentives_flattened.sol\":44556:44603  _checkOnERC721Received(from, to, tokenId, data) */\n      jump\t// in\n    tag_165:\n        /* \"NFTIncentives_flattened.sol\":44402:44610  function safeTransferFrom(address from, address to, uint256 tokenId, bytes memory data) public virtual {... */\n      pop\n      pop\n      pop\n      pop\n      jump\t// out\n        /* \"NFTIncentives_flattened.sol\":59012:59605  function tokenURI(uint256 tokenId) public view virtual override returns (string memory) {... */\n    tag_91:\n        /* \"NFTIncentives_flattened.sol\":59085:59098  string memory */\n      0x60\n        /* \"NFTIncentives_flattened.sol\":59110:59132  _requireOwned(tokenId) */\n      tag_168\n        /* \"NFTIncentives_flattened.sol\":59124:59131  tokenId */\n      dup3\n        /* \"NFTIncentives_flattened.sol\":59110:59123  _requireOwned */\n      tag_119\n        /* \"NFTIncentives_flattened.sol\":59110:59132  _requireOwned(tokenId) */\n      jump\t// in\n    tag_168:\n      pop\n        /* \"NFTIncentives_flattened.sol\":59143:59166  string memory _tokenURI */\n      0x00\n        /* \"NFTIncentives_flattened.sol\":59169:59179  _tokenURIs */\n      0x06\n        /* \"NFTIncentives_flattened.sol\":59169:59188  _tokenURIs[tokenId] */\n      0x00\n        /* \"NFTIncentives_flattened.sol\":59180:59187  tokenId */\n      dup5\n        /* \"NFTIncentives_flattened.sol\":59169:59188  _tokenURIs[tokenId] */\n      dup2\n      mstore\n      0x20\n      add\n      swap1\n      dup2\n      mstore\n      0x20\n      add\n      0x00\n      keccak256\n        /* \"NFTIncentives_flattened.sol\":59143:59188  string memory _tokenURI = _tokenURIs[tokenId] */\n      dup1\n      sload\n      tag_169\n      swap1\n      tag_112\n      jump\t// in\n    tag_169:\n      dup1\n      0x1f\n      add\n      0x20\n      dup1\n      swap2\n      div\n      mul\n      0x20\n      add\n      mload(0x40)\n      swap1\n      dup2\n      add\n      0x40\n      mstore\n      dup1\n      swap3\n      swap2\n      swap1\n      dup2\n      dup2\n      mstore\n      0x20\n      add\n      dup3\n      dup1\n      sload\n      tag_170\n      swap1\n      tag_112\n      jump\t// in\n    tag_170:\n      dup1\n      iszero\n      tag_171\n      jumpi\n      dup1\n      0x1f\n      lt\n      tag_172\n      jumpi\n      0x0100\n      dup1\n      dup4\n      sload\n      div\n      mul\n      dup4\n      mstore\n      swap2\n      0x20\n      add\n      swap2\n      jump(tag_171)\n    tag_172:\n      dup3\n      add\n      swap2\n      swap1\n      0x00\n      mstore\n      keccak256(0x00, 0x20)\n      swap1\n    tag_173:\n      dup2\n      sload\n      dup2\n      mstore\n      swap1\n      0x01\n      add\n      swap1\n      0x20\n      add\n      dup1\n      dup4\n      gt\n      tag_173\n      jumpi\n      dup3\n      swap1\n      sub\n      0x1f\n      and\n      dup3\n      add\n      swap2\n    tag_171:\n      pop\n      pop\n      pop\n      pop\n      pop\n      swap1\n      pop\n        /* \"NFTIncentives_flattened.sol\":59198:59216  string memory base */\n      0x00\n        /* \"NFTIncentives_flattened.sol\":59219:59229  _baseURI() */\n      tag_174\n        /* \"NFTIncentives_flattened.sol\":59219:59227  _baseURI */\n      tag_175\n        /* \"NFTIncentives_flattened.sol\":59219:59229  _baseURI() */\n      jump\t// in\n    tag_174:\n        /* \"NFTIncentives_flattened.sol\":59198:59229  string memory base = _baseURI() */\n      swap1\n      pop\n        /* \"NFTIncentives_flattened.sol\":59324:59325  0 */\n      0x00\n        /* \"NFTIncentives_flattened.sol\":59308:59312  base */\n      dup2\n        /* \"NFTIncentives_flattened.sol\":59302:59320  bytes(base).length */\n      mload\n        /* \"NFTIncentives_flattened.sol\":59302:59325  bytes(base).length == 0 */\n      sub\n        /* \"NFTIncentives_flattened.sol\":59298:59368  if (bytes(base).length == 0) {... */\n      tag_176\n      jumpi\n        /* \"NFTIncentives_flattened.sol\":59348:59357  _tokenURI */\n      dup2\n        /* \"NFTIncentives_flattened.sol\":59341:59357  return _tokenURI */\n      swap3\n      pop\n      pop\n      pop\n      jump(tag_167)\n        /* \"NFTIncentives_flattened.sol\":59298:59368  if (bytes(base).length == 0) {... */\n    tag_176:\n        /* \"NFTIncentives_flattened.sol\":59493:59494  0 */\n      0x00\n        /* \"NFTIncentives_flattened.sol\":59473:59482  _tokenURI */\n      dup3\n        /* \"NFTIncentives_flattened.sol\":59467:59490  bytes(_tokenURI).length */\n      mload\n        /* \"NFTIncentives_flattened.sol\":59467:59494  bytes(_tokenURI).length > 0 */\n      gt\n        /* \"NFTIncentives_flattened.sol\":59463:59558  if (bytes(_tokenURI).length > 0) {... */\n      iszero\n      tag_177\n      jumpi\n        /* \"NFTIncentives_flattened.sol\":59531:59535  base */\n      dup1\n        /* \"NFTIncentives_flattened.sol\":59537:59546  _tokenURI */\n      dup3\n        /* \"NFTIncentives_flattened.sol\":59517:59547  string.concat(base, _tokenURI) */\n      add(0x20, mload(0x40))\n      tag_178\n      swap3\n      swap2\n      swap1\n      tag_179\n      jump\t// in\n    tag_178:\n      mload(0x40)\n      0x20\n      dup2\n      dup4\n      sub\n      sub\n      dup2\n      mstore\n      swap1\n      0x40\n      mstore\n        /* \"NFTIncentives_flattened.sol\":59510:59547  return string.concat(base, _tokenURI) */\n      swap3\n      pop\n      pop\n      pop\n      jump(tag_167)\n        /* \"NFTIncentives_flattened.sol\":59463:59558  if (bytes(_tokenURI).length > 0) {... */\n    tag_177:\n        /* \"NFTIncentives_flattened.sol\":59575:59598  super.tokenURI(tokenId) */\n      tag_180\n        /* \"NFTIncentives_flattened.sol\":59590:59597  tokenId */\n      dup5\n        /* \"NFTIncentives_flattened.sol\":59575:59589  super.tokenURI */\n      tag_181\n        /* \"NFTIncentives_flattened.sol\":59575:59598  super.tokenURI(tokenId) */\n      jump\t// in\n    tag_180:\n        /* \"NFTIncentives_flattened.sol\":59568:59598  return super.tokenURI(tokenId) */\n      swap3\n      pop\n      pop\n      pop\n        /* \"NFTIncentives_flattened.sol\":59012:59605  function tokenURI(uint256 tokenId) public view virtual override returns (string memory) {... */\n    tag_167:\n      swap2\n      swap1\n      pop\n      jump\t// out\n        /* \"NFTIncentives_flattened.sol\":60501:60797  function mint(string memory _tokenURI) external returns(uint){... */\n    tag_96:\n        /* \"NFTIncentives_flattened.sol\":60557:60561  uint */\n      0x00\n        /* \"NFTIncentives_flattened.sol\":60602:60610  Progress */\n      0x08\n      0x00\n      swap1\n      sload\n      swap1\n      0x0100\n      exp\n      swap1\n      div\n      0xffffffffffffffffffffffffffffffffffffffff\n      and\n        /* \"NFTIncentives_flattened.sol\":60580:60611  msg.sender == address(Progress) */\n      0xffffffffffffffffffffffffffffffffffffffff\n      and\n        /* \"NFTIncentives_flattened.sol\":60580:60590  msg.sender */\n      caller\n        /* \"NFTIncentives_flattened.sol\":60580:60611  msg.sender == address(Progress) */\n      0xffffffffffffffffffffffffffffffffffffffff\n      and\n      eq\n        /* \"NFTIncentives_flattened.sol\":60572:60651  require(msg.sender == address(Progress), \"The caller cannot run this function\") */\n      tag_183\n      jumpi\n      mload(0x40)\n      0x08c379a000000000000000000000000000000000000000000000000000000000\n      dup2\n      mstore\n      0x04\n      add\n      tag_184\n      swap1\n      tag_185\n      jump\t// in\n    tag_184:\n      mload(0x40)\n      dup1\n      swap2\n      sub\n      swap1\n      revert\n    tag_183:\n        /* \"NFTIncentives_flattened.sol\":60661:60671  tokenCount */\n      0x09\n      0x00\n        /* \"NFTIncentives_flattened.sol\":60661:60673  tokenCount++ */\n      dup2\n      sload\n      dup1\n      swap3\n      swap2\n      swap1\n      tag_186\n      swap1\n      tag_187\n      jump\t// in\n    tag_186:\n      swap2\n      swap1\n      pop\n      sstore\n      pop\n        /* \"NFTIncentives_flattened.sol\":60683:60716  _safeMint(msg.sender, tokenCount) */\n      tag_188\n        /* \"NFTIncentives_flattened.sol\":60693:60703  msg.sender */\n      caller\n        /* \"NFTIncentives_flattened.sol\":60705:60715  tokenCount */\n      sload(0x09)\n        /* \"NFTIncentives_flattened.sol\":60683:60692  _safeMint */\n      tag_189\n        /* \"NFTIncentives_flattened.sol\":60683:60716  _safeMint(msg.sender, tokenCount) */\n      jump\t// in\n    tag_188:\n        /* \"NFTIncentives_flattened.sol\":60727:60762  _setTokenURI(tokenCount, _tokenURI) */\n      tag_190\n        /* \"NFTIncentives_flattened.sol\":60740:60750  tokenCount */\n      sload(0x09)\n        /* \"NFTIncentives_flattened.sol\":60752:60761  _tokenURI */\n      dup4\n        /* \"NFTIncentives_flattened.sol\":60727:60739  _setTokenURI */\n      tag_191\n        /* \"NFTIncentives_flattened.sol\":60727:60762  _setTokenURI(tokenCount, _tokenURI) */\n      jump\t// in\n    tag_190:\n        /* \"NFTIncentives_flattened.sol\":60779:60789  tokenCount */\n      sload(0x09)\n        /* \"NFTIncentives_flattened.sol\":60772:60790  return(tokenCount) */\n      swap1\n      pop\n        /* \"NFTIncentives_flattened.sol\":60501:60797  function mint(string memory _tokenURI) external returns(uint){... */\n      swap2\n      swap1\n      pop\n      jump\t// out\n        /* \"NFTIncentives_flattened.sol\":43345:43498  function isApprovedForAll(address owner, address operator) public view virtual returns (bool) {... */\n    tag_101:\n        /* \"NFTIncentives_flattened.sol\":43433:43437  bool */\n      0x00\n        /* \"NFTIncentives_flattened.sol\":43456:43474  _operatorApprovals */\n      0x05\n        /* \"NFTIncentives_flattened.sol\":43456:43481  _operatorApprovals[owner] */\n      0x00\n        /* \"NFTIncentives_flattened.sol\":43475:43480  owner */\n      dup5\n        /* \"NFTIncentives_flattened.sol\":43456:43481  _operatorApprovals[owner] */\n      0xffffffffffffffffffffffffffffffffffffffff\n      and\n      0xffffffffffffffffffffffffffffffffffffffff\n      and\n      dup2\n      mstore\n      0x20\n      add\n      swap1\n      dup2\n      mstore\n      0x20\n      add\n      0x00\n      keccak256\n        /* \"NFTIncentives_flattened.sol\":43456:43491  _operatorApprovals[owner][operator] */\n      0x00\n        /* \"NFTIncentives_flattened.sol\":43482:43490  operator */\n      dup4\n        /* \"NFTIncentives_flattened.sol\":43456:43491  _operatorApprovals[owner][operator] */\n      0xffffffffffffffffffffffffffffffffffffffff\n      and\n      0xffffffffffffffffffffffffffffffffffffffff\n      and\n      dup2\n      mstore\n      0x20\n      add\n      swap1\n      dup2\n      mstore\n      0x20\n      add\n      0x00\n      keccak256\n      0x00\n      swap1\n      sload\n      swap1\n      0x0100\n      exp\n      swap1\n      div\n      0xff\n      and\n        /* \"NFTIncentives_flattened.sol\":43449:43491  return _operatorApprovals[owner][operator] */\n      swap1\n      pop\n        /* \"NFTIncentives_flattened.sol\":43345:43498  function isApprovedForAll(address owner, address operator) public view virtual returns (bool) {... */\n      swap3\n      swap2\n      pop\n      pop\n      jump\t// out\n        /* \"NFTIncentives_flattened.sol\":29573:29788  function transferOwnership(address newOwner) public virtual onlyOwner {... */\n    tag_105:\n        /* \"NFTIncentives_flattened.sol\":28561:28574  _checkOwner() */\n      tag_194\n        /* \"NFTIncentives_flattened.sol\":28561:28572  _checkOwner */\n      tag_145\n        /* \"NFTIncentives_flattened.sol\":28561:28574  _checkOwner() */\n      jump\t// in\n    tag_194:\n        /* \"NFTIncentives_flattened.sol\":29677:29678  0 */\n      0x00\n        /* \"NFTIncentives_flattened.sol\":29657:29679  newOwner == address(0) */\n      0xffffffffffffffffffffffffffffffffffffffff\n      and\n        /* \"NFTIncentives_flattened.sol\":29657:29665  newOwner */\n      dup2\n        /* \"NFTIncentives_flattened.sol\":29657:29679  newOwner == address(0) */\n      0xffffffffffffffffffffffffffffffffffffffff\n      and\n      sub\n        /* \"NFTIncentives_flattened.sol\":29653:29744  if (newOwner == address(0)) {... */\n      tag_196\n      jumpi\n        /* \"NFTIncentives_flattened.sol\":29730:29731  0 */\n      0x00\n        /* \"NFTIncentives_flattened.sol\":29702:29733  OwnableInvalidOwner(address(0)) */\n      mload(0x40)\n      0x1e4fbdf700000000000000000000000000000000000000000000000000000000\n      dup2\n      mstore\n      0x04\n      add\n      tag_197\n      swap2\n      swap1\n      tag_41\n      jump\t// in\n    tag_197:\n      mload(0x40)\n      dup1\n      swap2\n      sub\n      swap1\n      revert\n        /* \"NFTIncentives_flattened.sol\":29653:29744  if (newOwner == address(0)) {... */\n    tag_196:\n        /* \"NFTIncentives_flattened.sol\":29753:29781  _transferOwnership(newOwner) */\n      tag_198\n        /* \"NFTIncentives_flattened.sol\":29772:29780  newOwner */\n      dup2\n        /* \"NFTIncentives_flattened.sol\":29753:29771  _transferOwnership */\n      tag_148\n        /* \"NFTIncentives_flattened.sol\":29753:29781  _transferOwnership(newOwner) */\n      jump\t// in\n    tag_198:\n        /* \"NFTIncentives_flattened.sol\":29573:29788  function transferOwnership(address newOwner) public virtual onlyOwner {... */\n      pop\n      jump\t// out\n        /* \"NFTIncentives_flattened.sol\":40978:41278  function supportsInterface(bytes4 interfaceId) public view virtual override(ERC165, IERC165) returns (bool) {... */\n    tag_109:\n        /* \"NFTIncentives_flattened.sol\":41080:41084  bool */\n      0x00\n        /* \"NFTIncentives_flattened.sol\":41130:41155  type(IERC721).interfaceId */\n      0x80ac58cd00000000000000000000000000000000000000000000000000000000\n        /* \"NFTIncentives_flattened.sol\":41115:41155  interfaceId == type(IERC721).interfaceId */\n      not(0xffffffffffffffffffffffffffffffffffffffffffffffffffffffff)\n      and\n        /* \"NFTIncentives_flattened.sol\":41115:41126  interfaceId */\n      dup3\n        /* \"NFTIncentives_flattened.sol\":41115:41155  interfaceId == type(IERC721).interfaceId */\n      not(0xffffffffffffffffffffffffffffffffffffffffffffffffffffffff)\n      and\n      eq\n        /* \"NFTIncentives_flattened.sol\":41115:41219  interfaceId == type(IERC721).interfaceId ||... */\n      dup1\n      tag_200\n      jumpi\n      pop\n        /* \"NFTIncentives_flattened.sol\":41186:41219  type(IERC721Metadata).interfaceId */\n      0x5b5e139f00000000000000000000000000000000000000000000000000000000\n        /* \"NFTIncentives_flattened.sol\":41171:41219  interfaceId == type(IERC721Metadata).interfaceId */\n      not(0xffffffffffffffffffffffffffffffffffffffffffffffffffffffff)\n      and\n        /* \"NFTIncentives_flattened.sol\":41171:41182  interfaceId */\n      dup3\n        /* \"NFTIncentives_flattened.sol\":41171:41219  interfaceId == type(IERC721Metadata).interfaceId */\n      not(0xffffffffffffffffffffffffffffffffffffffffffffffffffffffff)\n      and\n      eq\n        /* \"NFTIncentives_flattened.sol\":41115:41219  interfaceId == type(IERC721).interfaceId ||... */\n    tag_200:\n        /* \"NFTIncentives_flattened.sol\":41115:41271  interfaceId == type(IERC721).interfaceId ||... */\n      dup1\n      tag_201\n      jumpi\n      pop\n        /* \"NFTIncentives_flattened.sol\":41235:41271  super.supportsInterface(interfaceId) */\n      tag_202\n        /* \"NFTIncentives_flattened.sol\":41259:41270  interfaceId */\n      dup3\n        /* \"NFTIncentives_flattened.sol\":41235:41258  super.supportsInterface */\n      tag_203\n        /* \"NFTIncentives_flattened.sol\":41235:41271  super.supportsInterface(interfaceId) */\n      jump\t// in\n    tag_202:\n        /* \"NFTIncentives_flattened.sol\":41115:41271  interfaceId == type(IERC721).interfaceId ||... */\n    tag_201:\n        /* \"NFTIncentives_flattened.sol\":41096:41271  return... */\n      swap1\n      pop\n        /* \"NFTIncentives_flattened.sol\":40978:41278  function supportsInterface(bytes4 interfaceId) public view virtual override(ERC165, IERC165) returns (bool) {... */\n      swap2\n      swap1\n      pop\n      jump\t// out\n        /* \"NFTIncentives_flattened.sol\":55555:55796  function _requireOwned(uint256 tokenId) internal view returns (address) {... */\n    tag_119:\n        /* \"NFTIncentives_flattened.sol\":55618:55625  address */\n      0x00\n        /* \"NFTIncentives_flattened.sol\":55637:55650  address owner */\n      dup1\n        /* \"NFTIncentives_flattened.sol\":55653:55670  _ownerOf(tokenId) */\n      tag_205\n        /* \"NFTIncentives_flattened.sol\":55662:55669  tokenId */\n      dup4\n        /* \"NFTIncentives_flattened.sol\":55653:55661  _ownerOf */\n      tag_206\n        /* \"NFTIncentives_flattened.sol\":55653:55670  _ownerOf(tokenId) */\n      jump\t// in\n    tag_205:\n        /* \"NFTIncentives_flattened.sol\":55637:55670  address owner = _ownerOf(tokenId) */\n      swap1\n      pop\n        /* \"NFTIncentives_flattened.sol\":55701:55702  0 */\n      0x00\n        /* \"NFTIncentives_flattened.sol\":55684:55703  owner == address(0) */\n      0xffffffffffffffffffffffffffffffffffffffff\n      and\n        /* \"NFTIncentives_flattened.sol\":55684:55689  owner */\n      dup2\n        /* \"NFTIncentives_flattened.sol\":55684:55703  owner == address(0) */\n      0xffffffffffffffffffffffffffffffffffffffff\n      and\n      sub\n        /* \"NFTIncentives_flattened.sol\":55680:55768  if (owner == address(0)) {... */\n      tag_207\n      jumpi\n        /* \"NFTIncentives_flattened.sol\":55749:55756  tokenId */\n      dup3\n        /* \"NFTIncentives_flattened.sol\":55726:55757  ERC721NonexistentToken(tokenId) */\n      mload(0x40)\n      0x7e27328900000000000000000000000000000000000000000000000000000000\n      dup2\n      mstore\n      0x04\n      add\n      tag_208\n      swap2\n      swap1\n      tag_66\n      jump\t// in\n    tag_208:\n      mload(0x40)\n      dup1\n      swap2\n      sub\n      swap1\n      revert\n        /* \"NFTIncentives_flattened.sol\":55680:55768  if (owner == address(0)) {... */\n    tag_207:\n        /* \"NFTIncentives_flattened.sol\":55784:55789  owner */\n      dup1\n        /* \"NFTIncentives_flattened.sol\":55777:55789  return owner */\n      swap2\n      pop\n      pop\n        /* \"NFTIncentives_flattened.sol\":55555:55796  function _requireOwned(uint256 tokenId) internal view returns (address) {... */\n      swap2\n      swap1\n      pop\n      jump\t// out\n        /* \"NFTIncentives_flattened.sol\":45355:45482  function _getApproved(uint256 tokenId) internal view virtual returns (address) {... */\n    tag_121:\n        /* \"NFTIncentives_flattened.sol\":45425:45432  address */\n      0x00\n        /* \"NFTIncentives_flattened.sol\":45451:45466  _tokenApprovals */\n      0x04\n        /* \"NFTIncentives_flattened.sol\":45451:45475  _tokenApprovals[tokenId] */\n      0x00\n        /* \"NFTIncentives_flattened.sol\":45467:45474  tokenId */\n      dup4\n        /* \"NFTIncentives_flattened.sol\":45451:45475  _tokenApprovals[tokenId] */\n      dup2\n      mstore\n      0x20\n      add\n      swap1\n      dup2\n      mstore\n      0x20\n      add\n      0x00\n      keccak256\n      0x00\n      swap1\n      sload\n      swap1\n      0x0100\n      exp\n      swap1\n      div\n      0xffffffffffffffffffffffffffffffffffffffff\n      and\n        /* \"NFTIncentives_flattened.sol\":45444:45475  return _tokenApprovals[tokenId] */\n      swap1\n      pop\n        /* \"NFTIncentives_flattened.sol\":45355:45482  function _getApproved(uint256 tokenId) internal view virtual returns (address) {... */\n      swap2\n      swap1\n      pop\n      jump\t// out\n        /* \"NFTIncentives_flattened.sol\":26746:26842  function _msgSender() internal view virtual returns (address) {... */\n    tag_125:\n        /* \"NFTIncentives_flattened.sol\":26799:26806  address */\n      0x00\n        /* \"NFTIncentives_flattened.sol\":26825:26835  msg.sender */\n      caller\n        /* \"NFTIncentives_flattened.sol\":26818:26835  return msg.sender */\n      swap1\n      pop\n        /* \"NFTIncentives_flattened.sol\":26746:26842  function _msgSender() internal view virtual returns (address) {... */\n      swap1\n      jump\t// out\n        /* \"NFTIncentives_flattened.sol\":53835:53955  function _approve(address to, uint256 tokenId, address auth) internal {... */\n    tag_126:\n        /* \"NFTIncentives_flattened.sol\":53915:53948  _approve(to, tokenId, auth, true) */\n      tag_212\n        /* \"NFTIncentives_flattened.sol\":53924:53926  to */\n      dup4\n        /* \"NFTIncentives_flattened.sol\":53928:53935  tokenId */\n      dup4\n        /* \"NFTIncentives_flattened.sol\":53937:53941  auth */\n      dup4\n        /* \"NFTIncentives_flattened.sol\":53943:53947  true */\n      0x01\n        /* \"NFTIncentives_flattened.sol\":53915:53923  _approve */\n      tag_213\n        /* \"NFTIncentives_flattened.sol\":53915:53948  _approve(to, tokenId, auth, true) */\n      jump\t// in\n    tag_212:\n        /* \"NFTIncentives_flattened.sol\":53835:53955  function _approve(address to, uint256 tokenId, address auth) internal {... */\n      pop\n      pop\n      pop\n      jump\t// out\n        /* \"NFTIncentives_flattened.sol\":48255:49050  function _update(address to, uint256 tokenId, address auth) internal virtual returns (address) {... */\n    tag_132:\n        /* \"NFTIncentives_flattened.sol\":48341:48348  address */\n      0x00\n        /* \"NFTIncentives_flattened.sol\":48360:48372  address from */\n      dup1\n        /* \"NFTIncentives_flattened.sol\":48375:48392  _ownerOf(tokenId) */\n      tag_215\n        /* \"NFTIncentives_flattened.sol\":48384:48391  tokenId */\n      dup5\n        /* \"NFTIncentives_flattened.sol\":48375:48383  _ownerOf */\n      tag_206\n        /* \"NFTIncentives_flattened.sol\":48375:48392  _ownerOf(tokenId) */\n      jump\t// in\n    tag_215:\n        /* \"NFTIncentives_flattened.sol\":48360:48392  address from = _ownerOf(tokenId) */\n      swap1\n      pop\n        /* \"NFTIncentives_flattened.sol\":48468:48469  0 */\n      0x00\n        /* \"NFTIncentives_flattened.sol\":48452:48470  auth != address(0) */\n      0xffffffffffffffffffffffffffffffffffffffff\n      and\n        /* \"NFTIncentives_flattened.sol\":48452:48456  auth */\n      dup4\n        /* \"NFTIncentives_flattened.sol\":48452:48470  auth != address(0) */\n      0xffffffffffffffffffffffffffffffffffffffff\n      and\n      eq\n        /* \"NFTIncentives_flattened.sol\":48448:48534  if (auth != address(0)) {... */\n      tag_216\n      jumpi\n        /* \"NFTIncentives_flattened.sol\":48486:48523  _checkAuthorized(from, auth, tokenId) */\n      tag_217\n        /* \"NFTIncentives_flattened.sol\":48503:48507  from */\n      dup2\n        /* \"NFTIncentives_flattened.sol\":48509:48513  auth */\n      dup5\n        /* \"NFTIncentives_flattened.sol\":48515:48522  tokenId */\n      dup7\n        /* \"NFTIncentives_flattened.sol\":48486:48502  _checkAuthorized */\n      tag_218\n        /* \"NFTIncentives_flattened.sol\":48486:48523  _checkAuthorized(from, auth, tokenId) */\n      jump\t// in\n    tag_217:\n        /* \"NFTIncentives_flattened.sol\":48448:48534  if (auth != address(0)) {... */\n    tag_216:\n        /* \"NFTIncentives_flattened.sol\":48594:48595  0 */\n      0x00\n        /* \"NFTIncentives_flattened.sol\":48578:48596  from != address(0) */\n      0xffffffffffffffffffffffffffffffffffffffff\n      and\n        /* \"NFTIncentives_flattened.sol\":48578:48582  from */\n      dup2\n        /* \"NFTIncentives_flattened.sol\":48578:48596  from != address(0) */\n      0xffffffffffffffffffffffffffffffffffffffff\n      and\n      eq\n        /* \"NFTIncentives_flattened.sol\":48574:48830  if (from != address(0)) {... */\n      tag_219\n      jumpi\n        /* \"NFTIncentives_flattened.sol\":48694:48742  _approve(address(0), tokenId, address(0), false) */\n      tag_220\n        /* \"NFTIncentives_flattened.sol\":48711:48712  0 */\n      0x00\n        /* \"NFTIncentives_flattened.sol\":48715:48722  tokenId */\n      dup6\n        /* \"NFTIncentives_flattened.sol\":48732:48733  0 */\n      0x00\n        /* \"NFTIncentives_flattened.sol\":48736:48741  false */\n      dup1\n        /* \"NFTIncentives_flattened.sol\":48694:48702  _approve */\n      tag_213\n        /* \"NFTIncentives_flattened.sol\":48694:48742  _approve(address(0), tokenId, address(0), false) */\n      jump\t// in\n    tag_220:\n        /* \"NFTIncentives_flattened.sol\":48804:48805  1 */\n      0x01\n        /* \"NFTIncentives_flattened.sol\":48785:48794  _balances */\n      0x03\n        /* \"NFTIncentives_flattened.sol\":48785:48800  _balances[from] */\n      0x00\n        /* \"NFTIncentives_flattened.sol\":48795:48799  from */\n      dup4\n        /* \"NFTIncentives_flattened.sol\":48785:48800  _balances[from] */\n      0xffffffffffffffffffffffffffffffffffffffff\n      and\n      0xffffffffffffffffffffffffffffffffffffffff\n      and\n      dup2\n      mstore\n      0x20\n      add\n      swap1\n      dup2\n      mstore\n      0x20\n      add\n      0x00\n      keccak256\n      0x00\n        /* \"NFTIncentives_flattened.sol\":48785:48805  _balances[from] -= 1 */\n      dup3\n      dup3\n      sload\n      sub\n      swap3\n      pop\n      pop\n      dup2\n      swap1\n      sstore\n      pop\n        /* \"NFTIncentives_flattened.sol\":48574:48830  if (from != address(0)) {... */\n    tag_219:\n        /* \"NFTIncentives_flattened.sol\":48858:48859  0 */\n      0x00\n        /* \"NFTIncentives_flattened.sol\":48844:48860  to != address(0) */\n      0xffffffffffffffffffffffffffffffffffffffff\n      and\n        /* \"NFTIncentives_flattened.sol\":48844:48846  to */\n      dup6\n        /* \"NFTIncentives_flattened.sol\":48844:48860  to != address(0) */\n      0xffffffffffffffffffffffffffffffffffffffff\n      and\n      eq\n        /* \"NFTIncentives_flattened.sol\":48840:48947  if (to != address(0)) {... */\n      tag_221\n      jumpi\n        /* \"NFTIncentives_flattened.sol\":48921:48922  1 */\n      0x01\n        /* \"NFTIncentives_flattened.sol\":48904:48913  _balances */\n      0x03\n        /* \"NFTIncentives_flattened.sol\":48904:48917  _balances[to] */\n      0x00\n        /* \"NFTIncentives_flattened.sol\":48914:48916  to */\n      dup8\n        /* \"NFTIncentives_flattened.sol\":48904:48917  _balances[to] */\n      0xffffffffffffffffffffffffffffffffffffffff\n      and\n      0xffffffffffffffffffffffffffffffffffffffff\n      and\n      dup2\n      mstore\n      0x20\n      add\n      swap1\n      dup2\n      mstore\n      0x20\n      add\n      0x00\n      keccak256\n      0x00\n        /* \"NFTIncentives_flattened.sol\":48904:48922  _balances[to] += 1 */\n      dup3\n      dup3\n      sload\n      add\n      swap3\n      pop\n      pop\n      dup2\n      swap1\n      sstore\n      pop\n        /* \"NFTIncentives_flattened.sol\":48840:48947  if (to != address(0)) {... */\n    tag_221:\n        /* \"NFTIncentives_flattened.sol\":48976:48978  to */\n      dup5\n        /* \"NFTIncentives_flattened.sol\":48957:48964  _owners */\n      0x02\n        /* \"NFTIncentives_flattened.sol\":48957:48973  _owners[tokenId] */\n      0x00\n        /* \"NFTIncentives_flattened.sol\":48965:48972  tokenId */\n      dup7\n        /* \"NFTIncentives_flattened.sol\":48957:48973  _owners[tokenId] */\n      dup2\n      mstore\n      0x20\n      add\n      swap1\n      dup2\n      mstore\n      0x20\n      add\n      0x00\n      keccak256\n      0x00\n        /* \"NFTIncentives_flattened.sol\":48957:48978  _owners[tokenId] = to */\n      0x0100\n      exp\n      dup2\n      sload\n      dup2\n      0xffffffffffffffffffffffffffffffffffffffff\n      mul\n      not\n      and\n      swap1\n      dup4\n      0xffffffffffffffffffffffffffffffffffffffff\n      and\n      mul\n      or\n      swap1\n      sstore\n      pop\n        /* \"NFTIncentives_flattened.sol\":49013:49020  tokenId */\n      dup4\n        /* \"NFTIncentives_flattened.sol\":49009:49011  to */\n      dup6\n        /* \"NFTIncentives_flattened.sol\":48994:49021  Transfer(from, to, tokenId) */\n      0xffffffffffffffffffffffffffffffffffffffff\n      and\n        /* \"NFTIncentives_flattened.sol\":49003:49007  from */\n      dup3\n        /* \"NFTIncentives_flattened.sol\":48994:49021  Transfer(from, to, tokenId) */\n      0xffffffffffffffffffffffffffffffffffffffff\n      and\n      0xddf252ad1be2c89b69c2b068fc378daa952ba7f163c4a11628f55a4df523b3ef\n      mload(0x40)\n      mload(0x40)\n      dup1\n      swap2\n      sub\n      swap1\n      log4\n        /* \"NFTIncentives_flattened.sol\":49039:49043  from */\n      dup1\n        /* \"NFTIncentives_flattened.sol\":49032:49043  return from */\n      swap2\n      pop\n      pop\n        /* \"NFTIncentives_flattened.sol\":48255:49050  function _update(address to, uint256 tokenId, address auth) internal virtual returns (address) {... */\n      swap4\n      swap3\n      pop\n      pop\n      pop\n      jump\t// out\n        /* \"NFTIncentives_flattened.sol\":28826:28988  function _checkOwner() internal view virtual {... */\n    tag_145:\n        /* \"NFTIncentives_flattened.sol\":28896:28908  _msgSender() */\n      tag_223\n        /* \"NFTIncentives_flattened.sol\":28896:28906  _msgSender */\n      tag_125\n        /* \"NFTIncentives_flattened.sol\":28896:28908  _msgSender() */\n      jump\t// in\n    tag_223:\n        /* \"NFTIncentives_flattened.sol\":28885:28908  owner() != _msgSender() */\n      0xffffffffffffffffffffffffffffffffffffffff\n      and\n        /* \"NFTIncentives_flattened.sol\":28885:28892  owner() */\n      tag_224\n        /* \"NFTIncentives_flattened.sol\":28885:28890  owner */\n      tag_70\n        /* \"NFTIncentives_flattened.sol\":28885:28892  owner() */\n      jump\t// in\n    tag_224:\n        /* \"NFTIncentives_flattened.sol\":28885:28908  owner() != _msgSender() */\n      0xffffffffffffffffffffffffffffffffffffffff\n      and\n      eq\n        /* \"NFTIncentives_flattened.sol\":28881:28982  if (owner() != _msgSender()) {... */\n      tag_225\n      jumpi\n        /* \"NFTIncentives_flattened.sol\":28958:28970  _msgSender() */\n      tag_226\n        /* \"NFTIncentives_flattened.sol\":28958:28968  _msgSender */\n      tag_125\n        /* \"NFTIncentives_flattened.sol\":28958:28970  _msgSender() */\n      jump\t// in\n    tag_226:\n        /* \"NFTIncentives_flattened.sol\":28931:28971  OwnableUnauthorizedAccount(_msgSender()) */\n      mload(0x40)\n      0x118cdaa700000000000000000000000000000000000000000000000000000000\n      dup2\n      mstore\n      0x04\n      add\n      tag_227\n      swap2\n      swap1\n      tag_41\n      jump\t// in\n    tag_227:\n      mload(0x40)\n      dup1\n      swap2\n      sub\n      swap1\n      revert\n        /* \"NFTIncentives_flattened.sol\":28881:28982  if (owner() != _msgSender()) {... */\n    tag_225:\n        /* \"NFTIncentives_flattened.sol\":28826:28988  function _checkOwner() internal view virtual {... */\n      jump\t// out\n        /* \"NFTIncentives_flattened.sol\":29942:30129  function _transferOwnership(address newOwner) internal virtual {... */\n    tag_148:\n        /* \"NFTIncentives_flattened.sol\":30015:30031  address oldOwner */\n      0x00\n        /* \"NFTIncentives_flattened.sol\":30034:30040  _owner */\n      0x07\n      0x00\n      swap1\n      sload\n      swap1\n      0x0100\n      exp\n      swap1\n      div\n      0xffffffffffffffffffffffffffffffffffffffff\n      and\n        /* \"NFTIncentives_flattened.sol\":30015:30040  address oldOwner = _owner */\n      swap1\n      pop\n        /* \"NFTIncentives_flattened.sol\":30059:30067  newOwner */\n      dup2\n        /* \"NFTIncentives_flattened.sol\":30050:30056  _owner */\n      0x07\n      0x00\n        /* \"NFTIncentives_flattened.sol\":30050:30067  _owner = newOwner */\n      0x0100\n      exp\n      dup2\n      sload\n      dup2\n      0xffffffffffffffffffffffffffffffffffffffff\n      mul\n      not\n      and\n      swap1\n      dup4\n      0xffffffffffffffffffffffffffffffffffffffff\n      and\n      mul\n      or\n      swap1\n      sstore\n      pop\n        /* \"NFTIncentives_flattened.sol\":30113:30121  newOwner */\n      dup2\n        /* \"NFTIncentives_flattened.sol\":30082:30122  OwnershipTransferred(oldOwner, newOwner) */\n      0xffffffffffffffffffffffffffffffffffffffff\n      and\n        /* \"NFTIncentives_flattened.sol\":30103:30111  oldOwner */\n      dup2\n        /* \"NFTIncentives_flattened.sol\":30082:30122  OwnershipTransferred(oldOwner, newOwner) */\n      0xffffffffffffffffffffffffffffffffffffffff\n      and\n      0x8be0079c531659141344cd1fd0a4f28419497f9722a3daafe3b4186f6b6457e0\n      mload(0x40)\n      mload(0x40)\n      dup1\n      swap2\n      sub\n      swap1\n      log3\n        /* \"NFTIncentives_flattened.sol\":30005:30129  {... */\n      pop\n        /* \"NFTIncentives_flattened.sol\":29942:30129  function _transferOwnership(address newOwner) internal virtual {... */\n      pop\n      jump\t// out\n        /* \"NFTIncentives_flattened.sol\":55008:55320  function _setApprovalForAll(address owner, address operator, bool approved) internal virtual {... */\n    tag_159:\n        /* \"NFTIncentives_flattened.sol\":55135:55136  0 */\n      0x00\n        /* \"NFTIncentives_flattened.sol\":55115:55137  operator == address(0) */\n      0xffffffffffffffffffffffffffffffffffffffff\n      and\n        /* \"NFTIncentives_flattened.sol\":55115:55123  operator */\n      dup3\n        /* \"NFTIncentives_flattened.sol\":55115:55137  operator == address(0) */\n      0xffffffffffffffffffffffffffffffffffffffff\n      and\n      sub\n        /* \"NFTIncentives_flattened.sol\":55111:55202  if (operator == address(0)) {... */\n      tag_230\n      jumpi\n        /* \"NFTIncentives_flattened.sol\":55182:55190  operator */\n      dup2\n        /* \"NFTIncentives_flattened.sol\":55160:55191  ERC721InvalidOperator(operator) */\n      mload(0x40)\n      0x5b08ba1800000000000000000000000000000000000000000000000000000000\n      dup2\n      mstore\n      0x04\n      add\n      tag_231\n      swap2\n      swap1\n      tag_41\n      jump\t// in\n    tag_231:\n      mload(0x40)\n      dup1\n      swap2\n      sub\n      swap1\n      revert\n        /* \"NFTIncentives_flattened.sol\":55111:55202  if (operator == address(0)) {... */\n    tag_230:\n        /* \"NFTIncentives_flattened.sol\":55249:55257  approved */\n      dup1\n        /* \"NFTIncentives_flattened.sol\":55211:55229  _operatorApprovals */\n      0x05\n        /* \"NFTIncentives_flattened.sol\":55211:55236  _operatorApprovals[owner] */\n      0x00\n        /* \"NFTIncentives_flattened.sol\":55230:55235  owner */\n      dup6\n        /* \"NFTIncentives_flattened.sol\":55211:55236  _operatorApprovals[owner] */\n      0xffffffffffffffffffffffffffffffffffffffff\n      and\n      0xffffffffffffffffffffffffffffffffffffffff\n      and\n      dup2\n      mstore\n      0x20\n      add\n      swap1\n      dup2\n      mstore\n      0x20\n      add\n      0x00\n      keccak256\n        /* \"NFTIncentives_flattened.sol\":55211:55246  _operatorApprovals[owner][operator] */\n      0x00\n        /* \"NFTIncentives_flattened.sol\":55237:55245  operator */\n      dup5\n        /* \"NFTIncentives_flattened.sol\":55211:55246  _operatorApprovals[owner][operator] */\n      0xffffffffffffffffffffffffffffffffffffffff\n      and\n      0xffffffffffffffffffffffffffffffffffffffff\n      and\n      dup2\n      mstore\n      0x20\n      add\n      swap1\n      dup2\n      mstore\n      0x20\n      add\n      0x00\n      keccak256\n      0x00\n        /* \"NFTIncentives_flattened.sol\":55211:55257  _operatorApprovals[owner][operator] = approved */\n      0x0100\n      exp\n      dup2\n      sload\n      dup2\n      0xff\n      mul\n      not\n      and\n      swap1\n      dup4\n      iszero\n      iszero\n      mul\n      or\n      swap1\n      sstore\n      pop\n        /* \"NFTIncentives_flattened.sol\":55294:55302  operator */\n      dup2\n        /* \"NFTIncentives_flattened.sol\":55272:55313  ApprovalForAll(owner, operator, approved) */\n      0xffffffffffffffffffffffffffffffffffffffff\n      and\n        /* \"NFTIncentives_flattened.sol\":55287:55292  owner */\n      dup4\n        /* \"NFTIncentives_flattened.sol\":55272:55313  ApprovalForAll(owner, operator, approved) */\n      0xffffffffffffffffffffffffffffffffffffffff\n      and\n      0x17307eab39ab6107e8899845ad3d59bd9653f200f220920489ca2b5937696c31\n        /* \"NFTIncentives_flattened.sol\":55304:55312  approved */\n      dup4\n        /* \"NFTIncentives_flattened.sol\":55272:55313  ApprovalForAll(owner, operator, approved) */\n      mload(0x40)\n      tag_232\n      swap2\n      swap1\n      tag_31\n      jump\t// in\n    tag_232:\n      mload(0x40)\n      dup1\n      swap2\n      sub\n      swap1\n      log3\n        /* \"NFTIncentives_flattened.sol\":55008:55320  function _setApprovalForAll(address owner, address operator, bool approved) internal virtual {... */\n      pop\n      pop\n      pop\n      jump\t// out\n        /* \"NFTIncentives_flattened.sol\":56335:57117  function _checkOnERC721Received(address from, address to, uint256 tokenId, bytes memory data) private {... */\n    tag_166:\n        /* \"NFTIncentives_flattened.sol\":56468:56469  0 */\n      0x00\n        /* \"NFTIncentives_flattened.sol\":56451:56453  to */\n      dup4\n        /* \"NFTIncentives_flattened.sol\":56451:56465  to.code.length */\n      0xffffffffffffffffffffffffffffffffffffffff\n      and\n      extcodesize\n        /* \"NFTIncentives_flattened.sol\":56451:56469  to.code.length > 0 */\n      gt\n        /* \"NFTIncentives_flattened.sol\":56447:57111  if (to.code.length > 0) {... */\n      iszero\n      tag_234\n      jumpi\n        /* \"NFTIncentives_flattened.sol\":56505:56507  to */\n      dup3\n        /* \"NFTIncentives_flattened.sol\":56489:56525  IERC721Receiver(to).onERC721Received */\n      0xffffffffffffffffffffffffffffffffffffffff\n      and\n      0x150b7a02\n        /* \"NFTIncentives_flattened.sol\":56526:56538  _msgSender() */\n      tag_235\n        /* \"NFTIncentives_flattened.sol\":56526:56536  _msgSender */\n      tag_125\n        /* \"NFTIncentives_flattened.sol\":56526:56538  _msgSender() */\n      jump\t// in\n    tag_235:\n        /* \"NFTIncentives_flattened.sol\":56540:56544  from */\n      dup7\n        /* \"NFTIncentives_flattened.sol\":56546:56553  tokenId */\n      dup6\n        /* \"NFTIncentives_flattened.sol\":56555:56559  data */\n      dup6\n        /* \"NFTIncentives_flattened.sol\":56489:56560  IERC721Receiver(to).onERC721Received(_msgSender(), from, tokenId, data) */\n      mload(0x40)\n      dup6\n      0xffffffff\n      and\n      0xe0\n      shl\n      dup2\n      mstore\n      0x04\n      add\n      tag_236\n      swap5\n      swap4\n      swap3\n      swap2\n      swap1\n      tag_237\n      jump\t// in\n    tag_236:\n      0x20\n      mload(0x40)\n      dup1\n      dup4\n      sub\n      dup2\n      0x00\n      dup8\n      gas\n      call\n      swap3\n      pop\n      pop\n      pop\n      dup1\n      iszero\n      tag_238\n      jumpi\n      pop\n      mload(0x40)\n      returndatasize\n      not(0x1f)\n      0x1f\n      dup3\n      add\n      and\n      dup3\n      add\n      dup1\n      0x40\n      mstore\n      pop\n      dup2\n      add\n      swap1\n      tag_239\n      swap2\n      swap1\n      tag_240\n      jump\t// in\n    tag_239:\n      0x01\n    tag_238:\n        /* \"NFTIncentives_flattened.sol\":56485:57101  try IERC721Receiver(to).onERC721Received(_msgSender(), from, tokenId, data) returns (bytes4 retval) {... */\n      tag_241\n      jumpi\n      returndatasize\n      dup1\n      0x00\n      dup2\n      eq\n      tag_246\n      jumpi\n      mload(0x40)\n      swap2\n      pop\n      and(add(returndatasize, 0x3f), not(0x1f))\n      dup3\n      add\n      0x40\n      mstore\n      returndatasize\n      dup3\n      mstore\n      returndatasize\n      0x00\n      0x20\n      dup5\n      add\n      returndatacopy\n      jump(tag_245)\n    tag_246:\n      0x60\n      swap2\n      pop\n    tag_245:\n      pop\n        /* \"NFTIncentives_flattened.sol\":56815:56816  0 */\n      0x00\n        /* \"NFTIncentives_flattened.sol\":56798:56804  reason */\n      dup2\n        /* \"NFTIncentives_flattened.sol\":56798:56811  reason.length */\n      mload\n        /* \"NFTIncentives_flattened.sol\":56798:56816  reason.length == 0 */\n      sub\n        /* \"NFTIncentives_flattened.sol\":56794:57087  if (reason.length == 0) {... */\n      tag_247\n      jumpi\n        /* \"NFTIncentives_flattened.sol\":56869:56871  to */\n      dup4\n        /* \"NFTIncentives_flattened.sol\":56847:56872  ERC721InvalidReceiver(to) */\n      mload(0x40)\n      0x64a0ae9200000000000000000000000000000000000000000000000000000000\n      dup2\n      mstore\n      0x04\n      add\n      tag_248\n      swap2\n      swap1\n      tag_41\n      jump\t// in\n    tag_248:\n      mload(0x40)\n      dup1\n      swap2\n      sub\n      swap1\n      revert\n        /* \"NFTIncentives_flattened.sol\":56794:57087  if (reason.length == 0) {... */\n    tag_247:\n        /* \"NFTIncentives_flattened.sol\":57039:57045  reason */\n      dup1\n        /* \"NFTIncentives_flattened.sol\":57033:57046  mload(reason) */\n      mload\n        /* \"NFTIncentives_flattened.sol\":57024:57030  reason */\n      dup2\n        /* \"NFTIncentives_flattened.sol\":57020:57022  32 */\n      0x20\n        /* \"NFTIncentives_flattened.sol\":57016:57031  add(32, reason) */\n      add\n        /* \"NFTIncentives_flattened.sol\":57009:57047  revert(add(32, reason), mload(reason)) */\n      revert\n        /* \"NFTIncentives_flattened.sol\":56485:57101  try IERC721Receiver(to).onERC721Received(_msgSender(), from, tokenId, data) returns (bytes4 retval) {... */\n    tag_241:\n        /* \"NFTIncentives_flattened.sol\":56617:56658  IERC721Receiver.onERC721Received.selector */\n      shl(0xe0, 0x150b7a02)\n        /* \"NFTIncentives_flattened.sol\":56607:56658  retval != IERC721Receiver.onERC721Received.selector */\n      not(0xffffffffffffffffffffffffffffffffffffffffffffffffffffffff)\n      and\n        /* \"NFTIncentives_flattened.sol\":56607:56613  retval */\n      dup2\n        /* \"NFTIncentives_flattened.sol\":56607:56658  retval != IERC721Receiver.onERC721Received.selector */\n      not(0xffffffffffffffffffffffffffffffffffffffffffffffffffffffff)\n      and\n      eq\n        /* \"NFTIncentives_flattened.sol\":56603:56733  if (retval != IERC721Receiver.onERC721Received.selector) {... */\n      tag_251\n      jumpi\n        /* \"NFTIncentives_flattened.sol\":56711:56713  to */\n      dup4\n        /* \"NFTIncentives_flattened.sol\":56689:56714  ERC721InvalidReceiver(to) */\n      mload(0x40)\n      0x64a0ae9200000000000000000000000000000000000000000000000000000000\n      dup2\n      mstore\n      0x04\n      add\n      tag_252\n      swap2\n      swap1\n      tag_41\n      jump\t// in\n    tag_252:\n      mload(0x40)\n      dup1\n      swap2\n      sub\n      swap1\n      revert\n        /* \"NFTIncentives_flattened.sol\":56603:56733  if (retval != IERC721Receiver.onERC721Received.selector) {... */\n    tag_251:\n        /* \"NFTIncentives_flattened.sol\":56561:56747  returns (bytes4 retval) {... */\n      pop\n        /* \"NFTIncentives_flattened.sol\":56447:57111  if (to.code.length > 0) {... */\n    tag_234:\n        /* \"NFTIncentives_flattened.sol\":56335:57117  function _checkOnERC721Received(address from, address to, uint256 tokenId, bytes memory data) private {... */\n      pop\n      pop\n      pop\n      pop\n      jump\t// out\n        /* \"NFTIncentives_flattened.sol\":42591:42683  function _baseURI() internal view virtual returns (string memory) {... */\n    tag_175:\n        /* \"NFTIncentives_flattened.sol\":42642:42655  string memory */\n      0x60\n        /* \"NFTIncentives_flattened.sol\":42667:42676  return \"\" */\n      mload(0x40)\n      dup1\n      0x20\n      add\n      0x40\n      mstore\n      dup1\n      0x00\n      dup2\n      mstore\n      pop\n      swap1\n      pop\n        /* \"NFTIncentives_flattened.sol\":42591:42683  function _baseURI() internal view virtual returns (string memory) {... */\n      swap1\n      jump\t// out\n        /* \"NFTIncentives_flattened.sol\":42094:42349  function tokenURI(uint256 tokenId) public view virtual returns (string memory) {... */\n    tag_181:\n        /* \"NFTIncentives_flattened.sol\":42158:42171  string memory */\n      0x60\n        /* \"NFTIncentives_flattened.sol\":42183:42205  _requireOwned(tokenId) */\n      tag_255\n        /* \"NFTIncentives_flattened.sol\":42197:42204  tokenId */\n      dup3\n        /* \"NFTIncentives_flattened.sol\":42183:42196  _requireOwned */\n      tag_119\n        /* \"NFTIncentives_flattened.sol\":42183:42205  _requireOwned(tokenId) */\n      jump\t// in\n    tag_255:\n      pop\n        /* \"NFTIncentives_flattened.sol\":42216:42237  string memory baseURI */\n      0x00\n        /* \"NFTIncentives_flattened.sol\":42240:42250  _baseURI() */\n      tag_256\n        /* \"NFTIncentives_flattened.sol\":42240:42248  _baseURI */\n      tag_175\n        /* \"NFTIncentives_flattened.sol\":42240:42250  _baseURI() */\n      jump\t// in\n    tag_256:\n        /* \"NFTIncentives_flattened.sol\":42216:42250  string memory baseURI = _baseURI() */\n      swap1\n      pop\n        /* \"NFTIncentives_flattened.sol\":42291:42292  0 */\n      0x00\n        /* \"NFTIncentives_flattened.sol\":42273:42280  baseURI */\n      dup2\n        /* \"NFTIncentives_flattened.sol\":42267:42288  bytes(baseURI).length */\n      mload\n        /* \"NFTIncentives_flattened.sol\":42267:42292  bytes(baseURI).length > 0 */\n      gt\n        /* \"NFTIncentives_flattened.sol\":42267:42342  bytes(baseURI).length > 0 ? string.concat(baseURI, tokenId.toString()) : \"\" */\n      tag_257\n      jumpi\n      mload(0x40)\n      dup1\n      0x20\n      add\n      0x40\n      mstore\n      dup1\n      0x00\n      dup2\n      mstore\n      pop\n      jump(tag_258)\n    tag_257:\n        /* \"NFTIncentives_flattened.sol\":42309:42316  baseURI */\n      dup1\n        /* \"NFTIncentives_flattened.sol\":42318:42336  tokenId.toString() */\n      tag_259\n        /* \"NFTIncentives_flattened.sol\":42318:42325  tokenId */\n      dup5\n        /* \"NFTIncentives_flattened.sol\":42318:42334  tokenId.toString */\n      tag_260\n        /* \"NFTIncentives_flattened.sol\":42318:42336  tokenId.toString() */\n      jump\t// in\n    tag_259:\n        /* \"NFTIncentives_flattened.sol\":42295:42337  string.concat(baseURI, tokenId.toString()) */\n      add(0x20, mload(0x40))\n      tag_261\n      swap3\n      swap2\n      swap1\n      tag_179\n      jump\t// in\n    tag_261:\n      mload(0x40)\n      0x20\n      dup2\n      dup4\n      sub\n      sub\n      dup2\n      mstore\n      swap1\n      0x40\n      mstore\n        /* \"NFTIncentives_flattened.sol\":42267:42342  bytes(baseURI).length > 0 ? string.concat(baseURI, tokenId.toString()) : \"\" */\n    tag_258:\n        /* \"NFTIncentives_flattened.sol\":42260:42342  return bytes(baseURI).length > 0 ? string.concat(baseURI, tokenId.toString()) : \"\" */\n      swap2\n      pop\n      pop\n        /* \"NFTIncentives_flattened.sol\":42094:42349  function tokenURI(uint256 tokenId) public view virtual returns (string memory) {... */\n      swap2\n      swap1\n      pop\n      jump\t// out\n        /* \"NFTIncentives_flattened.sol\":50050:50150  function _safeMint(address to, uint256 tokenId) internal {... */\n    tag_189:\n        /* \"NFTIncentives_flattened.sol\":50117:50143  _safeMint(to, tokenId, \"\") */\n      tag_263\n        /* \"NFTIncentives_flattened.sol\":50127:50129  to */\n      dup3\n        /* \"NFTIncentives_flattened.sol\":50131:50138  tokenId */\n      dup3\n        /* \"NFTIncentives_flattened.sol\":50117:50143  _safeMint(to, tokenId, \"\") */\n      mload(0x40)\n      dup1\n      0x20\n      add\n      0x40\n      mstore\n      dup1\n      0x00\n      dup2\n      mstore\n      pop\n        /* \"NFTIncentives_flattened.sol\":50117:50126  _safeMint */\n      tag_264\n        /* \"NFTIncentives_flattened.sol\":50117:50143  _safeMint(to, tokenId, \"\") */\n      jump\t// in\n    tag_263:\n        /* \"NFTIncentives_flattened.sol\":50050:50150  function _safeMint(address to, uint256 tokenId) internal {... */\n      pop\n      pop\n      jump\t// out\n        /* \"NFTIncentives_flattened.sol\":59724:59891  function _setTokenURI(uint256 tokenId, string memory _tokenURI) internal virtual {... */\n    tag_191:\n        /* \"NFTIncentives_flattened.sol\":59837:59846  _tokenURI */\n      dup1\n        /* \"NFTIncentives_flattened.sol\":59815:59825  _tokenURIs */\n      0x06\n        /* \"NFTIncentives_flattened.sol\":59815:59834  _tokenURIs[tokenId] */\n      0x00\n        /* \"NFTIncentives_flattened.sol\":59826:59833  tokenId */\n      dup5\n        /* \"NFTIncentives_flattened.sol\":59815:59834  _tokenURIs[tokenId] */\n      dup2\n      mstore\n      0x20\n      add\n      swap1\n      dup2\n      mstore\n      0x20\n      add\n      0x00\n      keccak256\n        /* \"NFTIncentives_flattened.sol\":59815:59846  _tokenURIs[tokenId] = _tokenURI */\n      swap1\n      dup2\n      tag_266\n      swap2\n      swap1\n      tag_267\n      jump\t// in\n    tag_266:\n      pop\n        /* \"NFTIncentives_flattened.sol\":59861:59884  MetadataUpdate(tokenId) */\n      0xf8e1a15aba9398e019f0b49df1a4fde98ee17ae345cb5f6b5e2c27f5033e8ce7\n        /* \"NFTIncentives_flattened.sol\":59876:59883  tokenId */\n      dup3\n        /* \"NFTIncentives_flattened.sol\":59861:59884  MetadataUpdate(tokenId) */\n      mload(0x40)\n      tag_268\n      swap2\n      swap1\n      tag_66\n      jump\t// in\n    tag_268:\n      mload(0x40)\n      dup1\n      swap2\n      sub\n      swap1\n      log1\n        /* \"NFTIncentives_flattened.sol\":59724:59891  function _setTokenURI(uint256 tokenId, string memory _tokenURI) internal virtual {... */\n      pop\n      pop\n      jump\t// out\n        /* \"NFTIncentives_flattened.sol\":32986:33132  function supportsInterface(bytes4 interfaceId) public view virtual returns (bool) {... */\n    tag_203:\n        /* \"NFTIncentives_flattened.sol\":33062:33066  bool */\n      0x00\n        /* \"NFTIncentives_flattened.sol\":33100:33125  type(IERC165).interfaceId */\n      0x01ffc9a700000000000000000000000000000000000000000000000000000000\n        /* \"NFTIncentives_flattened.sol\":33085:33125  interfaceId == type(IERC165).interfaceId */\n      not(0xffffffffffffffffffffffffffffffffffffffffffffffffffffffff)\n      and\n        /* \"NFTIncentives_flattened.sol\":33085:33096  interfaceId */\n      dup3\n        /* \"NFTIncentives_flattened.sol\":33085:33125  interfaceId == type(IERC165).interfaceId */\n      not(0xffffffffffffffffffffffffffffffffffffffffffffffffffffffff)\n      and\n      eq\n        /* \"NFTIncentives_flattened.sol\":33078:33125  return interfaceId == type(IERC165).interfaceId */\n      swap1\n      pop\n        /* \"NFTIncentives_flattened.sol\":32986:33132  function supportsInterface(bytes4 interfaceId) public view virtual returns (bool) {... */\n      swap2\n      swap1\n      pop\n      jump\t// out\n        /* \"NFTIncentives_flattened.sol\":45124:45239  function _ownerOf(uint256 tokenId) internal view virtual returns (address) {... */\n    tag_206:\n        /* \"NFTIncentives_flattened.sol\":45190:45197  address */\n      0x00\n        /* \"NFTIncentives_flattened.sol\":45216:45223  _owners */\n      0x02\n        /* \"NFTIncentives_flattened.sol\":45216:45232  _owners[tokenId] */\n      0x00\n        /* \"NFTIncentives_flattened.sol\":45224:45231  tokenId */\n      dup4\n        /* \"NFTIncentives_flattened.sol\":45216:45232  _owners[tokenId] */\n      dup2\n      mstore\n      0x20\n      add\n      swap1\n      dup2\n      mstore\n      0x20\n      add\n      0x00\n      keccak256\n      0x00\n      swap1\n      sload\n      swap1\n      0x0100\n      exp\n      swap1\n      div\n      0xffffffffffffffffffffffffffffffffffffffff\n      and\n        /* \"NFTIncentives_flattened.sol\":45209:45232  return _owners[tokenId] */\n      swap1\n      pop\n        /* \"NFTIncentives_flattened.sol\":45124:45239  function _ownerOf(uint256 tokenId) internal view virtual returns (address) {... */\n      swap2\n      swap1\n      pop\n      jump\t// out\n        /* \"NFTIncentives_flattened.sol\":54137:54799  function _approve(address to, uint256 tokenId, address auth, bool emitEvent) internal virtual {... */\n    tag_213:\n        /* \"NFTIncentives_flattened.sol\":54297:54306  emitEvent */\n      dup1\n        /* \"NFTIncentives_flattened.sol\":54297:54328  emitEvent || auth != address(0) */\n      dup1\n      tag_272\n      jumpi\n      pop\n        /* \"NFTIncentives_flattened.sol\":54326:54327  0 */\n      0x00\n        /* \"NFTIncentives_flattened.sol\":54310:54328  auth != address(0) */\n      0xffffffffffffffffffffffffffffffffffffffff\n      and\n        /* \"NFTIncentives_flattened.sol\":54310:54314  auth */\n      dup3\n        /* \"NFTIncentives_flattened.sol\":54310:54328  auth != address(0) */\n      0xffffffffffffffffffffffffffffffffffffffff\n      and\n      eq\n      iszero\n        /* \"NFTIncentives_flattened.sol\":54297:54328  emitEvent || auth != address(0) */\n    tag_272:\n        /* \"NFTIncentives_flattened.sol\":54293:54753  if (emitEvent || auth != address(0)) {... */\n      iszero\n      tag_273\n      jumpi\n        /* \"NFTIncentives_flattened.sol\":54344:54357  address owner */\n      0x00\n        /* \"NFTIncentives_flattened.sol\":54360:54382  _requireOwned(tokenId) */\n      tag_274\n        /* \"NFTIncentives_flattened.sol\":54374:54381  tokenId */\n      dup5\n        /* \"NFTIncentives_flattened.sol\":54360:54373  _requireOwned */\n      tag_119\n        /* \"NFTIncentives_flattened.sol\":54360:54382  _requireOwned(tokenId) */\n      jump\t// in\n    tag_274:\n        /* \"NFTIncentives_flattened.sol\":54344:54382  address owner = _requireOwned(tokenId) */\n      swap1\n      pop\n        /* \"NFTIncentives_flattened.sol\":54526:54527  0 */\n      0x00\n        /* \"NFTIncentives_flattened.sol\":54510:54528  auth != address(0) */\n      0xffffffffffffffffffffffffffffffffffffffff\n      and\n        /* \"NFTIncentives_flattened.sol\":54510:54514  auth */\n      dup4\n        /* \"NFTIncentives_flattened.sol\":54510:54528  auth != address(0) */\n      0xffffffffffffffffffffffffffffffffffffffff\n      and\n      eq\n      iszero\n        /* \"NFTIncentives_flattened.sol\":54510:54545  auth != address(0) && owner != auth */\n      dup1\n      iszero\n      tag_275\n      jumpi\n      pop\n        /* \"NFTIncentives_flattened.sol\":54541:54545  auth */\n      dup3\n        /* \"NFTIncentives_flattened.sol\":54532:54545  owner != auth */\n      0xffffffffffffffffffffffffffffffffffffffff\n      and\n        /* \"NFTIncentives_flattened.sol\":54532:54537  owner */\n      dup2\n        /* \"NFTIncentives_flattened.sol\":54532:54545  owner != auth */\n      0xffffffffffffffffffffffffffffffffffffffff\n      and\n      eq\n      iszero\n        /* \"NFTIncentives_flattened.sol\":54510:54545  auth != address(0) && owner != auth */\n    tag_275:\n        /* \"NFTIncentives_flattened.sol\":54510:54579  auth != address(0) && owner != auth && !isApprovedForAll(owner, auth) */\n      dup1\n      iszero\n      tag_276\n      jumpi\n      pop\n        /* \"NFTIncentives_flattened.sol\":54550:54579  isApprovedForAll(owner, auth) */\n      tag_277\n        /* \"NFTIncentives_flattened.sol\":54567:54572  owner */\n      dup2\n        /* \"NFTIncentives_flattened.sol\":54574:54578  auth */\n      dup5\n        /* \"NFTIncentives_flattened.sol\":54550:54566  isApprovedForAll */\n      tag_101\n        /* \"NFTIncentives_flattened.sol\":54550:54579  isApprovedForAll(owner, auth) */\n      jump\t// in\n    tag_277:\n        /* \"NFTIncentives_flattened.sol\":54549:54579  !isApprovedForAll(owner, auth) */\n      iszero\n        /* \"NFTIncentives_flattened.sol\":54510:54579  auth != address(0) && owner != auth && !isApprovedForAll(owner, auth) */\n    tag_276:\n        /* \"NFTIncentives_flattened.sol\":54506:54648  if (auth != address(0) && owner != auth && !isApprovedForAll(owner, auth)) {... */\n      iszero\n      tag_278\n      jumpi\n        /* \"NFTIncentives_flattened.sol\":54628:54632  auth */\n      dup3\n        /* \"NFTIncentives_flattened.sol\":54606:54633  ERC721InvalidApprover(auth) */\n      mload(0x40)\n      0xa9fbf51f00000000000000000000000000000000000000000000000000000000\n      dup2\n      mstore\n      0x04\n      add\n      tag_279\n      swap2\n      swap1\n      tag_41\n      jump\t// in\n    tag_279:\n      mload(0x40)\n      dup1\n      swap2\n      sub\n      swap1\n      revert\n        /* \"NFTIncentives_flattened.sol\":54506:54648  if (auth != address(0) && owner != auth && !isApprovedForAll(owner, auth)) {... */\n    tag_278:\n        /* \"NFTIncentives_flattened.sol\":54666:54675  emitEvent */\n      dup2\n        /* \"NFTIncentives_flattened.sol\":54662:54743  if (emitEvent) {... */\n      iszero\n      tag_280\n      jumpi\n        /* \"NFTIncentives_flattened.sol\":54720:54727  tokenId */\n      dup4\n        /* \"NFTIncentives_flattened.sol\":54716:54718  to */\n      dup6\n        /* \"NFTIncentives_flattened.sol\":54700:54728  Approval(owner, to, tokenId) */\n      0xffffffffffffffffffffffffffffffffffffffff\n      and\n        /* \"NFTIncentives_flattened.sol\":54709:54714  owner */\n      dup3\n        /* \"NFTIncentives_flattened.sol\":54700:54728  Approval(owner, to, tokenId) */\n      0xffffffffffffffffffffffffffffffffffffffff\n      and\n      0x8c5be1e5ebec7d5bd14f71427d1e84f3dd0314c0f7b2291e5b200ac8c7c3b925\n      mload(0x40)\n      mload(0x40)\n      dup1\n      swap2\n      sub\n      swap1\n      log4\n        /* \"NFTIncentives_flattened.sol\":54662:54743  if (emitEvent) {... */\n    tag_280:\n        /* \"NFTIncentives_flattened.sol\":54330:54753  {... */\n      pop\n        /* \"NFTIncentives_flattened.sol\":54293:54753  if (emitEvent || auth != address(0)) {... */\n    tag_273:\n        /* \"NFTIncentives_flattened.sol\":54790:54792  to */\n      dup4\n        /* \"NFTIncentives_flattened.sol\":54763:54778  _tokenApprovals */\n      0x04\n        /* \"NFTIncentives_flattened.sol\":54763:54787  _tokenApprovals[tokenId] */\n      0x00\n        /* \"NFTIncentives_flattened.sol\":54779:54786  tokenId */\n      dup6\n        /* \"NFTIncentives_flattened.sol\":54763:54787  _tokenApprovals[tokenId] */\n      dup2\n      mstore\n      0x20\n      add\n      swap1\n      dup2\n      mstore\n      0x20\n      add\n      0x00\n      keccak256\n      0x00\n        /* \"NFTIncentives_flattened.sol\":54763:54792  _tokenApprovals[tokenId] = to */\n      0x0100\n      exp\n      dup2\n      sload\n      dup2\n      0xffffffffffffffffffffffffffffffffffffffff\n      mul\n      not\n      and\n      swap1\n      dup4\n      0xffffffffffffffffffffffffffffffffffffffff\n      and\n      mul\n      or\n      swap1\n      sstore\n      pop\n        /* \"NFTIncentives_flattened.sol\":54137:54799  function _approve(address to, uint256 tokenId, address auth, bool emitEvent) internal virtual {... */\n      pop\n      pop\n      pop\n      pop\n      jump\t// out\n        /* \"NFTIncentives_flattened.sol\":46499:46867  function _checkAuthorized(address owner, address spender, uint256 tokenId) internal view virtual {... */\n    tag_218:\n        /* \"NFTIncentives_flattened.sol\":46611:46649  _isAuthorized(owner, spender, tokenId) */\n      tag_282\n        /* \"NFTIncentives_flattened.sol\":46625:46630  owner */\n      dup4\n        /* \"NFTIncentives_flattened.sol\":46632:46639  spender */\n      dup4\n        /* \"NFTIncentives_flattened.sol\":46641:46648  tokenId */\n      dup4\n        /* \"NFTIncentives_flattened.sol\":46611:46624  _isAuthorized */\n      tag_283\n        /* \"NFTIncentives_flattened.sol\":46611:46649  _isAuthorized(owner, spender, tokenId) */\n      jump\t// in\n    tag_282:\n        /* \"NFTIncentives_flattened.sol\":46606:46861  if (!_isAuthorized(owner, spender, tokenId)) {... */\n      tag_284\n      jumpi\n        /* \"NFTIncentives_flattened.sol\":46686:46687  0 */\n      0x00\n        /* \"NFTIncentives_flattened.sol\":46669:46688  owner == address(0) */\n      0xffffffffffffffffffffffffffffffffffffffff\n      and\n        /* \"NFTIncentives_flattened.sol\":46669:46674  owner */\n      dup4\n        /* \"NFTIncentives_flattened.sol\":46669:46688  owner == address(0) */\n      0xffffffffffffffffffffffffffffffffffffffff\n      and\n      sub\n        /* \"NFTIncentives_flattened.sol\":46665:46851  if (owner == address(0)) {... */\n      tag_285\n      jumpi\n        /* \"NFTIncentives_flattened.sol\":46738:46745  tokenId */\n      dup1\n        /* \"NFTIncentives_flattened.sol\":46715:46746  ERC721NonexistentToken(tokenId) */\n      mload(0x40)\n      0x7e27328900000000000000000000000000000000000000000000000000000000\n      dup2\n      mstore\n      0x04\n      add\n      tag_286\n      swap2\n      swap1\n      tag_66\n      jump\t// in\n    tag_286:\n      mload(0x40)\n      dup1\n      swap2\n      sub\n      swap1\n      revert\n        /* \"NFTIncentives_flattened.sol\":46665:46851  if (owner == address(0)) {... */\n    tag_285:\n        /* \"NFTIncentives_flattened.sol\":46819:46826  spender */\n      dup2\n        /* \"NFTIncentives_flattened.sol\":46828:46835  tokenId */\n      dup2\n        /* \"NFTIncentives_flattened.sol\":46792:46836  ERC721InsufficientApproval(spender, tokenId) */\n      mload(0x40)\n      0x177e802f00000000000000000000000000000000000000000000000000000000\n      dup2\n      mstore\n      0x04\n      add\n      tag_288\n      swap3\n      swap2\n      swap1\n      tag_289\n      jump\t// in\n    tag_288:\n      mload(0x40)\n      dup1\n      swap2\n      sub\n      swap1\n      revert\n        /* \"NFTIncentives_flattened.sol\":46606:46861  if (!_isAuthorized(owner, spender, tokenId)) {... */\n    tag_284:\n        /* \"NFTIncentives_flattened.sol\":46499:46867  function _checkAuthorized(address owner, address spender, uint256 tokenId) internal view virtual {... */\n      pop\n      pop\n      pop\n      jump\t// out\n        /* \"NFTIncentives_flattened.sol\":23606:24304  function toString(uint256 value) internal pure returns (string memory) {... */\n    tag_260:\n        /* \"NFTIncentives_flattened.sol\":23662:23675  string memory */\n      0x60\n        /* \"NFTIncentives_flattened.sol\":23711:23725  uint256 length */\n      0x00\n        /* \"NFTIncentives_flattened.sol\":23748:23749  1 */\n      0x01\n        /* \"NFTIncentives_flattened.sol\":23728:23745  Math.log10(value) */\n      tag_291\n        /* \"NFTIncentives_flattened.sol\":23739:23744  value */\n      dup5\n        /* \"NFTIncentives_flattened.sol\":23728:23738  Math.log10 */\n      tag_292\n        /* \"NFTIncentives_flattened.sol\":23728:23745  Math.log10(value) */\n      jump\t// in\n    tag_291:\n        /* \"NFTIncentives_flattened.sol\":23728:23749  Math.log10(value) + 1 */\n      add\n        /* \"NFTIncentives_flattened.sol\":23711:23749  uint256 length = Math.log10(value) + 1 */\n      swap1\n      pop\n        /* \"NFTIncentives_flattened.sol\":23763:23783  string memory buffer */\n      0x00\n        /* \"NFTIncentives_flattened.sol\":23797:23803  length */\n      dup2\n        /* \"NFTIncentives_flattened.sol\":23786:23804  new string(length) */\n      0xffffffffffffffff\n      dup2\n      gt\n      iszero\n      tag_293\n      jumpi\n      tag_294\n      tag_295\n      jump\t// in\n    tag_294:\n    tag_293:\n      mload(0x40)\n      swap1\n      dup1\n      dup3\n      mstore\n      dup1\n      0x1f\n      add\n      not(0x1f)\n      and\n      0x20\n      add\n      dup3\n      add\n      0x40\n      mstore\n      dup1\n      iszero\n      tag_296\n      jumpi\n      dup2\n      0x20\n      add\n      0x01\n      dup3\n      mul\n      dup1\n      calldatasize\n      dup4\n      calldatacopy\n      dup1\n      dup3\n      add\n      swap2\n      pop\n      pop\n      swap1\n      pop\n    tag_296:\n      pop\n        /* \"NFTIncentives_flattened.sol\":23763:23804  string memory buffer = new string(length) */\n      swap1\n      pop\n        /* \"NFTIncentives_flattened.sol\":23818:23829  uint256 ptr */\n      0x00\n        /* \"NFTIncentives_flattened.sol\":23944:23950  length */\n      dup3\n        /* \"NFTIncentives_flattened.sol\":23940:23942  32 */\n      0x20\n        /* \"NFTIncentives_flattened.sol\":23936:23951  add(32, length) */\n      add\n        /* \"NFTIncentives_flattened.sol\":23928:23934  buffer */\n      dup3\n        /* \"NFTIncentives_flattened.sol\":23924:23952  add(buffer, add(32, length)) */\n      add\n        /* \"NFTIncentives_flattened.sol\":23917:23952  ptr := add(buffer, add(32, length)) */\n      swap1\n      pop\n        /* \"NFTIncentives_flattened.sol\":23979:24261  while (true) {... */\n    tag_297:\n        /* \"NFTIncentives_flattened.sol\":23986:23990  true */\n      0x01\n        /* \"NFTIncentives_flattened.sol\":23979:24261  while (true) {... */\n      iszero\n      tag_298\n      jumpi\n        /* \"NFTIncentives_flattened.sol\":24010:24015  ptr-- */\n      dup1\n      dup1\n      0x01\n      swap1\n      sub\n      swap2\n      pop\n      pop\n        /* \"NFTIncentives_flattened.sol\":24149:24159  HEX_DIGITS */\n      0x3031323334353637383961626364656600000000000000000000000000000000\n        /* \"NFTIncentives_flattened.sol\":24144:24146  10 */\n      0x0a\n        /* \"NFTIncentives_flattened.sol\":24137:24142  value */\n      dup7\n        /* \"NFTIncentives_flattened.sol\":24133:24147  mod(value, 10) */\n      mod\n        /* \"NFTIncentives_flattened.sol\":24128:24160  byte(mod(value, 10), HEX_DIGITS) */\n      byte\n        /* \"NFTIncentives_flattened.sol\":24123:24126  ptr */\n      dup2\n        /* \"NFTIncentives_flattened.sol\":24115:24161  mstore8(ptr, byte(mod(value, 10), HEX_DIGITS)) */\n      mstore8\n        /* \"NFTIncentives_flattened.sol\":24205:24207  10 */\n      0x0a\n        /* \"NFTIncentives_flattened.sol\":24196:24207  value /= 10 */\n      dup6\n      dup2\n      tag_299\n      jumpi\n      tag_300\n      tag_301\n      jump\t// in\n    tag_300:\n    tag_299:\n      div\n      swap5\n      pop\n        /* \"NFTIncentives_flattened.sol\":24238:24239  0 */\n      0x00\n        /* \"NFTIncentives_flattened.sol\":24229:24234  value */\n      dup6\n        /* \"NFTIncentives_flattened.sol\":24229:24239  value == 0 */\n      sub\n        /* \"NFTIncentives_flattened.sol\":23979:24261  while (true) {... */\n      tag_297\n        /* \"NFTIncentives_flattened.sol\":24225:24246  if (value == 0) break */\n      jumpi\n        /* \"NFTIncentives_flattened.sol\":23979:24261  while (true) {... */\n    tag_298:\n        /* \"NFTIncentives_flattened.sol\":24281:24287  buffer */\n      dup2\n        /* \"NFTIncentives_flattened.sol\":24274:24287  return buffer */\n      swap4\n      pop\n      pop\n      pop\n      pop\n        /* \"NFTIncentives_flattened.sol\":23606:24304  function toString(uint256 value) internal pure returns (string memory) {... */\n      swap2\n      swap1\n      pop\n      jump\t// out\n        /* \"NFTIncentives_flattened.sol\":50371:50553  function _safeMint(address to, uint256 tokenId, bytes memory data) internal virtual {... */\n    tag_264:\n        /* \"NFTIncentives_flattened.sol\":50465:50483  _mint(to, tokenId) */\n      tag_304\n        /* \"NFTIncentives_flattened.sol\":50471:50473  to */\n      dup4\n        /* \"NFTIncentives_flattened.sol\":50475:50482  tokenId */\n      dup4\n        /* \"NFTIncentives_flattened.sol\":50465:50470  _mint */\n      tag_305\n        /* \"NFTIncentives_flattened.sol\":50465:50483  _mint(to, tokenId) */\n      jump\t// in\n    tag_304:\n        /* \"NFTIncentives_flattened.sol\":50493:50546  _checkOnERC721Received(address(0), to, tokenId, data) */\n      tag_306\n        /* \"NFTIncentives_flattened.sol\":50524:50525  0 */\n      0x00\n        /* \"NFTIncentives_flattened.sol\":50528:50530  to */\n      dup5\n        /* \"NFTIncentives_flattened.sol\":50532:50539  tokenId */\n      dup5\n        /* \"NFTIncentives_flattened.sol\":50541:50545  data */\n      dup5\n        /* \"NFTIncentives_flattened.sol\":50493:50515  _checkOnERC721Received */\n      tag_166\n        /* \"NFTIncentives_flattened.sol\":50493:50546  _checkOnERC721Received(address(0), to, tokenId, data) */\n      jump\t// in\n    tag_306:\n        /* \"NFTIncentives_flattened.sol\":50371:50553  function _safeMint(address to, uint256 tokenId, bytes memory data) internal virtual {... */\n      pop\n      pop\n      pop\n      jump\t// out\n        /* \"NFTIncentives_flattened.sol\":45793:46065  function _isAuthorized(address owner, address spender, uint256 tokenId) internal view virtual returns (bool) {... */\n    tag_283:\n        /* \"NFTIncentives_flattened.sol\":45896:45900  bool */\n      0x00\n        /* \"NFTIncentives_flattened.sol\":45950:45951  0 */\n      dup1\n        /* \"NFTIncentives_flattened.sol\":45931:45952  spender != address(0) */\n      0xffffffffffffffffffffffffffffffffffffffff\n      and\n        /* \"NFTIncentives_flattened.sol\":45931:45938  spender */\n      dup4\n        /* \"NFTIncentives_flattened.sol\":45931:45952  spender != address(0) */\n      0xffffffffffffffffffffffffffffffffffffffff\n      and\n      eq\n      iszero\n        /* \"NFTIncentives_flattened.sol\":45931:46058  spender != address(0) &&... */\n      dup1\n      iszero\n      tag_308\n      jumpi\n      pop\n        /* \"NFTIncentives_flattened.sol\":45978:45985  spender */\n      dup3\n        /* \"NFTIncentives_flattened.sol\":45969:45985  owner == spender */\n      0xffffffffffffffffffffffffffffffffffffffff\n      and\n        /* \"NFTIncentives_flattened.sol\":45969:45974  owner */\n      dup5\n        /* \"NFTIncentives_flattened.sol\":45969:45985  owner == spender */\n      0xffffffffffffffffffffffffffffffffffffffff\n      and\n      eq\n        /* \"NFTIncentives_flattened.sol\":45969:46021  owner == spender || isApprovedForAll(owner, spender) */\n      dup1\n      tag_309\n      jumpi\n      pop\n        /* \"NFTIncentives_flattened.sol\":45989:46021  isApprovedForAll(owner, spender) */\n      tag_310\n        /* \"NFTIncentives_flattened.sol\":46006:46011  owner */\n      dup5\n        /* \"NFTIncentives_flattened.sol\":46013:46020  spender */\n      dup5\n        /* \"NFTIncentives_flattened.sol\":45989:46005  isApprovedForAll */\n      tag_101\n        /* \"NFTIncentives_flattened.sol\":45989:46021  isApprovedForAll(owner, spender) */\n      jump\t// in\n    tag_310:\n        /* \"NFTIncentives_flattened.sol\":45969:46021  owner == spender || isApprovedForAll(owner, spender) */\n    tag_309:\n        /* \"NFTIncentives_flattened.sol\":45969:46057  owner == spender || isApprovedForAll(owner, spender) || _getApproved(tokenId) == spender */\n      dup1\n      tag_311\n      jumpi\n      pop\n        /* \"NFTIncentives_flattened.sol\":46050:46057  spender */\n      dup3\n        /* \"NFTIncentives_flattened.sol\":46025:46057  _getApproved(tokenId) == spender */\n      0xffffffffffffffffffffffffffffffffffffffff\n      and\n        /* \"NFTIncentives_flattened.sol\":46025:46046  _getApproved(tokenId) */\n      tag_312\n        /* \"NFTIncentives_flattened.sol\":46038:46045  tokenId */\n      dup4\n        /* \"NFTIncentives_flattened.sol\":46025:46037  _getApproved */\n      tag_121\n        /* \"NFTIncentives_flattened.sol\":46025:46046  _getApproved(tokenId) */\n      jump\t// in\n    tag_312:\n        /* \"NFTIncentives_flattened.sol\":46025:46057  _getApproved(tokenId) == spender */\n      0xffffffffffffffffffffffffffffffffffffffff\n      and\n      eq\n        /* \"NFTIncentives_flattened.sol\":45969:46057  owner == spender || isApprovedForAll(owner, spender) || _getApproved(tokenId) == spender */\n    tag_311:\n        /* \"NFTIncentives_flattened.sol\":45931:46058  spender != address(0) &&... */\n    tag_308:\n        /* \"NFTIncentives_flattened.sol\":45912:46058  return... */\n      swap1\n      pop\n        /* \"NFTIncentives_flattened.sol\":45793:46065  function _isAuthorized(address owner, address spender, uint256 tokenId) internal view virtual returns (bool) {... */\n      swap4\n      swap3\n      pop\n      pop\n      pop\n      jump\t// out\n        /* \"NFTIncentives_flattened.sol\":20130:21046  function log10(uint256 value) internal pure returns (uint256) {... */\n    tag_292:\n        /* \"NFTIncentives_flattened.sol\":20183:20190  uint256 */\n      0x00\n        /* \"NFTIncentives_flattened.sol\":20202:20216  uint256 result */\n      dup1\n        /* \"NFTIncentives_flattened.sol\":20219:20220  0 */\n      0x00\n        /* \"NFTIncentives_flattened.sol\":20202:20220  uint256 result = 0 */\n      swap1\n      pop\n        /* \"NFTIncentives_flattened.sol\":20267:20275  10 ** 64 */\n      0x184f03e93ff9f4daa797ed6e38ed64bf6a1f010000000000000000\n        /* \"NFTIncentives_flattened.sol\":20258:20263  value */\n      dup4\n        /* \"NFTIncentives_flattened.sol\":20258:20275  value >= 10 ** 64 */\n      lt\n        /* \"NFTIncentives_flattened.sol\":20254:20357  if (value >= 10 ** 64) {... */\n      tag_314\n      jumpi\n        /* \"NFTIncentives_flattened.sol\":20304:20312  10 ** 64 */\n      0x184f03e93ff9f4daa797ed6e38ed64bf6a1f010000000000000000\n        /* \"NFTIncentives_flattened.sol\":20295:20312  value /= 10 ** 64 */\n      dup4\n      dup2\n      tag_315\n      jumpi\n      tag_316\n      tag_301\n      jump\t// in\n    tag_316:\n    tag_315:\n      div\n      swap3\n      pop\n        /* \"NFTIncentives_flattened.sol\":20340:20342  64 */\n      0x40\n        /* \"NFTIncentives_flattened.sol\":20330:20342  result += 64 */\n      dup2\n      add\n      swap1\n      pop\n        /* \"NFTIncentives_flattened.sol\":20254:20357  if (value >= 10 ** 64) {... */\n    tag_314:\n        /* \"NFTIncentives_flattened.sol\":20383:20391  10 ** 32 */\n      0x04ee2d6d415b85acef8100000000\n        /* \"NFTIncentives_flattened.sol\":20374:20379  value */\n      dup4\n        /* \"NFTIncentives_flattened.sol\":20374:20391  value >= 10 ** 32 */\n      lt\n        /* \"NFTIncentives_flattened.sol\":20370:20473  if (value >= 10 ** 32) {... */\n      tag_317\n      jumpi\n        /* \"NFTIncentives_flattened.sol\":20420:20428  10 ** 32 */\n      0x04ee2d6d415b85acef8100000000\n        /* \"NFTIncentives_flattened.sol\":20411:20428  value /= 10 ** 32 */\n      dup4\n      dup2\n      tag_318\n      jumpi\n      tag_319\n      tag_301\n      jump\t// in\n    tag_319:\n    tag_318:\n      div\n      swap3\n      pop\n        /* \"NFTIncentives_flattened.sol\":20456:20458  32 */\n      0x20\n        /* \"NFTIncentives_flattened.sol\":20446:20458  result += 32 */\n      dup2\n      add\n      swap1\n      pop\n        /* \"NFTIncentives_flattened.sol\":20370:20473  if (value >= 10 ** 32) {... */\n    tag_317:\n        /* \"NFTIncentives_flattened.sol\":20499:20507  10 ** 16 */\n      0x2386f26fc10000\n        /* \"NFTIncentives_flattened.sol\":20490:20495  value */\n      dup4\n        /* \"NFTIncentives_flattened.sol\":20490:20507  value >= 10 ** 16 */\n      lt\n        /* \"NFTIncentives_flattened.sol\":20486:20589  if (value >= 10 ** 16) {... */\n      tag_320\n      jumpi\n        /* \"NFTIncentives_flattened.sol\":20536:20544  10 ** 16 */\n      0x2386f26fc10000\n        /* \"NFTIncentives_flattened.sol\":20527:20544  value /= 10 ** 16 */\n      dup4\n      dup2\n      tag_321\n      jumpi\n      tag_322\n      tag_301\n      jump\t// in\n    tag_322:\n    tag_321:\n      div\n      swap3\n      pop\n        /* \"NFTIncentives_flattened.sol\":20572:20574  16 */\n      0x10\n        /* \"NFTIncentives_flattened.sol\":20562:20574  result += 16 */\n      dup2\n      add\n      swap1\n      pop\n        /* \"NFTIncentives_flattened.sol\":20486:20589  if (value >= 10 ** 16) {... */\n    tag_320:\n        /* \"NFTIncentives_flattened.sol\":20615:20622  10 ** 8 */\n      0x05f5e100\n        /* \"NFTIncentives_flattened.sol\":20606:20611  value */\n      dup4\n        /* \"NFTIncentives_flattened.sol\":20606:20622  value >= 10 ** 8 */\n      lt\n        /* \"NFTIncentives_flattened.sol\":20602:20702  if (value >= 10 ** 8) {... */\n      tag_323\n      jumpi\n        /* \"NFTIncentives_flattened.sol\":20651:20658  10 ** 8 */\n      0x05f5e100\n        /* \"NFTIncentives_flattened.sol\":20642:20658  value /= 10 ** 8 */\n      dup4\n      dup2\n      tag_324\n      jumpi\n      tag_325\n      tag_301\n      jump\t// in\n    tag_325:\n    tag_324:\n      div\n      swap3\n      pop\n        /* \"NFTIncentives_flattened.sol\":20686:20687  8 */\n      0x08\n        /* \"NFTIncentives_flattened.sol\":20676:20687  result += 8 */\n      dup2\n      add\n      swap1\n      pop\n        /* \"NFTIncentives_flattened.sol\":20602:20702  if (value >= 10 ** 8) {... */\n    tag_323:\n        /* \"NFTIncentives_flattened.sol\":20728:20735  10 ** 4 */\n      0x2710\n        /* \"NFTIncentives_flattened.sol\":20719:20724  value */\n      dup4\n        /* \"NFTIncentives_flattened.sol\":20719:20735  value >= 10 ** 4 */\n      lt\n        /* \"NFTIncentives_flattened.sol\":20715:20815  if (value >= 10 ** 4) {... */\n      tag_326\n      jumpi\n        /* \"NFTIncentives_flattened.sol\":20764:20771  10 ** 4 */\n      0x2710\n        /* \"NFTIncentives_flattened.sol\":20755:20771  value /= 10 ** 4 */\n      dup4\n      dup2\n      tag_327\n      jumpi\n      tag_328\n      tag_301\n      jump\t// in\n    tag_328:\n    tag_327:\n      div\n      swap3\n      pop\n        /* \"NFTIncentives_flattened.sol\":20799:20800  4 */\n      0x04\n        /* \"NFTIncentives_flattened.sol\":20789:20800  result += 4 */\n      dup2\n      add\n      swap1\n      pop\n        /* \"NFTIncentives_flattened.sol\":20715:20815  if (value >= 10 ** 4) {... */\n    tag_326:\n        /* \"NFTIncentives_flattened.sol\":20841:20848  10 ** 2 */\n      0x64\n        /* \"NFTIncentives_flattened.sol\":20832:20837  value */\n      dup4\n        /* \"NFTIncentives_flattened.sol\":20832:20848  value >= 10 ** 2 */\n      lt\n        /* \"NFTIncentives_flattened.sol\":20828:20928  if (value >= 10 ** 2) {... */\n      tag_329\n      jumpi\n        /* \"NFTIncentives_flattened.sol\":20877:20884  10 ** 2 */\n      0x64\n        /* \"NFTIncentives_flattened.sol\":20868:20884  value /= 10 ** 2 */\n      dup4\n      dup2\n      tag_330\n      jumpi\n      tag_331\n      tag_301\n      jump\t// in\n    tag_331:\n    tag_330:\n      div\n      swap3\n      pop\n        /* \"NFTIncentives_flattened.sol\":20912:20913  2 */\n      0x02\n        /* \"NFTIncentives_flattened.sol\":20902:20913  result += 2 */\n      dup2\n      add\n      swap1\n      pop\n        /* \"NFTIncentives_flattened.sol\":20828:20928  if (value >= 10 ** 2) {... */\n    tag_329:\n        /* \"NFTIncentives_flattened.sol\":20954:20961  10 ** 1 */\n      0x0a\n        /* \"NFTIncentives_flattened.sol\":20945:20950  value */\n      dup4\n        /* \"NFTIncentives_flattened.sol\":20945:20961  value >= 10 ** 1 */\n      lt\n        /* \"NFTIncentives_flattened.sol\":20941:21007  if (value >= 10 ** 1) {... */\n      tag_332\n      jumpi\n        /* \"NFTIncentives_flattened.sol\":20991:20992  1 */\n      0x01\n        /* \"NFTIncentives_flattened.sol\":20981:20992  result += 1 */\n      dup2\n      add\n      swap1\n      pop\n        /* \"NFTIncentives_flattened.sol\":20941:21007  if (value >= 10 ** 1) {... */\n    tag_332:\n        /* \"NFTIncentives_flattened.sol\":21033:21039  result */\n      dup1\n        /* \"NFTIncentives_flattened.sol\":21026:21039  return result */\n      swap2\n      pop\n      pop\n        /* \"NFTIncentives_flattened.sol\":20130:21046  function log10(uint256 value) internal pure returns (uint256) {... */\n      swap2\n      swap1\n      pop\n      jump\t// out\n        /* \"NFTIncentives_flattened.sol\":49372:49699  function _mint(address to, uint256 tokenId) internal {... */\n    tag_305:\n        /* \"NFTIncentives_flattened.sol\":49453:49454  0 */\n      0x00\n        /* \"NFTIncentives_flattened.sol\":49439:49455  to == address(0) */\n      0xffffffffffffffffffffffffffffffffffffffff\n      and\n        /* \"NFTIncentives_flattened.sol\":49439:49441  to */\n      dup3\n        /* \"NFTIncentives_flattened.sol\":49439:49455  to == address(0) */\n      0xffffffffffffffffffffffffffffffffffffffff\n      and\n      sub\n        /* \"NFTIncentives_flattened.sol\":49435:49522  if (to == address(0)) {... */\n      tag_334\n      jumpi\n        /* \"NFTIncentives_flattened.sol\":49508:49509  0 */\n      0x00\n        /* \"NFTIncentives_flattened.sol\":49478:49511  ERC721InvalidReceiver(address(0)) */\n      mload(0x40)\n      0x64a0ae9200000000000000000000000000000000000000000000000000000000\n      dup2\n      mstore\n      0x04\n      add\n      tag_335\n      swap2\n      swap1\n      tag_41\n      jump\t// in\n    tag_335:\n      mload(0x40)\n      dup1\n      swap2\n      sub\n      swap1\n      revert\n        /* \"NFTIncentives_flattened.sol\":49435:49522  if (to == address(0)) {... */\n    tag_334:\n        /* \"NFTIncentives_flattened.sol\":49531:49552  address previousOwner */\n      0x00\n        /* \"NFTIncentives_flattened.sol\":49555:49587  _update(to, tokenId, address(0)) */\n      tag_336\n        /* \"NFTIncentives_flattened.sol\":49563:49565  to */\n      dup4\n        /* \"NFTIncentives_flattened.sol\":49567:49574  tokenId */\n      dup4\n        /* \"NFTIncentives_flattened.sol\":49584:49585  0 */\n      0x00\n        /* \"NFTIncentives_flattened.sol\":49555:49562  _update */\n      tag_132\n        /* \"NFTIncentives_flattened.sol\":49555:49587  _update(to, tokenId, address(0)) */\n      jump\t// in\n    tag_336:\n        /* \"NFTIncentives_flattened.sol\":49531:49587  address previousOwner = _update(to, tokenId, address(0)) */\n      swap1\n      pop\n        /* \"NFTIncentives_flattened.sol\":49626:49627  0 */\n      0x00\n        /* \"NFTIncentives_flattened.sol\":49601:49628  previousOwner != address(0) */\n      0xffffffffffffffffffffffffffffffffffffffff\n      and\n        /* \"NFTIncentives_flattened.sol\":49601:49614  previousOwner */\n      dup2\n        /* \"NFTIncentives_flattened.sol\":49601:49628  previousOwner != address(0) */\n      0xffffffffffffffffffffffffffffffffffffffff\n      and\n      eq\n        /* \"NFTIncentives_flattened.sol\":49597:49693  if (previousOwner != address(0)) {... */\n      tag_337\n      jumpi\n        /* \"NFTIncentives_flattened.sol\":49679:49680  0 */\n      0x00\n        /* \"NFTIncentives_flattened.sol\":49651:49682  ERC721InvalidSender(address(0)) */\n      mload(0x40)\n      0x73c6ac6e00000000000000000000000000000000000000000000000000000000\n      dup2\n      mstore\n      0x04\n      add\n      tag_338\n      swap2\n      swap1\n      tag_41\n      jump\t// in\n    tag_338:\n      mload(0x40)\n      dup1\n      swap2\n      sub\n      swap1\n      revert\n        /* \"NFTIncentives_flattened.sol\":49597:49693  if (previousOwner != address(0)) {... */\n    tag_337:\n        /* \"NFTIncentives_flattened.sol\":49425:49699  {... */\n      pop\n        /* \"NFTIncentives_flattened.sol\":49372:49699  function _mint(address to, uint256 tokenId) internal {... */\n      pop\n      pop\n      jump\t// out\n        /* \"#utility.yul\":7:82   */\n    tag_339:\n        /* \"#utility.yul\":40:46   */\n      0x00\n        /* \"#utility.yul\":73:75   */\n      0x40\n        /* \"#utility.yul\":67:76   */\n      mload\n        /* \"#utility.yul\":57:76   */\n      swap1\n      pop\n        /* \"#utility.yul\":7:82   */\n      swap1\n      jump\t// out\n        /* \"#utility.yul\":88:205   */\n    tag_340:\n        /* \"#utility.yul\":197:198   */\n      0x00\n        /* \"#utility.yul\":194:195   */\n      dup1\n        /* \"#utility.yul\":187:199   */\n      revert\n        /* \"#utility.yul\":211:328   */\n    tag_341:\n        /* \"#utility.yul\":320:321   */\n      0x00\n        /* \"#utility.yul\":317:318   */\n      dup1\n        /* \"#utility.yul\":310:322   */\n      revert\n        /* \"#utility.yul\":334:483   */\n    tag_342:\n        /* \"#utility.yul\":370:377   */\n      0x00\n        /* \"#utility.yul\":410:476   */\n      0xffffffff00000000000000000000000000000000000000000000000000000000\n        /* \"#utility.yul\":403:408   */\n      dup3\n        /* \"#utility.yul\":399:477   */\n      and\n        /* \"#utility.yul\":388:477   */\n      swap1\n      pop\n        /* \"#utility.yul\":334:483   */\n      swap2\n      swap1\n      pop\n      jump\t// out\n        /* \"#utility.yul\":489:609   */\n    tag_343:\n        /* \"#utility.yul\":561:584   */\n      tag_409\n        /* \"#utility.yul\":578:583   */\n      dup2\n        /* \"#utility.yul\":561:584   */\n      tag_342\n      jump\t// in\n    tag_409:\n        /* \"#utility.yul\":554:559   */\n      dup2\n        /* \"#utility.yul\":551:585   */\n      eq\n        /* \"#utility.yul\":541:603   */\n      tag_410\n      jumpi\n        /* \"#utility.yul\":599:600   */\n      0x00\n        /* \"#utility.yul\":596:597   */\n      dup1\n        /* \"#utility.yul\":589:601   */\n      revert\n        /* \"#utility.yul\":541:603   */\n    tag_410:\n        /* \"#utility.yul\":489:609   */\n      pop\n      jump\t// out\n        /* \"#utility.yul\":615:752   */\n    tag_344:\n        /* \"#utility.yul\":660:665   */\n      0x00\n        /* \"#utility.yul\":698:704   */\n      dup2\n        /* \"#utility.yul\":685:705   */\n      calldataload\n        /* \"#utility.yul\":676:705   */\n      swap1\n      pop\n        /* \"#utility.yul\":714:746   */\n      tag_412\n        /* \"#utility.yul\":740:745   */\n      dup2\n        /* \"#utility.yul\":714:746   */\n      tag_343\n      jump\t// in\n    tag_412:\n        /* \"#utility.yul\":615:752   */\n      swap3\n      swap2\n      pop\n      pop\n      jump\t// out\n        /* \"#utility.yul\":758:1085   */\n    tag_28:\n        /* \"#utility.yul\":816:822   */\n      0x00\n        /* \"#utility.yul\":865:867   */\n      0x20\n        /* \"#utility.yul\":853:862   */\n      dup3\n        /* \"#utility.yul\":844:851   */\n      dup5\n        /* \"#utility.yul\":840:863   */\n      sub\n        /* \"#utility.yul\":836:868   */\n      slt\n        /* \"#utility.yul\":833:952   */\n      iszero\n      tag_414\n      jumpi\n        /* \"#utility.yul\":871:950   */\n      tag_415\n      tag_340\n      jump\t// in\n    tag_415:\n        /* \"#utility.yul\":833:952   */\n    tag_414:\n        /* \"#utility.yul\":991:992   */\n      0x00\n        /* \"#utility.yul\":1016:1068   */\n      tag_416\n        /* \"#utility.yul\":1060:1067   */\n      dup5\n        /* \"#utility.yul\":1051:1057   */\n      dup3\n        /* \"#utility.yul\":1040:1049   */\n      dup6\n        /* \"#utility.yul\":1036:1058   */\n      add\n        /* \"#utility.yul\":1016:1068   */\n      tag_344\n      jump\t// in\n    tag_416:\n        /* \"#utility.yul\":1006:1068   */\n      swap2\n      pop\n        /* \"#utility.yul\":962:1078   */\n      pop\n        /* \"#utility.yul\":758:1085   */\n      swap3\n      swap2\n      pop\n      pop\n      jump\t// out\n        /* \"#utility.yul\":1091:1181   */\n    tag_345:\n        /* \"#utility.yul\":1125:1132   */\n      0x00\n        /* \"#utility.yul\":1168:1173   */\n      dup2\n        /* \"#utility.yul\":1161:1174   */\n      iszero\n        /* \"#utility.yul\":1154:1175   */\n      iszero\n        /* \"#utility.yul\":1143:1175   */\n      swap1\n      pop\n        /* \"#utility.yul\":1091:1181   */\n      swap2\n      swap1\n      pop\n      jump\t// out\n        /* \"#utility.yul\":1187:1296   */\n    tag_346:\n        /* \"#utility.yul\":1268:1289   */\n      tag_419\n        /* \"#utility.yul\":1283:1288   */\n      dup2\n        /* \"#utility.yul\":1268:1289   */\n      tag_345\n      jump\t// in\n    tag_419:\n        /* \"#utility.yul\":1263:1266   */\n      dup3\n        /* \"#utility.yul\":1256:1290   */\n      mstore\n        /* \"#utility.yul\":1187:1296   */\n      pop\n      pop\n      jump\t// out\n        /* \"#utility.yul\":1302:1512   */\n    tag_31:\n        /* \"#utility.yul\":1389:1393   */\n      0x00\n        /* \"#utility.yul\":1427:1429   */\n      0x20\n        /* \"#utility.yul\":1416:1425   */\n      dup3\n        /* \"#utility.yul\":1412:1430   */\n      add\n        /* \"#utility.yul\":1404:1430   */\n      swap1\n      pop\n        /* \"#utility.yul\":1440:1505   */\n      tag_421\n        /* \"#utility.yul\":1502:1503   */\n      0x00\n        /* \"#utility.yul\":1491:1500   */\n      dup4\n        /* \"#utility.yul\":1487:1504   */\n      add\n        /* \"#utility.yul\":1478:1484   */\n      dup5\n        /* \"#utility.yul\":1440:1505   */\n      tag_346\n      jump\t// in\n    tag_421:\n        /* \"#utility.yul\":1302:1512   */\n      swap3\n      swap2\n      pop\n      pop\n      jump\t// out\n        /* \"#utility.yul\":1518:1617   */\n    tag_347:\n        /* \"#utility.yul\":1570:1576   */\n      0x00\n        /* \"#utility.yul\":1604:1609   */\n      dup2\n        /* \"#utility.yul\":1598:1610   */\n      mload\n        /* \"#utility.yul\":1588:1610   */\n      swap1\n      pop\n        /* \"#utility.yul\":1518:1617   */\n      swap2\n      swap1\n      pop\n      jump\t// out\n        /* \"#utility.yul\":1623:1792   */\n    tag_348:\n        /* \"#utility.yul\":1707:1718   */\n      0x00\n        /* \"#utility.yul\":1741:1747   */\n      dup3\n        /* \"#utility.yul\":1736:1739   */\n      dup3\n        /* \"#utility.yul\":1729:1748   */\n      mstore\n        /* \"#utility.yul\":1781:1785   */\n      0x20\n        /* \"#utility.yul\":1776:1779   */\n      dup3\n        /* \"#utility.yul\":1772:1786   */\n      add\n        /* \"#utility.yul\":1757:1786   */\n      swap1\n      pop\n        /* \"#utility.yul\":1623:1792   */\n      swap3\n      swap2\n      pop\n      pop\n      jump\t// out\n        /* \"#utility.yul\":1798:2044   */\n    tag_349:\n        /* \"#utility.yul\":1879:1880   */\n      0x00\n        /* \"#utility.yul\":1889:2002   */\n    tag_425:\n        /* \"#utility.yul\":1903:1909   */\n      dup4\n        /* \"#utility.yul\":1900:1901   */\n      dup2\n        /* \"#utility.yul\":1897:1910   */\n      lt\n        /* \"#utility.yul\":1889:2002   */\n      iszero\n      tag_427\n      jumpi\n        /* \"#utility.yul\":1988:1989   */\n      dup1\n        /* \"#utility.yul\":1983:1986   */\n      dup3\n        /* \"#utility.yul\":1979:1990   */\n      add\n        /* \"#utility.yul\":1973:1991   */\n      mload\n        /* \"#utility.yul\":1969:1970   */\n      dup2\n        /* \"#utility.yul\":1964:1967   */\n      dup5\n        /* \"#utility.yul\":1960:1971   */\n      add\n        /* \"#utility.yul\":1953:1992   */\n      mstore\n        /* \"#utility.yul\":1925:1927   */\n      0x20\n        /* \"#utility.yul\":1922:1923   */\n      dup2\n        /* \"#utility.yul\":1918:1928   */\n      add\n        /* \"#utility.yul\":1913:1928   */\n      swap1\n      pop\n        /* \"#utility.yul\":1889:2002   */\n      jump(tag_425)\n    tag_427:\n        /* \"#utility.yul\":2036:2037   */\n      0x00\n        /* \"#utility.yul\":2027:2033   */\n      dup5\n        /* \"#utility.yul\":2022:2025   */\n      dup5\n        /* \"#utility.yul\":2018:2034   */\n      add\n        /* \"#utility.yul\":2011:2038   */\n      mstore\n        /* \"#utility.yul\":1860:2044   */\n      pop\n        /* \"#utility.yul\":1798:2044   */\n      pop\n      pop\n      pop\n      jump\t// out\n        /* \"#utility.yul\":2050:2152   */\n    tag_350:\n        /* \"#utility.yul\":2091:2097   */\n      0x00\n        /* \"#utility.yul\":2142:2144   */\n      0x1f\n        /* \"#utility.yul\":2138:2145   */\n      not\n        /* \"#utility.yul\":2133:2135   */\n      0x1f\n        /* \"#utility.yul\":2126:2131   */\n      dup4\n        /* \"#utility.yul\":2122:2136   */\n      add\n        /* \"#utility.yul\":2118:2146   */\n      and\n        /* \"#utility.yul\":2108:2146   */\n      swap1\n      pop\n        /* \"#utility.yul\":2050:2152   */\n      swap2\n      swap1\n      pop\n      jump\t// out\n        /* \"#utility.yul\":2158:2535   */\n    tag_351:\n        /* \"#utility.yul\":2246:2249   */\n      0x00\n        /* \"#utility.yul\":2274:2313   */\n      tag_430\n        /* \"#utility.yul\":2307:2312   */\n      dup3\n        /* \"#utility.yul\":2274:2313   */\n      tag_347\n      jump\t// in\n    tag_430:\n        /* \"#utility.yul\":2329:2400   */\n      tag_431\n        /* \"#utility.yul\":2393:2399   */\n      dup2\n        /* \"#utility.yul\":2388:2391   */\n      dup6\n        /* \"#utility.yul\":2329:2400   */\n      tag_348\n      jump\t// in\n    tag_431:\n        /* \"#utility.yul\":2322:2400   */\n      swap4\n      pop\n        /* \"#utility.yul\":2409:2474   */\n      tag_432\n        /* \"#utility.yul\":2467:2473   */\n      dup2\n        /* \"#utility.yul\":2462:2465   */\n      dup6\n        /* \"#utility.yul\":2455:2459   */\n      0x20\n        /* \"#utility.yul\":2448:2453   */\n      dup7\n        /* \"#utility.yul\":2444:2460   */\n      add\n        /* \"#utility.yul\":2409:2474   */\n      tag_349\n      jump\t// in\n    tag_432:\n        /* \"#utility.yul\":2499:2528   */\n      tag_433\n        /* \"#utility.yul\":2521:2527   */\n      dup2\n        /* \"#utility.yul\":2499:2528   */\n      tag_350\n      jump\t// in\n    tag_433:\n        /* \"#utility.yul\":2494:2497   */\n      dup5\n        /* \"#utility.yul\":2490:2529   */\n      add\n        /* \"#utility.yul\":2483:2529   */\n      swap2\n      pop\n        /* \"#utility.yul\":2250:2535   */\n      pop\n        /* \"#utility.yul\":2158:2535   */\n      swap3\n      swap2\n      pop\n      pop\n      jump\t// out\n        /* \"#utility.yul\":2541:2854   */\n    tag_35:\n        /* \"#utility.yul\":2654:2658   */\n      0x00\n        /* \"#utility.yul\":2692:2694   */\n      0x20\n        /* \"#utility.yul\":2681:2690   */\n      dup3\n        /* \"#utility.yul\":2677:2695   */\n      add\n        /* \"#utility.yul\":2669:2695   */\n      swap1\n      pop\n        /* \"#utility.yul\":2741:2750   */\n      dup2\n        /* \"#utility.yul\":2735:2739   */\n      dup2\n        /* \"#utility.yul\":2731:2751   */\n      sub\n        /* \"#utility.yul\":2727:2728   */\n      0x00\n        /* \"#utility.yul\":2716:2725   */\n      dup4\n        /* \"#utility.yul\":2712:2729   */\n      add\n        /* \"#utility.yul\":2705:2752   */\n      mstore\n        /* \"#utility.yul\":2769:2847   */\n      tag_435\n        /* \"#utility.yul\":2842:2846   */\n      dup2\n        /* \"#utility.yul\":2833:2839   */\n      dup5\n        /* \"#utility.yul\":2769:2847   */\n      tag_351\n      jump\t// in\n    tag_435:\n        /* \"#utility.yul\":2761:2847   */\n      swap1\n      pop\n        /* \"#utility.yul\":2541:2854   */\n      swap3\n      swap2\n      pop\n      pop\n      jump\t// out\n        /* \"#utility.yul\":2860:2937   */\n    tag_352:\n        /* \"#utility.yul\":2897:2904   */\n      0x00\n        /* \"#utility.yul\":2926:2931   */\n      dup2\n        /* \"#utility.yul\":2915:2931   */\n      swap1\n      pop\n        /* \"#utility.yul\":2860:2937   */\n      swap2\n      swap1\n      pop\n      jump\t// out\n        /* \"#utility.yul\":2943:3065   */\n    tag_353:\n        /* \"#utility.yul\":3016:3040   */\n      tag_438\n        /* \"#utility.yul\":3034:3039   */\n      dup2\n        /* \"#utility.yul\":3016:3040   */\n      tag_352\n      jump\t// in\n    tag_438:\n        /* \"#utility.yul\":3009:3014   */\n      dup2\n        /* \"#utility.yul\":3006:3041   */\n      eq\n        /* \"#utility.yul\":2996:3059   */\n      tag_439\n      jumpi\n        /* \"#utility.yul\":3055:3056   */\n      0x00\n        /* \"#utility.yul\":3052:3053   */\n      dup1\n        /* \"#utility.yul\":3045:3057   */\n      revert\n        /* \"#utility.yul\":2996:3059   */\n    tag_439:\n        /* \"#utility.yul\":2943:3065   */\n      pop\n      jump\t// out\n        /* \"#utility.yul\":3071:3210   */\n    tag_354:\n        /* \"#utility.yul\":3117:3122   */\n      0x00\n        /* \"#utility.yul\":3155:3161   */\n      dup2\n        /* \"#utility.yul\":3142:3162   */\n      calldataload\n        /* \"#utility.yul\":3133:3162   */\n      swap1\n      pop\n        /* \"#utility.yul\":3171:3204   */\n      tag_441\n        /* \"#utility.yul\":3198:3203   */\n      dup2\n        /* \"#utility.yul\":3171:3204   */\n      tag_353\n      jump\t// in\n    tag_441:\n        /* \"#utility.yul\":3071:3210   */\n      swap3\n      swap2\n      pop\n      pop\n      jump\t// out\n        /* \"#utility.yul\":3216:3545   */\n    tag_38:\n        /* \"#utility.yul\":3275:3281   */\n      0x00\n        /* \"#utility.yul\":3324:3326   */\n      0x20\n        /* \"#utility.yul\":3312:3321   */\n      dup3\n        /* \"#utility.yul\":3303:3310   */\n      dup5\n        /* \"#utility.yul\":3299:3322   */\n      sub\n        /* \"#utility.yul\":3295:3327   */\n      slt\n        /* \"#utility.yul\":3292:3411   */\n      iszero\n      tag_443\n      jumpi\n        /* \"#utility.yul\":3330:3409   */\n      tag_444\n      tag_340\n      jump\t// in\n    tag_444:\n        /* \"#utility.yul\":3292:3411   */\n    tag_443:\n        /* \"#utility.yul\":3450:3451   */\n      0x00\n        /* \"#utility.yul\":3475:3528   */\n      tag_445\n        /* \"#utility.yul\":3520:3527   */\n      dup5\n        /* \"#utility.yul\":3511:3517   */\n      dup3\n        /* \"#utility.yul\":3500:3509   */\n      dup6\n        /* \"#utility.yul\":3496:3518   */\n      add\n        /* \"#utility.yul\":3475:3528   */\n      tag_354\n      jump\t// in\n    tag_445:\n        /* \"#utility.yul\":3465:3528   */\n      swap2\n      pop\n        /* \"#utility.yul\":3421:3538   */\n      pop\n        /* \"#utility.yul\":3216:3545   */\n      swap3\n      swap2\n      pop\n      pop\n      jump\t// out\n        /* \"#utility.yul\":3551:3677   */\n    tag_355:\n        /* \"#utility.yul\":3588:3595   */\n      0x00\n        /* \"#utility.yul\":3628:3670   */\n      0xffffffffffffffffffffffffffffffffffffffff\n        /* \"#utility.yul\":3621:3626   */\n      dup3\n        /* \"#utility.yul\":3617:3671   */\n      and\n        /* \"#utility.yul\":3606:3671   */\n      swap1\n      pop\n        /* \"#utility.yul\":3551:3677   */\n      swap2\n      swap1\n      pop\n      jump\t// out\n        /* \"#utility.yul\":3683:3779   */\n    tag_356:\n        /* \"#utility.yul\":3720:3727   */\n      0x00\n        /* \"#utility.yul\":3749:3773   */\n      tag_448\n        /* \"#utility.yul\":3767:3772   */\n      dup3\n        /* \"#utility.yul\":3749:3773   */\n      tag_355\n      jump\t// in\n    tag_448:\n        /* \"#utility.yul\":3738:3773   */\n      swap1\n      pop\n        /* \"#utility.yul\":3683:3779   */\n      swap2\n      swap1\n      pop\n      jump\t// out\n        /* \"#utility.yul\":3785:3903   */\n    tag_357:\n        /* \"#utility.yul\":3872:3896   */\n      tag_450\n        /* \"#utility.yul\":3890:3895   */\n      dup2\n        /* \"#utility.yul\":3872:3896   */\n      tag_356\n      jump\t// in\n    tag_450:\n        /* \"#utility.yul\":3867:3870   */\n      dup3\n        /* \"#utility.yul\":3860:3897   */\n      mstore\n        /* \"#utility.yul\":3785:3903   */\n      pop\n      pop\n      jump\t// out\n        /* \"#utility.yul\":3909:4131   */\n    tag_41:\n        /* \"#utility.yul\":4002:4006   */\n      0x00\n        /* \"#utility.yul\":4040:4042   */\n      0x20\n        /* \"#utility.yul\":4029:4038   */\n      dup3\n        /* \"#utility.yul\":4025:4043   */\n      add\n        /* \"#utility.yul\":4017:4043   */\n      swap1\n      pop\n        /* \"#utility.yul\":4053:4124   */\n      tag_452\n        /* \"#utility.yul\":4121:4122   */\n      0x00\n        /* \"#utility.yul\":4110:4119   */\n      dup4\n        /* \"#utility.yul\":4106:4123   */\n      add\n        /* \"#utility.yul\":4097:4103   */\n      dup5\n        /* \"#utility.yul\":4053:4124   */\n      tag_357\n      jump\t// in\n    tag_452:\n        /* \"#utility.yul\":3909:4131   */\n      swap3\n      swap2\n      pop\n      pop\n      jump\t// out\n        /* \"#utility.yul\":4137:4259   */\n    tag_358:\n        /* \"#utility.yul\":4210:4234   */\n      tag_454\n        /* \"#utility.yul\":4228:4233   */\n      dup2\n        /* \"#utility.yul\":4210:4234   */\n      tag_356\n      jump\t// in\n    tag_454:\n        /* \"#utility.yul\":4203:4208   */\n      dup2\n        /* \"#utility.yul\":4200:4235   */\n      eq\n        /* \"#utility.yul\":4190:4253   */\n      tag_455\n      jumpi\n        /* \"#utility.yul\":4249:4250   */\n      0x00\n        /* \"#utility.yul\":4246:4247   */\n      dup1\n        /* \"#utility.yul\":4239:4251   */\n      revert\n        /* \"#utility.yul\":4190:4253   */\n    tag_455:\n        /* \"#utility.yul\":4137:4259   */\n      pop\n      jump\t// out\n        /* \"#utility.yul\":4265:4404   */\n    tag_359:\n        /* \"#utility.yul\":4311:4316   */\n      0x00\n        /* \"#utility.yul\":4349:4355   */\n      dup2\n        /* \"#utility.yul\":4336:4356   */\n      calldataload\n        /* \"#utility.yul\":4327:4356   */\n      swap1\n      pop\n        /* \"#utility.yul\":4365:4398   */\n      tag_457\n        /* \"#utility.yul\":4392:4397   */\n      dup2\n        /* \"#utility.yul\":4365:4398   */\n      tag_358\n      jump\t// in\n    tag_457:\n        /* \"#utility.yul\":4265:4404   */\n      swap3\n      swap2\n      pop\n      pop\n      jump\t// out\n        /* \"#utility.yul\":4410:4884   */\n    tag_44:\n        /* \"#utility.yul\":4478:4484   */\n      0x00\n        /* \"#utility.yul\":4486:4492   */\n      dup1\n        /* \"#utility.yul\":4535:4537   */\n      0x40\n        /* \"#utility.yul\":4523:4532   */\n      dup4\n        /* \"#utility.yul\":4514:4521   */\n      dup6\n        /* \"#utility.yul\":4510:4533   */\n      sub\n        /* \"#utility.yul\":4506:4538   */\n      slt\n        /* \"#utility.yul\":4503:4622   */\n      iszero\n      tag_459\n      jumpi\n        /* \"#utility.yul\":4541:4620   */\n      tag_460\n      tag_340\n      jump\t// in\n    tag_460:\n        /* \"#utility.yul\":4503:4622   */\n    tag_459:\n        /* \"#utility.yul\":4661:4662   */\n      0x00\n        /* \"#utility.yul\":4686:4739   */\n      tag_461\n        /* \"#utility.yul\":4731:4738   */\n      dup6\n        /* \"#utility.yul\":4722:4728   */\n      dup3\n        /* \"#utility.yul\":4711:4720   */\n      dup7\n        /* \"#utility.yul\":4707:4729   */\n      add\n        /* \"#utility.yul\":4686:4739   */\n      tag_359\n      jump\t// in\n    tag_461:\n        /* \"#utility.yul\":4676:4739   */\n      swap3\n      pop\n        /* \"#utility.yul\":4632:4749   */\n      pop\n        /* \"#utility.yul\":4788:4790   */\n      0x20\n        /* \"#utility.yul\":4814:4867   */\n      tag_462\n        /* \"#utility.yul\":4859:4866   */\n      dup6\n        /* \"#utility.yul\":4850:4856   */\n      dup3\n        /* \"#utility.yul\":4839:4848   */\n      dup7\n        /* \"#utility.yul\":4835:4857   */\n      add\n        /* \"#utility.yul\":4814:4867   */\n      tag_354\n      jump\t// in\n    tag_462:\n        /* \"#utility.yul\":4804:4867   */\n      swap2\n      pop\n        /* \"#utility.yul\":4759:4877   */\n      pop\n        /* \"#utility.yul\":4410:4884   */\n      swap3\n      pop\n      swap3\n      swap1\n      pop\n      jump\t// out\n        /* \"#utility.yul\":4890:5509   */\n    tag_48:\n        /* \"#utility.yul\":4967:4973   */\n      0x00\n        /* \"#utility.yul\":4975:4981   */\n      dup1\n        /* \"#utility.yul\":4983:4989   */\n      0x00\n        /* \"#utility.yul\":5032:5034   */\n      0x60\n        /* \"#utility.yul\":5020:5029   */\n      dup5\n        /* \"#utility.yul\":5011:5018   */\n      dup7\n        /* \"#utility.yul\":5007:5030   */\n      sub\n        /* \"#utility.yul\":5003:5035   */\n      slt\n        /* \"#utility.yul\":5000:5119   */\n      iszero\n      tag_464\n      jumpi\n        /* \"#utility.yul\":5038:5117   */\n      tag_465\n      tag_340\n      jump\t// in\n    tag_465:\n        /* \"#utility.yul\":5000:5119   */\n    tag_464:\n        /* \"#utility.yul\":5158:5159   */\n      0x00\n        /* \"#utility.yul\":5183:5236   */\n      tag_466\n        /* \"#utility.yul\":5228:5235   */\n      dup7\n        /* \"#utility.yul\":5219:5225   */\n      dup3\n        /* \"#utility.yul\":5208:5217   */\n      dup8\n        /* \"#utility.yul\":5204:5226   */\n      add\n        /* \"#utility.yul\":5183:5236   */\n      tag_359\n      jump\t// in\n    tag_466:\n        /* \"#utility.yul\":5173:5236   */\n      swap4\n      pop\n        /* \"#utility.yul\":5129:5246   */\n      pop\n        /* \"#utility.yul\":5285:5287   */\n      0x20\n        /* \"#utility.yul\":5311:5364   */\n      tag_467\n        /* \"#utility.yul\":5356:5363   */\n      dup7\n        /* \"#utility.yul\":5347:5353   */\n      dup3\n        /* \"#utility.yul\":5336:5345   */\n      dup8\n        /* \"#utility.yul\":5332:5354   */\n      add\n        /* \"#utility.yul\":5311:5364   */\n      tag_359\n      jump\t// in\n    tag_467:\n        /* \"#utility.yul\":5301:5364   */\n      swap3\n      pop\n        /* \"#utility.yul\":5256:5374   */\n      pop\n        /* \"#utility.yul\":5413:5415   */\n      0x40\n        /* \"#utility.yul\":5439:5492   */\n      tag_468\n        /* \"#utility.yul\":5484:5491   */\n      dup7\n        /* \"#utility.yul\":5475:5481   */\n      dup3\n        /* \"#utility.yul\":5464:5473   */\n      dup8\n        /* \"#utility.yul\":5460:5482   */\n      add\n        /* \"#utility.yul\":5439:5492   */\n      tag_354\n      jump\t// in\n    tag_468:\n        /* \"#utility.yul\":5429:5492   */\n      swap2\n      pop\n        /* \"#utility.yul\":5384:5502   */\n      pop\n        /* \"#utility.yul\":4890:5509   */\n      swap3\n      pop\n      swap3\n      pop\n      swap3\n      jump\t// out\n        /* \"#utility.yul\":5515:5575   */\n    tag_360:\n        /* \"#utility.yul\":5543:5546   */\n      0x00\n        /* \"#utility.yul\":5564:5569   */\n      dup2\n        /* \"#utility.yul\":5557:5569   */\n      swap1\n      pop\n        /* \"#utility.yul\":5515:5575   */\n      swap2\n      swap1\n      pop\n      jump\t// out\n        /* \"#utility.yul\":5581:5723   */\n    tag_361:\n        /* \"#utility.yul\":5631:5640   */\n      0x00\n        /* \"#utility.yul\":5664:5717   */\n      tag_471\n        /* \"#utility.yul\":5682:5716   */\n      tag_472\n        /* \"#utility.yul\":5691:5715   */\n      tag_473\n        /* \"#utility.yul\":5709:5714   */\n      dup5\n        /* \"#utility.yul\":5691:5715   */\n      tag_355\n      jump\t// in\n    tag_473:\n        /* \"#utility.yul\":5682:5716   */\n      tag_360\n      jump\t// in\n    tag_472:\n        /* \"#utility.yul\":5664:5717   */\n      tag_355\n      jump\t// in\n    tag_471:\n        /* \"#utility.yul\":5651:5717   */\n      swap1\n      pop\n        /* \"#utility.yul\":5581:5723   */\n      swap2\n      swap1\n      pop\n      jump\t// out\n        /* \"#utility.yul\":5729:5855   */\n    tag_362:\n        /* \"#utility.yul\":5779:5788   */\n      0x00\n        /* \"#utility.yul\":5812:5849   */\n      tag_475\n        /* \"#utility.yul\":5843:5848   */\n      dup3\n        /* \"#utility.yul\":5812:5849   */\n      tag_361\n      jump\t// in\n    tag_475:\n        /* \"#utility.yul\":5799:5849   */\n      swap1\n      pop\n        /* \"#utility.yul\":5729:5855   */\n      swap2\n      swap1\n      pop\n      jump\t// out\n        /* \"#utility.yul\":5861:6005   */\n    tag_363:\n        /* \"#utility.yul\":5929:5938   */\n      0x00\n        /* \"#utility.yul\":5962:5999   */\n      tag_477\n        /* \"#utility.yul\":5993:5998   */\n      dup3\n        /* \"#utility.yul\":5962:5999   */\n      tag_362\n      jump\t// in\n    tag_477:\n        /* \"#utility.yul\":5949:5999   */\n      swap1\n      pop\n        /* \"#utility.yul\":5861:6005   */\n      swap2\n      swap1\n      pop\n      jump\t// out\n        /* \"#utility.yul\":6011:6178   */\n    tag_364:\n        /* \"#utility.yul\":6116:6171   */\n      tag_479\n        /* \"#utility.yul\":6165:6170   */\n      dup2\n        /* \"#utility.yul\":6116:6171   */\n      tag_363\n      jump\t// in\n    tag_479:\n        /* \"#utility.yul\":6111:6114   */\n      dup3\n        /* \"#utility.yul\":6104:6172   */\n      mstore\n        /* \"#utility.yul\":6011:6178   */\n      pop\n      pop\n      jump\t// out\n        /* \"#utility.yul\":6184:6442   */\n    tag_56:\n        /* \"#utility.yul\":6295:6299   */\n      0x00\n        /* \"#utility.yul\":6333:6335   */\n      0x20\n        /* \"#utility.yul\":6322:6331   */\n      dup3\n        /* \"#utility.yul\":6318:6336   */\n      add\n        /* \"#utility.yul\":6310:6336   */\n      swap1\n      pop\n        /* \"#utility.yul\":6346:6435   */\n      tag_481\n        /* \"#utility.yul\":6432:6433   */\n      0x00\n        /* \"#utility.yul\":6421:6430   */\n      dup4\n        /* \"#utility.yul\":6417:6434   */\n      add\n        /* \"#utility.yul\":6408:6414   */\n      dup5\n        /* \"#utility.yul\":6346:6435   */\n      tag_364\n      jump\t// in\n    tag_481:\n        /* \"#utility.yul\":6184:6442   */\n      swap3\n      swap2\n      pop\n      pop\n      jump\t// out\n        /* \"#utility.yul\":6448:6777   */\n    tag_63:\n        /* \"#utility.yul\":6507:6513   */\n      0x00\n        /* \"#utility.yul\":6556:6558   */\n      0x20\n        /* \"#utility.yul\":6544:6553   */\n      dup3\n        /* \"#utility.yul\":6535:6542   */\n      dup5\n        /* \"#utility.yul\":6531:6554   */\n      sub\n        /* \"#utility.yul\":6527:6559   */\n      slt\n        /* \"#utility.yul\":6524:6643   */\n      iszero\n      tag_483\n      jumpi\n        /* \"#utility.yul\":6562:6641   */\n      tag_484\n      tag_340\n      jump\t// in\n    tag_484:\n        /* \"#utility.yul\":6524:6643   */\n    tag_483:\n        /* \"#utility.yul\":6682:6683   */\n      0x00\n        /* \"#utility.yul\":6707:6760   */\n      tag_485\n        /* \"#utility.yul\":6752:6759   */\n      dup5\n        /* \"#utility.yul\":6743:6749   */\n      dup3\n        /* \"#utility.yul\":6732:6741   */\n      dup6\n        /* \"#utility.yul\":6728:6750   */\n      add\n        /* \"#utility.yul\":6707:6760   */\n      tag_359\n      jump\t// in\n    tag_485:\n        /* \"#utility.yul\":6697:6760   */\n      swap2\n      pop\n        /* \"#utility.yul\":6653:6770   */\n      pop\n        /* \"#utility.yul\":6448:6777   */\n      swap3\n      swap2\n      pop\n      pop\n      jump\t// out\n        /* \"#utility.yul\":6783:6901   */\n    tag_365:\n        /* \"#utility.yul\":6870:6894   */\n      tag_487\n        /* \"#utility.yul\":6888:6893   */\n      dup2\n        /* \"#utility.yul\":6870:6894   */\n      tag_352\n      jump\t// in\n    tag_487:\n        /* \"#utility.yul\":6865:6868   */\n      dup3\n        /* \"#utility.yul\":6858:6895   */\n      mstore\n        /* \"#utility.yul\":6783:6901   */\n      pop\n      pop\n      jump\t// out\n        /* \"#utility.yul\":6907:7129   */\n    tag_66:\n        /* \"#utility.yul\":7000:7004   */\n      0x00\n        /* \"#utility.yul\":7038:7040   */\n      0x20\n        /* \"#utility.yul\":7027:7036   */\n      dup3\n        /* \"#utility.yul\":7023:7041   */\n      add\n        /* \"#utility.yul\":7015:7041   */\n      swap1\n      pop\n        /* \"#utility.yul\":7051:7122   */\n      tag_489\n        /* \"#utility.yul\":7119:7120   */\n      0x00\n        /* \"#utility.yul\":7108:7117   */\n      dup4\n        /* \"#utility.yul\":7104:7121   */\n      add\n        /* \"#utility.yul\":7095:7101   */\n      dup5\n        /* \"#utility.yul\":7051:7122   */\n      tag_365\n      jump\t// in\n    tag_489:\n        /* \"#utility.yul\":6907:7129   */\n      swap3\n      swap2\n      pop\n      pop\n      jump\t// out\n        /* \"#utility.yul\":7135:7251   */\n    tag_366:\n        /* \"#utility.yul\":7205:7226   */\n      tag_491\n        /* \"#utility.yul\":7220:7225   */\n      dup2\n        /* \"#utility.yul\":7205:7226   */\n      tag_345\n      jump\t// in\n    tag_491:\n        /* \"#utility.yul\":7198:7203   */\n      dup2\n        /* \"#utility.yul\":7195:7227   */\n      eq\n        /* \"#utility.yul\":7185:7245   */\n      tag_492\n      jumpi\n        /* \"#utility.yul\":7241:7242   */\n      0x00\n        /* \"#utility.yul\":7238:7239   */\n      dup1\n        /* \"#utility.yul\":7231:7243   */\n      revert\n        /* \"#utility.yul\":7185:7245   */\n    tag_492:\n        /* \"#utility.yul\":7135:7251   */\n      pop\n      jump\t// out\n        /* \"#utility.yul\":7257:7390   */\n    tag_367:\n        /* \"#utility.yul\":7300:7305   */\n      0x00\n        /* \"#utility.yul\":7338:7344   */\n      dup2\n        /* \"#utility.yul\":7325:7345   */\n      calldataload\n        /* \"#utility.yul\":7316:7345   */\n      swap1\n      pop\n        /* \"#utility.yul\":7354:7384   */\n      tag_494\n        /* \"#utility.yul\":7378:7383   */\n      dup2\n        /* \"#utility.yul\":7354:7384   */\n      tag_366\n      jump\t// in\n    tag_494:\n        /* \"#utility.yul\":7257:7390   */\n      swap3\n      swap2\n      pop\n      pop\n      jump\t// out\n        /* \"#utility.yul\":7396:7864   */\n    tag_80:\n        /* \"#utility.yul\":7461:7467   */\n      0x00\n        /* \"#utility.yul\":7469:7475   */\n      dup1\n        /* \"#utility.yul\":7518:7520   */\n      0x40\n        /* \"#utility.yul\":7506:7515   */\n      dup4\n        /* \"#utility.yul\":7497:7504   */\n      dup6\n        /* \"#utility.yul\":7493:7516   */\n      sub\n        /* \"#utility.yul\":7489:7521   */\n      slt\n        /* \"#utility.yul\":7486:7605   */\n      iszero\n      tag_496\n      jumpi\n        /* \"#utility.yul\":7524:7603   */\n      tag_497\n      tag_340\n      jump\t// in\n    tag_497:\n        /* \"#utility.yul\":7486:7605   */\n    tag_496:\n        /* \"#utility.yul\":7644:7645   */\n      0x00\n        /* \"#utility.yul\":7669:7722   */\n      tag_498\n        /* \"#utility.yul\":7714:7721   */\n      dup6\n        /* \"#utility.yul\":7705:7711   */\n      dup3\n        /* \"#utility.yul\":7694:7703   */\n      dup7\n        /* \"#utility.yul\":7690:7712   */\n      add\n        /* \"#utility.yul\":7669:7722   */\n      tag_359\n      jump\t// in\n    tag_498:\n        /* \"#utility.yul\":7659:7722   */\n      swap3\n      pop\n        /* \"#utility.yul\":7615:7732   */\n      pop\n        /* \"#utility.yul\":7771:7773   */\n      0x20\n        /* \"#utility.yul\":7797:7847   */\n      tag_499\n        /* \"#utility.yul\":7839:7846   */\n      dup6\n        /* \"#utility.yul\":7830:7836   */\n      dup3\n        /* \"#utility.yul\":7819:7828   */\n      dup7\n        /* \"#utility.yul\":7815:7837   */\n      add\n        /* \"#utility.yul\":7797:7847   */\n      tag_367\n      jump\t// in\n    tag_499:\n        /* \"#utility.yul\":7787:7847   */\n      swap2\n      pop\n        /* \"#utility.yul\":7742:7857   */\n      pop\n        /* \"#utility.yul\":7396:7864   */\n      swap3\n      pop\n      swap3\n      swap1\n      pop\n      jump\t// out\n        /* \"#utility.yul\":7870:7987   */\n    tag_368:\n        /* \"#utility.yul\":7979:7980   */\n      0x00\n        /* \"#utility.yul\":7976:7977   */\n      dup1\n        /* \"#utility.yul\":7969:7981   */\n      revert\n        /* \"#utility.yul\":7993:8110   */\n    tag_369:\n        /* \"#utility.yul\":8102:8103   */\n      0x00\n        /* \"#utility.yul\":8099:8100   */\n      dup1\n        /* \"#utility.yul\":8092:8104   */\n      revert\n        /* \"#utility.yul\":8116:8296   */\n    tag_295:\n        /* \"#utility.yul\":8164:8241   */\n      0x4e487b7100000000000000000000000000000000000000000000000000000000\n        /* \"#utility.yul\":8161:8162   */\n      0x00\n        /* \"#utility.yul\":8154:8242   */\n      mstore\n        /* \"#utility.yul\":8261:8265   */\n      0x41\n        /* \"#utility.yul\":8258:8259   */\n      0x04\n        /* \"#utility.yul\":8251:8266   */\n      mstore\n        /* \"#utility.yul\":8285:8289   */\n      0x24\n        /* \"#utility.yul\":8282:8283   */\n      0x00\n        /* \"#utility.yul\":8275:8290   */\n      revert\n        /* \"#utility.yul\":8302:8583   */\n    tag_370:\n        /* \"#utility.yul\":8385:8412   */\n      tag_504\n        /* \"#utility.yul\":8407:8411   */\n      dup3\n        /* \"#utility.yul\":8385:8412   */\n      tag_350\n      jump\t// in\n    tag_504:\n        /* \"#utility.yul\":8377:8383   */\n      dup2\n        /* \"#utility.yul\":8373:8413   */\n      add\n        /* \"#utility.yul\":8515:8521   */\n      dup2\n        /* \"#utility.yul\":8503:8513   */\n      dup2\n        /* \"#utility.yul\":8500:8522   */\n      lt\n        /* \"#utility.yul\":8479:8497   */\n      0xffffffffffffffff\n        /* \"#utility.yul\":8467:8477   */\n      dup3\n        /* \"#utility.yul\":8464:8498   */\n      gt\n        /* \"#utility.yul\":8461:8523   */\n      or\n        /* \"#utility.yul\":8458:8546   */\n      iszero\n      tag_505\n      jumpi\n        /* \"#utility.yul\":8526:8544   */\n      tag_506\n      tag_295\n      jump\t// in\n    tag_506:\n        /* \"#utility.yul\":8458:8546   */\n    tag_505:\n        /* \"#utility.yul\":8566:8576   */\n      dup1\n        /* \"#utility.yul\":8562:8564   */\n      0x40\n        /* \"#utility.yul\":8555:8577   */\n      mstore\n        /* \"#utility.yul\":8345:8583   */\n      pop\n        /* \"#utility.yul\":8302:8583   */\n      pop\n      pop\n      jump\t// out\n        /* \"#utility.yul\":8589:8718   */\n    tag_371:\n        /* \"#utility.yul\":8623:8629   */\n      0x00\n        /* \"#utility.yul\":8650:8670   */\n      tag_508\n      tag_339\n      jump\t// in\n    tag_508:\n        /* \"#utility.yul\":8640:8670   */\n      swap1\n      pop\n        /* \"#utility.yul\":8679:8712   */\n      tag_509\n        /* \"#utility.yul\":8707:8711   */\n      dup3\n        /* \"#utility.yul\":8699:8705   */\n      dup3\n        /* \"#utility.yul\":8679:8712   */\n      tag_370\n      jump\t// in\n    tag_509:\n        /* \"#utility.yul\":8589:8718   */\n      swap2\n      swap1\n      pop\n      jump\t// out\n        /* \"#utility.yul\":8724:9031   */\n    tag_372:\n        /* \"#utility.yul\":8785:8789   */\n      0x00\n        /* \"#utility.yul\":8875:8893   */\n      0xffffffffffffffff\n        /* \"#utility.yul\":8867:8873   */\n      dup3\n        /* \"#utility.yul\":8864:8894   */\n      gt\n        /* \"#utility.yul\":8861:8917   */\n      iszero\n      tag_511\n      jumpi\n        /* \"#utility.yul\":8897:8915   */\n      tag_512\n      tag_295\n      jump\t// in\n    tag_512:\n        /* \"#utility.yul\":8861:8917   */\n    tag_511:\n        /* \"#utility.yul\":8935:8964   */\n      tag_513\n        /* \"#utility.yul\":8957:8963   */\n      dup3\n        /* \"#utility.yul\":8935:8964   */\n      tag_350\n      jump\t// in\n    tag_513:\n        /* \"#utility.yul\":8927:8964   */\n      swap1\n      pop\n        /* \"#utility.yul\":9019:9023   */\n      0x20\n        /* \"#utility.yul\":9013:9017   */\n      dup2\n        /* \"#utility.yul\":9009:9024   */\n      add\n        /* \"#utility.yul\":9001:9024   */\n      swap1\n      pop\n        /* \"#utility.yul\":8724:9031   */\n      swap2\n      swap1\n      pop\n      jump\t// out\n        /* \"#utility.yul\":9037:9183   */\n    tag_373:\n        /* \"#utility.yul\":9134:9140   */\n      dup3\n        /* \"#utility.yul\":9129:9132   */\n      dup2\n        /* \"#utility.yul\":9124:9127   */\n      dup4\n        /* \"#utility.yul\":9111:9141   */\n      calldatacopy\n        /* \"#utility.yul\":9175:9176   */\n      0x00\n        /* \"#utility.yul\":9166:9172   */\n      dup4\n        /* \"#utility.yul\":9161:9164   */\n      dup4\n        /* \"#utility.yul\":9157:9173   */\n      add\n        /* \"#utility.yul\":9150:9177   */\n      mstore\n        /* \"#utility.yul\":9037:9183   */\n      pop\n      pop\n      pop\n      jump\t// out\n        /* \"#utility.yul\":9189:9612   */\n    tag_374:\n        /* \"#utility.yul\":9266:9271   */\n      0x00\n        /* \"#utility.yul\":9291:9356   */\n      tag_516\n        /* \"#utility.yul\":9307:9355   */\n      tag_517\n        /* \"#utility.yul\":9348:9354   */\n      dup5\n        /* \"#utility.yul\":9307:9355   */\n      tag_372\n      jump\t// in\n    tag_517:\n        /* \"#utility.yul\":9291:9356   */\n      tag_371\n      jump\t// in\n    tag_516:\n        /* \"#utility.yul\":9282:9356   */\n      swap1\n      pop\n        /* \"#utility.yul\":9379:9385   */\n      dup3\n        /* \"#utility.yul\":9372:9377   */\n      dup2\n        /* \"#utility.yul\":9365:9386   */\n      mstore\n        /* \"#utility.yul\":9417:9421   */\n      0x20\n        /* \"#utility.yul\":9410:9415   */\n      dup2\n        /* \"#utility.yul\":9406:9422   */\n      add\n        /* \"#utility.yul\":9455:9458   */\n      dup5\n        /* \"#utility.yul\":9446:9452   */\n      dup5\n        /* \"#utility.yul\":9441:9444   */\n      dup5\n        /* \"#utility.yul\":9437:9453   */\n      add\n        /* \"#utility.yul\":9434:9459   */\n      gt\n        /* \"#utility.yul\":9431:9543   */\n      iszero\n      tag_518\n      jumpi\n        /* \"#utility.yul\":9462:9541   */\n      tag_519\n      tag_369\n      jump\t// in\n    tag_519:\n        /* \"#utility.yul\":9431:9543   */\n    tag_518:\n        /* \"#utility.yul\":9552:9606   */\n      tag_520\n        /* \"#utility.yul\":9599:9605   */\n      dup5\n        /* \"#utility.yul\":9594:9597   */\n      dup3\n        /* \"#utility.yul\":9589:9592   */\n      dup6\n        /* \"#utility.yul\":9552:9606   */\n      tag_373\n      jump\t// in\n    tag_520:\n        /* \"#utility.yul\":9272:9612   */\n      pop\n        /* \"#utility.yul\":9189:9612   */\n      swap4\n      swap3\n      pop\n      pop\n      pop\n      jump\t// out\n        /* \"#utility.yul\":9631:9969   */\n    tag_375:\n        /* \"#utility.yul\":9686:9691   */\n      0x00\n        /* \"#utility.yul\":9735:9738   */\n      dup3\n        /* \"#utility.yul\":9728:9732   */\n      0x1f\n        /* \"#utility.yul\":9720:9726   */\n      dup4\n        /* \"#utility.yul\":9716:9733   */\n      add\n        /* \"#utility.yul\":9712:9739   */\n      slt\n        /* \"#utility.yul\":9702:9824   */\n      tag_522\n      jumpi\n        /* \"#utility.yul\":9743:9822   */\n      tag_523\n      tag_368\n      jump\t// in\n    tag_523:\n        /* \"#utility.yul\":9702:9824   */\n    tag_522:\n        /* \"#utility.yul\":9860:9866   */\n      dup2\n        /* \"#utility.yul\":9847:9867   */\n      calldataload\n        /* \"#utility.yul\":9885:9963   */\n      tag_524\n        /* \"#utility.yul\":9959:9962   */\n      dup5\n        /* \"#utility.yul\":9951:9957   */\n      dup3\n        /* \"#utility.yul\":9944:9948   */\n      0x20\n        /* \"#utility.yul\":9936:9942   */\n      dup7\n        /* \"#utility.yul\":9932:9949   */\n      add\n        /* \"#utility.yul\":9885:9963   */\n      tag_374\n      jump\t// in\n    tag_524:\n        /* \"#utility.yul\":9876:9963   */\n      swap2\n      pop\n        /* \"#utility.yul\":9692:9969   */\n      pop\n        /* \"#utility.yul\":9631:9969   */\n      swap3\n      swap2\n      pop\n      pop\n      jump\t// out\n        /* \"#utility.yul\":9975:10918   */\n    tag_87:\n        /* \"#utility.yul\":10070:10076   */\n      0x00\n        /* \"#utility.yul\":10078:10084   */\n      dup1\n        /* \"#utility.yul\":10086:10092   */\n      0x00\n        /* \"#utility.yul\":10094:10100   */\n      dup1\n        /* \"#utility.yul\":10143:10146   */\n      0x80\n        /* \"#utility.yul\":10131:10140   */\n      dup6\n        /* \"#utility.yul\":10122:10129   */\n      dup8\n        /* \"#utility.yul\":10118:10141   */\n      sub\n        /* \"#utility.yul\":10114:10147   */\n      slt\n        /* \"#utility.yul\":10111:10231   */\n      iszero\n      tag_526\n      jumpi\n        /* \"#utility.yul\":10150:10229   */\n      tag_527\n      tag_340\n      jump\t// in\n    tag_527:\n        /* \"#utility.yul\":10111:10231   */\n    tag_526:\n        /* \"#utility.yul\":10270:10271   */\n      0x00\n        /* \"#utility.yul\":10295:10348   */\n      tag_528\n        /* \"#utility.yul\":10340:10347   */\n      dup8\n        /* \"#utility.yul\":10331:10337   */\n      dup3\n        /* \"#utility.yul\":10320:10329   */\n      dup9\n        /* \"#utility.yul\":10316:10338   */\n      add\n        /* \"#utility.yul\":10295:10348   */\n      tag_359\n      jump\t// in\n    tag_528:\n        /* \"#utility.yul\":10285:10348   */\n      swap5\n      pop\n        /* \"#utility.yul\":10241:10358   */\n      pop\n        /* \"#utility.yul\":10397:10399   */\n      0x20\n        /* \"#utility.yul\":10423:10476   */\n      tag_529\n        /* \"#utility.yul\":10468:10475   */\n      dup8\n        /* \"#utility.yul\":10459:10465   */\n      dup3\n        /* \"#utility.yul\":10448:10457   */\n      dup9\n        /* \"#utility.yul\":10444:10466   */\n      add\n        /* \"#utility.yul\":10423:10476   */\n      tag_359\n      jump\t// in\n    tag_529:\n        /* \"#utility.yul\":10413:10476   */\n      swap4\n      pop\n        /* \"#utility.yul\":10368:10486   */\n      pop\n        /* \"#utility.yul\":10525:10527   */\n      0x40\n        /* \"#utility.yul\":10551:10604   */\n      tag_530\n        /* \"#utility.yul\":10596:10603   */\n      dup8\n        /* \"#utility.yul\":10587:10593   */\n      dup3\n        /* \"#utility.yul\":10576:10585   */\n      dup9\n        /* \"#utility.yul\":10572:10594   */\n      add\n        /* \"#utility.yul\":10551:10604   */\n      tag_354\n      jump\t// in\n    tag_530:\n        /* \"#utility.yul\":10541:10604   */\n      swap3\n      pop\n        /* \"#utility.yul\":10496:10614   */\n      pop\n        /* \"#utility.yul\":10681:10683   */\n      0x60\n        /* \"#utility.yul\":10670:10679   */\n      dup6\n        /* \"#utility.yul\":10666:10684   */\n      add\n        /* \"#utility.yul\":10653:10685   */\n      calldataload\n        /* \"#utility.yul\":10712:10730   */\n      0xffffffffffffffff\n        /* \"#utility.yul\":10704:10710   */\n      dup2\n        /* \"#utility.yul\":10701:10731   */\n      gt\n        /* \"#utility.yul\":10698:10815   */\n      iszero\n      tag_531\n      jumpi\n        /* \"#utility.yul\":10734:10813   */\n      tag_532\n      tag_341\n      jump\t// in\n    tag_532:\n        /* \"#utility.yul\":10698:10815   */\n    tag_531:\n        /* \"#utility.yul\":10839:10901   */\n      tag_533\n        /* \"#utility.yul\":10893:10900   */\n      dup8\n        /* \"#utility.yul\":10884:10890   */\n      dup3\n        /* \"#utility.yul\":10873:10882   */\n      dup9\n        /* \"#utility.yul\":10869:10891   */\n      add\n        /* \"#utility.yul\":10839:10901   */\n      tag_375\n      jump\t// in\n    tag_533:\n        /* \"#utility.yul\":10829:10901   */\n      swap2\n      pop\n        /* \"#utility.yul\":10624:10911   */\n      pop\n        /* \"#utility.yul\":9975:10918   */\n      swap3\n      swap6\n      swap2\n      swap5\n      pop\n      swap3\n      pop\n      jump\t// out\n        /* \"#utility.yul\":10924:11232   */\n    tag_376:\n        /* \"#utility.yul\":10986:10990   */\n      0x00\n        /* \"#utility.yul\":11076:11094   */\n      0xffffffffffffffff\n        /* \"#utility.yul\":11068:11074   */\n      dup3\n        /* \"#utility.yul\":11065:11095   */\n      gt\n        /* \"#utility.yul\":11062:11118   */\n      iszero\n      tag_535\n      jumpi\n        /* \"#utility.yul\":11098:11116   */\n      tag_536\n      tag_295\n      jump\t// in\n    tag_536:\n        /* \"#utility.yul\":11062:11118   */\n    tag_535:\n        /* \"#utility.yul\":11136:11165   */\n      tag_537\n        /* \"#utility.yul\":11158:11164   */\n      dup3\n        /* \"#utility.yul\":11136:11165   */\n      tag_350\n      jump\t// in\n    tag_537:\n        /* \"#utility.yul\":11128:11165   */\n      swap1\n      pop\n        /* \"#utility.yul\":11220:11224   */\n      0x20\n        /* \"#utility.yul\":11214:11218   */\n      dup2\n        /* \"#utility.yul\":11210:11225   */\n      add\n        /* \"#utility.yul\":11202:11225   */\n      swap1\n      pop\n        /* \"#utility.yul\":10924:11232   */\n      swap2\n      swap1\n      pop\n      jump\t// out\n        /* \"#utility.yul\":11238:11663   */\n    tag_377:\n        /* \"#utility.yul\":11316:11321   */\n      0x00\n        /* \"#utility.yul\":11341:11407   */\n      tag_539\n        /* \"#utility.yul\":11357:11406   */\n      tag_540\n        /* \"#utility.yul\":11399:11405   */\n      dup5\n        /* \"#utility.yul\":11357:11406   */\n      tag_376\n      jump\t// in\n    tag_540:\n        /* \"#utility.yul\":11341:11407   */\n      tag_371\n      jump\t// in\n    tag_539:\n        /* \"#utility.yul\":11332:11407   */\n      swap1\n      pop\n        /* \"#utility.yul\":11430:11436   */\n      dup3\n        /* \"#utility.yul\":11423:11428   */\n      dup2\n        /* \"#utility.yul\":11416:11437   */\n      mstore\n        /* \"#utility.yul\":11468:11472   */\n      0x20\n        /* \"#utility.yul\":11461:11466   */\n      dup2\n        /* \"#utility.yul\":11457:11473   */\n      add\n        /* \"#utility.yul\":11506:11509   */\n      dup5\n        /* \"#utility.yul\":11497:11503   */\n      dup5\n        /* \"#utility.yul\":11492:11495   */\n      dup5\n        /* \"#utility.yul\":11488:11504   */\n      add\n        /* \"#utility.yul\":11485:11510   */\n      gt\n        /* \"#utility.yul\":11482:11594   */\n      iszero\n      tag_541\n      jumpi\n        /* \"#utility.yul\":11513:11592   */\n      tag_542\n      tag_369\n      jump\t// in\n    tag_542:\n        /* \"#utility.yul\":11482:11594   */\n    tag_541:\n        /* \"#utility.yul\":11603:11657   */\n      tag_543\n        /* \"#utility.yul\":11650:11656   */\n      dup5\n        /* \"#utility.yul\":11645:11648   */\n      dup3\n        /* \"#utility.yul\":11640:11643   */\n      dup6\n        /* \"#utility.yul\":11603:11657   */\n      tag_373\n      jump\t// in\n    tag_543:\n        /* \"#utility.yul\":11322:11663   */\n      pop\n        /* \"#utility.yul\":11238:11663   */\n      swap4\n      swap3\n      pop\n      pop\n      pop\n      jump\t// out\n        /* \"#utility.yul\":11683:12023   */\n    tag_378:\n        /* \"#utility.yul\":11739:11744   */\n      0x00\n        /* \"#utility.yul\":11788:11791   */\n      dup3\n        /* \"#utility.yul\":11781:11785   */\n      0x1f\n        /* \"#utility.yul\":11773:11779   */\n      dup4\n        /* \"#utility.yul\":11769:11786   */\n      add\n        /* \"#utility.yul\":11765:11792   */\n      slt\n        /* \"#utility.yul\":11755:11877   */\n      tag_545\n      jumpi\n        /* \"#utility.yul\":11796:11875   */\n      tag_546\n      tag_368\n      jump\t// in\n    tag_546:\n        /* \"#utility.yul\":11755:11877   */\n    tag_545:\n        /* \"#utility.yul\":11913:11919   */\n      dup2\n        /* \"#utility.yul\":11900:11920   */\n      calldataload\n        /* \"#utility.yul\":11938:12017   */\n      tag_547\n        /* \"#utility.yul\":12013:12016   */\n      dup5\n        /* \"#utility.yul\":12005:12011   */\n      dup3\n        /* \"#utility.yul\":11998:12002   */\n      0x20\n        /* \"#utility.yul\":11990:11996   */\n      dup7\n        /* \"#utility.yul\":11986:12003   */\n      add\n        /* \"#utility.yul\":11938:12017   */\n      tag_377\n      jump\t// in\n    tag_547:\n        /* \"#utility.yul\":11929:12017   */\n      swap2\n      pop\n        /* \"#utility.yul\":11745:12023   */\n      pop\n        /* \"#utility.yul\":11683:12023   */\n      swap3\n      swap2\n      pop\n      pop\n      jump\t// out\n        /* \"#utility.yul\":12029:12538   */\n    tag_95:\n        /* \"#utility.yul\":12098:12104   */\n      0x00\n        /* \"#utility.yul\":12147:12149   */\n      0x20\n        /* \"#utility.yul\":12135:12144   */\n      dup3\n        /* \"#utility.yul\":12126:12133   */\n      dup5\n        /* \"#utility.yul\":12122:12145   */\n      sub\n        /* \"#utility.yul\":12118:12150   */\n      slt\n        /* \"#utility.yul\":12115:12234   */\n      iszero\n      tag_549\n      jumpi\n        /* \"#utility.yul\":12153:12232   */\n      tag_550\n      tag_340\n      jump\t// in\n    tag_550:\n        /* \"#utility.yul\":12115:12234   */\n    tag_549:\n        /* \"#utility.yul\":12301:12302   */\n      0x00\n        /* \"#utility.yul\":12290:12299   */\n      dup3\n        /* \"#utility.yul\":12286:12303   */\n      add\n        /* \"#utility.yul\":12273:12304   */\n      calldataload\n        /* \"#utility.yul\":12331:12349   */\n      0xffffffffffffffff\n        /* \"#utility.yul\":12323:12329   */\n      dup2\n        /* \"#utility.yul\":12320:12350   */\n      gt\n        /* \"#utility.yul\":12317:12434   */\n      iszero\n      tag_551\n      jumpi\n        /* \"#utility.yul\":12353:12432   */\n      tag_552\n      tag_341\n      jump\t// in\n    tag_552:\n        /* \"#utility.yul\":12317:12434   */\n    tag_551:\n        /* \"#utility.yul\":12458:12521   */\n      tag_553\n        /* \"#utility.yul\":12513:12520   */\n      dup5\n        /* \"#utility.yul\":12504:12510   */\n      dup3\n        /* \"#utility.yul\":12493:12502   */\n      dup6\n        /* \"#utility.yul\":12489:12511   */\n      add\n        /* \"#utility.yul\":12458:12521   */\n      tag_378\n      jump\t// in\n    tag_553:\n        /* \"#utility.yul\":12448:12521   */\n      swap2\n      pop\n        /* \"#utility.yul\":12244:12531   */\n      pop\n        /* \"#utility.yul\":12029:12538   */\n      swap3\n      swap2\n      pop\n      pop\n      jump\t// out\n        /* \"#utility.yul\":12544:13018   */\n    tag_100:\n        /* \"#utility.yul\":12612:12618   */\n      0x00\n        /* \"#utility.yul\":12620:12626   */\n      dup1\n        /* \"#utility.yul\":12669:12671   */\n      0x40\n        /* \"#utility.yul\":12657:12666   */\n      dup4\n        /* \"#utility.yul\":12648:12655   */\n      dup6\n        /* \"#utility.yul\":12644:12667   */\n      sub\n        /* \"#utility.yul\":12640:12672   */\n      slt\n        /* \"#utility.yul\":12637:12756   */\n      iszero\n      tag_555\n      jumpi\n        /* \"#utility.yul\":12675:12754   */\n      tag_556\n      tag_340\n      jump\t// in\n    tag_556:\n        /* \"#utility.yul\":12637:12756   */\n    tag_555:\n        /* \"#utility.yul\":12795:12796   */\n      0x00\n        /* \"#utility.yul\":12820:12873   */\n      tag_557\n        /* \"#utility.yul\":12865:12872   */\n      dup6\n        /* \"#utility.yul\":12856:12862   */\n      dup3\n        /* \"#utility.yul\":12845:12854   */\n      dup7\n        /* \"#utility.yul\":12841:12863   */\n      add\n        /* \"#utility.yul\":12820:12873   */\n      tag_359\n      jump\t// in\n    tag_557:\n        /* \"#utility.yul\":12810:12873   */\n      swap3\n      pop\n        /* \"#utility.yul\":12766:12883   */\n      pop\n        /* \"#utility.yul\":12922:12924   */\n      0x20\n        /* \"#utility.yul\":12948:13001   */\n      tag_558\n        /* \"#utility.yul\":12993:13000   */\n      dup6\n        /* \"#utility.yul\":12984:12990   */\n      dup3\n        /* \"#utility.yul\":12973:12982   */\n      dup7\n        /* \"#utility.yul\":12969:12991   */\n      add\n        /* \"#utility.yul\":12948:13001   */\n      tag_359\n      jump\t// in\n    tag_558:\n        /* \"#utility.yul\":12938:13001   */\n      swap2\n      pop\n        /* \"#utility.yul\":12893:13011   */\n      pop\n        /* \"#utility.yul\":12544:13018   */\n      swap3\n      pop\n      swap3\n      swap1\n      pop\n      jump\t// out\n        /* \"#utility.yul\":13024:13204   */\n    tag_379:\n        /* \"#utility.yul\":13072:13149   */\n      0x4e487b7100000000000000000000000000000000000000000000000000000000\n        /* \"#utility.yul\":13069:13070   */\n      0x00\n        /* \"#utility.yul\":13062:13150   */\n      mstore\n        /* \"#utility.yul\":13169:13173   */\n      0x22\n        /* \"#utility.yul\":13166:13167   */\n      0x04\n        /* \"#utility.yul\":13159:13174   */\n      mstore\n        /* \"#utility.yul\":13193:13197   */\n      0x24\n        /* \"#utility.yul\":13190:13191   */\n      0x00\n        /* \"#utility.yul\":13183:13198   */\n      revert\n        /* \"#utility.yul\":13210:13530   */\n    tag_112:\n        /* \"#utility.yul\":13254:13260   */\n      0x00\n        /* \"#utility.yul\":13291:13292   */\n      0x02\n        /* \"#utility.yul\":13285:13289   */\n      dup3\n        /* \"#utility.yul\":13281:13293   */\n      div\n        /* \"#utility.yul\":13271:13293   */\n      swap1\n      pop\n        /* \"#utility.yul\":13338:13339   */\n      0x01\n        /* \"#utility.yul\":13332:13336   */\n      dup3\n        /* \"#utility.yul\":13328:13340   */\n      and\n        /* \"#utility.yul\":13359:13377   */\n      dup1\n        /* \"#utility.yul\":13349:13430   */\n      tag_561\n      jumpi\n        /* \"#utility.yul\":13415:13419   */\n      0x7f\n        /* \"#utility.yul\":13407:13413   */\n      dup3\n        /* \"#utility.yul\":13403:13420   */\n      and\n        /* \"#utility.yul\":13393:13420   */\n      swap2\n      pop\n        /* \"#utility.yul\":13349:13430   */\n    tag_561:\n        /* \"#utility.yul\":13477:13479   */\n      0x20\n        /* \"#utility.yul\":13469:13475   */\n      dup3\n        /* \"#utility.yul\":13466:13480   */\n      lt\n        /* \"#utility.yul\":13446:13464   */\n      dup2\n        /* \"#utility.yul\":13443:13481   */\n      sub\n        /* \"#utility.yul\":13440:13524   */\n      tag_562\n      jumpi\n        /* \"#utility.yul\":13496:13514   */\n      tag_563\n      tag_379\n      jump\t// in\n    tag_563:\n        /* \"#utility.yul\":13440:13524   */\n    tag_562:\n        /* \"#utility.yul\":13261:13530   */\n      pop\n        /* \"#utility.yul\":13210:13530   */\n      swap2\n      swap1\n      pop\n      jump\t// out\n        /* \"#utility.yul\":13536:13978   */\n    tag_135:\n        /* \"#utility.yul\":13685:13689   */\n      0x00\n        /* \"#utility.yul\":13723:13725   */\n      0x60\n        /* \"#utility.yul\":13712:13721   */\n      dup3\n        /* \"#utility.yul\":13708:13726   */\n      add\n        /* \"#utility.yul\":13700:13726   */\n      swap1\n      pop\n        /* \"#utility.yul\":13736:13807   */\n      tag_565\n        /* \"#utility.yul\":13804:13805   */\n      0x00\n        /* \"#utility.yul\":13793:13802   */\n      dup4\n        /* \"#utility.yul\":13789:13806   */\n      add\n        /* \"#utility.yul\":13780:13786   */\n      dup7\n        /* \"#utility.yul\":13736:13807   */\n      tag_357\n      jump\t// in\n    tag_565:\n        /* \"#utility.yul\":13817:13889   */\n      tag_566\n        /* \"#utility.yul\":13885:13887   */\n      0x20\n        /* \"#utility.yul\":13874:13883   */\n      dup4\n        /* \"#utility.yul\":13870:13888   */\n      add\n        /* \"#utility.yul\":13861:13867   */\n      dup6\n        /* \"#utility.yul\":13817:13889   */\n      tag_365\n      jump\t// in\n    tag_566:\n        /* \"#utility.yul\":13899:13971   */\n      tag_567\n        /* \"#utility.yul\":13967:13969   */\n      0x40\n        /* \"#utility.yul\":13956:13965   */\n      dup4\n        /* \"#utility.yul\":13952:13970   */\n      add\n        /* \"#utility.yul\":13943:13949   */\n      dup5\n        /* \"#utility.yul\":13899:13971   */\n      tag_357\n      jump\t// in\n    tag_567:\n        /* \"#utility.yul\":13536:13978   */\n      swap5\n      swap4\n      pop\n      pop\n      pop\n      pop\n      jump\t// out\n        /* \"#utility.yul\":13984:14132   */\n    tag_380:\n        /* \"#utility.yul\":14086:14097   */\n      0x00\n        /* \"#utility.yul\":14123:14126   */\n      dup2\n        /* \"#utility.yul\":14108:14126   */\n      swap1\n      pop\n        /* \"#utility.yul\":13984:14132   */\n      swap3\n      swap2\n      pop\n      pop\n      jump\t// out\n        /* \"#utility.yul\":14138:14528   */\n    tag_381:\n        /* \"#utility.yul\":14244:14247   */\n      0x00\n        /* \"#utility.yul\":14272:14311   */\n      tag_570\n        /* \"#utility.yul\":14305:14310   */\n      dup3\n        /* \"#utility.yul\":14272:14311   */\n      tag_347\n      jump\t// in\n    tag_570:\n        /* \"#utility.yul\":14327:14416   */\n      tag_571\n        /* \"#utility.yul\":14409:14415   */\n      dup2\n        /* \"#utility.yul\":14404:14407   */\n      dup6\n        /* \"#utility.yul\":14327:14416   */\n      tag_380\n      jump\t// in\n    tag_571:\n        /* \"#utility.yul\":14320:14416   */\n      swap4\n      pop\n        /* \"#utility.yul\":14425:14490   */\n      tag_572\n        /* \"#utility.yul\":14483:14489   */\n      dup2\n        /* \"#utility.yul\":14478:14481   */\n      dup6\n        /* \"#utility.yul\":14471:14475   */\n      0x20\n        /* \"#utility.yul\":14464:14469   */\n      dup7\n        /* \"#utility.yul\":14460:14476   */\n      add\n        /* \"#utility.yul\":14425:14490   */\n      tag_349\n      jump\t// in\n    tag_572:\n        /* \"#utility.yul\":14515:14521   */\n      dup1\n        /* \"#utility.yul\":14510:14513   */\n      dup5\n        /* \"#utility.yul\":14506:14522   */\n      add\n        /* \"#utility.yul\":14499:14522   */\n      swap2\n      pop\n        /* \"#utility.yul\":14248:14528   */\n      pop\n        /* \"#utility.yul\":14138:14528   */\n      swap3\n      swap2\n      pop\n      pop\n      jump\t// out\n        /* \"#utility.yul\":14534:14969   */\n    tag_179:\n        /* \"#utility.yul\":14714:14717   */\n      0x00\n        /* \"#utility.yul\":14736:14831   */\n      tag_574\n        /* \"#utility.yul\":14827:14830   */\n      dup3\n        /* \"#utility.yul\":14818:14824   */\n      dup6\n        /* \"#utility.yul\":14736:14831   */\n      tag_381\n      jump\t// in\n    tag_574:\n        /* \"#utility.yul\":14729:14831   */\n      swap2\n      pop\n        /* \"#utility.yul\":14848:14943   */\n      tag_575\n        /* \"#utility.yul\":14939:14942   */\n      dup3\n        /* \"#utility.yul\":14930:14936   */\n      dup5\n        /* \"#utility.yul\":14848:14943   */\n      tag_381\n      jump\t// in\n    tag_575:\n        /* \"#utility.yul\":14841:14943   */\n      swap2\n      pop\n        /* \"#utility.yul\":14960:14963   */\n      dup2\n        /* \"#utility.yul\":14953:14963   */\n      swap1\n      pop\n        /* \"#utility.yul\":14534:14969   */\n      swap4\n      swap3\n      pop\n      pop\n      pop\n      jump\t// out\n        /* \"#utility.yul\":14975:15197   */\n    tag_382:\n        /* \"#utility.yul\":15115:15149   */\n      0x5468652063616c6c65722063616e6e6f742072756e20746869732066756e6374\n        /* \"#utility.yul\":15111:15112   */\n      0x00\n        /* \"#utility.yul\":15103:15109   */\n      dup3\n        /* \"#utility.yul\":15099:15113   */\n      add\n        /* \"#utility.yul\":15092:15150   */\n      mstore\n        /* \"#utility.yul\":15184:15189   */\n      0x696f6e0000000000000000000000000000000000000000000000000000000000\n        /* \"#utility.yul\":15179:15181   */\n      0x20\n        /* \"#utility.yul\":15171:15177   */\n      dup3\n        /* \"#utility.yul\":15167:15182   */\n      add\n        /* \"#utility.yul\":15160:15190   */\n      mstore\n        /* \"#utility.yul\":14975:15197   */\n      pop\n      jump\t// out\n        /* \"#utility.yul\":15203:15569   */\n    tag_383:\n        /* \"#utility.yul\":15345:15348   */\n      0x00\n        /* \"#utility.yul\":15366:15433   */\n      tag_578\n        /* \"#utility.yul\":15430:15432   */\n      0x23\n        /* \"#utility.yul\":15425:15428   */\n      dup4\n        /* \"#utility.yul\":15366:15433   */\n      tag_348\n      jump\t// in\n    tag_578:\n        /* \"#utility.yul\":15359:15433   */\n      swap2\n      pop\n        /* \"#utility.yul\":15442:15535   */\n      tag_579\n        /* \"#utility.yul\":15531:15534   */\n      dup3\n        /* \"#utility.yul\":15442:15535   */\n      tag_382\n      jump\t// in\n    tag_579:\n        /* \"#utility.yul\":15560:15562   */\n      0x40\n        /* \"#utility.yul\":15555:15558   */\n      dup3\n        /* \"#utility.yul\":15551:15563   */\n      add\n        /* \"#utility.yul\":15544:15563   */\n      swap1\n      pop\n        /* \"#utility.yul\":15203:15569   */\n      swap2\n      swap1\n      pop\n      jump\t// out\n        /* \"#utility.yul\":15575:15994   */\n    tag_185:\n        /* \"#utility.yul\":15741:15745   */\n      0x00\n        /* \"#utility.yul\":15779:15781   */\n      0x20\n        /* \"#utility.yul\":15768:15777   */\n      dup3\n        /* \"#utility.yul\":15764:15782   */\n      add\n        /* \"#utility.yul\":15756:15782   */\n      swap1\n      pop\n        /* \"#utility.yul\":15828:15837   */\n      dup2\n        /* \"#utility.yul\":15822:15826   */\n      dup2\n        /* \"#utility.yul\":15818:15838   */\n      sub\n        /* \"#utility.yul\":15814:15815   */\n      0x00\n        /* \"#utility.yul\":15803:15812   */\n      dup4\n        /* \"#utility.yul\":15799:15816   */\n      add\n        /* \"#utility.yul\":15792:15839   */\n      mstore\n        /* \"#utility.yul\":15856:15987   */\n      tag_581\n        /* \"#utility.yul\":15982:15986   */\n      dup2\n        /* \"#utility.yul\":15856:15987   */\n      tag_383\n      jump\t// in\n    tag_581:\n        /* \"#utility.yul\":15848:15987   */\n      swap1\n      pop\n        /* \"#utility.yul\":15575:15994   */\n      swap2\n      swap1\n      pop\n      jump\t// out\n        /* \"#utility.yul\":16000:16180   */\n    tag_384:\n        /* \"#utility.yul\":16048:16125   */\n      0x4e487b7100000000000000000000000000000000000000000000000000000000\n        /* \"#utility.yul\":16045:16046   */\n      0x00\n        /* \"#utility.yul\":16038:16126   */\n      mstore\n        /* \"#utility.yul\":16145:16149   */\n      0x11\n        /* \"#utility.yul\":16142:16143   */\n      0x04\n        /* \"#utility.yul\":16135:16150   */\n      mstore\n        /* \"#utility.yul\":16169:16173   */\n      0x24\n        /* \"#utility.yul\":16166:16167   */\n      0x00\n        /* \"#utility.yul\":16159:16174   */\n      revert\n        /* \"#utility.yul\":16186:16419   */\n    tag_187:\n        /* \"#utility.yul\":16225:16228   */\n      0x00\n        /* \"#utility.yul\":16248:16272   */\n      tag_584\n        /* \"#utility.yul\":16266:16271   */\n      dup3\n        /* \"#utility.yul\":16248:16272   */\n      tag_352\n      jump\t// in\n    tag_584:\n        /* \"#utility.yul\":16239:16272   */\n      swap2\n      pop\n        /* \"#utility.yul\":16294:16360   */\n      0xffffffffffffffffffffffffffffffffffffffffffffffffffffffffffffffff\n        /* \"#utility.yul\":16287:16292   */\n      dup3\n        /* \"#utility.yul\":16284:16361   */\n      sub\n        /* \"#utility.yul\":16281:16384   */\n      tag_585\n      jumpi\n        /* \"#utility.yul\":16364:16382   */\n      tag_586\n      tag_384\n      jump\t// in\n    tag_586:\n        /* \"#utility.yul\":16281:16384   */\n    tag_585:\n        /* \"#utility.yul\":16411:16412   */\n      0x01\n        /* \"#utility.yul\":16404:16409   */\n      dup3\n        /* \"#utility.yul\":16400:16413   */\n      add\n        /* \"#utility.yul\":16393:16413   */\n      swap1\n      pop\n        /* \"#utility.yul\":16186:16419   */\n      swap2\n      swap1\n      pop\n      jump\t// out\n        /* \"#utility.yul\":16425:16523   */\n    tag_385:\n        /* \"#utility.yul\":16476:16482   */\n      0x00\n        /* \"#utility.yul\":16510:16515   */\n      dup2\n        /* \"#utility.yul\":16504:16516   */\n      mload\n        /* \"#utility.yul\":16494:16516   */\n      swap1\n      pop\n        /* \"#utility.yul\":16425:16523   */\n      swap2\n      swap1\n      pop\n      jump\t// out\n        /* \"#utility.yul\":16529:16697   */\n    tag_386:\n        /* \"#utility.yul\":16612:16623   */\n      0x00\n        /* \"#utility.yul\":16646:16652   */\n      dup3\n        /* \"#utility.yul\":16641:16644   */\n      dup3\n        /* \"#utility.yul\":16634:16653   */\n      mstore\n        /* \"#utility.yul\":16686:16690   */\n      0x20\n        /* \"#utility.yul\":16681:16684   */\n      dup3\n        /* \"#utility.yul\":16677:16691   */\n      add\n        /* \"#utility.yul\":16662:16691   */\n      swap1\n      pop\n        /* \"#utility.yul\":16529:16697   */\n      swap3\n      swap2\n      pop\n      pop\n      jump\t// out\n        /* \"#utility.yul\":16703:17076   */\n    tag_387:\n        /* \"#utility.yul\":16789:16792   */\n      0x00\n        /* \"#utility.yul\":16817:16855   */\n      tag_590\n        /* \"#utility.yul\":16849:16854   */\n      dup3\n        /* \"#utility.yul\":16817:16855   */\n      tag_385\n      jump\t// in\n    tag_590:\n        /* \"#utility.yul\":16871:16941   */\n      tag_591\n        /* \"#utility.yul\":16934:16940   */\n      dup2\n        /* \"#utility.yul\":16929:16932   */\n      dup6\n        /* \"#utility.yul\":16871:16941   */\n      tag_386\n      jump\t// in\n    tag_591:\n        /* \"#utility.yul\":16864:16941   */\n      swap4\n      pop\n        /* \"#utility.yul\":16950:17015   */\n      tag_592\n        /* \"#utility.yul\":17008:17014   */\n      dup2\n        /* \"#utility.yul\":17003:17006   */\n      dup6\n        /* \"#utility.yul\":16996:17000   */\n      0x20\n        /* \"#utility.yul\":16989:16994   */\n      dup7\n        /* \"#utility.yul\":16985:17001   */\n      add\n        /* \"#utility.yul\":16950:17015   */\n      tag_349\n      jump\t// in\n    tag_592:\n        /* \"#utility.yul\":17040:17069   */\n      tag_593\n        /* \"#utility.yul\":17062:17068   */\n      dup2\n        /* \"#utility.yul\":17040:17069   */\n      tag_350\n      jump\t// in\n    tag_593:\n        /* \"#utility.yul\":17035:17038   */\n      dup5\n        /* \"#utility.yul\":17031:17070   */\n      add\n        /* \"#utility.yul\":17024:17070   */\n      swap2\n      pop\n        /* \"#utility.yul\":16793:17076   */\n      pop\n        /* \"#utility.yul\":16703:17076   */\n      swap3\n      swap2\n      pop\n      pop\n      jump\t// out\n        /* \"#utility.yul\":17082:17722   */\n    tag_237:\n        /* \"#utility.yul\":17277:17281   */\n      0x00\n        /* \"#utility.yul\":17315:17318   */\n      0x80\n        /* \"#utility.yul\":17304:17313   */\n      dup3\n        /* \"#utility.yul\":17300:17319   */\n      add\n        /* \"#utility.yul\":17292:17319   */\n      swap1\n      pop\n        /* \"#utility.yul\":17329:17400   */\n      tag_595\n        /* \"#utility.yul\":17397:17398   */\n      0x00\n        /* \"#utility.yul\":17386:17395   */\n      dup4\n        /* \"#utility.yul\":17382:17399   */\n      add\n        /* \"#utility.yul\":17373:17379   */\n      dup8\n        /* \"#utility.yul\":17329:17400   */\n      tag_357\n      jump\t// in\n    tag_595:\n        /* \"#utility.yul\":17410:17482   */\n      tag_596\n        /* \"#utility.yul\":17478:17480   */\n      0x20\n        /* \"#utility.yul\":17467:17476   */\n      dup4\n        /* \"#utility.yul\":17463:17481   */\n      add\n        /* \"#utility.yul\":17454:17460   */\n      dup7\n        /* \"#utility.yul\":17410:17482   */\n      tag_357\n      jump\t// in\n    tag_596:\n        /* \"#utility.yul\":17492:17564   */\n      tag_597\n        /* \"#utility.yul\":17560:17562   */\n      0x40\n        /* \"#utility.yul\":17549:17558   */\n      dup4\n        /* \"#utility.yul\":17545:17563   */\n      add\n        /* \"#utility.yul\":17536:17542   */\n      dup6\n        /* \"#utility.yul\":17492:17564   */\n      tag_365\n      jump\t// in\n    tag_597:\n        /* \"#utility.yul\":17611:17620   */\n      dup2\n        /* \"#utility.yul\":17605:17609   */\n      dup2\n        /* \"#utility.yul\":17601:17621   */\n      sub\n        /* \"#utility.yul\":17596:17598   */\n      0x60\n        /* \"#utility.yul\":17585:17594   */\n      dup4\n        /* \"#utility.yul\":17581:17599   */\n      add\n        /* \"#utility.yul\":17574:17622   */\n      mstore\n        /* \"#utility.yul\":17639:17715   */\n      tag_598\n        /* \"#utility.yul\":17710:17714   */\n      dup2\n        /* \"#utility.yul\":17701:17707   */\n      dup5\n        /* \"#utility.yul\":17639:17715   */\n      tag_387\n      jump\t// in\n    tag_598:\n        /* \"#utility.yul\":17631:17715   */\n      swap1\n      pop\n        /* \"#utility.yul\":17082:17722   */\n      swap6\n      swap5\n      pop\n      pop\n      pop\n      pop\n      pop\n      jump\t// out\n        /* \"#utility.yul\":17728:17869   */\n    tag_388:\n        /* \"#utility.yul\":17784:17789   */\n      0x00\n        /* \"#utility.yul\":17815:17821   */\n      dup2\n        /* \"#utility.yul\":17809:17822   */\n      mload\n        /* \"#utility.yul\":17800:17822   */\n      swap1\n      pop\n        /* \"#utility.yul\":17831:17863   */\n      tag_600\n        /* \"#utility.yul\":17857:17862   */\n      dup2\n        /* \"#utility.yul\":17831:17863   */\n      tag_343\n      jump\t// in\n    tag_600:\n        /* \"#utility.yul\":17728:17869   */\n      swap3\n      swap2\n      pop\n      pop\n      jump\t// out\n        /* \"#utility.yul\":17875:18224   */\n    tag_240:\n        /* \"#utility.yul\":17944:17950   */\n      0x00\n        /* \"#utility.yul\":17993:17995   */\n      0x20\n        /* \"#utility.yul\":17981:17990   */\n      dup3\n        /* \"#utility.yul\":17972:17979   */\n      dup5\n        /* \"#utility.yul\":17968:17991   */\n      sub\n        /* \"#utility.yul\":17964:17996   */\n      slt\n        /* \"#utility.yul\":17961:18080   */\n      iszero\n      tag_602\n      jumpi\n        /* \"#utility.yul\":17999:18078   */\n      tag_603\n      tag_340\n      jump\t// in\n    tag_603:\n        /* \"#utility.yul\":17961:18080   */\n    tag_602:\n        /* \"#utility.yul\":18119:18120   */\n      0x00\n        /* \"#utility.yul\":18144:18207   */\n      tag_604\n        /* \"#utility.yul\":18199:18206   */\n      dup5\n        /* \"#utility.yul\":18190:18196   */\n      dup3\n        /* \"#utility.yul\":18179:18188   */\n      dup6\n        /* \"#utility.yul\":18175:18197   */\n      add\n        /* \"#utility.yul\":18144:18207   */\n      tag_388\n      jump\t// in\n    tag_604:\n        /* \"#utility.yul\":18134:18207   */\n      swap2\n      pop\n        /* \"#utility.yul\":18090:18217   */\n      pop\n        /* \"#utility.yul\":17875:18224   */\n      swap3\n      swap2\n      pop\n      pop\n      jump\t// out\n        /* \"#utility.yul\":18230:18371   */\n    tag_389:\n        /* \"#utility.yul\":18279:18283   */\n      0x00\n        /* \"#utility.yul\":18302:18305   */\n      dup2\n        /* \"#utility.yul\":18294:18305   */\n      swap1\n      pop\n        /* \"#utility.yul\":18325:18328   */\n      dup2\n        /* \"#utility.yul\":18322:18323   */\n      0x00\n        /* \"#utility.yul\":18315:18329   */\n      mstore\n        /* \"#utility.yul\":18359:18363   */\n      0x20\n        /* \"#utility.yul\":18356:18357   */\n      0x00\n        /* \"#utility.yul\":18346:18364   */\n      keccak256\n        /* \"#utility.yul\":18338:18364   */\n      swap1\n      pop\n        /* \"#utility.yul\":18230:18371   */\n      swap2\n      swap1\n      pop\n      jump\t// out\n        /* \"#utility.yul\":18377:18470   */\n    tag_390:\n        /* \"#utility.yul\":18414:18420   */\n      0x00\n        /* \"#utility.yul\":18461:18463   */\n      0x20\n        /* \"#utility.yul\":18456:18458   */\n      0x1f\n        /* \"#utility.yul\":18449:18454   */\n      dup4\n        /* \"#utility.yul\":18445:18459   */\n      add\n        /* \"#utility.yul\":18441:18464   */\n      div\n        /* \"#utility.yul\":18431:18464   */\n      swap1\n      pop\n        /* \"#utility.yul\":18377:18470   */\n      swap2\n      swap1\n      pop\n      jump\t// out\n        /* \"#utility.yul\":18476:18583   */\n    tag_391:\n        /* \"#utility.yul\":18520:18528   */\n      0x00\n        /* \"#utility.yul\":18570:18575   */\n      dup3\n        /* \"#utility.yul\":18564:18568   */\n      dup3\n        /* \"#utility.yul\":18560:18576   */\n      shl\n        /* \"#utility.yul\":18539:18576   */\n      swap1\n      pop\n        /* \"#utility.yul\":18476:18583   */\n      swap3\n      swap2\n      pop\n      pop\n      jump\t// out\n        /* \"#utility.yul\":18589:18982   */\n    tag_392:\n        /* \"#utility.yul\":18658:18664   */\n      0x00\n        /* \"#utility.yul\":18708:18709   */\n      0x08\n        /* \"#utility.yul\":18696:18706   */\n      dup4\n        /* \"#utility.yul\":18692:18710   */\n      mul\n        /* \"#utility.yul\":18731:18828   */\n      tag_609\n        /* \"#utility.yul\":18761:18827   */\n      0xffffffffffffffffffffffffffffffffffffffffffffffffffffffffffffffff\n        /* \"#utility.yul\":18750:18759   */\n      dup3\n        /* \"#utility.yul\":18731:18828   */\n      tag_391\n      jump\t// in\n    tag_609:\n        /* \"#utility.yul\":18849:18888   */\n      tag_610\n        /* \"#utility.yul\":18879:18887   */\n      dup7\n        /* \"#utility.yul\":18868:18877   */\n      dup4\n        /* \"#utility.yul\":18849:18888   */\n      tag_391\n      jump\t// in\n    tag_610:\n        /* \"#utility.yul\":18837:18888   */\n      swap6\n      pop\n        /* \"#utility.yul\":18921:18925   */\n      dup1\n        /* \"#utility.yul\":18917:18926   */\n      not\n        /* \"#utility.yul\":18910:18915   */\n      dup5\n        /* \"#utility.yul\":18906:18927   */\n      and\n        /* \"#utility.yul\":18897:18927   */\n      swap4\n      pop\n        /* \"#utility.yul\":18970:18974   */\n      dup1\n        /* \"#utility.yul\":18960:18968   */\n      dup7\n        /* \"#utility.yul\":18956:18975   */\n      and\n        /* \"#utility.yul\":18949:18954   */\n      dup5\n        /* \"#utility.yul\":18946:18976   */\n      or\n        /* \"#utility.yul\":18936:18976   */\n      swap3\n      pop\n        /* \"#utility.yul\":18665:18982   */\n      pop\n      pop\n        /* \"#utility.yul\":18589:18982   */\n      swap4\n      swap3\n      pop\n      pop\n      pop\n      jump\t// out\n        /* \"#utility.yul\":18988:19130   */\n    tag_393:\n        /* \"#utility.yul\":19038:19047   */\n      0x00\n        /* \"#utility.yul\":19071:19124   */\n      tag_612\n        /* \"#utility.yul\":19089:19123   */\n      tag_613\n        /* \"#utility.yul\":19098:19122   */\n      tag_614\n        /* \"#utility.yul\":19116:19121   */\n      dup5\n        /* \"#utility.yul\":19098:19122   */\n      tag_352\n      jump\t// in\n    tag_614:\n        /* \"#utility.yul\":19089:19123   */\n      tag_360\n      jump\t// in\n    tag_613:\n        /* \"#utility.yul\":19071:19124   */\n      tag_352\n      jump\t// in\n    tag_612:\n        /* \"#utility.yul\":19058:19124   */\n      swap1\n      pop\n        /* \"#utility.yul\":18988:19130   */\n      swap2\n      swap1\n      pop\n      jump\t// out\n        /* \"#utility.yul\":19136:19211   */\n    tag_394:\n        /* \"#utility.yul\":19179:19182   */\n      0x00\n        /* \"#utility.yul\":19200:19205   */\n      dup2\n        /* \"#utility.yul\":19193:19205   */\n      swap1\n      pop\n        /* \"#utility.yul\":19136:19211   */\n      swap2\n      swap1\n      pop\n      jump\t// out\n        /* \"#utility.yul\":19217:19486   */\n    tag_395:\n        /* \"#utility.yul\":19327:19366   */\n      tag_617\n        /* \"#utility.yul\":19358:19365   */\n      dup4\n        /* \"#utility.yul\":19327:19366   */\n      tag_393\n      jump\t// in\n    tag_617:\n        /* \"#utility.yul\":19388:19479   */\n      tag_618\n        /* \"#utility.yul\":19437:19478   */\n      tag_619\n        /* \"#utility.yul\":19461:19477   */\n      dup3\n        /* \"#utility.yul\":19437:19478   */\n      tag_394\n      jump\t// in\n    tag_619:\n        /* \"#utility.yul\":19429:19435   */\n      dup5\n        /* \"#utility.yul\":19422:19426   */\n      dup5\n        /* \"#utility.yul\":19416:19427   */\n      sload\n        /* \"#utility.yul\":19388:19479   */\n      tag_392\n      jump\t// in\n    tag_618:\n        /* \"#utility.yul\":19382:19386   */\n      dup3\n        /* \"#utility.yul\":19375:19480   */\n      sstore\n        /* \"#utility.yul\":19293:19486   */\n      pop\n        /* \"#utility.yul\":19217:19486   */\n      pop\n      pop\n      pop\n      jump\t// out\n        /* \"#utility.yul\":19492:19565   */\n    tag_396:\n        /* \"#utility.yul\":19537:19540   */\n      0x00\n        /* \"#utility.yul\":19492:19565   */\n      swap1\n      jump\t// out\n        /* \"#utility.yul\":19571:19760   */\n    tag_397:\n        /* \"#utility.yul\":19648:19680   */\n      tag_622\n      tag_396\n      jump\t// in\n    tag_622:\n        /* \"#utility.yul\":19689:19754   */\n      tag_623\n        /* \"#utility.yul\":19747:19753   */\n      dup2\n        /* \"#utility.yul\":19739:19745   */\n      dup5\n        /* \"#utility.yul\":19733:19737   */\n      dup5\n        /* \"#utility.yul\":19689:19754   */\n      tag_395\n      jump\t// in\n    tag_623:\n        /* \"#utility.yul\":19624:19760   */\n      pop\n        /* \"#utility.yul\":19571:19760   */\n      pop\n      pop\n      jump\t// out\n        /* \"#utility.yul\":19766:19952   */\n    tag_398:\n        /* \"#utility.yul\":19826:19946   */\n    tag_625:\n        /* \"#utility.yul\":19843:19846   */\n      dup2\n        /* \"#utility.yul\":19836:19841   */\n      dup2\n        /* \"#utility.yul\":19833:19847   */\n      lt\n        /* \"#utility.yul\":19826:19946   */\n      iszero\n      tag_627\n      jumpi\n        /* \"#utility.yul\":19897:19936   */\n      tag_628\n        /* \"#utility.yul\":19934:19935   */\n      0x00\n        /* \"#utility.yul\":19927:19932   */\n      dup3\n        /* \"#utility.yul\":19897:19936   */\n      tag_397\n      jump\t// in\n    tag_628:\n        /* \"#utility.yul\":19870:19871   */\n      0x01\n        /* \"#utility.yul\":19863:19868   */\n      dup2\n        /* \"#utility.yul\":19859:19872   */\n      add\n        /* \"#utility.yul\":19850:19872   */\n      swap1\n      pop\n        /* \"#utility.yul\":19826:19946   */\n      jump(tag_625)\n    tag_627:\n        /* \"#utility.yul\":19766:19952   */\n      pop\n      pop\n      jump\t// out\n        /* \"#utility.yul\":19958:20501   */\n    tag_399:\n        /* \"#utility.yul\":20059:20061   */\n      0x1f\n        /* \"#utility.yul\":20054:20057   */\n      dup3\n        /* \"#utility.yul\":20051:20062   */\n      gt\n        /* \"#utility.yul\":20048:20494   */\n      iszero\n      tag_630\n      jumpi\n        /* \"#utility.yul\":20093:20131   */\n      tag_631\n        /* \"#utility.yul\":20125:20130   */\n      dup2\n        /* \"#utility.yul\":20093:20131   */\n      tag_389\n      jump\t// in\n    tag_631:\n        /* \"#utility.yul\":20177:20206   */\n      tag_632\n        /* \"#utility.yul\":20195:20205   */\n      dup5\n        /* \"#utility.yul\":20177:20206   */\n      tag_390\n      jump\t// in\n    tag_632:\n        /* \"#utility.yul\":20167:20175   */\n      dup2\n        /* \"#utility.yul\":20163:20207   */\n      add\n        /* \"#utility.yul\":20360:20362   */\n      0x20\n        /* \"#utility.yul\":20348:20358   */\n      dup6\n        /* \"#utility.yul\":20345:20363   */\n      lt\n        /* \"#utility.yul\":20342:20391   */\n      iszero\n      tag_633\n      jumpi\n        /* \"#utility.yul\":20381:20389   */\n      dup2\n        /* \"#utility.yul\":20366:20389   */\n      swap1\n      pop\n        /* \"#utility.yul\":20342:20391   */\n    tag_633:\n        /* \"#utility.yul\":20404:20484   */\n      tag_634\n        /* \"#utility.yul\":20460:20482   */\n      tag_635\n        /* \"#utility.yul\":20478:20481   */\n      dup6\n        /* \"#utility.yul\":20460:20482   */\n      tag_390\n      jump\t// in\n    tag_635:\n        /* \"#utility.yul\":20450:20458   */\n      dup4\n        /* \"#utility.yul\":20446:20483   */\n      add\n        /* \"#utility.yul\":20433:20444   */\n      dup3\n        /* \"#utility.yul\":20404:20484   */\n      tag_398\n      jump\t// in\n    tag_634:\n        /* \"#utility.yul\":20063:20494   */\n      pop\n      pop\n        /* \"#utility.yul\":20048:20494   */\n    tag_630:\n        /* \"#utility.yul\":19958:20501   */\n      pop\n      pop\n      pop\n      jump\t// out\n        /* \"#utility.yul\":20507:20624   */\n    tag_400:\n        /* \"#utility.yul\":20561:20569   */\n      0x00\n        /* \"#utility.yul\":20611:20616   */\n      dup3\n        /* \"#utility.yul\":20605:20609   */\n      dup3\n        /* \"#utility.yul\":20601:20617   */\n      shr\n        /* \"#utility.yul\":20580:20617   */\n      swap1\n      pop\n        /* \"#utility.yul\":20507:20624   */\n      swap3\n      swap2\n      pop\n      pop\n      jump\t// out\n        /* \"#utility.yul\":20630:20799   */\n    tag_401:\n        /* \"#utility.yul\":20674:20680   */\n      0x00\n        /* \"#utility.yul\":20707:20758   */\n      tag_638\n        /* \"#utility.yul\":20755:20756   */\n      0x00\n        /* \"#utility.yul\":20751:20757   */\n      not\n        /* \"#utility.yul\":20743:20748   */\n      dup5\n        /* \"#utility.yul\":20740:20741   */\n      0x08\n        /* \"#utility.yul\":20736:20749   */\n      mul\n        /* \"#utility.yul\":20707:20758   */\n      tag_400\n      jump\t// in\n    tag_638:\n        /* \"#utility.yul\":20703:20759   */\n      not\n        /* \"#utility.yul\":20788:20792   */\n      dup1\n        /* \"#utility.yul\":20782:20786   */\n      dup4\n        /* \"#utility.yul\":20778:20793   */\n      and\n        /* \"#utility.yul\":20768:20793   */\n      swap2\n      pop\n        /* \"#utility.yul\":20681:20799   */\n      pop\n        /* \"#utility.yul\":20630:20799   */\n      swap3\n      swap2\n      pop\n      pop\n      jump\t// out\n        /* \"#utility.yul\":20804:21099   */\n    tag_402:\n        /* \"#utility.yul\":20880:20884   */\n      0x00\n        /* \"#utility.yul\":21026:21055   */\n      tag_640\n        /* \"#utility.yul\":21051:21054   */\n      dup4\n        /* \"#utility.yul\":21045:21049   */\n      dup4\n        /* \"#utility.yul\":21026:21055   */\n      tag_401\n      jump\t// in\n    tag_640:\n        /* \"#utility.yul\":21018:21055   */\n      swap2\n      pop\n        /* \"#utility.yul\":21088:21091   */\n      dup3\n        /* \"#utility.yul\":21085:21086   */\n      0x02\n        /* \"#utility.yul\":21081:21092   */\n      mul\n        /* \"#utility.yul\":21075:21079   */\n      dup3\n        /* \"#utility.yul\":21072:21093   */\n      or\n        /* \"#utility.yul\":21064:21093   */\n      swap1\n      pop\n        /* \"#utility.yul\":20804:21099   */\n      swap3\n      swap2\n      pop\n      pop\n      jump\t// out\n        /* \"#utility.yul\":21104:22499   */\n    tag_267:\n        /* \"#utility.yul\":21221:21258   */\n      tag_642\n        /* \"#utility.yul\":21254:21257   */\n      dup3\n        /* \"#utility.yul\":21221:21258   */\n      tag_347\n      jump\t// in\n    tag_642:\n        /* \"#utility.yul\":21323:21341   */\n      0xffffffffffffffff\n        /* \"#utility.yul\":21315:21321   */\n      dup2\n        /* \"#utility.yul\":21312:21342   */\n      gt\n        /* \"#utility.yul\":21309:21365   */\n      iszero\n      tag_643\n      jumpi\n        /* \"#utility.yul\":21345:21363   */\n      tag_644\n      tag_295\n      jump\t// in\n    tag_644:\n        /* \"#utility.yul\":21309:21365   */\n    tag_643:\n        /* \"#utility.yul\":21389:21427   */\n      tag_645\n        /* \"#utility.yul\":21421:21425   */\n      dup3\n        /* \"#utility.yul\":21415:21426   */\n      sload\n        /* \"#utility.yul\":21389:21427   */\n      tag_112\n      jump\t// in\n    tag_645:\n        /* \"#utility.yul\":21474:21541   */\n      tag_646\n        /* \"#utility.yul\":21534:21540   */\n      dup3\n        /* \"#utility.yul\":21526:21532   */\n      dup3\n        /* \"#utility.yul\":21520:21524   */\n      dup6\n        /* \"#utility.yul\":21474:21541   */\n      tag_399\n      jump\t// in\n    tag_646:\n        /* \"#utility.yul\":21568:21569   */\n      0x00\n        /* \"#utility.yul\":21592:21596   */\n      0x20\n        /* \"#utility.yul\":21579:21596   */\n      swap1\n      pop\n        /* \"#utility.yul\":21624:21626   */\n      0x1f\n        /* \"#utility.yul\":21616:21622   */\n      dup4\n        /* \"#utility.yul\":21613:21627   */\n      gt\n        /* \"#utility.yul\":21641:21642   */\n      0x01\n        /* \"#utility.yul\":21636:22254   */\n      dup2\n      eq\n      tag_648\n      jumpi\n        /* \"#utility.yul\":22298:22299   */\n      0x00\n        /* \"#utility.yul\":22315:22321   */\n      dup5\n        /* \"#utility.yul\":22312:22389   */\n      iszero\n      tag_649\n      jumpi\n        /* \"#utility.yul\":22364:22373   */\n      dup3\n        /* \"#utility.yul\":22359:22362   */\n      dup8\n        /* \"#utility.yul\":22355:22374   */\n      add\n        /* \"#utility.yul\":22349:22375   */\n      mload\n        /* \"#utility.yul\":22340:22375   */\n      swap1\n      pop\n        /* \"#utility.yul\":22312:22389   */\n    tag_649:\n        /* \"#utility.yul\":22415:22482   */\n      tag_650\n        /* \"#utility.yul\":22475:22481   */\n      dup6\n        /* \"#utility.yul\":22468:22473   */\n      dup3\n        /* \"#utility.yul\":22415:22482   */\n      tag_402\n      jump\t// in\n    tag_650:\n        /* \"#utility.yul\":22409:22413   */\n      dup7\n        /* \"#utility.yul\":22402:22483   */\n      sstore\n        /* \"#utility.yul\":22271:22493   */\n      pop\n        /* \"#utility.yul\":21606:22493   */\n      jump(tag_647)\n        /* \"#utility.yul\":21636:22254   */\n    tag_648:\n        /* \"#utility.yul\":21688:21692   */\n      0x1f\n        /* \"#utility.yul\":21684:21693   */\n      not\n        /* \"#utility.yul\":21676:21682   */\n      dup5\n        /* \"#utility.yul\":21672:21694   */\n      and\n        /* \"#utility.yul\":21722:21759   */\n      tag_651\n        /* \"#utility.yul\":21754:21758   */\n      dup7\n        /* \"#utility.yul\":21722:21759   */\n      tag_389\n      jump\t// in\n    tag_651:\n        /* \"#utility.yul\":21781:21782   */\n      0x00\n        /* \"#utility.yul\":21795:22003   */\n    tag_652:\n        /* \"#utility.yul\":21809:21816   */\n      dup3\n        /* \"#utility.yul\":21806:21807   */\n      dup2\n        /* \"#utility.yul\":21803:21817   */\n      lt\n        /* \"#utility.yul\":21795:22003   */\n      iszero\n      tag_654\n      jumpi\n        /* \"#utility.yul\":21888:21897   */\n      dup5\n        /* \"#utility.yul\":21883:21886   */\n      dup10\n        /* \"#utility.yul\":21879:21898   */\n      add\n        /* \"#utility.yul\":21873:21899   */\n      mload\n        /* \"#utility.yul\":21865:21871   */\n      dup3\n        /* \"#utility.yul\":21858:21900   */\n      sstore\n        /* \"#utility.yul\":21939:21940   */\n      0x01\n        /* \"#utility.yul\":21931:21937   */\n      dup3\n        /* \"#utility.yul\":21927:21941   */\n      add\n        /* \"#utility.yul\":21917:21941   */\n      swap2\n      pop\n        /* \"#utility.yul\":21986:21988   */\n      0x20\n        /* \"#utility.yul\":21975:21984   */\n      dup6\n        /* \"#utility.yul\":21971:21989   */\n      add\n        /* \"#utility.yul\":21958:21989   */\n      swap5\n      pop\n        /* \"#utility.yul\":21832:21836   */\n      0x20\n        /* \"#utility.yul\":21829:21830   */\n      dup2\n        /* \"#utility.yul\":21825:21837   */\n      add\n        /* \"#utility.yul\":21820:21837   */\n      swap1\n      pop\n        /* \"#utility.yul\":21795:22003   */\n      jump(tag_652)\n    tag_654:\n        /* \"#utility.yul\":22031:22037   */\n      dup7\n        /* \"#utility.yul\":22022:22029   */\n      dup4\n        /* \"#utility.yul\":22019:22038   */\n      lt\n        /* \"#utility.yul\":22016:22195   */\n      iszero\n      tag_655\n      jumpi\n        /* \"#utility.yul\":22089:22098   */\n      dup5\n        /* \"#utility.yul\":22084:22087   */\n      dup10\n        /* \"#utility.yul\":22080:22099   */\n      add\n        /* \"#utility.yul\":22074:22100   */\n      mload\n        /* \"#utility.yul\":22132:22180   */\n      tag_656\n        /* \"#utility.yul\":22174:22178   */\n      0x1f\n        /* \"#utility.yul\":22166:22172   */\n      dup10\n        /* \"#utility.yul\":22162:22179   */\n      and\n        /* \"#utility.yul\":22151:22160   */\n      dup3\n        /* \"#utility.yul\":22132:22180   */\n      tag_401\n      jump\t// in\n    tag_656:\n        /* \"#utility.yul\":22124:22130   */\n      dup4\n        /* \"#utility.yul\":22117:22181   */\n      sstore\n        /* \"#utility.yul\":22039:22195   */\n      pop\n        /* \"#utility.yul\":22016:22195   */\n    tag_655:\n        /* \"#utility.yul\":22241:22242   */\n      0x01\n        /* \"#utility.yul\":22237:22238   */\n      0x02\n        /* \"#utility.yul\":22229:22235   */\n      dup9\n        /* \"#utility.yul\":22225:22239   */\n      mul\n        /* \"#utility.yul\":22221:22243   */\n      add\n        /* \"#utility.yul\":22215:22219   */\n      dup9\n        /* \"#utility.yul\":22208:22244   */\n      sstore\n        /* \"#utility.yul\":21643:22254   */\n      pop\n      pop\n      pop\n        /* \"#utility.yul\":21606:22493   */\n    tag_647:\n      pop\n        /* \"#utility.yul\":21196:22499   */\n      pop\n      pop\n      pop\n        /* \"#utility.yul\":21104:22499   */\n      pop\n      pop\n      jump\t// out\n        /* \"#utility.yul\":22505:22837   */\n    tag_289:\n        /* \"#utility.yul\":22626:22630   */\n      0x00\n        /* \"#utility.yul\":22664:22666   */\n      0x40\n        /* \"#utility.yul\":22653:22662   */\n      dup3\n        /* \"#utility.yul\":22649:22667   */\n      add\n        /* \"#utility.yul\":22641:22667   */\n      swap1\n      pop\n        /* \"#utility.yul\":22677:22748   */\n      tag_658\n        /* \"#utility.yul\":22745:22746   */\n      0x00\n        /* \"#utility.yul\":22734:22743   */\n      dup4\n        /* \"#utility.yul\":22730:22747   */\n      add\n        /* \"#utility.yul\":22721:22727   */\n      dup6\n        /* \"#utility.yul\":22677:22748   */\n      tag_357\n      jump\t// in\n    tag_658:\n        /* \"#utility.yul\":22758:22830   */\n      tag_659\n        /* \"#utility.yul\":22826:22828   */\n      0x20\n        /* \"#utility.yul\":22815:22824   */\n      dup4\n        /* \"#utility.yul\":22811:22829   */\n      add\n        /* \"#utility.yul\":22802:22808   */\n      dup5\n        /* \"#utility.yul\":22758:22830   */\n      tag_365\n      jump\t// in\n    tag_659:\n        /* \"#utility.yul\":22505:22837   */\n      swap4\n      swap3\n      pop\n      pop\n      pop\n      jump\t// out\n        /* \"#utility.yul\":22843:23023   */\n    tag_301:\n        /* \"#utility.yul\":22891:22968   */\n      0x4e487b7100000000000000000000000000000000000000000000000000000000\n        /* \"#utility.yul\":22888:22889   */\n      0x00\n        /* \"#utility.yul\":22881:22969   */\n      mstore\n        /* \"#utility.yul\":22988:22992   */\n      0x12\n        /* \"#utility.yul\":22985:22986   */\n      0x04\n        /* \"#utility.yul\":22978:22993   */\n      mstore\n        /* \"#utility.yul\":23012:23016   */\n      0x24\n        /* \"#utility.yul\":23009:23010   */\n      0x00\n        /* \"#utility.yul\":23002:23017   */\n      revert\n\n    auxdata: 0xa2646970667358221220eaea9ea8e823e8af3cc66426d6c856cea0b892d3d003c41d50550939ea54537c64736f6c63430008170033\n}\n",
				"bytecode": {
					"linkReferences": {},
					"object": "608060405234801562000010575f80fd5b50336040518060400160405280600a81526020017f496e63656e7469766573000000000000000000000000000000000000000000008152506040518060400160405280600481526020017f494e465400000000000000000000000000000000000000000000000000000000815250815f90816200008e919062000455565b508060019081620000a0919062000455565b5050505f73ffffffffffffffffffffffffffffffffffffffff168173ffffffffffffffffffffffffffffffffffffffff160362000116575f6040517f1e4fbdf70000000000000000000000000000000000000000000000000000000081526004016200010d91906200057c565b60405180910390fd5b62000127816200012e60201b60201c565b5062000597565b5f60075f9054906101000a900473ffffffffffffffffffffffffffffffffffffffff1690508160075f6101000a81548173ffffffffffffffffffffffffffffffffffffffff021916908373ffffffffffffffffffffffffffffffffffffffff1602179055508173ffffffffffffffffffffffffffffffffffffffff168173ffffffffffffffffffffffffffffffffffffffff167f8be0079c531659141344cd1fd0a4f28419497f9722a3daafe3b4186f6b6457e060405160405180910390a35050565b5f81519050919050565b7f4e487b71000000000000000000000000000000000000000000000000000000005f52604160045260245ffd5b7f4e487b71000000000000000000000000000000000000000000000000000000005f52602260045260245ffd5b5f60028204905060018216806200026d57607f821691505b60208210810362000283576200028262000228565b5b50919050565b5f819050815f5260205f209050919050565b5f6020601f8301049050919050565b5f82821b905092915050565b5f60088302620002e77fffffffffffffffffffffffffffffffffffffffffffffffffffffffffffffffff82620002aa565b620002f38683620002aa565b95508019841693508086168417925050509392505050565b5f819050919050565b5f819050919050565b5f6200033d6200033762000331846200030b565b62000314565b6200030b565b9050919050565b5f819050919050565b62000358836200031d565b62000370620003678262000344565b848454620002b6565b825550505050565b5f90565b6200038662000378565b620003938184846200034d565b505050565b5b81811015620003ba57620003ae5f826200037c565b60018101905062000399565b5050565b601f8211156200040957620003d38162000289565b620003de846200029b565b81016020851015620003ee578190505b62000406620003fd856200029b565b83018262000398565b50505b505050565b5f82821c905092915050565b5f6200042b5f19846008026200040e565b1980831691505092915050565b5f6200044583836200041a565b9150826002028217905092915050565b6200046082620001f1565b67ffffffffffffffff8111156200047c576200047b620001fb565b5b62000488825462000255565b62000495828285620003be565b5f60209050601f831160018114620004cb575f8415620004b6578287015190505b620004c2858262000438565b86555062000531565b601f198416620004db8662000289565b5f5b828110156200050457848901518255600182019150602085019450602081019050620004dd565b8683101562000524578489015162000520601f8916826200041a565b8355505b6001600288020188555050505b505050505050565b5f73ffffffffffffffffffffffffffffffffffffffff82169050919050565b5f620005648262000539565b9050919050565b620005768162000558565b82525050565b5f602082019050620005915f8301846200056b565b92915050565b6127fd80620005a55f395ff3fe608060405234801561000f575f80fd5b506004361061012a575f3560e01c80638da5cb5b116100ab578063b88d4fde1161006f578063b88d4fde1461031a578063c87b56dd14610336578063d85d3d2714610366578063e985e9c514610396578063f2fde38b146103c65761012a565b80638da5cb5b1461028857806395d89b41146102a65780639f181b5e146102c4578063a22cb465146102e2578063b876e3b6146102fe5761012a565b806342842e0e116100f257806342842e0e146101e45780635f53575f146102005780636352211e1461021e57806370a082311461024e578063715018a61461027e5761012a565b806301ffc9a71461012e57806306fdde031461015e578063081812fc1461017c578063095ea7b3146101ac57806323b872dd146101c8575b5f80fd5b61014860048036038101906101439190611bd0565b6103e2565b6040516101559190611c15565b60405180910390f35b610166610442565b6040516101739190611cb8565b60405180910390f35b61019660048036038101906101919190611d0b565b6104d1565b6040516101a39190611d75565b60405180910390f35b6101c660048036038101906101c19190611db8565b6104ec565b005b6101e260048036038101906101dd9190611df6565b610502565b005b6101fe60048036038101906101f99190611df6565b610601565b005b610208610620565b6040516102159190611ea1565b60405180910390f35b61023860048036038101906102339190611d0b565b610645565b6040516102459190611d75565b60405180910390f35b61026860048036038101906102639190611eba565b610656565b6040516102759190611ef4565b60405180910390f35b61028661070c565b005b61029061071f565b60405161029d9190611d75565b60405180910390f35b6102ae610747565b6040516102bb9190611cb8565b60405180910390f35b6102cc6107d7565b6040516102d99190611ef4565b60405180910390f35b6102fc60048036038101906102f79190611f37565b6107dd565b005b61031860048036038101906103139190611eba565b6107f3565b005b610334600480360381019061032f91906120a1565b61083e565b005b610350600480360381019061034b9190611d0b565b61085b565b60405161035d9190611cb8565b60405180910390f35b610380600480360381019061037b91906121bf565b610966565b60405161038d9190611ef4565b60405180910390f35b6103b060048036038101906103ab9190612206565b610a2f565b6040516103bd9190611c15565b60405180910390f35b6103e060048036038101906103db9190611eba565b610abd565b005b5f634906490660e01b7bffffffffffffffffffffffffffffffffffffffffffffffffffffffff1916827bffffffffffffffffffffffffffffffffffffffffffffffffffffffff1916148061043b575061043a82610b41565b5b9050919050565b60605f805461045090612271565b80601f016020809104026020016040519081016040528092919081815260200182805461047c90612271565b80156104c75780601f1061049e576101008083540402835291602001916104c7565b820191905f5260205f20905b8154815290600101906020018083116104aa57829003601f168201915b5050505050905090565b5f6104db82610c22565b506104e582610ca8565b9050919050565b6104fe82826104f9610ce1565b610ce8565b5050565b5f73ffffffffffffffffffffffffffffffffffffffff168273ffffffffffffffffffffffffffffffffffffffff1603610572575f6040517f64a0ae920000000000000000000000000000000000000000000000000000000081526004016105699190611d75565b60405180910390fd5b5f6105858383610580610ce1565b610cfa565b90508373ffffffffffffffffffffffffffffffffffffffff168173ffffffffffffffffffffffffffffffffffffffff16146105fb578382826040517f64283d7b0000000000000000000000000000000000000000000000000000000081526004016105f2939291906122a1565b60405180910390fd5b50505050565b61061b83838360405180602001604052805f81525061083e565b505050565b60085f9054906101000a900473ffffffffffffffffffffffffffffffffffffffff1681565b5f61064f82610c22565b9050919050565b5f8073ffffffffffffffffffffffffffffffffffffffff168273ffffffffffffffffffffffffffffffffffffffff16036106c7575f6040517f89c62b640000000000000000000000000000000000000000000000000000000081526004016106be9190611d75565b60405180910390fd5b60035f8373ffffffffffffffffffffffffffffffffffffffff1673ffffffffffffffffffffffffffffffffffffffff1681526020019081526020015f20549050919050565b610714610f05565b61071d5f610f8c565b565b5f60075f9054906101000a900473ffffffffffffffffffffffffffffffffffffffff16905090565b60606001805461075690612271565b80601f016020809104026020016040519081016040528092919081815260200182805461078290612271565b80156107cd5780601f106107a4576101008083540402835291602001916107cd565b820191905f5260205f20905b8154815290600101906020018083116107b057829003601f168201915b5050505050905090565b60095481565b6107ef6107e8610ce1565b838361104f565b5050565b6107fb610f05565b8060085f6101000a81548173ffffffffffffffffffffffffffffffffffffffff021916908373ffffffffffffffffffffffffffffffffffffffff16021790555050565b610849848484610502565b610855848484846111b8565b50505050565b606061086682610c22565b505f60065f8481526020019081526020015f20805461088490612271565b80601f01602080910402602001604051908101604052809291908181526020018280546108b090612271565b80156108fb5780601f106108d2576101008083540402835291602001916108fb565b820191905f5260205f20905b8154815290600101906020018083116108de57829003601f168201915b505050505090505f61090b61136a565b90505f81510361091f578192505050610961565b5f8251111561095357808260405160200161093b929190612310565b60405160208183030381529060405292505050610961565b61095c84611380565b925050505b919050565b5f60085f9054906101000a900473ffffffffffffffffffffffffffffffffffffffff1673ffffffffffffffffffffffffffffffffffffffff163373ffffffffffffffffffffffffffffffffffffffff16146109f6576040517f08c379a00000000000000000000000000000000000000000000000000000000081526004016109ed906123a3565b60405180910390fd5b60095f815480929190610a08906123ee565b9190505550610a19336009546113e6565b610a2560095483611403565b6009549050919050565b5f60055f8473ffffffffffffffffffffffffffffffffffffffff1673ffffffffffffffffffffffffffffffffffffffff1681526020019081526020015f205f8373ffffffffffffffffffffffffffffffffffffffff1673ffffffffffffffffffffffffffffffffffffffff1681526020019081526020015f205f9054906101000a900460ff16905092915050565b610ac5610f05565b5f73ffffffffffffffffffffffffffffffffffffffff168173ffffffffffffffffffffffffffffffffffffffff1603610b35575f6040517f1e4fbdf7000000000000000000000000000000000000000000000000000000008152600401610b2c9190611d75565b60405180910390fd5b610b3e81610f8c565b50565b5f7f80ac58cd000000000000000000000000000000000000000000000000000000007bffffffffffffffffffffffffffffffffffffffffffffffffffffffff1916827bffffffffffffffffffffffffffffffffffffffffffffffffffffffff19161480610c0b57507f5b5e139f000000000000000000000000000000000000000000000000000000007bffffffffffffffffffffffffffffffffffffffffffffffffffffffff1916827bffffffffffffffffffffffffffffffffffffffffffffffffffffffff1916145b80610c1b5750610c1a8261145d565b5b9050919050565b5f80610c2d836114c6565b90505f73ffffffffffffffffffffffffffffffffffffffff168173ffffffffffffffffffffffffffffffffffffffff1603610c9f57826040517f7e273289000000000000000000000000000000000000000000000000000000008152600401610c969190611ef4565b60405180910390fd5b80915050919050565b5f60045f8381526020019081526020015f205f9054906101000a900473ffffffffffffffffffffffffffffffffffffffff169050919050565b5f33905090565b610cf583838360016114ff565b505050565b5f80610d05846114c6565b90505f73ffffffffffffffffffffffffffffffffffffffff168373ffffffffffffffffffffffffffffffffffffffff1614610d4657610d458184866116be565b5b5f73ffffffffffffffffffffffffffffffffffffffff168173ffffffffffffffffffffffffffffffffffffffff1614610dd157610d855f855f806114ff565b600160035f8373ffffffffffffffffffffffffffffffffffffffff1673ffffffffffffffffffffffffffffffffffffffff1681526020019081526020015f205f82825403925050819055505b5f73ffffffffffffffffffffffffffffffffffffffff168573ffffffffffffffffffffffffffffffffffffffff1614610e5057600160035f8773ffffffffffffffffffffffffffffffffffffffff1673ffffffffffffffffffffffffffffffffffffffff1681526020019081526020015f205f82825401925050819055505b8460025f8681526020019081526020015f205f6101000a81548173ffffffffffffffffffffffffffffffffffffffff021916908373ffffffffffffffffffffffffffffffffffffffff160217905550838573ffffffffffffffffffffffffffffffffffffffff168273ffffffffffffffffffffffffffffffffffffffff167fddf252ad1be2c89b69c2b068fc378daa952ba7f163c4a11628f55a4df523b3ef60405160405180910390a4809150509392505050565b610f0d610ce1565b73ffffffffffffffffffffffffffffffffffffffff16610f2b61071f565b73ffffffffffffffffffffffffffffffffffffffff1614610f8a57610f4e610ce1565b6040517f118cdaa7000000000000000000000000000000000000000000000000000000008152600401610f819190611d75565b60405180910390fd5b565b5f60075f9054906101000a900473ffffffffffffffffffffffffffffffffffffffff1690508160075f6101000a81548173ffffffffffffffffffffffffffffffffffffffff021916908373ffffffffffffffffffffffffffffffffffffffff1602179055508173ffffffffffffffffffffffffffffffffffffffff168173ffffffffffffffffffffffffffffffffffffffff167f8be0079c531659141344cd1fd0a4f28419497f9722a3daafe3b4186f6b6457e060405160405180910390a35050565b5f73ffffffffffffffffffffffffffffffffffffffff168273ffffffffffffffffffffffffffffffffffffffff16036110bf57816040517f5b08ba180000000000000000000000000000000000000000000000000000000081526004016110b69190611d75565b60405180910390fd5b8060055f8573ffffffffffffffffffffffffffffffffffffffff1673ffffffffffffffffffffffffffffffffffffffff1681526020019081526020015f205f8473ffffffffffffffffffffffffffffffffffffffff1673ffffffffffffffffffffffffffffffffffffffff1681526020019081526020015f205f6101000a81548160ff0219169083151502179055508173ffffffffffffffffffffffffffffffffffffffff168373ffffffffffffffffffffffffffffffffffffffff167f17307eab39ab6107e8899845ad3d59bd9653f200f220920489ca2b5937696c31836040516111ab9190611c15565b60405180910390a3505050565b5f8373ffffffffffffffffffffffffffffffffffffffff163b1115611364578273ffffffffffffffffffffffffffffffffffffffff1663150b7a026111fb610ce1565b8685856040518563ffffffff1660e01b815260040161121d9493929190612487565b6020604051808303815f875af192505050801561125857506040513d601f19601f8201168201806040525081019061125591906124e5565b60015b6112d9573d805f8114611286576040519150601f19603f3d011682016040523d82523d5f602084013e61128b565b606091505b505f8151036112d157836040517f64a0ae920000000000000000000000000000000000000000000000000000000081526004016112c89190611d75565b60405180910390fd5b805181602001fd5b63150b7a0260e01b7bffffffffffffffffffffffffffffffffffffffffffffffffffffffff1916817bffffffffffffffffffffffffffffffffffffffffffffffffffffffff19161461136257836040517f64a0ae920000000000000000000000000000000000000000000000000000000081526004016113599190611d75565b60405180910390fd5b505b50505050565b606060405180602001604052805f815250905090565b606061138b82610c22565b505f61139561136a565b90505f8151116113b35760405180602001604052805f8152506113de565b806113bd84611781565b6040516020016113ce929190612310565b6040516020818303038152906040525b915050919050565b6113ff828260405180602001604052805f81525061184b565b5050565b8060065f8481526020019081526020015f20908161142191906126a4565b507ff8e1a15aba9398e019f0b49df1a4fde98ee17ae345cb5f6b5e2c27f5033e8ce7826040516114519190611ef4565b60405180910390a15050565b5f7f01ffc9a7000000000000000000000000000000000000000000000000000000007bffffffffffffffffffffffffffffffffffffffffffffffffffffffff1916827bffffffffffffffffffffffffffffffffffffffffffffffffffffffff1916149050919050565b5f60025f8381526020019081526020015f205f9054906101000a900473ffffffffffffffffffffffffffffffffffffffff169050919050565b808061153757505f73ffffffffffffffffffffffffffffffffffffffff168273ffffffffffffffffffffffffffffffffffffffff1614155b15611669575f61154684610c22565b90505f73ffffffffffffffffffffffffffffffffffffffff168373ffffffffffffffffffffffffffffffffffffffff16141580156115b057508273ffffffffffffffffffffffffffffffffffffffff168173ffffffffffffffffffffffffffffffffffffffff1614155b80156115c357506115c18184610a2f565b155b1561160557826040517fa9fbf51f0000000000000000000000000000000000000000000000000000000081526004016115fc9190611d75565b60405180910390fd5b811561166757838573ffffffffffffffffffffffffffffffffffffffff168273ffffffffffffffffffffffffffffffffffffffff167f8c5be1e5ebec7d5bd14f71427d1e84f3dd0314c0f7b2291e5b200ac8c7c3b92560405160405180910390a45b505b8360045f8581526020019081526020015f205f6101000a81548173ffffffffffffffffffffffffffffffffffffffff021916908373ffffffffffffffffffffffffffffffffffffffff16021790555050505050565b6116c9838383611866565b61177c575f73ffffffffffffffffffffffffffffffffffffffff168373ffffffffffffffffffffffffffffffffffffffff160361173d57806040517f7e2732890000000000000000000000000000000000000000000000000000000081526004016117349190611ef4565b60405180910390fd5b81816040517f177e802f000000000000000000000000000000000000000000000000000000008152600401611773929190612773565b60405180910390fd5b505050565b60605f600161178f84611926565b0190505f8167ffffffffffffffff8111156117ad576117ac611f7d565b5b6040519080825280601f01601f1916602001820160405280156117df5781602001600182028036833780820191505090505b5090505f82602001820190505b600115611840578080600190039150507f3031323334353637383961626364656600000000000000000000000000000000600a86061a8153600a85816118355761183461279a565b5b0494505f85036117ec575b819350505050919050565b6118558383611a77565b6118615f8484846111b8565b505050565b5f8073ffffffffffffffffffffffffffffffffffffffff168373ffffffffffffffffffffffffffffffffffffffff161415801561191d57508273ffffffffffffffffffffffffffffffffffffffff168473ffffffffffffffffffffffffffffffffffffffff1614806118de57506118dd8484610a2f565b5b8061191c57508273ffffffffffffffffffffffffffffffffffffffff1661190483610ca8565b73ffffffffffffffffffffffffffffffffffffffff16145b5b90509392505050565b5f805f90507a184f03e93ff9f4daa797ed6e38ed64bf6a1f0100000000000000008310611982577a184f03e93ff9f4daa797ed6e38ed64bf6a1f01000000000000000083816119785761197761279a565b5b0492506040810190505b6d04ee2d6d415b85acef810000000083106119bf576d04ee2d6d415b85acef810000000083816119b5576119b461279a565b5b0492506020810190505b662386f26fc1000083106119ee57662386f26fc1000083816119e4576119e361279a565b5b0492506010810190505b6305f5e1008310611a17576305f5e1008381611a0d57611a0c61279a565b5b0492506008810190505b6127108310611a3c576127108381611a3257611a3161279a565b5b0492506004810190505b60648310611a5f5760648381611a5557611a5461279a565b5b0492506002810190505b600a8310611a6e576001810190505b80915050919050565b5f73ffffffffffffffffffffffffffffffffffffffff168273ffffffffffffffffffffffffffffffffffffffff1603611ae7575f6040517f64a0ae92000000000000000000000000000000000000000000000000000000008152600401611ade9190611d75565b60405180910390fd5b5f611af383835f610cfa565b90505f73ffffffffffffffffffffffffffffffffffffffff168173ffffffffffffffffffffffffffffffffffffffff1614611b65575f6040517f73c6ac6e000000000000000000000000000000000000000000000000000000008152600401611b5c9190611d75565b60405180910390fd5b505050565b5f604051905090565b5f80fd5b5f80fd5b5f7fffffffff0000000000000000000000000000000000000000000000000000000082169050919050565b611baf81611b7b565b8114611bb9575f80fd5b50565b5f81359050611bca81611ba6565b92915050565b5f60208284031215611be557611be4611b73565b5b5f611bf284828501611bbc565b91505092915050565b5f8115159050919050565b611c0f81611bfb565b82525050565b5f602082019050611c285f830184611c06565b92915050565b5f81519050919050565b5f82825260208201905092915050565b5f5b83811015611c65578082015181840152602081019050611c4a565b5f8484015250505050565b5f601f19601f8301169050919050565b5f611c8a82611c2e565b611c948185611c38565b9350611ca4818560208601611c48565b611cad81611c70565b840191505092915050565b5f6020820190508181035f830152611cd08184611c80565b905092915050565b5f819050919050565b611cea81611cd8565b8114611cf4575f80fd5b50565b5f81359050611d0581611ce1565b92915050565b5f60208284031215611d2057611d1f611b73565b5b5f611d2d84828501611cf7565b91505092915050565b5f73ffffffffffffffffffffffffffffffffffffffff82169050919050565b5f611d5f82611d36565b9050919050565b611d6f81611d55565b82525050565b5f602082019050611d885f830184611d66565b92915050565b611d9781611d55565b8114611da1575f80fd5b50565b5f81359050611db281611d8e565b92915050565b5f8060408385031215611dce57611dcd611b73565b5b5f611ddb85828601611da4565b9250506020611dec85828601611cf7565b9150509250929050565b5f805f60608486031215611e0d57611e0c611b73565b5b5f611e1a86828701611da4565b9350506020611e2b86828701611da4565b9250506040611e3c86828701611cf7565b9150509250925092565b5f819050919050565b5f611e69611e64611e5f84611d36565b611e46565b611d36565b9050919050565b5f611e7a82611e4f565b9050919050565b5f611e8b82611e70565b9050919050565b611e9b81611e81565b82525050565b5f602082019050611eb45f830184611e92565b92915050565b5f60208284031215611ecf57611ece611b73565b5b5f611edc84828501611da4565b91505092915050565b611eee81611cd8565b82525050565b5f602082019050611f075f830184611ee5565b92915050565b611f1681611bfb565b8114611f20575f80fd5b50565b5f81359050611f3181611f0d565b92915050565b5f8060408385031215611f4d57611f4c611b73565b5b5f611f5a85828601611da4565b9250506020611f6b85828601611f23565b9150509250929050565b5f80fd5b5f80fd5b7f4e487b71000000000000000000000000000000000000000000000000000000005f52604160045260245ffd5b611fb382611c70565b810181811067ffffffffffffffff82111715611fd257611fd1611f7d565b5b80604052505050565b5f611fe4611b6a565b9050611ff08282611faa565b919050565b5f67ffffffffffffffff82111561200f5761200e611f7d565b5b61201882611c70565b9050602081019050919050565b828183375f83830152505050565b5f61204561204084611ff5565b611fdb565b90508281526020810184848401111561206157612060611f79565b5b61206c848285612025565b509392505050565b5f82601f83011261208857612087611f75565b5b8135612098848260208601612033565b91505092915050565b5f805f80608085870312156120b9576120b8611b73565b5b5f6120c687828801611da4565b94505060206120d787828801611da4565b93505060406120e887828801611cf7565b925050606085013567ffffffffffffffff81111561210957612108611b77565b5b61211587828801612074565b91505092959194509250565b5f67ffffffffffffffff82111561213b5761213a611f7d565b5b61214482611c70565b9050602081019050919050565b5f61216361215e84612121565b611fdb565b90508281526020810184848401111561217f5761217e611f79565b5b61218a848285612025565b509392505050565b5f82601f8301126121a6576121a5611f75565b5b81356121b6848260208601612151565b91505092915050565b5f602082840312156121d4576121d3611b73565b5b5f82013567ffffffffffffffff8111156121f1576121f0611b77565b5b6121fd84828501612192565b91505092915050565b5f806040838503121561221c5761221b611b73565b5b5f61222985828601611da4565b925050602061223a85828601611da4565b9150509250929050565b7f4e487b71000000000000000000000000000000000000000000000000000000005f52602260045260245ffd5b5f600282049050600182168061228857607f821691505b60208210810361229b5761229a612244565b5b50919050565b5f6060820190506122b45f830186611d66565b6122c16020830185611ee5565b6122ce6040830184611d66565b949350505050565b5f81905092915050565b5f6122ea82611c2e565b6122f481856122d6565b9350612304818560208601611c48565b80840191505092915050565b5f61231b82856122e0565b915061232782846122e0565b91508190509392505050565b7f5468652063616c6c65722063616e6e6f742072756e20746869732066756e63745f8201527f696f6e0000000000000000000000000000000000000000000000000000000000602082015250565b5f61238d602383611c38565b915061239882612333565b604082019050919050565b5f6020820190508181035f8301526123ba81612381565b9050919050565b7f4e487b71000000000000000000000000000000000000000000000000000000005f52601160045260245ffd5b5f6123f882611cd8565b91507fffffffffffffffffffffffffffffffffffffffffffffffffffffffffffffffff820361242a576124296123c1565b5b600182019050919050565b5f81519050919050565b5f82825260208201905092915050565b5f61245982612435565b612463818561243f565b9350612473818560208601611c48565b61247c81611c70565b840191505092915050565b5f60808201905061249a5f830187611d66565b6124a76020830186611d66565b6124b46040830185611ee5565b81810360608301526124c6818461244f565b905095945050505050565b5f815190506124df81611ba6565b92915050565b5f602082840312156124fa576124f9611b73565b5b5f612507848285016124d1565b91505092915050565b5f819050815f5260205f209050919050565b5f6020601f8301049050919050565b5f82821b905092915050565b5f6008830261256c7fffffffffffffffffffffffffffffffffffffffffffffffffffffffffffffffff82612531565b6125768683612531565b95508019841693508086168417925050509392505050565b5f6125a86125a361259e84611cd8565b611e46565b611cd8565b9050919050565b5f819050919050565b6125c18361258e565b6125d56125cd826125af565b84845461253d565b825550505050565b5f90565b6125e96125dd565b6125f48184846125b8565b505050565b5b818110156126175761260c5f826125e1565b6001810190506125fa565b5050565b601f82111561265c5761262d81612510565b61263684612522565b81016020851015612645578190505b61265961265185612522565b8301826125f9565b50505b505050565b5f82821c905092915050565b5f61267c5f1984600802612661565b1980831691505092915050565b5f612694838361266d565b9150826002028217905092915050565b6126ad82611c2e565b67ffffffffffffffff8111156126c6576126c5611f7d565b5b6126d08254612271565b6126db82828561261b565b5f60209050601f83116001811461270c575f84156126fa578287015190505b6127048582612689565b86555061276b565b601f19841661271a86612510565b5f5b828110156127415784890151825560018201915060208501945060208101905061271c565b8683101561275e578489015161275a601f89168261266d565b8355505b6001600288020188555050505b505050505050565b5f6040820190506127865f830185611d66565b6127936020830184611ee5565b9392505050565b7f4e487b71000000000000000000000000000000000000000000000000000000005f52601260045260245ffdfea2646970667358221220eaea9ea8e823e8af3cc66426d6c856cea0b892d3d003c41d50550939ea54537c64736f6c63430008170033",
					"opcodes": "PUSH1 0x80 PUSH1 0x40 MSTORE CALLVALUE DUP1 ISZERO PUSH3 0x10 JUMPI PUSH0 DUP1 REVERT JUMPDEST POP CALLER PUSH1 0x40 MLOAD DUP1 PUSH1 0x40 ADD PUSH1 0x40 MSTORE DUP1 PUSH1 0xA DUP2 MSTORE PUSH1 0x20 ADD PUSH32 0x496E63656E746976657300000000000000000000000000000000000000000000 DUP2 MSTORE POP PUSH1 0x40 MLOAD DUP1 PUSH1 0x40 ADD PUSH1 0x40 MSTORE DUP1 PUSH1 0x4 DUP2 MSTORE PUSH1 0x20 ADD PUSH32 0x494E465400000000000000000000000000000000000000000000000000000000 DUP2 MSTORE POP DUP2 PUSH0 SWAP1 DUP2 PUSH3 0x8E SWAP2 SWAP1 PUSH3 0x455 JUMP JUMPDEST POP DUP1 PUSH1 0x1 SWAP1 DUP2 PUSH3 0xA0 SWAP2 SWAP1 PUSH3 0x455 JUMP JUMPDEST POP POP POP PUSH0 PUSH20 0xFFFFFFFFFFFFFFFFFFFFFFFFFFFFFFFFFFFFFFFF AND DUP2 PUSH20 0xFFFFFFFFFFFFFFFFFFFFFFFFFFFFFFFFFFFFFFFF AND SUB PUSH3 0x116 JUMPI PUSH0 PUSH1 0x40 MLOAD PUSH32 0x1E4FBDF700000000000000000000000000000000000000000000000000000000 DUP2 MSTORE PUSH1 0x4 ADD PUSH3 0x10D SWAP2 SWAP1 PUSH3 0x57C JUMP JUMPDEST PUSH1 0x40 MLOAD DUP1 SWAP2 SUB SWAP1 REVERT JUMPDEST PUSH3 0x127 DUP2 PUSH3 0x12E PUSH1 0x20 SHL PUSH1 0x20 SHR JUMP JUMPDEST POP PUSH3 0x597 JUMP JUMPDEST PUSH0 PUSH1 0x7 PUSH0 SWAP1 SLOAD SWAP1 PUSH2 0x100 EXP SWAP1 DIV PUSH20 0xFFFFFFFFFFFFFFFFFFFFFFFFFFFFFFFFFFFFFFFF AND SWAP1 POP DUP2 PUSH1 0x7 PUSH0 PUSH2 0x100 EXP DUP2 SLOAD DUP2 PUSH20 0xFFFFFFFFFFFFFFFFFFFFFFFFFFFFFFFFFFFFFFFF MUL NOT AND SWAP1 DUP4 PUSH20 0xFFFFFFFFFFFFFFFFFFFFFFFFFFFFFFFFFFFFFFFF AND MUL OR SWAP1 SSTORE POP DUP2 PUSH20 0xFFFFFFFFFFFFFFFFFFFFFFFFFFFFFFFFFFFFFFFF AND DUP2 PUSH20 0xFFFFFFFFFFFFFFFFFFFFFFFFFFFFFFFFFFFFFFFF AND PUSH32 0x8BE0079C531659141344CD1FD0A4F28419497F9722A3DAAFE3B4186F6B6457E0 PUSH1 0x40 MLOAD PUSH1 0x40 MLOAD DUP1 SWAP2 SUB SWAP1 LOG3 POP POP JUMP JUMPDEST PUSH0 DUP2 MLOAD SWAP1 POP SWAP2 SWAP1 POP JUMP JUMPDEST PUSH32 0x4E487B7100000000000000000000000000000000000000000000000000000000 PUSH0 MSTORE PUSH1 0x41 PUSH1 0x4 MSTORE PUSH1 0x24 PUSH0 REVERT JUMPDEST PUSH32 0x4E487B7100000000000000000000000000000000000000000000000000000000 PUSH0 MSTORE PUSH1 0x22 PUSH1 0x4 MSTORE PUSH1 0x24 PUSH0 REVERT JUMPDEST PUSH0 PUSH1 0x2 DUP3 DIV SWAP1 POP PUSH1 0x1 DUP3 AND DUP1 PUSH3 0x26D JUMPI PUSH1 0x7F DUP3 AND SWAP2 POP JUMPDEST PUSH1 0x20 DUP3 LT DUP2 SUB PUSH3 0x283 JUMPI PUSH3 0x282 PUSH3 0x228 JUMP JUMPDEST JUMPDEST POP SWAP2 SWAP1 POP JUMP JUMPDEST PUSH0 DUP2 SWAP1 POP DUP2 PUSH0 MSTORE PUSH1 0x20 PUSH0 KECCAK256 SWAP1 POP SWAP2 SWAP1 POP JUMP JUMPDEST PUSH0 PUSH1 0x20 PUSH1 0x1F DUP4 ADD DIV SWAP1 POP SWAP2 SWAP1 POP JUMP JUMPDEST PUSH0 DUP3 DUP3 SHL SWAP1 POP SWAP3 SWAP2 POP POP JUMP JUMPDEST PUSH0 PUSH1 0x8 DUP4 MUL PUSH3 0x2E7 PUSH32 0xFFFFFFFFFFFFFFFFFFFFFFFFFFFFFFFFFFFFFFFFFFFFFFFFFFFFFFFFFFFFFFFF DUP3 PUSH3 0x2AA JUMP JUMPDEST PUSH3 0x2F3 DUP7 DUP4 PUSH3 0x2AA JUMP JUMPDEST SWAP6 POP DUP1 NOT DUP5 AND SWAP4 POP DUP1 DUP7 AND DUP5 OR SWAP3 POP POP POP SWAP4 SWAP3 POP POP POP JUMP JUMPDEST PUSH0 DUP2 SWAP1 POP SWAP2 SWAP1 POP JUMP JUMPDEST PUSH0 DUP2 SWAP1 POP SWAP2 SWAP1 POP JUMP JUMPDEST PUSH0 PUSH3 0x33D PUSH3 0x337 PUSH3 0x331 DUP5 PUSH3 0x30B JUMP JUMPDEST PUSH3 0x314 JUMP JUMPDEST PUSH3 0x30B JUMP JUMPDEST SWAP1 POP SWAP2 SWAP1 POP JUMP JUMPDEST PUSH0 DUP2 SWAP1 POP SWAP2 SWAP1 POP JUMP JUMPDEST PUSH3 0x358 DUP4 PUSH3 0x31D JUMP JUMPDEST PUSH3 0x370 PUSH3 0x367 DUP3 PUSH3 0x344 JUMP JUMPDEST DUP5 DUP5 SLOAD PUSH3 0x2B6 JUMP JUMPDEST DUP3 SSTORE POP POP POP POP JUMP JUMPDEST PUSH0 SWAP1 JUMP JUMPDEST PUSH3 0x386 PUSH3 0x378 JUMP JUMPDEST PUSH3 0x393 DUP2 DUP5 DUP5 PUSH3 0x34D JUMP JUMPDEST POP POP POP JUMP JUMPDEST JUMPDEST DUP2 DUP2 LT ISZERO PUSH3 0x3BA JUMPI PUSH3 0x3AE PUSH0 DUP3 PUSH3 0x37C JUMP JUMPDEST PUSH1 0x1 DUP2 ADD SWAP1 POP PUSH3 0x399 JUMP JUMPDEST POP POP JUMP JUMPDEST PUSH1 0x1F DUP3 GT ISZERO PUSH3 0x409 JUMPI PUSH3 0x3D3 DUP2 PUSH3 0x289 JUMP JUMPDEST PUSH3 0x3DE DUP5 PUSH3 0x29B JUMP JUMPDEST DUP2 ADD PUSH1 0x20 DUP6 LT ISZERO PUSH3 0x3EE JUMPI DUP2 SWAP1 POP JUMPDEST PUSH3 0x406 PUSH3 0x3FD DUP6 PUSH3 0x29B JUMP JUMPDEST DUP4 ADD DUP3 PUSH3 0x398 JUMP JUMPDEST POP POP JUMPDEST POP POP POP JUMP JUMPDEST PUSH0 DUP3 DUP3 SHR SWAP1 POP SWAP3 SWAP2 POP POP JUMP JUMPDEST PUSH0 PUSH3 0x42B PUSH0 NOT DUP5 PUSH1 0x8 MUL PUSH3 0x40E JUMP JUMPDEST NOT DUP1 DUP4 AND SWAP2 POP POP SWAP3 SWAP2 POP POP JUMP JUMPDEST PUSH0 PUSH3 0x445 DUP4 DUP4 PUSH3 0x41A JUMP JUMPDEST SWAP2 POP DUP3 PUSH1 0x2 MUL DUP3 OR SWAP1 POP SWAP3 SWAP2 POP POP JUMP JUMPDEST PUSH3 0x460 DUP3 PUSH3 0x1F1 JUMP JUMPDEST PUSH8 0xFFFFFFFFFFFFFFFF DUP2 GT ISZERO PUSH3 0x47C JUMPI PUSH3 0x47B PUSH3 0x1FB JUMP JUMPDEST JUMPDEST PUSH3 0x488 DUP3 SLOAD PUSH3 0x255 JUMP JUMPDEST PUSH3 0x495 DUP3 DUP3 DUP6 PUSH3 0x3BE JUMP JUMPDEST PUSH0 PUSH1 0x20 SWAP1 POP PUSH1 0x1F DUP4 GT PUSH1 0x1 DUP2 EQ PUSH3 0x4CB JUMPI PUSH0 DUP5 ISZERO PUSH3 0x4B6 JUMPI DUP3 DUP8 ADD MLOAD SWAP1 POP JUMPDEST PUSH3 0x4C2 DUP6 DUP3 PUSH3 0x438 JUMP JUMPDEST DUP7 SSTORE POP PUSH3 0x531 JUMP JUMPDEST PUSH1 0x1F NOT DUP5 AND PUSH3 0x4DB DUP7 PUSH3 0x289 JUMP JUMPDEST PUSH0 JUMPDEST DUP3 DUP2 LT ISZERO PUSH3 0x504 JUMPI DUP5 DUP10 ADD MLOAD DUP3 SSTORE PUSH1 0x1 DUP3 ADD SWAP2 POP PUSH1 0x20 DUP6 ADD SWAP5 POP PUSH1 0x20 DUP2 ADD SWAP1 POP PUSH3 0x4DD JUMP JUMPDEST DUP7 DUP4 LT ISZERO PUSH3 0x524 JUMPI DUP5 DUP10 ADD MLOAD PUSH3 0x520 PUSH1 0x1F DUP10 AND DUP3 PUSH3 0x41A JUMP JUMPDEST DUP4 SSTORE POP JUMPDEST PUSH1 0x1 PUSH1 0x2 DUP9 MUL ADD DUP9 SSTORE POP POP POP JUMPDEST POP POP POP POP POP POP JUMP JUMPDEST PUSH0 PUSH20 0xFFFFFFFFFFFFFFFFFFFFFFFFFFFFFFFFFFFFFFFF DUP3 AND SWAP1 POP SWAP2 SWAP1 POP JUMP JUMPDEST PUSH0 PUSH3 0x564 DUP3 PUSH3 0x539 JUMP JUMPDEST SWAP1 POP SWAP2 SWAP1 POP JUMP JUMPDEST PUSH3 0x576 DUP2 PUSH3 0x558 JUMP JUMPDEST DUP3 MSTORE POP POP JUMP JUMPDEST PUSH0 PUSH1 0x20 DUP3 ADD SWAP1 POP PUSH3 0x591 PUSH0 DUP4 ADD DUP5 PUSH3 0x56B JUMP JUMPDEST SWAP3 SWAP2 POP POP JUMP JUMPDEST PUSH2 0x27FD DUP1 PUSH3 0x5A5 PUSH0 CODECOPY PUSH0 RETURN INVALID PUSH1 0x80 PUSH1 0x40 MSTORE CALLVALUE DUP1 ISZERO PUSH2 0xF JUMPI PUSH0 DUP1 REVERT JUMPDEST POP PUSH1 0x4 CALLDATASIZE LT PUSH2 0x12A JUMPI PUSH0 CALLDATALOAD PUSH1 0xE0 SHR DUP1 PUSH4 0x8DA5CB5B GT PUSH2 0xAB JUMPI DUP1 PUSH4 0xB88D4FDE GT PUSH2 0x6F JUMPI DUP1 PUSH4 0xB88D4FDE EQ PUSH2 0x31A JUMPI DUP1 PUSH4 0xC87B56DD EQ PUSH2 0x336 JUMPI DUP1 PUSH4 0xD85D3D27 EQ PUSH2 0x366 JUMPI DUP1 PUSH4 0xE985E9C5 EQ PUSH2 0x396 JUMPI DUP1 PUSH4 0xF2FDE38B EQ PUSH2 0x3C6 JUMPI PUSH2 0x12A JUMP JUMPDEST DUP1 PUSH4 0x8DA5CB5B EQ PUSH2 0x288 JUMPI DUP1 PUSH4 0x95D89B41 EQ PUSH2 0x2A6 JUMPI DUP1 PUSH4 0x9F181B5E EQ PUSH2 0x2C4 JUMPI DUP1 PUSH4 0xA22CB465 EQ PUSH2 0x2E2 JUMPI DUP1 PUSH4 0xB876E3B6 EQ PUSH2 0x2FE JUMPI PUSH2 0x12A JUMP JUMPDEST DUP1 PUSH4 0x42842E0E GT PUSH2 0xF2 JUMPI DUP1 PUSH4 0x42842E0E EQ PUSH2 0x1E4 JUMPI DUP1 PUSH4 0x5F53575F EQ PUSH2 0x200 JUMPI DUP1 PUSH4 0x6352211E EQ PUSH2 0x21E JUMPI DUP1 PUSH4 0x70A08231 EQ PUSH2 0x24E JUMPI DUP1 PUSH4 0x715018A6 EQ PUSH2 0x27E JUMPI PUSH2 0x12A JUMP JUMPDEST DUP1 PUSH4 0x1FFC9A7 EQ PUSH2 0x12E JUMPI DUP1 PUSH4 0x6FDDE03 EQ PUSH2 0x15E JUMPI DUP1 PUSH4 0x81812FC EQ PUSH2 0x17C JUMPI DUP1 PUSH4 0x95EA7B3 EQ PUSH2 0x1AC JUMPI DUP1 PUSH4 0x23B872DD EQ PUSH2 0x1C8 JUMPI JUMPDEST PUSH0 DUP1 REVERT JUMPDEST PUSH2 0x148 PUSH1 0x4 DUP1 CALLDATASIZE SUB DUP2 ADD SWAP1 PUSH2 0x143 SWAP2 SWAP1 PUSH2 0x1BD0 JUMP JUMPDEST PUSH2 0x3E2 JUMP JUMPDEST PUSH1 0x40 MLOAD PUSH2 0x155 SWAP2 SWAP1 PUSH2 0x1C15 JUMP JUMPDEST PUSH1 0x40 MLOAD DUP1 SWAP2 SUB SWAP1 RETURN JUMPDEST PUSH2 0x166 PUSH2 0x442 JUMP JUMPDEST PUSH1 0x40 MLOAD PUSH2 0x173 SWAP2 SWAP1 PUSH2 0x1CB8 JUMP JUMPDEST PUSH1 0x40 MLOAD DUP1 SWAP2 SUB SWAP1 RETURN JUMPDEST PUSH2 0x196 PUSH1 0x4 DUP1 CALLDATASIZE SUB DUP2 ADD SWAP1 PUSH2 0x191 SWAP2 SWAP1 PUSH2 0x1D0B JUMP JUMPDEST PUSH2 0x4D1 JUMP JUMPDEST PUSH1 0x40 MLOAD PUSH2 0x1A3 SWAP2 SWAP1 PUSH2 0x1D75 JUMP JUMPDEST PUSH1 0x40 MLOAD DUP1 SWAP2 SUB SWAP1 RETURN JUMPDEST PUSH2 0x1C6 PUSH1 0x4 DUP1 CALLDATASIZE SUB DUP2 ADD SWAP1 PUSH2 0x1C1 SWAP2 SWAP1 PUSH2 0x1DB8 JUMP JUMPDEST PUSH2 0x4EC JUMP JUMPDEST STOP JUMPDEST PUSH2 0x1E2 PUSH1 0x4 DUP1 CALLDATASIZE SUB DUP2 ADD SWAP1 PUSH2 0x1DD SWAP2 SWAP1 PUSH2 0x1DF6 JUMP JUMPDEST PUSH2 0x502 JUMP JUMPDEST STOP JUMPDEST PUSH2 0x1FE PUSH1 0x4 DUP1 CALLDATASIZE SUB DUP2 ADD SWAP1 PUSH2 0x1F9 SWAP2 SWAP1 PUSH2 0x1DF6 JUMP JUMPDEST PUSH2 0x601 JUMP JUMPDEST STOP JUMPDEST PUSH2 0x208 PUSH2 0x620 JUMP JUMPDEST PUSH1 0x40 MLOAD PUSH2 0x215 SWAP2 SWAP1 PUSH2 0x1EA1 JUMP JUMPDEST PUSH1 0x40 MLOAD DUP1 SWAP2 SUB SWAP1 RETURN JUMPDEST PUSH2 0x238 PUSH1 0x4 DUP1 CALLDATASIZE SUB DUP2 ADD SWAP1 PUSH2 0x233 SWAP2 SWAP1 PUSH2 0x1D0B JUMP JUMPDEST PUSH2 0x645 JUMP JUMPDEST PUSH1 0x40 MLOAD PUSH2 0x245 SWAP2 SWAP1 PUSH2 0x1D75 JUMP JUMPDEST PUSH1 0x40 MLOAD DUP1 SWAP2 SUB SWAP1 RETURN JUMPDEST PUSH2 0x268 PUSH1 0x4 DUP1 CALLDATASIZE SUB DUP2 ADD SWAP1 PUSH2 0x263 SWAP2 SWAP1 PUSH2 0x1EBA JUMP JUMPDEST PUSH2 0x656 JUMP JUMPDEST PUSH1 0x40 MLOAD PUSH2 0x275 SWAP2 SWAP1 PUSH2 0x1EF4 JUMP JUMPDEST PUSH1 0x40 MLOAD DUP1 SWAP2 SUB SWAP1 RETURN JUMPDEST PUSH2 0x286 PUSH2 0x70C JUMP JUMPDEST STOP JUMPDEST PUSH2 0x290 PUSH2 0x71F JUMP JUMPDEST PUSH1 0x40 MLOAD PUSH2 0x29D SWAP2 SWAP1 PUSH2 0x1D75 JUMP JUMPDEST PUSH1 0x40 MLOAD DUP1 SWAP2 SUB SWAP1 RETURN JUMPDEST PUSH2 0x2AE PUSH2 0x747 JUMP JUMPDEST PUSH1 0x40 MLOAD PUSH2 0x2BB SWAP2 SWAP1 PUSH2 0x1CB8 JUMP JUMPDEST PUSH1 0x40 MLOAD DUP1 SWAP2 SUB SWAP1 RETURN JUMPDEST PUSH2 0x2CC PUSH2 0x7D7 JUMP JUMPDEST PUSH1 0x40 MLOAD PUSH2 0x2D9 SWAP2 SWAP1 PUSH2 0x1EF4 JUMP JUMPDEST PUSH1 0x40 MLOAD DUP1 SWAP2 SUB SWAP1 RETURN JUMPDEST PUSH2 0x2FC PUSH1 0x4 DUP1 CALLDATASIZE SUB DUP2 ADD SWAP1 PUSH2 0x2F7 SWAP2 SWAP1 PUSH2 0x1F37 JUMP JUMPDEST PUSH2 0x7DD JUMP JUMPDEST STOP JUMPDEST PUSH2 0x318 PUSH1 0x4 DUP1 CALLDATASIZE SUB DUP2 ADD SWAP1 PUSH2 0x313 SWAP2 SWAP1 PUSH2 0x1EBA JUMP JUMPDEST PUSH2 0x7F3 JUMP JUMPDEST STOP JUMPDEST PUSH2 0x334 PUSH1 0x4 DUP1 CALLDATASIZE SUB DUP2 ADD SWAP1 PUSH2 0x32F SWAP2 SWAP1 PUSH2 0x20A1 JUMP JUMPDEST PUSH2 0x83E JUMP JUMPDEST STOP JUMPDEST PUSH2 0x350 PUSH1 0x4 DUP1 CALLDATASIZE SUB DUP2 ADD SWAP1 PUSH2 0x34B SWAP2 SWAP1 PUSH2 0x1D0B JUMP JUMPDEST PUSH2 0x85B JUMP JUMPDEST PUSH1 0x40 MLOAD PUSH2 0x35D SWAP2 SWAP1 PUSH2 0x1CB8 JUMP JUMPDEST PUSH1 0x40 MLOAD DUP1 SWAP2 SUB SWAP1 RETURN JUMPDEST PUSH2 0x380 PUSH1 0x4 DUP1 CALLDATASIZE SUB DUP2 ADD SWAP1 PUSH2 0x37B SWAP2 SWAP1 PUSH2 0x21BF JUMP JUMPDEST PUSH2 0x966 JUMP JUMPDEST PUSH1 0x40 MLOAD PUSH2 0x38D SWAP2 SWAP1 PUSH2 0x1EF4 JUMP JUMPDEST PUSH1 0x40 MLOAD DUP1 SWAP2 SUB SWAP1 RETURN JUMPDEST PUSH2 0x3B0 PUSH1 0x4 DUP1 CALLDATASIZE SUB DUP2 ADD SWAP1 PUSH2 0x3AB SWAP2 SWAP1 PUSH2 0x2206 JUMP JUMPDEST PUSH2 0xA2F JUMP JUMPDEST PUSH1 0x40 MLOAD PUSH2 0x3BD SWAP2 SWAP1 PUSH2 0x1C15 JUMP JUMPDEST PUSH1 0x40 MLOAD DUP1 SWAP2 SUB SWAP1 RETURN JUMPDEST PUSH2 0x3E0 PUSH1 0x4 DUP1 CALLDATASIZE SUB DUP2 ADD SWAP1 PUSH2 0x3DB SWAP2 SWAP1 PUSH2 0x1EBA JUMP JUMPDEST PUSH2 0xABD JUMP JUMPDEST STOP JUMPDEST PUSH0 PUSH4 0x49064906 PUSH1 0xE0 SHL PUSH28 0xFFFFFFFFFFFFFFFFFFFFFFFFFFFFFFFFFFFFFFFFFFFFFFFFFFFFFFFF NOT AND DUP3 PUSH28 0xFFFFFFFFFFFFFFFFFFFFFFFFFFFFFFFFFFFFFFFFFFFFFFFFFFFFFFFF NOT AND EQ DUP1 PUSH2 0x43B JUMPI POP PUSH2 0x43A DUP3 PUSH2 0xB41 JUMP JUMPDEST JUMPDEST SWAP1 POP SWAP2 SWAP1 POP JUMP JUMPDEST PUSH1 0x60 PUSH0 DUP1 SLOAD PUSH2 0x450 SWAP1 PUSH2 0x2271 JUMP JUMPDEST DUP1 PUSH1 0x1F ADD PUSH1 0x20 DUP1 SWAP2 DIV MUL PUSH1 0x20 ADD PUSH1 0x40 MLOAD SWAP1 DUP2 ADD PUSH1 0x40 MSTORE DUP1 SWAP3 SWAP2 SWAP1 DUP2 DUP2 MSTORE PUSH1 0x20 ADD DUP3 DUP1 SLOAD PUSH2 0x47C SWAP1 PUSH2 0x2271 JUMP JUMPDEST DUP1 ISZERO PUSH2 0x4C7 JUMPI DUP1 PUSH1 0x1F LT PUSH2 0x49E JUMPI PUSH2 0x100 DUP1 DUP4 SLOAD DIV MUL DUP4 MSTORE SWAP2 PUSH1 0x20 ADD SWAP2 PUSH2 0x4C7 JUMP JUMPDEST DUP3 ADD SWAP2 SWAP1 PUSH0 MSTORE PUSH1 0x20 PUSH0 KECCAK256 SWAP1 JUMPDEST DUP2 SLOAD DUP2 MSTORE SWAP1 PUSH1 0x1 ADD SWAP1 PUSH1 0x20 ADD DUP1 DUP4 GT PUSH2 0x4AA JUMPI DUP3 SWAP1 SUB PUSH1 0x1F AND DUP3 ADD SWAP2 JUMPDEST POP POP POP POP POP SWAP1 POP SWAP1 JUMP JUMPDEST PUSH0 PUSH2 0x4DB DUP3 PUSH2 0xC22 JUMP JUMPDEST POP PUSH2 0x4E5 DUP3 PUSH2 0xCA8 JUMP JUMPDEST SWAP1 POP SWAP2 SWAP1 POP JUMP JUMPDEST PUSH2 0x4FE DUP3 DUP3 PUSH2 0x4F9 PUSH2 0xCE1 JUMP JUMPDEST PUSH2 0xCE8 JUMP JUMPDEST POP POP JUMP JUMPDEST PUSH0 PUSH20 0xFFFFFFFFFFFFFFFFFFFFFFFFFFFFFFFFFFFFFFFF AND DUP3 PUSH20 0xFFFFFFFFFFFFFFFFFFFFFFFFFFFFFFFFFFFFFFFF AND SUB PUSH2 0x572 JUMPI PUSH0 PUSH1 0x40 MLOAD PUSH32 0x64A0AE9200000000000000000000000000000000000000000000000000000000 DUP2 MSTORE PUSH1 0x4 ADD PUSH2 0x569 SWAP2 SWAP1 PUSH2 0x1D75 JUMP JUMPDEST PUSH1 0x40 MLOAD DUP1 SWAP2 SUB SWAP1 REVERT JUMPDEST PUSH0 PUSH2 0x585 DUP4 DUP4 PUSH2 0x580 PUSH2 0xCE1 JUMP JUMPDEST PUSH2 0xCFA JUMP JUMPDEST SWAP1 POP DUP4 PUSH20 0xFFFFFFFFFFFFFFFFFFFFFFFFFFFFFFFFFFFFFFFF AND DUP2 PUSH20 0xFFFFFFFFFFFFFFFFFFFFFFFFFFFFFFFFFFFFFFFF AND EQ PUSH2 0x5FB JUMPI DUP4 DUP3 DUP3 PUSH1 0x40 MLOAD PUSH32 0x64283D7B00000000000000000000000000000000000000000000000000000000 DUP2 MSTORE PUSH1 0x4 ADD PUSH2 0x5F2 SWAP4 SWAP3 SWAP2 SWAP1 PUSH2 0x22A1 JUMP JUMPDEST PUSH1 0x40 MLOAD DUP1 SWAP2 SUB SWAP1 REVERT JUMPDEST POP POP POP POP JUMP JUMPDEST PUSH2 0x61B DUP4 DUP4 DUP4 PUSH1 0x40 MLOAD DUP1 PUSH1 0x20 ADD PUSH1 0x40 MSTORE DUP1 PUSH0 DUP2 MSTORE POP PUSH2 0x83E JUMP JUMPDEST POP POP POP JUMP JUMPDEST PUSH1 0x8 PUSH0 SWAP1 SLOAD SWAP1 PUSH2 0x100 EXP SWAP1 DIV PUSH20 0xFFFFFFFFFFFFFFFFFFFFFFFFFFFFFFFFFFFFFFFF AND DUP2 JUMP JUMPDEST PUSH0 PUSH2 0x64F DUP3 PUSH2 0xC22 JUMP JUMPDEST SWAP1 POP SWAP2 SWAP1 POP JUMP JUMPDEST PUSH0 DUP1 PUSH20 0xFFFFFFFFFFFFFFFFFFFFFFFFFFFFFFFFFFFFFFFF AND DUP3 PUSH20 0xFFFFFFFFFFFFFFFFFFFFFFFFFFFFFFFFFFFFFFFF AND SUB PUSH2 0x6C7 JUMPI PUSH0 PUSH1 0x40 MLOAD PUSH32 0x89C62B6400000000000000000000000000000000000000000000000000000000 DUP2 MSTORE PUSH1 0x4 ADD PUSH2 0x6BE SWAP2 SWAP1 PUSH2 0x1D75 JUMP JUMPDEST PUSH1 0x40 MLOAD DUP1 SWAP2 SUB SWAP1 REVERT JUMPDEST PUSH1 0x3 PUSH0 DUP4 PUSH20 0xFFFFFFFFFFFFFFFFFFFFFFFFFFFFFFFFFFFFFFFF AND PUSH20 0xFFFFFFFFFFFFFFFFFFFFFFFFFFFFFFFFFFFFFFFF AND DUP2 MSTORE PUSH1 0x20 ADD SWAP1 DUP2 MSTORE PUSH1 0x20 ADD PUSH0 KECCAK256 SLOAD SWAP1 POP SWAP2 SWAP1 POP JUMP JUMPDEST PUSH2 0x714 PUSH2 0xF05 JUMP JUMPDEST PUSH2 0x71D PUSH0 PUSH2 0xF8C JUMP JUMPDEST JUMP JUMPDEST PUSH0 PUSH1 0x7 PUSH0 SWAP1 SLOAD SWAP1 PUSH2 0x100 EXP SWAP1 DIV PUSH20 0xFFFFFFFFFFFFFFFFFFFFFFFFFFFFFFFFFFFFFFFF AND SWAP1 POP SWAP1 JUMP JUMPDEST PUSH1 0x60 PUSH1 0x1 DUP1 SLOAD PUSH2 0x756 SWAP1 PUSH2 0x2271 JUMP JUMPDEST DUP1 PUSH1 0x1F ADD PUSH1 0x20 DUP1 SWAP2 DIV MUL PUSH1 0x20 ADD PUSH1 0x40 MLOAD SWAP1 DUP2 ADD PUSH1 0x40 MSTORE DUP1 SWAP3 SWAP2 SWAP1 DUP2 DUP2 MSTORE PUSH1 0x20 ADD DUP3 DUP1 SLOAD PUSH2 0x782 SWAP1 PUSH2 0x2271 JUMP JUMPDEST DUP1 ISZERO PUSH2 0x7CD JUMPI DUP1 PUSH1 0x1F LT PUSH2 0x7A4 JUMPI PUSH2 0x100 DUP1 DUP4 SLOAD DIV MUL DUP4 MSTORE SWAP2 PUSH1 0x20 ADD SWAP2 PUSH2 0x7CD JUMP JUMPDEST DUP3 ADD SWAP2 SWAP1 PUSH0 MSTORE PUSH1 0x20 PUSH0 KECCAK256 SWAP1 JUMPDEST DUP2 SLOAD DUP2 MSTORE SWAP1 PUSH1 0x1 ADD SWAP1 PUSH1 0x20 ADD DUP1 DUP4 GT PUSH2 0x7B0 JUMPI DUP3 SWAP1 SUB PUSH1 0x1F AND DUP3 ADD SWAP2 JUMPDEST POP POP POP POP POP SWAP1 POP SWAP1 JUMP JUMPDEST PUSH1 0x9 SLOAD DUP2 JUMP JUMPDEST PUSH2 0x7EF PUSH2 0x7E8 PUSH2 0xCE1 JUMP JUMPDEST DUP4 DUP4 PUSH2 0x104F JUMP JUMPDEST POP POP JUMP JUMPDEST PUSH2 0x7FB PUSH2 0xF05 JUMP JUMPDEST DUP1 PUSH1 0x8 PUSH0 PUSH2 0x100 EXP DUP2 SLOAD DUP2 PUSH20 0xFFFFFFFFFFFFFFFFFFFFFFFFFFFFFFFFFFFFFFFF MUL NOT AND SWAP1 DUP4 PUSH20 0xFFFFFFFFFFFFFFFFFFFFFFFFFFFFFFFFFFFFFFFF AND MUL OR SWAP1 SSTORE POP POP JUMP JUMPDEST PUSH2 0x849 DUP5 DUP5 DUP5 PUSH2 0x502 JUMP JUMPDEST PUSH2 0x855 DUP5 DUP5 DUP5 DUP5 PUSH2 0x11B8 JUMP JUMPDEST POP POP POP POP JUMP JUMPDEST PUSH1 0x60 PUSH2 0x866 DUP3 PUSH2 0xC22 JUMP JUMPDEST POP PUSH0 PUSH1 0x6 PUSH0 DUP5 DUP2 MSTORE PUSH1 0x20 ADD SWAP1 DUP2 MSTORE PUSH1 0x20 ADD PUSH0 KECCAK256 DUP1 SLOAD PUSH2 0x884 SWAP1 PUSH2 0x2271 JUMP JUMPDEST DUP1 PUSH1 0x1F ADD PUSH1 0x20 DUP1 SWAP2 DIV MUL PUSH1 0x20 ADD PUSH1 0x40 MLOAD SWAP1 DUP2 ADD PUSH1 0x40 MSTORE DUP1 SWAP3 SWAP2 SWAP1 DUP2 DUP2 MSTORE PUSH1 0x20 ADD DUP3 DUP1 SLOAD PUSH2 0x8B0 SWAP1 PUSH2 0x2271 JUMP JUMPDEST DUP1 ISZERO PUSH2 0x8FB JUMPI DUP1 PUSH1 0x1F LT PUSH2 0x8D2 JUMPI PUSH2 0x100 DUP1 DUP4 SLOAD DIV MUL DUP4 MSTORE SWAP2 PUSH1 0x20 ADD SWAP2 PUSH2 0x8FB JUMP JUMPDEST DUP3 ADD SWAP2 SWAP1 PUSH0 MSTORE PUSH1 0x20 PUSH0 KECCAK256 SWAP1 JUMPDEST DUP2 SLOAD DUP2 MSTORE SWAP1 PUSH1 0x1 ADD SWAP1 PUSH1 0x20 ADD DUP1 DUP4 GT PUSH2 0x8DE JUMPI DUP3 SWAP1 SUB PUSH1 0x1F AND DUP3 ADD SWAP2 JUMPDEST POP POP POP POP POP SWAP1 POP PUSH0 PUSH2 0x90B PUSH2 0x136A JUMP JUMPDEST SWAP1 POP PUSH0 DUP2 MLOAD SUB PUSH2 0x91F JUMPI DUP2 SWAP3 POP POP POP PUSH2 0x961 JUMP JUMPDEST PUSH0 DUP3 MLOAD GT ISZERO PUSH2 0x953 JUMPI DUP1 DUP3 PUSH1 0x40 MLOAD PUSH1 0x20 ADD PUSH2 0x93B SWAP3 SWAP2 SWAP1 PUSH2 0x2310 JUMP JUMPDEST PUSH1 0x40 MLOAD PUSH1 0x20 DUP2 DUP4 SUB SUB DUP2 MSTORE SWAP1 PUSH1 0x40 MSTORE SWAP3 POP POP POP PUSH2 0x961 JUMP JUMPDEST PUSH2 0x95C DUP5 PUSH2 0x1380 JUMP JUMPDEST SWAP3 POP POP POP JUMPDEST SWAP2 SWAP1 POP JUMP JUMPDEST PUSH0 PUSH1 0x8 PUSH0 SWAP1 SLOAD SWAP1 PUSH2 0x100 EXP SWAP1 DIV PUSH20 0xFFFFFFFFFFFFFFFFFFFFFFFFFFFFFFFFFFFFFFFF AND PUSH20 0xFFFFFFFFFFFFFFFFFFFFFFFFFFFFFFFFFFFFFFFF AND CALLER PUSH20 0xFFFFFFFFFFFFFFFFFFFFFFFFFFFFFFFFFFFFFFFF AND EQ PUSH2 0x9F6 JUMPI PUSH1 0x40 MLOAD PUSH32 0x8C379A000000000000000000000000000000000000000000000000000000000 DUP2 MSTORE PUSH1 0x4 ADD PUSH2 0x9ED SWAP1 PUSH2 0x23A3 JUMP JUMPDEST PUSH1 0x40 MLOAD DUP1 SWAP2 SUB SWAP1 REVERT JUMPDEST PUSH1 0x9 PUSH0 DUP2 SLOAD DUP1 SWAP3 SWAP2 SWAP1 PUSH2 0xA08 SWAP1 PUSH2 0x23EE JUMP JUMPDEST SWAP2 SWAP1 POP SSTORE POP PUSH2 0xA19 CALLER PUSH1 0x9 SLOAD PUSH2 0x13E6 JUMP JUMPDEST PUSH2 0xA25 PUSH1 0x9 SLOAD DUP4 PUSH2 0x1403 JUMP JUMPDEST PUSH1 0x9 SLOAD SWAP1 POP SWAP2 SWAP1 POP JUMP JUMPDEST PUSH0 PUSH1 0x5 PUSH0 DUP5 PUSH20 0xFFFFFFFFFFFFFFFFFFFFFFFFFFFFFFFFFFFFFFFF AND PUSH20 0xFFFFFFFFFFFFFFFFFFFFFFFFFFFFFFFFFFFFFFFF AND DUP2 MSTORE PUSH1 0x20 ADD SWAP1 DUP2 MSTORE PUSH1 0x20 ADD PUSH0 KECCAK256 PUSH0 DUP4 PUSH20 0xFFFFFFFFFFFFFFFFFFFFFFFFFFFFFFFFFFFFFFFF AND PUSH20 0xFFFFFFFFFFFFFFFFFFFFFFFFFFFFFFFFFFFFFFFF AND DUP2 MSTORE PUSH1 0x20 ADD SWAP1 DUP2 MSTORE PUSH1 0x20 ADD PUSH0 KECCAK256 PUSH0 SWAP1 SLOAD SWAP1 PUSH2 0x100 EXP SWAP1 DIV PUSH1 0xFF AND SWAP1 POP SWAP3 SWAP2 POP POP JUMP JUMPDEST PUSH2 0xAC5 PUSH2 0xF05 JUMP JUMPDEST PUSH0 PUSH20 0xFFFFFFFFFFFFFFFFFFFFFFFFFFFFFFFFFFFFFFFF AND DUP2 PUSH20 0xFFFFFFFFFFFFFFFFFFFFFFFFFFFFFFFFFFFFFFFF AND SUB PUSH2 0xB35 JUMPI PUSH0 PUSH1 0x40 MLOAD PUSH32 0x1E4FBDF700000000000000000000000000000000000000000000000000000000 DUP2 MSTORE PUSH1 0x4 ADD PUSH2 0xB2C SWAP2 SWAP1 PUSH2 0x1D75 JUMP JUMPDEST PUSH1 0x40 MLOAD DUP1 SWAP2 SUB SWAP1 REVERT JUMPDEST PUSH2 0xB3E DUP2 PUSH2 0xF8C JUMP JUMPDEST POP JUMP JUMPDEST PUSH0 PUSH32 0x80AC58CD00000000000000000000000000000000000000000000000000000000 PUSH28 0xFFFFFFFFFFFFFFFFFFFFFFFFFFFFFFFFFFFFFFFFFFFFFFFFFFFFFFFF NOT AND DUP3 PUSH28 0xFFFFFFFFFFFFFFFFFFFFFFFFFFFFFFFFFFFFFFFFFFFFFFFFFFFFFFFF NOT AND EQ DUP1 PUSH2 0xC0B JUMPI POP PUSH32 0x5B5E139F00000000000000000000000000000000000000000000000000000000 PUSH28 0xFFFFFFFFFFFFFFFFFFFFFFFFFFFFFFFFFFFFFFFFFFFFFFFFFFFFFFFF NOT AND DUP3 PUSH28 0xFFFFFFFFFFFFFFFFFFFFFFFFFFFFFFFFFFFFFFFFFFFFFFFFFFFFFFFF NOT AND EQ JUMPDEST DUP1 PUSH2 0xC1B JUMPI POP PUSH2 0xC1A DUP3 PUSH2 0x145D JUMP JUMPDEST JUMPDEST SWAP1 POP SWAP2 SWAP1 POP JUMP JUMPDEST PUSH0 DUP1 PUSH2 0xC2D DUP4 PUSH2 0x14C6 JUMP JUMPDEST SWAP1 POP PUSH0 PUSH20 0xFFFFFFFFFFFFFFFFFFFFFFFFFFFFFFFFFFFFFFFF AND DUP2 PUSH20 0xFFFFFFFFFFFFFFFFFFFFFFFFFFFFFFFFFFFFFFFF AND SUB PUSH2 0xC9F JUMPI DUP3 PUSH1 0x40 MLOAD PUSH32 0x7E27328900000000000000000000000000000000000000000000000000000000 DUP2 MSTORE PUSH1 0x4 ADD PUSH2 0xC96 SWAP2 SWAP1 PUSH2 0x1EF4 JUMP JUMPDEST PUSH1 0x40 MLOAD DUP1 SWAP2 SUB SWAP1 REVERT JUMPDEST DUP1 SWAP2 POP POP SWAP2 SWAP1 POP JUMP JUMPDEST PUSH0 PUSH1 0x4 PUSH0 DUP4 DUP2 MSTORE PUSH1 0x20 ADD SWAP1 DUP2 MSTORE PUSH1 0x20 ADD PUSH0 KECCAK256 PUSH0 SWAP1 SLOAD SWAP1 PUSH2 0x100 EXP SWAP1 DIV PUSH20 0xFFFFFFFFFFFFFFFFFFFFFFFFFFFFFFFFFFFFFFFF AND SWAP1 POP SWAP2 SWAP1 POP JUMP JUMPDEST PUSH0 CALLER SWAP1 POP SWAP1 JUMP JUMPDEST PUSH2 0xCF5 DUP4 DUP4 DUP4 PUSH1 0x1 PUSH2 0x14FF JUMP JUMPDEST POP POP POP JUMP JUMPDEST PUSH0 DUP1 PUSH2 0xD05 DUP5 PUSH2 0x14C6 JUMP JUMPDEST SWAP1 POP PUSH0 PUSH20 0xFFFFFFFFFFFFFFFFFFFFFFFFFFFFFFFFFFFFFFFF AND DUP4 PUSH20 0xFFFFFFFFFFFFFFFFFFFFFFFFFFFFFFFFFFFFFFFF AND EQ PUSH2 0xD46 JUMPI PUSH2 0xD45 DUP2 DUP5 DUP7 PUSH2 0x16BE JUMP JUMPDEST JUMPDEST PUSH0 PUSH20 0xFFFFFFFFFFFFFFFFFFFFFFFFFFFFFFFFFFFFFFFF AND DUP2 PUSH20 0xFFFFFFFFFFFFFFFFFFFFFFFFFFFFFFFFFFFFFFFF AND EQ PUSH2 0xDD1 JUMPI PUSH2 0xD85 PUSH0 DUP6 PUSH0 DUP1 PUSH2 0x14FF JUMP JUMPDEST PUSH1 0x1 PUSH1 0x3 PUSH0 DUP4 PUSH20 0xFFFFFFFFFFFFFFFFFFFFFFFFFFFFFFFFFFFFFFFF AND PUSH20 0xFFFFFFFFFFFFFFFFFFFFFFFFFFFFFFFFFFFFFFFF AND DUP2 MSTORE PUSH1 0x20 ADD SWAP1 DUP2 MSTORE PUSH1 0x20 ADD PUSH0 KECCAK256 PUSH0 DUP3 DUP3 SLOAD SUB SWAP3 POP POP DUP2 SWAP1 SSTORE POP JUMPDEST PUSH0 PUSH20 0xFFFFFFFFFFFFFFFFFFFFFFFFFFFFFFFFFFFFFFFF AND DUP6 PUSH20 0xFFFFFFFFFFFFFFFFFFFFFFFFFFFFFFFFFFFFFFFF AND EQ PUSH2 0xE50 JUMPI PUSH1 0x1 PUSH1 0x3 PUSH0 DUP8 PUSH20 0xFFFFFFFFFFFFFFFFFFFFFFFFFFFFFFFFFFFFFFFF AND PUSH20 0xFFFFFFFFFFFFFFFFFFFFFFFFFFFFFFFFFFFFFFFF AND DUP2 MSTORE PUSH1 0x20 ADD SWAP1 DUP2 MSTORE PUSH1 0x20 ADD PUSH0 KECCAK256 PUSH0 DUP3 DUP3 SLOAD ADD SWAP3 POP POP DUP2 SWAP1 SSTORE POP JUMPDEST DUP5 PUSH1 0x2 PUSH0 DUP7 DUP2 MSTORE PUSH1 0x20 ADD SWAP1 DUP2 MSTORE PUSH1 0x20 ADD PUSH0 KECCAK256 PUSH0 PUSH2 0x100 EXP DUP2 SLOAD DUP2 PUSH20 0xFFFFFFFFFFFFFFFFFFFFFFFFFFFFFFFFFFFFFFFF MUL NOT AND SWAP1 DUP4 PUSH20 0xFFFFFFFFFFFFFFFFFFFFFFFFFFFFFFFFFFFFFFFF AND MUL OR SWAP1 SSTORE POP DUP4 DUP6 PUSH20 0xFFFFFFFFFFFFFFFFFFFFFFFFFFFFFFFFFFFFFFFF AND DUP3 PUSH20 0xFFFFFFFFFFFFFFFFFFFFFFFFFFFFFFFFFFFFFFFF AND PUSH32 0xDDF252AD1BE2C89B69C2B068FC378DAA952BA7F163C4A11628F55A4DF523B3EF PUSH1 0x40 MLOAD PUSH1 0x40 MLOAD DUP1 SWAP2 SUB SWAP1 LOG4 DUP1 SWAP2 POP POP SWAP4 SWAP3 POP POP POP JUMP JUMPDEST PUSH2 0xF0D PUSH2 0xCE1 JUMP JUMPDEST PUSH20 0xFFFFFFFFFFFFFFFFFFFFFFFFFFFFFFFFFFFFFFFF AND PUSH2 0xF2B PUSH2 0x71F JUMP JUMPDEST PUSH20 0xFFFFFFFFFFFFFFFFFFFFFFFFFFFFFFFFFFFFFFFF AND EQ PUSH2 0xF8A JUMPI PUSH2 0xF4E PUSH2 0xCE1 JUMP JUMPDEST PUSH1 0x40 MLOAD PUSH32 0x118CDAA700000000000000000000000000000000000000000000000000000000 DUP2 MSTORE PUSH1 0x4 ADD PUSH2 0xF81 SWAP2 SWAP1 PUSH2 0x1D75 JUMP JUMPDEST PUSH1 0x40 MLOAD DUP1 SWAP2 SUB SWAP1 REVERT JUMPDEST JUMP JUMPDEST PUSH0 PUSH1 0x7 PUSH0 SWAP1 SLOAD SWAP1 PUSH2 0x100 EXP SWAP1 DIV PUSH20 0xFFFFFFFFFFFFFFFFFFFFFFFFFFFFFFFFFFFFFFFF AND SWAP1 POP DUP2 PUSH1 0x7 PUSH0 PUSH2 0x100 EXP DUP2 SLOAD DUP2 PUSH20 0xFFFFFFFFFFFFFFFFFFFFFFFFFFFFFFFFFFFFFFFF MUL NOT AND SWAP1 DUP4 PUSH20 0xFFFFFFFFFFFFFFFFFFFFFFFFFFFFFFFFFFFFFFFF AND MUL OR SWAP1 SSTORE POP DUP2 PUSH20 0xFFFFFFFFFFFFFFFFFFFFFFFFFFFFFFFFFFFFFFFF AND DUP2 PUSH20 0xFFFFFFFFFFFFFFFFFFFFFFFFFFFFFFFFFFFFFFFF AND PUSH32 0x8BE0079C531659141344CD1FD0A4F28419497F9722A3DAAFE3B4186F6B6457E0 PUSH1 0x40 MLOAD PUSH1 0x40 MLOAD DUP1 SWAP2 SUB SWAP1 LOG3 POP POP JUMP JUMPDEST PUSH0 PUSH20 0xFFFFFFFFFFFFFFFFFFFFFFFFFFFFFFFFFFFFFFFF AND DUP3 PUSH20 0xFFFFFFFFFFFFFFFFFFFFFFFFFFFFFFFFFFFFFFFF AND SUB PUSH2 0x10BF JUMPI DUP2 PUSH1 0x40 MLOAD PUSH32 0x5B08BA1800000000000000000000000000000000000000000000000000000000 DUP2 MSTORE PUSH1 0x4 ADD PUSH2 0x10B6 SWAP2 SWAP1 PUSH2 0x1D75 JUMP JUMPDEST PUSH1 0x40 MLOAD DUP1 SWAP2 SUB SWAP1 REVERT JUMPDEST DUP1 PUSH1 0x5 PUSH0 DUP6 PUSH20 0xFFFFFFFFFFFFFFFFFFFFFFFFFFFFFFFFFFFFFFFF AND PUSH20 0xFFFFFFFFFFFFFFFFFFFFFFFFFFFFFFFFFFFFFFFF AND DUP2 MSTORE PUSH1 0x20 ADD SWAP1 DUP2 MSTORE PUSH1 0x20 ADD PUSH0 KECCAK256 PUSH0 DUP5 PUSH20 0xFFFFFFFFFFFFFFFFFFFFFFFFFFFFFFFFFFFFFFFF AND PUSH20 0xFFFFFFFFFFFFFFFFFFFFFFFFFFFFFFFFFFFFFFFF AND DUP2 MSTORE PUSH1 0x20 ADD SWAP1 DUP2 MSTORE PUSH1 0x20 ADD PUSH0 KECCAK256 PUSH0 PUSH2 0x100 EXP DUP2 SLOAD DUP2 PUSH1 0xFF MUL NOT AND SWAP1 DUP4 ISZERO ISZERO MUL OR SWAP1 SSTORE POP DUP2 PUSH20 0xFFFFFFFFFFFFFFFFFFFFFFFFFFFFFFFFFFFFFFFF AND DUP4 PUSH20 0xFFFFFFFFFFFFFFFFFFFFFFFFFFFFFFFFFFFFFFFF AND PUSH32 0x17307EAB39AB6107E8899845AD3D59BD9653F200F220920489CA2B5937696C31 DUP4 PUSH1 0x40 MLOAD PUSH2 0x11AB SWAP2 SWAP1 PUSH2 0x1C15 JUMP JUMPDEST PUSH1 0x40 MLOAD DUP1 SWAP2 SUB SWAP1 LOG3 POP POP POP JUMP JUMPDEST PUSH0 DUP4 PUSH20 0xFFFFFFFFFFFFFFFFFFFFFFFFFFFFFFFFFFFFFFFF AND EXTCODESIZE GT ISZERO PUSH2 0x1364 JUMPI DUP3 PUSH20 0xFFFFFFFFFFFFFFFFFFFFFFFFFFFFFFFFFFFFFFFF AND PUSH4 0x150B7A02 PUSH2 0x11FB PUSH2 0xCE1 JUMP JUMPDEST DUP7 DUP6 DUP6 PUSH1 0x40 MLOAD DUP6 PUSH4 0xFFFFFFFF AND PUSH1 0xE0 SHL DUP2 MSTORE PUSH1 0x4 ADD PUSH2 0x121D SWAP5 SWAP4 SWAP3 SWAP2 SWAP1 PUSH2 0x2487 JUMP JUMPDEST PUSH1 0x20 PUSH1 0x40 MLOAD DUP1 DUP4 SUB DUP2 PUSH0 DUP8 GAS CALL SWAP3 POP POP POP DUP1 ISZERO PUSH2 0x1258 JUMPI POP PUSH1 0x40 MLOAD RETURNDATASIZE PUSH1 0x1F NOT PUSH1 0x1F DUP3 ADD AND DUP3 ADD DUP1 PUSH1 0x40 MSTORE POP DUP2 ADD SWAP1 PUSH2 0x1255 SWAP2 SWAP1 PUSH2 0x24E5 JUMP JUMPDEST PUSH1 0x1 JUMPDEST PUSH2 0x12D9 JUMPI RETURNDATASIZE DUP1 PUSH0 DUP2 EQ PUSH2 0x1286 JUMPI PUSH1 0x40 MLOAD SWAP2 POP PUSH1 0x1F NOT PUSH1 0x3F RETURNDATASIZE ADD AND DUP3 ADD PUSH1 0x40 MSTORE RETURNDATASIZE DUP3 MSTORE RETURNDATASIZE PUSH0 PUSH1 0x20 DUP5 ADD RETURNDATACOPY PUSH2 0x128B JUMP JUMPDEST PUSH1 0x60 SWAP2 POP JUMPDEST POP PUSH0 DUP2 MLOAD SUB PUSH2 0x12D1 JUMPI DUP4 PUSH1 0x40 MLOAD PUSH32 0x64A0AE9200000000000000000000000000000000000000000000000000000000 DUP2 MSTORE PUSH1 0x4 ADD PUSH2 0x12C8 SWAP2 SWAP1 PUSH2 0x1D75 JUMP JUMPDEST PUSH1 0x40 MLOAD DUP1 SWAP2 SUB SWAP1 REVERT JUMPDEST DUP1 MLOAD DUP2 PUSH1 0x20 ADD REVERT JUMPDEST PUSH4 0x150B7A02 PUSH1 0xE0 SHL PUSH28 0xFFFFFFFFFFFFFFFFFFFFFFFFFFFFFFFFFFFFFFFFFFFFFFFFFFFFFFFF NOT AND DUP2 PUSH28 0xFFFFFFFFFFFFFFFFFFFFFFFFFFFFFFFFFFFFFFFFFFFFFFFFFFFFFFFF NOT AND EQ PUSH2 0x1362 JUMPI DUP4 PUSH1 0x40 MLOAD PUSH32 0x64A0AE9200000000000000000000000000000000000000000000000000000000 DUP2 MSTORE PUSH1 0x4 ADD PUSH2 0x1359 SWAP2 SWAP1 PUSH2 0x1D75 JUMP JUMPDEST PUSH1 0x40 MLOAD DUP1 SWAP2 SUB SWAP1 REVERT JUMPDEST POP JUMPDEST POP POP POP POP JUMP JUMPDEST PUSH1 0x60 PUSH1 0x40 MLOAD DUP1 PUSH1 0x20 ADD PUSH1 0x40 MSTORE DUP1 PUSH0 DUP2 MSTORE POP SWAP1 POP SWAP1 JUMP JUMPDEST PUSH1 0x60 PUSH2 0x138B DUP3 PUSH2 0xC22 JUMP JUMPDEST POP PUSH0 PUSH2 0x1395 PUSH2 0x136A JUMP JUMPDEST SWAP1 POP PUSH0 DUP2 MLOAD GT PUSH2 0x13B3 JUMPI PUSH1 0x40 MLOAD DUP1 PUSH1 0x20 ADD PUSH1 0x40 MSTORE DUP1 PUSH0 DUP2 MSTORE POP PUSH2 0x13DE JUMP JUMPDEST DUP1 PUSH2 0x13BD DUP5 PUSH2 0x1781 JUMP JUMPDEST PUSH1 0x40 MLOAD PUSH1 0x20 ADD PUSH2 0x13CE SWAP3 SWAP2 SWAP1 PUSH2 0x2310 JUMP JUMPDEST PUSH1 0x40 MLOAD PUSH1 0x20 DUP2 DUP4 SUB SUB DUP2 MSTORE SWAP1 PUSH1 0x40 MSTORE JUMPDEST SWAP2 POP POP SWAP2 SWAP1 POP JUMP JUMPDEST PUSH2 0x13FF DUP3 DUP3 PUSH1 0x40 MLOAD DUP1 PUSH1 0x20 ADD PUSH1 0x40 MSTORE DUP1 PUSH0 DUP2 MSTORE POP PUSH2 0x184B JUMP JUMPDEST POP POP JUMP JUMPDEST DUP1 PUSH1 0x6 PUSH0 DUP5 DUP2 MSTORE PUSH1 0x20 ADD SWAP1 DUP2 MSTORE PUSH1 0x20 ADD PUSH0 KECCAK256 SWAP1 DUP2 PUSH2 0x1421 SWAP2 SWAP1 PUSH2 0x26A4 JUMP JUMPDEST POP PUSH32 0xF8E1A15ABA9398E019F0B49DF1A4FDE98EE17AE345CB5F6B5E2C27F5033E8CE7 DUP3 PUSH1 0x40 MLOAD PUSH2 0x1451 SWAP2 SWAP1 PUSH2 0x1EF4 JUMP JUMPDEST PUSH1 0x40 MLOAD DUP1 SWAP2 SUB SWAP1 LOG1 POP POP JUMP JUMPDEST PUSH0 PUSH32 0x1FFC9A700000000000000000000000000000000000000000000000000000000 PUSH28 0xFFFFFFFFFFFFFFFFFFFFFFFFFFFFFFFFFFFFFFFFFFFFFFFFFFFFFFFF NOT AND DUP3 PUSH28 0xFFFFFFFFFFFFFFFFFFFFFFFFFFFFFFFFFFFFFFFFFFFFFFFFFFFFFFFF NOT AND EQ SWAP1 POP SWAP2 SWAP1 POP JUMP JUMPDEST PUSH0 PUSH1 0x2 PUSH0 DUP4 DUP2 MSTORE PUSH1 0x20 ADD SWAP1 DUP2 MSTORE PUSH1 0x20 ADD PUSH0 KECCAK256 PUSH0 SWAP1 SLOAD SWAP1 PUSH2 0x100 EXP SWAP1 DIV PUSH20 0xFFFFFFFFFFFFFFFFFFFFFFFFFFFFFFFFFFFFFFFF AND SWAP1 POP SWAP2 SWAP1 POP JUMP JUMPDEST DUP1 DUP1 PUSH2 0x1537 JUMPI POP PUSH0 PUSH20 0xFFFFFFFFFFFFFFFFFFFFFFFFFFFFFFFFFFFFFFFF AND DUP3 PUSH20 0xFFFFFFFFFFFFFFFFFFFFFFFFFFFFFFFFFFFFFFFF AND EQ ISZERO JUMPDEST ISZERO PUSH2 0x1669 JUMPI PUSH0 PUSH2 0x1546 DUP5 PUSH2 0xC22 JUMP JUMPDEST SWAP1 POP PUSH0 PUSH20 0xFFFFFFFFFFFFFFFFFFFFFFFFFFFFFFFFFFFFFFFF AND DUP4 PUSH20 0xFFFFFFFFFFFFFFFFFFFFFFFFFFFFFFFFFFFFFFFF AND EQ ISZERO DUP1 ISZERO PUSH2 0x15B0 JUMPI POP DUP3 PUSH20 0xFFFFFFFFFFFFFFFFFFFFFFFFFFFFFFFFFFFFFFFF AND DUP2 PUSH20 0xFFFFFFFFFFFFFFFFFFFFFFFFFFFFFFFFFFFFFFFF AND EQ ISZERO JUMPDEST DUP1 ISZERO PUSH2 0x15C3 JUMPI POP PUSH2 0x15C1 DUP2 DUP5 PUSH2 0xA2F JUMP JUMPDEST ISZERO JUMPDEST ISZERO PUSH2 0x1605 JUMPI DUP3 PUSH1 0x40 MLOAD PUSH32 0xA9FBF51F00000000000000000000000000000000000000000000000000000000 DUP2 MSTORE PUSH1 0x4 ADD PUSH2 0x15FC SWAP2 SWAP1 PUSH2 0x1D75 JUMP JUMPDEST PUSH1 0x40 MLOAD DUP1 SWAP2 SUB SWAP1 REVERT JUMPDEST DUP2 ISZERO PUSH2 0x1667 JUMPI DUP4 DUP6 PUSH20 0xFFFFFFFFFFFFFFFFFFFFFFFFFFFFFFFFFFFFFFFF AND DUP3 PUSH20 0xFFFFFFFFFFFFFFFFFFFFFFFFFFFFFFFFFFFFFFFF AND PUSH32 0x8C5BE1E5EBEC7D5BD14F71427D1E84F3DD0314C0F7B2291E5B200AC8C7C3B925 PUSH1 0x40 MLOAD PUSH1 0x40 MLOAD DUP1 SWAP2 SUB SWAP1 LOG4 JUMPDEST POP JUMPDEST DUP4 PUSH1 0x4 PUSH0 DUP6 DUP2 MSTORE PUSH1 0x20 ADD SWAP1 DUP2 MSTORE PUSH1 0x20 ADD PUSH0 KECCAK256 PUSH0 PUSH2 0x100 EXP DUP2 SLOAD DUP2 PUSH20 0xFFFFFFFFFFFFFFFFFFFFFFFFFFFFFFFFFFFFFFFF MUL NOT AND SWAP1 DUP4 PUSH20 0xFFFFFFFFFFFFFFFFFFFFFFFFFFFFFFFFFFFFFFFF AND MUL OR SWAP1 SSTORE POP POP POP POP POP JUMP JUMPDEST PUSH2 0x16C9 DUP4 DUP4 DUP4 PUSH2 0x1866 JUMP JUMPDEST PUSH2 0x177C JUMPI PUSH0 PUSH20 0xFFFFFFFFFFFFFFFFFFFFFFFFFFFFFFFFFFFFFFFF AND DUP4 PUSH20 0xFFFFFFFFFFFFFFFFFFFFFFFFFFFFFFFFFFFFFFFF AND SUB PUSH2 0x173D JUMPI DUP1 PUSH1 0x40 MLOAD PUSH32 0x7E27328900000000000000000000000000000000000000000000000000000000 DUP2 MSTORE PUSH1 0x4 ADD PUSH2 0x1734 SWAP2 SWAP1 PUSH2 0x1EF4 JUMP JUMPDEST PUSH1 0x40 MLOAD DUP1 SWAP2 SUB SWAP1 REVERT JUMPDEST DUP2 DUP2 PUSH1 0x40 MLOAD PUSH32 0x177E802F00000000000000000000000000000000000000000000000000000000 DUP2 MSTORE PUSH1 0x4 ADD PUSH2 0x1773 SWAP3 SWAP2 SWAP1 PUSH2 0x2773 JUMP JUMPDEST PUSH1 0x40 MLOAD DUP1 SWAP2 SUB SWAP1 REVERT JUMPDEST POP POP POP JUMP JUMPDEST PUSH1 0x60 PUSH0 PUSH1 0x1 PUSH2 0x178F DUP5 PUSH2 0x1926 JUMP JUMPDEST ADD SWAP1 POP PUSH0 DUP2 PUSH8 0xFFFFFFFFFFFFFFFF DUP2 GT ISZERO PUSH2 0x17AD JUMPI PUSH2 0x17AC PUSH2 0x1F7D JUMP JUMPDEST JUMPDEST PUSH1 0x40 MLOAD SWAP1 DUP1 DUP3 MSTORE DUP1 PUSH1 0x1F ADD PUSH1 0x1F NOT AND PUSH1 0x20 ADD DUP3 ADD PUSH1 0x40 MSTORE DUP1 ISZERO PUSH2 0x17DF JUMPI DUP2 PUSH1 0x20 ADD PUSH1 0x1 DUP3 MUL DUP1 CALLDATASIZE DUP4 CALLDATACOPY DUP1 DUP3 ADD SWAP2 POP POP SWAP1 POP JUMPDEST POP SWAP1 POP PUSH0 DUP3 PUSH1 0x20 ADD DUP3 ADD SWAP1 POP JUMPDEST PUSH1 0x1 ISZERO PUSH2 0x1840 JUMPI DUP1 DUP1 PUSH1 0x1 SWAP1 SUB SWAP2 POP POP PUSH32 0x3031323334353637383961626364656600000000000000000000000000000000 PUSH1 0xA DUP7 MOD BYTE DUP2 MSTORE8 PUSH1 0xA DUP6 DUP2 PUSH2 0x1835 JUMPI PUSH2 0x1834 PUSH2 0x279A JUMP JUMPDEST JUMPDEST DIV SWAP5 POP PUSH0 DUP6 SUB PUSH2 0x17EC JUMPI JUMPDEST DUP2 SWAP4 POP POP POP POP SWAP2 SWAP1 POP JUMP JUMPDEST PUSH2 0x1855 DUP4 DUP4 PUSH2 0x1A77 JUMP JUMPDEST PUSH2 0x1861 PUSH0 DUP5 DUP5 DUP5 PUSH2 0x11B8 JUMP JUMPDEST POP POP POP JUMP JUMPDEST PUSH0 DUP1 PUSH20 0xFFFFFFFFFFFFFFFFFFFFFFFFFFFFFFFFFFFFFFFF AND DUP4 PUSH20 0xFFFFFFFFFFFFFFFFFFFFFFFFFFFFFFFFFFFFFFFF AND EQ ISZERO DUP1 ISZERO PUSH2 0x191D JUMPI POP DUP3 PUSH20 0xFFFFFFFFFFFFFFFFFFFFFFFFFFFFFFFFFFFFFFFF AND DUP5 PUSH20 0xFFFFFFFFFFFFFFFFFFFFFFFFFFFFFFFFFFFFFFFF AND EQ DUP1 PUSH2 0x18DE JUMPI POP PUSH2 0x18DD DUP5 DUP5 PUSH2 0xA2F JUMP JUMPDEST JUMPDEST DUP1 PUSH2 0x191C JUMPI POP DUP3 PUSH20 0xFFFFFFFFFFFFFFFFFFFFFFFFFFFFFFFFFFFFFFFF AND PUSH2 0x1904 DUP4 PUSH2 0xCA8 JUMP JUMPDEST PUSH20 0xFFFFFFFFFFFFFFFFFFFFFFFFFFFFFFFFFFFFFFFF AND EQ JUMPDEST JUMPDEST SWAP1 POP SWAP4 SWAP3 POP POP POP JUMP JUMPDEST PUSH0 DUP1 PUSH0 SWAP1 POP PUSH27 0x184F03E93FF9F4DAA797ED6E38ED64BF6A1F010000000000000000 DUP4 LT PUSH2 0x1982 JUMPI PUSH27 0x184F03E93FF9F4DAA797ED6E38ED64BF6A1F010000000000000000 DUP4 DUP2 PUSH2 0x1978 JUMPI PUSH2 0x1977 PUSH2 0x279A JUMP JUMPDEST JUMPDEST DIV SWAP3 POP PUSH1 0x40 DUP2 ADD SWAP1 POP JUMPDEST PUSH14 0x4EE2D6D415B85ACEF8100000000 DUP4 LT PUSH2 0x19BF JUMPI PUSH14 0x4EE2D6D415B85ACEF8100000000 DUP4 DUP2 PUSH2 0x19B5 JUMPI PUSH2 0x19B4 PUSH2 0x279A JUMP JUMPDEST JUMPDEST DIV SWAP3 POP PUSH1 0x20 DUP2 ADD SWAP1 POP JUMPDEST PUSH7 0x2386F26FC10000 DUP4 LT PUSH2 0x19EE JUMPI PUSH7 0x2386F26FC10000 DUP4 DUP2 PUSH2 0x19E4 JUMPI PUSH2 0x19E3 PUSH2 0x279A JUMP JUMPDEST JUMPDEST DIV SWAP3 POP PUSH1 0x10 DUP2 ADD SWAP1 POP JUMPDEST PUSH4 0x5F5E100 DUP4 LT PUSH2 0x1A17 JUMPI PUSH4 0x5F5E100 DUP4 DUP2 PUSH2 0x1A0D JUMPI PUSH2 0x1A0C PUSH2 0x279A JUMP JUMPDEST JUMPDEST DIV SWAP3 POP PUSH1 0x8 DUP2 ADD SWAP1 POP JUMPDEST PUSH2 0x2710 DUP4 LT PUSH2 0x1A3C JUMPI PUSH2 0x2710 DUP4 DUP2 PUSH2 0x1A32 JUMPI PUSH2 0x1A31 PUSH2 0x279A JUMP JUMPDEST JUMPDEST DIV SWAP3 POP PUSH1 0x4 DUP2 ADD SWAP1 POP JUMPDEST PUSH1 0x64 DUP4 LT PUSH2 0x1A5F JUMPI PUSH1 0x64 DUP4 DUP2 PUSH2 0x1A55 JUMPI PUSH2 0x1A54 PUSH2 0x279A JUMP JUMPDEST JUMPDEST DIV SWAP3 POP PUSH1 0x2 DUP2 ADD SWAP1 POP JUMPDEST PUSH1 0xA DUP4 LT PUSH2 0x1A6E JUMPI PUSH1 0x1 DUP2 ADD SWAP1 POP JUMPDEST DUP1 SWAP2 POP POP SWAP2 SWAP1 POP JUMP JUMPDEST PUSH0 PUSH20 0xFFFFFFFFFFFFFFFFFFFFFFFFFFFFFFFFFFFFFFFF AND DUP3 PUSH20 0xFFFFFFFFFFFFFFFFFFFFFFFFFFFFFFFFFFFFFFFF AND SUB PUSH2 0x1AE7 JUMPI PUSH0 PUSH1 0x40 MLOAD PUSH32 0x64A0AE9200000000000000000000000000000000000000000000000000000000 DUP2 MSTORE PUSH1 0x4 ADD PUSH2 0x1ADE SWAP2 SWAP1 PUSH2 0x1D75 JUMP JUMPDEST PUSH1 0x40 MLOAD DUP1 SWAP2 SUB SWAP1 REVERT JUMPDEST PUSH0 PUSH2 0x1AF3 DUP4 DUP4 PUSH0 PUSH2 0xCFA JUMP JUMPDEST SWAP1 POP PUSH0 PUSH20 0xFFFFFFFFFFFFFFFFFFFFFFFFFFFFFFFFFFFFFFFF AND DUP2 PUSH20 0xFFFFFFFFFFFFFFFFFFFFFFFFFFFFFFFFFFFFFFFF AND EQ PUSH2 0x1B65 JUMPI PUSH0 PUSH1 0x40 MLOAD PUSH32 0x73C6AC6E00000000000000000000000000000000000000000000000000000000 DUP2 MSTORE PUSH1 0x4 ADD PUSH2 0x1B5C SWAP2 SWAP1 PUSH2 0x1D75 JUMP JUMPDEST PUSH1 0x40 MLOAD DUP1 SWAP2 SUB SWAP1 REVERT JUMPDEST POP POP POP JUMP JUMPDEST PUSH0 PUSH1 0x40 MLOAD SWAP1 POP SWAP1 JUMP JUMPDEST PUSH0 DUP1 REVERT JUMPDEST PUSH0 DUP1 REVERT JUMPDEST PUSH0 PUSH32 0xFFFFFFFF00000000000000000000000000000000000000000000000000000000 DUP3 AND SWAP1 POP SWAP2 SWAP1 POP JUMP JUMPDEST PUSH2 0x1BAF DUP2 PUSH2 0x1B7B JUMP JUMPDEST DUP2 EQ PUSH2 0x1BB9 JUMPI PUSH0 DUP1 REVERT JUMPDEST POP JUMP JUMPDEST PUSH0 DUP2 CALLDATALOAD SWAP1 POP PUSH2 0x1BCA DUP2 PUSH2 0x1BA6 JUMP JUMPDEST SWAP3 SWAP2 POP POP JUMP JUMPDEST PUSH0 PUSH1 0x20 DUP3 DUP5 SUB SLT ISZERO PUSH2 0x1BE5 JUMPI PUSH2 0x1BE4 PUSH2 0x1B73 JUMP JUMPDEST JUMPDEST PUSH0 PUSH2 0x1BF2 DUP5 DUP3 DUP6 ADD PUSH2 0x1BBC JUMP JUMPDEST SWAP2 POP POP SWAP3 SWAP2 POP POP JUMP JUMPDEST PUSH0 DUP2 ISZERO ISZERO SWAP1 POP SWAP2 SWAP1 POP JUMP JUMPDEST PUSH2 0x1C0F DUP2 PUSH2 0x1BFB JUMP JUMPDEST DUP3 MSTORE POP POP JUMP JUMPDEST PUSH0 PUSH1 0x20 DUP3 ADD SWAP1 POP PUSH2 0x1C28 PUSH0 DUP4 ADD DUP5 PUSH2 0x1C06 JUMP JUMPDEST SWAP3 SWAP2 POP POP JUMP JUMPDEST PUSH0 DUP2 MLOAD SWAP1 POP SWAP2 SWAP1 POP JUMP JUMPDEST PUSH0 DUP3 DUP3 MSTORE PUSH1 0x20 DUP3 ADD SWAP1 POP SWAP3 SWAP2 POP POP JUMP JUMPDEST PUSH0 JUMPDEST DUP4 DUP2 LT ISZERO PUSH2 0x1C65 JUMPI DUP1 DUP3 ADD MLOAD DUP2 DUP5 ADD MSTORE PUSH1 0x20 DUP2 ADD SWAP1 POP PUSH2 0x1C4A JUMP JUMPDEST PUSH0 DUP5 DUP5 ADD MSTORE POP POP POP POP JUMP JUMPDEST PUSH0 PUSH1 0x1F NOT PUSH1 0x1F DUP4 ADD AND SWAP1 POP SWAP2 SWAP1 POP JUMP JUMPDEST PUSH0 PUSH2 0x1C8A DUP3 PUSH2 0x1C2E JUMP JUMPDEST PUSH2 0x1C94 DUP2 DUP6 PUSH2 0x1C38 JUMP JUMPDEST SWAP4 POP PUSH2 0x1CA4 DUP2 DUP6 PUSH1 0x20 DUP7 ADD PUSH2 0x1C48 JUMP JUMPDEST PUSH2 0x1CAD DUP2 PUSH2 0x1C70 JUMP JUMPDEST DUP5 ADD SWAP2 POP POP SWAP3 SWAP2 POP POP JUMP JUMPDEST PUSH0 PUSH1 0x20 DUP3 ADD SWAP1 POP DUP2 DUP2 SUB PUSH0 DUP4 ADD MSTORE PUSH2 0x1CD0 DUP2 DUP5 PUSH2 0x1C80 JUMP JUMPDEST SWAP1 POP SWAP3 SWAP2 POP POP JUMP JUMPDEST PUSH0 DUP2 SWAP1 POP SWAP2 SWAP1 POP JUMP JUMPDEST PUSH2 0x1CEA DUP2 PUSH2 0x1CD8 JUMP JUMPDEST DUP2 EQ PUSH2 0x1CF4 JUMPI PUSH0 DUP1 REVERT JUMPDEST POP JUMP JUMPDEST PUSH0 DUP2 CALLDATALOAD SWAP1 POP PUSH2 0x1D05 DUP2 PUSH2 0x1CE1 JUMP JUMPDEST SWAP3 SWAP2 POP POP JUMP JUMPDEST PUSH0 PUSH1 0x20 DUP3 DUP5 SUB SLT ISZERO PUSH2 0x1D20 JUMPI PUSH2 0x1D1F PUSH2 0x1B73 JUMP JUMPDEST JUMPDEST PUSH0 PUSH2 0x1D2D DUP5 DUP3 DUP6 ADD PUSH2 0x1CF7 JUMP JUMPDEST SWAP2 POP POP SWAP3 SWAP2 POP POP JUMP JUMPDEST PUSH0 PUSH20 0xFFFFFFFFFFFFFFFFFFFFFFFFFFFFFFFFFFFFFFFF DUP3 AND SWAP1 POP SWAP2 SWAP1 POP JUMP JUMPDEST PUSH0 PUSH2 0x1D5F DUP3 PUSH2 0x1D36 JUMP JUMPDEST SWAP1 POP SWAP2 SWAP1 POP JUMP JUMPDEST PUSH2 0x1D6F DUP2 PUSH2 0x1D55 JUMP JUMPDEST DUP3 MSTORE POP POP JUMP JUMPDEST PUSH0 PUSH1 0x20 DUP3 ADD SWAP1 POP PUSH2 0x1D88 PUSH0 DUP4 ADD DUP5 PUSH2 0x1D66 JUMP JUMPDEST SWAP3 SWAP2 POP POP JUMP JUMPDEST PUSH2 0x1D97 DUP2 PUSH2 0x1D55 JUMP JUMPDEST DUP2 EQ PUSH2 0x1DA1 JUMPI PUSH0 DUP1 REVERT JUMPDEST POP JUMP JUMPDEST PUSH0 DUP2 CALLDATALOAD SWAP1 POP PUSH2 0x1DB2 DUP2 PUSH2 0x1D8E JUMP JUMPDEST SWAP3 SWAP2 POP POP JUMP JUMPDEST PUSH0 DUP1 PUSH1 0x40 DUP4 DUP6 SUB SLT ISZERO PUSH2 0x1DCE JUMPI PUSH2 0x1DCD PUSH2 0x1B73 JUMP JUMPDEST JUMPDEST PUSH0 PUSH2 0x1DDB DUP6 DUP3 DUP7 ADD PUSH2 0x1DA4 JUMP JUMPDEST SWAP3 POP POP PUSH1 0x20 PUSH2 0x1DEC DUP6 DUP3 DUP7 ADD PUSH2 0x1CF7 JUMP JUMPDEST SWAP2 POP POP SWAP3 POP SWAP3 SWAP1 POP JUMP JUMPDEST PUSH0 DUP1 PUSH0 PUSH1 0x60 DUP5 DUP7 SUB SLT ISZERO PUSH2 0x1E0D JUMPI PUSH2 0x1E0C PUSH2 0x1B73 JUMP JUMPDEST JUMPDEST PUSH0 PUSH2 0x1E1A DUP7 DUP3 DUP8 ADD PUSH2 0x1DA4 JUMP JUMPDEST SWAP4 POP POP PUSH1 0x20 PUSH2 0x1E2B DUP7 DUP3 DUP8 ADD PUSH2 0x1DA4 JUMP JUMPDEST SWAP3 POP POP PUSH1 0x40 PUSH2 0x1E3C DUP7 DUP3 DUP8 ADD PUSH2 0x1CF7 JUMP JUMPDEST SWAP2 POP POP SWAP3 POP SWAP3 POP SWAP3 JUMP JUMPDEST PUSH0 DUP2 SWAP1 POP SWAP2 SWAP1 POP JUMP JUMPDEST PUSH0 PUSH2 0x1E69 PUSH2 0x1E64 PUSH2 0x1E5F DUP5 PUSH2 0x1D36 JUMP JUMPDEST PUSH2 0x1E46 JUMP JUMPDEST PUSH2 0x1D36 JUMP JUMPDEST SWAP1 POP SWAP2 SWAP1 POP JUMP JUMPDEST PUSH0 PUSH2 0x1E7A DUP3 PUSH2 0x1E4F JUMP JUMPDEST SWAP1 POP SWAP2 SWAP1 POP JUMP JUMPDEST PUSH0 PUSH2 0x1E8B DUP3 PUSH2 0x1E70 JUMP JUMPDEST SWAP1 POP SWAP2 SWAP1 POP JUMP JUMPDEST PUSH2 0x1E9B DUP2 PUSH2 0x1E81 JUMP JUMPDEST DUP3 MSTORE POP POP JUMP JUMPDEST PUSH0 PUSH1 0x20 DUP3 ADD SWAP1 POP PUSH2 0x1EB4 PUSH0 DUP4 ADD DUP5 PUSH2 0x1E92 JUMP JUMPDEST SWAP3 SWAP2 POP POP JUMP JUMPDEST PUSH0 PUSH1 0x20 DUP3 DUP5 SUB SLT ISZERO PUSH2 0x1ECF JUMPI PUSH2 0x1ECE PUSH2 0x1B73 JUMP JUMPDEST JUMPDEST PUSH0 PUSH2 0x1EDC DUP5 DUP3 DUP6 ADD PUSH2 0x1DA4 JUMP JUMPDEST SWAP2 POP POP SWAP3 SWAP2 POP POP JUMP JUMPDEST PUSH2 0x1EEE DUP2 PUSH2 0x1CD8 JUMP JUMPDEST DUP3 MSTORE POP POP JUMP JUMPDEST PUSH0 PUSH1 0x20 DUP3 ADD SWAP1 POP PUSH2 0x1F07 PUSH0 DUP4 ADD DUP5 PUSH2 0x1EE5 JUMP JUMPDEST SWAP3 SWAP2 POP POP JUMP JUMPDEST PUSH2 0x1F16 DUP2 PUSH2 0x1BFB JUMP JUMPDEST DUP2 EQ PUSH2 0x1F20 JUMPI PUSH0 DUP1 REVERT JUMPDEST POP JUMP JUMPDEST PUSH0 DUP2 CALLDATALOAD SWAP1 POP PUSH2 0x1F31 DUP2 PUSH2 0x1F0D JUMP JUMPDEST SWAP3 SWAP2 POP POP JUMP JUMPDEST PUSH0 DUP1 PUSH1 0x40 DUP4 DUP6 SUB SLT ISZERO PUSH2 0x1F4D JUMPI PUSH2 0x1F4C PUSH2 0x1B73 JUMP JUMPDEST JUMPDEST PUSH0 PUSH2 0x1F5A DUP6 DUP3 DUP7 ADD PUSH2 0x1DA4 JUMP JUMPDEST SWAP3 POP POP PUSH1 0x20 PUSH2 0x1F6B DUP6 DUP3 DUP7 ADD PUSH2 0x1F23 JUMP JUMPDEST SWAP2 POP POP SWAP3 POP SWAP3 SWAP1 POP JUMP JUMPDEST PUSH0 DUP1 REVERT JUMPDEST PUSH0 DUP1 REVERT JUMPDEST PUSH32 0x4E487B7100000000000000000000000000000000000000000000000000000000 PUSH0 MSTORE PUSH1 0x41 PUSH1 0x4 MSTORE PUSH1 0x24 PUSH0 REVERT JUMPDEST PUSH2 0x1FB3 DUP3 PUSH2 0x1C70 JUMP JUMPDEST DUP2 ADD DUP2 DUP2 LT PUSH8 0xFFFFFFFFFFFFFFFF DUP3 GT OR ISZERO PUSH2 0x1FD2 JUMPI PUSH2 0x1FD1 PUSH2 0x1F7D JUMP JUMPDEST JUMPDEST DUP1 PUSH1 0x40 MSTORE POP POP POP JUMP JUMPDEST PUSH0 PUSH2 0x1FE4 PUSH2 0x1B6A JUMP JUMPDEST SWAP1 POP PUSH2 0x1FF0 DUP3 DUP3 PUSH2 0x1FAA JUMP JUMPDEST SWAP2 SWAP1 POP JUMP JUMPDEST PUSH0 PUSH8 0xFFFFFFFFFFFFFFFF DUP3 GT ISZERO PUSH2 0x200F JUMPI PUSH2 0x200E PUSH2 0x1F7D JUMP JUMPDEST JUMPDEST PUSH2 0x2018 DUP3 PUSH2 0x1C70 JUMP JUMPDEST SWAP1 POP PUSH1 0x20 DUP2 ADD SWAP1 POP SWAP2 SWAP1 POP JUMP JUMPDEST DUP3 DUP2 DUP4 CALLDATACOPY PUSH0 DUP4 DUP4 ADD MSTORE POP POP POP JUMP JUMPDEST PUSH0 PUSH2 0x2045 PUSH2 0x2040 DUP5 PUSH2 0x1FF5 JUMP JUMPDEST PUSH2 0x1FDB JUMP JUMPDEST SWAP1 POP DUP3 DUP2 MSTORE PUSH1 0x20 DUP2 ADD DUP5 DUP5 DUP5 ADD GT ISZERO PUSH2 0x2061 JUMPI PUSH2 0x2060 PUSH2 0x1F79 JUMP JUMPDEST JUMPDEST PUSH2 0x206C DUP5 DUP3 DUP6 PUSH2 0x2025 JUMP JUMPDEST POP SWAP4 SWAP3 POP POP POP JUMP JUMPDEST PUSH0 DUP3 PUSH1 0x1F DUP4 ADD SLT PUSH2 0x2088 JUMPI PUSH2 0x2087 PUSH2 0x1F75 JUMP JUMPDEST JUMPDEST DUP2 CALLDATALOAD PUSH2 0x2098 DUP5 DUP3 PUSH1 0x20 DUP7 ADD PUSH2 0x2033 JUMP JUMPDEST SWAP2 POP POP SWAP3 SWAP2 POP POP JUMP JUMPDEST PUSH0 DUP1 PUSH0 DUP1 PUSH1 0x80 DUP6 DUP8 SUB SLT ISZERO PUSH2 0x20B9 JUMPI PUSH2 0x20B8 PUSH2 0x1B73 JUMP JUMPDEST JUMPDEST PUSH0 PUSH2 0x20C6 DUP8 DUP3 DUP9 ADD PUSH2 0x1DA4 JUMP JUMPDEST SWAP5 POP POP PUSH1 0x20 PUSH2 0x20D7 DUP8 DUP3 DUP9 ADD PUSH2 0x1DA4 JUMP JUMPDEST SWAP4 POP POP PUSH1 0x40 PUSH2 0x20E8 DUP8 DUP3 DUP9 ADD PUSH2 0x1CF7 JUMP JUMPDEST SWAP3 POP POP PUSH1 0x60 DUP6 ADD CALLDATALOAD PUSH8 0xFFFFFFFFFFFFFFFF DUP2 GT ISZERO PUSH2 0x2109 JUMPI PUSH2 0x2108 PUSH2 0x1B77 JUMP JUMPDEST JUMPDEST PUSH2 0x2115 DUP8 DUP3 DUP9 ADD PUSH2 0x2074 JUMP JUMPDEST SWAP2 POP POP SWAP3 SWAP6 SWAP2 SWAP5 POP SWAP3 POP JUMP JUMPDEST PUSH0 PUSH8 0xFFFFFFFFFFFFFFFF DUP3 GT ISZERO PUSH2 0x213B JUMPI PUSH2 0x213A PUSH2 0x1F7D JUMP JUMPDEST JUMPDEST PUSH2 0x2144 DUP3 PUSH2 0x1C70 JUMP JUMPDEST SWAP1 POP PUSH1 0x20 DUP2 ADD SWAP1 POP SWAP2 SWAP1 POP JUMP JUMPDEST PUSH0 PUSH2 0x2163 PUSH2 0x215E DUP5 PUSH2 0x2121 JUMP JUMPDEST PUSH2 0x1FDB JUMP JUMPDEST SWAP1 POP DUP3 DUP2 MSTORE PUSH1 0x20 DUP2 ADD DUP5 DUP5 DUP5 ADD GT ISZERO PUSH2 0x217F JUMPI PUSH2 0x217E PUSH2 0x1F79 JUMP JUMPDEST JUMPDEST PUSH2 0x218A DUP5 DUP3 DUP6 PUSH2 0x2025 JUMP JUMPDEST POP SWAP4 SWAP3 POP POP POP JUMP JUMPDEST PUSH0 DUP3 PUSH1 0x1F DUP4 ADD SLT PUSH2 0x21A6 JUMPI PUSH2 0x21A5 PUSH2 0x1F75 JUMP JUMPDEST JUMPDEST DUP2 CALLDATALOAD PUSH2 0x21B6 DUP5 DUP3 PUSH1 0x20 DUP7 ADD PUSH2 0x2151 JUMP JUMPDEST SWAP2 POP POP SWAP3 SWAP2 POP POP JUMP JUMPDEST PUSH0 PUSH1 0x20 DUP3 DUP5 SUB SLT ISZERO PUSH2 0x21D4 JUMPI PUSH2 0x21D3 PUSH2 0x1B73 JUMP JUMPDEST JUMPDEST PUSH0 DUP3 ADD CALLDATALOAD PUSH8 0xFFFFFFFFFFFFFFFF DUP2 GT ISZERO PUSH2 0x21F1 JUMPI PUSH2 0x21F0 PUSH2 0x1B77 JUMP JUMPDEST JUMPDEST PUSH2 0x21FD DUP5 DUP3 DUP6 ADD PUSH2 0x2192 JUMP JUMPDEST SWAP2 POP POP SWAP3 SWAP2 POP POP JUMP JUMPDEST PUSH0 DUP1 PUSH1 0x40 DUP4 DUP6 SUB SLT ISZERO PUSH2 0x221C JUMPI PUSH2 0x221B PUSH2 0x1B73 JUMP JUMPDEST JUMPDEST PUSH0 PUSH2 0x2229 DUP6 DUP3 DUP7 ADD PUSH2 0x1DA4 JUMP JUMPDEST SWAP3 POP POP PUSH1 0x20 PUSH2 0x223A DUP6 DUP3 DUP7 ADD PUSH2 0x1DA4 JUMP JUMPDEST SWAP2 POP POP SWAP3 POP SWAP3 SWAP1 POP JUMP JUMPDEST PUSH32 0x4E487B7100000000000000000000000000000000000000000000000000000000 PUSH0 MSTORE PUSH1 0x22 PUSH1 0x4 MSTORE PUSH1 0x24 PUSH0 REVERT JUMPDEST PUSH0 PUSH1 0x2 DUP3 DIV SWAP1 POP PUSH1 0x1 DUP3 AND DUP1 PUSH2 0x2288 JUMPI PUSH1 0x7F DUP3 AND SWAP2 POP JUMPDEST PUSH1 0x20 DUP3 LT DUP2 SUB PUSH2 0x229B JUMPI PUSH2 0x229A PUSH2 0x2244 JUMP JUMPDEST JUMPDEST POP SWAP2 SWAP1 POP JUMP JUMPDEST PUSH0 PUSH1 0x60 DUP3 ADD SWAP1 POP PUSH2 0x22B4 PUSH0 DUP4 ADD DUP7 PUSH2 0x1D66 JUMP JUMPDEST PUSH2 0x22C1 PUSH1 0x20 DUP4 ADD DUP6 PUSH2 0x1EE5 JUMP JUMPDEST PUSH2 0x22CE PUSH1 0x40 DUP4 ADD DUP5 PUSH2 0x1D66 JUMP JUMPDEST SWAP5 SWAP4 POP POP POP POP JUMP JUMPDEST PUSH0 DUP2 SWAP1 POP SWAP3 SWAP2 POP POP JUMP JUMPDEST PUSH0 PUSH2 0x22EA DUP3 PUSH2 0x1C2E JUMP JUMPDEST PUSH2 0x22F4 DUP2 DUP6 PUSH2 0x22D6 JUMP JUMPDEST SWAP4 POP PUSH2 0x2304 DUP2 DUP6 PUSH1 0x20 DUP7 ADD PUSH2 0x1C48 JUMP JUMPDEST DUP1 DUP5 ADD SWAP2 POP POP SWAP3 SWAP2 POP POP JUMP JUMPDEST PUSH0 PUSH2 0x231B DUP3 DUP6 PUSH2 0x22E0 JUMP JUMPDEST SWAP2 POP PUSH2 0x2327 DUP3 DUP5 PUSH2 0x22E0 JUMP JUMPDEST SWAP2 POP DUP2 SWAP1 POP SWAP4 SWAP3 POP POP POP JUMP JUMPDEST PUSH32 0x5468652063616C6C65722063616E6E6F742072756E20746869732066756E6374 PUSH0 DUP3 ADD MSTORE PUSH32 0x696F6E0000000000000000000000000000000000000000000000000000000000 PUSH1 0x20 DUP3 ADD MSTORE POP JUMP JUMPDEST PUSH0 PUSH2 0x238D PUSH1 0x23 DUP4 PUSH2 0x1C38 JUMP JUMPDEST SWAP2 POP PUSH2 0x2398 DUP3 PUSH2 0x2333 JUMP JUMPDEST PUSH1 0x40 DUP3 ADD SWAP1 POP SWAP2 SWAP1 POP JUMP JUMPDEST PUSH0 PUSH1 0x20 DUP3 ADD SWAP1 POP DUP2 DUP2 SUB PUSH0 DUP4 ADD MSTORE PUSH2 0x23BA DUP2 PUSH2 0x2381 JUMP JUMPDEST SWAP1 POP SWAP2 SWAP1 POP JUMP JUMPDEST PUSH32 0x4E487B7100000000000000000000000000000000000000000000000000000000 PUSH0 MSTORE PUSH1 0x11 PUSH1 0x4 MSTORE PUSH1 0x24 PUSH0 REVERT JUMPDEST PUSH0 PUSH2 0x23F8 DUP3 PUSH2 0x1CD8 JUMP JUMPDEST SWAP2 POP PUSH32 0xFFFFFFFFFFFFFFFFFFFFFFFFFFFFFFFFFFFFFFFFFFFFFFFFFFFFFFFFFFFFFFFF DUP3 SUB PUSH2 0x242A JUMPI PUSH2 0x2429 PUSH2 0x23C1 JUMP JUMPDEST JUMPDEST PUSH1 0x1 DUP3 ADD SWAP1 POP SWAP2 SWAP1 POP JUMP JUMPDEST PUSH0 DUP2 MLOAD SWAP1 POP SWAP2 SWAP1 POP JUMP JUMPDEST PUSH0 DUP3 DUP3 MSTORE PUSH1 0x20 DUP3 ADD SWAP1 POP SWAP3 SWAP2 POP POP JUMP JUMPDEST PUSH0 PUSH2 0x2459 DUP3 PUSH2 0x2435 JUMP JUMPDEST PUSH2 0x2463 DUP2 DUP6 PUSH2 0x243F JUMP JUMPDEST SWAP4 POP PUSH2 0x2473 DUP2 DUP6 PUSH1 0x20 DUP7 ADD PUSH2 0x1C48 JUMP JUMPDEST PUSH2 0x247C DUP2 PUSH2 0x1C70 JUMP JUMPDEST DUP5 ADD SWAP2 POP POP SWAP3 SWAP2 POP POP JUMP JUMPDEST PUSH0 PUSH1 0x80 DUP3 ADD SWAP1 POP PUSH2 0x249A PUSH0 DUP4 ADD DUP8 PUSH2 0x1D66 JUMP JUMPDEST PUSH2 0x24A7 PUSH1 0x20 DUP4 ADD DUP7 PUSH2 0x1D66 JUMP JUMPDEST PUSH2 0x24B4 PUSH1 0x40 DUP4 ADD DUP6 PUSH2 0x1EE5 JUMP JUMPDEST DUP2 DUP2 SUB PUSH1 0x60 DUP4 ADD MSTORE PUSH2 0x24C6 DUP2 DUP5 PUSH2 0x244F JUMP JUMPDEST SWAP1 POP SWAP6 SWAP5 POP POP POP POP POP JUMP JUMPDEST PUSH0 DUP2 MLOAD SWAP1 POP PUSH2 0x24DF DUP2 PUSH2 0x1BA6 JUMP JUMPDEST SWAP3 SWAP2 POP POP JUMP JUMPDEST PUSH0 PUSH1 0x20 DUP3 DUP5 SUB SLT ISZERO PUSH2 0x24FA JUMPI PUSH2 0x24F9 PUSH2 0x1B73 JUMP JUMPDEST JUMPDEST PUSH0 PUSH2 0x2507 DUP5 DUP3 DUP6 ADD PUSH2 0x24D1 JUMP JUMPDEST SWAP2 POP POP SWAP3 SWAP2 POP POP JUMP JUMPDEST PUSH0 DUP2 SWAP1 POP DUP2 PUSH0 MSTORE PUSH1 0x20 PUSH0 KECCAK256 SWAP1 POP SWAP2 SWAP1 POP JUMP JUMPDEST PUSH0 PUSH1 0x20 PUSH1 0x1F DUP4 ADD DIV SWAP1 POP SWAP2 SWAP1 POP JUMP JUMPDEST PUSH0 DUP3 DUP3 SHL SWAP1 POP SWAP3 SWAP2 POP POP JUMP JUMPDEST PUSH0 PUSH1 0x8 DUP4 MUL PUSH2 0x256C PUSH32 0xFFFFFFFFFFFFFFFFFFFFFFFFFFFFFFFFFFFFFFFFFFFFFFFFFFFFFFFFFFFFFFFF DUP3 PUSH2 0x2531 JUMP JUMPDEST PUSH2 0x2576 DUP7 DUP4 PUSH2 0x2531 JUMP JUMPDEST SWAP6 POP DUP1 NOT DUP5 AND SWAP4 POP DUP1 DUP7 AND DUP5 OR SWAP3 POP POP POP SWAP4 SWAP3 POP POP POP JUMP JUMPDEST PUSH0 PUSH2 0x25A8 PUSH2 0x25A3 PUSH2 0x259E DUP5 PUSH2 0x1CD8 JUMP JUMPDEST PUSH2 0x1E46 JUMP JUMPDEST PUSH2 0x1CD8 JUMP JUMPDEST SWAP1 POP SWAP2 SWAP1 POP JUMP JUMPDEST PUSH0 DUP2 SWAP1 POP SWAP2 SWAP1 POP JUMP JUMPDEST PUSH2 0x25C1 DUP4 PUSH2 0x258E JUMP JUMPDEST PUSH2 0x25D5 PUSH2 0x25CD DUP3 PUSH2 0x25AF JUMP JUMPDEST DUP5 DUP5 SLOAD PUSH2 0x253D JUMP JUMPDEST DUP3 SSTORE POP POP POP POP JUMP JUMPDEST PUSH0 SWAP1 JUMP JUMPDEST PUSH2 0x25E9 PUSH2 0x25DD JUMP JUMPDEST PUSH2 0x25F4 DUP2 DUP5 DUP5 PUSH2 0x25B8 JUMP JUMPDEST POP POP POP JUMP JUMPDEST JUMPDEST DUP2 DUP2 LT ISZERO PUSH2 0x2617 JUMPI PUSH2 0x260C PUSH0 DUP3 PUSH2 0x25E1 JUMP JUMPDEST PUSH1 0x1 DUP2 ADD SWAP1 POP PUSH2 0x25FA JUMP JUMPDEST POP POP JUMP JUMPDEST PUSH1 0x1F DUP3 GT ISZERO PUSH2 0x265C JUMPI PUSH2 0x262D DUP2 PUSH2 0x2510 JUMP JUMPDEST PUSH2 0x2636 DUP5 PUSH2 0x2522 JUMP JUMPDEST DUP2 ADD PUSH1 0x20 DUP6 LT ISZERO PUSH2 0x2645 JUMPI DUP2 SWAP1 POP JUMPDEST PUSH2 0x2659 PUSH2 0x2651 DUP6 PUSH2 0x2522 JUMP JUMPDEST DUP4 ADD DUP3 PUSH2 0x25F9 JUMP JUMPDEST POP POP JUMPDEST POP POP POP JUMP JUMPDEST PUSH0 DUP3 DUP3 SHR SWAP1 POP SWAP3 SWAP2 POP POP JUMP JUMPDEST PUSH0 PUSH2 0x267C PUSH0 NOT DUP5 PUSH1 0x8 MUL PUSH2 0x2661 JUMP JUMPDEST NOT DUP1 DUP4 AND SWAP2 POP POP SWAP3 SWAP2 POP POP JUMP JUMPDEST PUSH0 PUSH2 0x2694 DUP4 DUP4 PUSH2 0x266D JUMP JUMPDEST SWAP2 POP DUP3 PUSH1 0x2 MUL DUP3 OR SWAP1 POP SWAP3 SWAP2 POP POP JUMP JUMPDEST PUSH2 0x26AD DUP3 PUSH2 0x1C2E JUMP JUMPDEST PUSH8 0xFFFFFFFFFFFFFFFF DUP2 GT ISZERO PUSH2 0x26C6 JUMPI PUSH2 0x26C5 PUSH2 0x1F7D JUMP JUMPDEST JUMPDEST PUSH2 0x26D0 DUP3 SLOAD PUSH2 0x2271 JUMP JUMPDEST PUSH2 0x26DB DUP3 DUP3 DUP6 PUSH2 0x261B JUMP JUMPDEST PUSH0 PUSH1 0x20 SWAP1 POP PUSH1 0x1F DUP4 GT PUSH1 0x1 DUP2 EQ PUSH2 0x270C JUMPI PUSH0 DUP5 ISZERO PUSH2 0x26FA JUMPI DUP3 DUP8 ADD MLOAD SWAP1 POP JUMPDEST PUSH2 0x2704 DUP6 DUP3 PUSH2 0x2689 JUMP JUMPDEST DUP7 SSTORE POP PUSH2 0x276B JUMP JUMPDEST PUSH1 0x1F NOT DUP5 AND PUSH2 0x271A DUP7 PUSH2 0x2510 JUMP JUMPDEST PUSH0 JUMPDEST DUP3 DUP2 LT ISZERO PUSH2 0x2741 JUMPI DUP5 DUP10 ADD MLOAD DUP3 SSTORE PUSH1 0x1 DUP3 ADD SWAP2 POP PUSH1 0x20 DUP6 ADD SWAP5 POP PUSH1 0x20 DUP2 ADD SWAP1 POP PUSH2 0x271C JUMP JUMPDEST DUP7 DUP4 LT ISZERO PUSH2 0x275E JUMPI DUP5 DUP10 ADD MLOAD PUSH2 0x275A PUSH1 0x1F DUP10 AND DUP3 PUSH2 0x266D JUMP JUMPDEST DUP4 SSTORE POP JUMPDEST PUSH1 0x1 PUSH1 0x2 DUP9 MUL ADD DUP9 SSTORE POP POP POP JUMPDEST POP POP POP POP POP POP JUMP JUMPDEST PUSH0 PUSH1 0x40 DUP3 ADD SWAP1 POP PUSH2 0x2786 PUSH0 DUP4 ADD DUP6 PUSH2 0x1D66 JUMP JUMPDEST PUSH2 0x2793 PUSH1 0x20 DUP4 ADD DUP5 PUSH2 0x1EE5 JUMP JUMPDEST SWAP4 SWAP3 POP POP POP JUMP JUMPDEST PUSH32 0x4E487B7100000000000000000000000000000000000000000000000000000000 PUSH0 MSTORE PUSH1 0x12 PUSH1 0x4 MSTORE PUSH1 0x24 PUSH0 REVERT INVALID LOG2 PUSH5 0x6970667358 0x22 SLT KECCAK256 0xEA 0xEA SWAP15 0xA8 0xE8 0x23 0xE8 0xAF EXTCODECOPY 0xC6 PUSH5 0x26D6C856CE LOG0 0xB8 SWAP3 0xD3 0xD0 SUB 0xC4 SAR POP SSTORE MULMOD CODECOPY 0xEA SLOAD MSTORE8 PUSH29 0x64736F6C63430008170033000000000000000000000000000000000000 "
				},
				"gasEstimates": {
					"creation": {
						"codeDepositCost": "2047400",
						"executionCost": "infinite",
						"totalCost": "infinite"
					},
					"external": {
						"Progress()": "infinite",
						"approve(address,uint256)": "infinite",
						"balanceOf(address)": "infinite",
						"getApproved(uint256)": "infinite",
						"isApprovedForAll(address,address)": "infinite",
						"mint(string)": "infinite",
						"name()": "infinite",
						"owner()": "2538",
						"ownerOf(uint256)": "infinite",
						"renounceOwnership()": "infinite",
						"safeTransferFrom(address,address,uint256)": "infinite",
						"safeTransferFrom(address,address,uint256,bytes)": "infinite",
						"setApprovalForAll(address,bool)": "infinite",
						"setProgressSC(address)": "infinite",
						"supportsInterface(bytes4)": "881",
						"symbol()": "infinite",
						"tokenCount()": "2492",
						"tokenURI(uint256)": "infinite",
						"transferFrom(address,address,uint256)": "infinite",
						"transferOwnership(address)": "infinite"
					}
				},
				"methodIdentifiers": {
					"Progress()": "5f53575f",
					"approve(address,uint256)": "095ea7b3",
					"balanceOf(address)": "70a08231",
					"getApproved(uint256)": "081812fc",
					"isApprovedForAll(address,address)": "e985e9c5",
					"mint(string)": "d85d3d27",
					"name()": "06fdde03",
					"owner()": "8da5cb5b",
					"ownerOf(uint256)": "6352211e",
					"renounceOwnership()": "715018a6",
					"safeTransferFrom(address,address,uint256)": "42842e0e",
					"safeTransferFrom(address,address,uint256,bytes)": "b88d4fde",
					"setApprovalForAll(address,bool)": "a22cb465",
					"setProgressSC(address)": "b876e3b6",
					"supportsInterface(bytes4)": "01ffc9a7",
					"symbol()": "95d89b41",
					"tokenCount()": "9f181b5e",
					"tokenURI(uint256)": "c87b56dd",
					"transferFrom(address,address,uint256)": "23b872dd",
					"transferOwnership(address)": "f2fde38b"
				}
			},
			"storageLayout": {
				"storage": [
					{
						"astId": 1943,
						"contract": "NFTIncentives_flattened.sol:IncentiveNFTs",
						"label": "_name",
						"offset": 0,
						"slot": "0",
						"type": "t_string_storage"
					},
					{
						"astId": 1945,
						"contract": "NFTIncentives_flattened.sol:IncentiveNFTs",
						"label": "_symbol",
						"offset": 0,
						"slot": "1",
						"type": "t_string_storage"
					},
					{
						"astId": 1949,
						"contract": "NFTIncentives_flattened.sol:IncentiveNFTs",
						"label": "_owners",
						"offset": 0,
						"slot": "2",
						"type": "t_mapping(t_uint256,t_address)"
					},
					{
						"astId": 1953,
						"contract": "NFTIncentives_flattened.sol:IncentiveNFTs",
						"label": "_balances",
						"offset": 0,
						"slot": "3",
						"type": "t_mapping(t_address,t_uint256)"
					},
					{
						"astId": 1957,
						"contract": "NFTIncentives_flattened.sol:IncentiveNFTs",
						"label": "_tokenApprovals",
						"offset": 0,
						"slot": "4",
						"type": "t_mapping(t_uint256,t_address)"
					},
					{
						"astId": 1963,
						"contract": "NFTIncentives_flattened.sol:IncentiveNFTs",
						"label": "_operatorApprovals",
						"offset": 0,
						"slot": "5",
						"type": "t_mapping(t_address,t_mapping(t_address,t_bool))"
					},
					{
						"astId": 2962,
						"contract": "NFTIncentives_flattened.sol:IncentiveNFTs",
						"label": "_tokenURIs",
						"offset": 0,
						"slot": "6",
						"type": "t_mapping(t_uint256,t_string_storage)"
					},
					{
						"astId": 1578,
						"contract": "NFTIncentives_flattened.sol:IncentiveNFTs",
						"label": "_owner",
						"offset": 0,
						"slot": "7",
						"type": "t_address"
					},
					{
						"astId": 3071,
						"contract": "NFTIncentives_flattened.sol:IncentiveNFTs",
						"label": "Progress",
						"offset": 0,
						"slot": "8",
						"type": "t_contract(IProgress)3062"
					},
					{
						"astId": 3073,
						"contract": "NFTIncentives_flattened.sol:IncentiveNFTs",
						"label": "tokenCount",
						"offset": 0,
						"slot": "9",
						"type": "t_uint256"
					}
				],
				"types": {
					"t_address": {
						"encoding": "inplace",
						"label": "address",
						"numberOfBytes": "20"
					},
					"t_bool": {
						"encoding": "inplace",
						"label": "bool",
						"numberOfBytes": "1"
					},
					"t_contract(IProgress)3062": {
						"encoding": "inplace",
						"label": "contract IProgress",
						"numberOfBytes": "20"
					},
					"t_mapping(t_address,t_bool)": {
						"encoding": "mapping",
						"key": "t_address",
						"label": "mapping(address => bool)",
						"numberOfBytes": "32",
						"value": "t_bool"
					},
					"t_mapping(t_address,t_mapping(t_address,t_bool))": {
						"encoding": "mapping",
						"key": "t_address",
						"label": "mapping(address => mapping(address => bool))",
						"numberOfBytes": "32",
						"value": "t_mapping(t_address,t_bool)"
					},
					"t_mapping(t_address,t_uint256)": {
						"encoding": "mapping",
						"key": "t_address",
						"label": "mapping(address => uint256)",
						"numberOfBytes": "32",
						"value": "t_uint256"
					},
					"t_mapping(t_uint256,t_address)": {
						"encoding": "mapping",
						"key": "t_uint256",
						"label": "mapping(uint256 => address)",
						"numberOfBytes": "32",
						"value": "t_address"
					},
					"t_mapping(t_uint256,t_string_storage)": {
						"encoding": "mapping",
						"key": "t_uint256",
						"label": "mapping(uint256 => string)",
						"numberOfBytes": "32",
						"value": "t_string_storage"
					},
					"t_string_storage": {
						"encoding": "bytes",
						"label": "string",
						"numberOfBytes": "32"
					},
					"t_uint256": {
						"encoding": "inplace",
						"label": "uint256",
						"numberOfBytes": "32"
					}
				}
			},
			"userdoc": {
				"kind": "user",
				"methods": {},
				"version": 1
			}
		}
	}
}