{
	"RegistrationandAccessControl.sol": {
		"Registration": {
			"abi": [
				{
					"inputs": [
						{
							"internalType": "address",
							"name": "_AccesSNFTSC",
							"type": "address"
						}
					],
					"stateMutability": "nonpayable",
					"type": "constructor"
				},
				{
					"anonymous": false,
					"inputs": [
						{
							"indexed": true,
							"internalType": "address",
							"name": "_oracle",
							"type": "address"
						}
					],
					"name": "ProgressOracleRegistered",
					"type": "event"
				},
				{
					"anonymous": false,
					"inputs": [
						{
							"indexed": true,
							"internalType": "address",
							"name": "_regulator",
							"type": "address"
						}
					],
					"name": "RegulatorAssigned",
					"type": "event"
				},
				{
					"anonymous": false,
					"inputs": [
						{
							"indexed": true,
							"internalType": "address",
							"name": "_user",
							"type": "address"
						},
						{
							"indexed": false,
							"internalType": "uint256",
							"name": "_tokenid",
							"type": "uint256"
						}
					],
					"name": "UserRegistered",
					"type": "event"
				},
				{
					"anonymous": false,
					"inputs": [
						{
							"indexed": true,
							"internalType": "address",
							"name": "_user",
							"type": "address"
						}
					],
					"name": "UserUnRegistered",
					"type": "event"
				},
				{
					"inputs": [
						{
							"internalType": "address",
							"name": "",
							"type": "address"
						}
					],
					"name": "RegisteredProgressOracles",
					"outputs": [
						{
							"internalType": "bool",
							"name": "",
							"type": "bool"
						}
					],
					"stateMutability": "view",
					"type": "function"
				},
				{
					"inputs": [
						{
							"internalType": "address",
							"name": "",
							"type": "address"
						}
					],
					"name": "RegisteredUsers",
					"outputs": [
						{
							"internalType": "bool",
							"name": "",
							"type": "bool"
						}
					],
					"stateMutability": "view",
					"type": "function"
				},
				{
					"inputs": [
						{
							"internalType": "address",
							"name": "_oracle",
							"type": "address"
						}
					],
					"name": "registerProgressOracle",
					"outputs": [],
					"stateMutability": "nonpayable",
					"type": "function"
				},
				{
					"inputs": [
						{
							"internalType": "address",
							"name": "_user",
							"type": "address"
						},
						{
							"internalType": "string",
							"name": "_IPFSHash",
							"type": "string"
						}
					],
					"name": "registerUser",
					"outputs": [],
					"stateMutability": "nonpayable",
					"type": "function"
				},
				{
					"inputs": [],
					"name": "regulator",
					"outputs": [
						{
							"internalType": "address",
							"name": "",
							"type": "address"
						}
					],
					"stateMutability": "view",
					"type": "function"
				},
				{
					"inputs": [
						{
							"internalType": "address",
							"name": "_user",
							"type": "address"
						}
					],
					"name": "unregisterUser",
					"outputs": [],
					"stateMutability": "nonpayable",
					"type": "function"
				},
				{
					"inputs": [
						{
							"internalType": "address",
							"name": "",
							"type": "address"
						}
					],
					"name": "userAccessNFT",
					"outputs": [
						{
							"internalType": "uint256",
							"name": "",
							"type": "uint256"
						}
					],
					"stateMutability": "view",
					"type": "function"
				}
			],
			"devdoc": {
				"kind": "dev",
				"methods": {},
				"version": 1
			},
			"evm": {
				"assembly": "    /* \"RegistrationandAccessControl.sol\":572:2719  contract Registration{... */\n  mstore(0x40, 0x80)\n    /* \"RegistrationandAccessControl.sol\":1417:1585  constructor(address _AccesSNFTSC){... */\n  callvalue\n  dup1\n  iszero\n  tag_1\n  jumpi\n  0x00\n  dup1\n  revert\ntag_1:\n  pop\n  mload(0x40)\n  sub(codesize, bytecodeSize)\n  dup1\n  bytecodeSize\n  dup4\n  codecopy\n  dup2\n  dup2\n  add\n  0x40\n  mstore\n  dup2\n  add\n  swap1\n  tag_2\n  swap2\n  swap1\n  tag_3\n  jump\t// in\ntag_2:\n    /* \"RegistrationandAccessControl.sol\":1473:1483  msg.sender */\n  caller\n    /* \"RegistrationandAccessControl.sol\":1461:1470  regulator */\n  0x01\n  0x00\n    /* \"RegistrationandAccessControl.sol\":1461:1483  regulator = msg.sender */\n  0x0100\n  exp\n  dup2\n  sload\n  dup2\n  0xffffffffffffffffffffffffffffffffffffffff\n  mul\n  not\n  and\n  swap1\n  dup4\n  0xffffffffffffffffffffffffffffffffffffffff\n  and\n  mul\n  or\n  swap1\n  sstore\n  pop\n    /* \"RegistrationandAccessControl.sol\":1519:1531  _AccesSNFTSC */\n  dup1\n    /* \"RegistrationandAccessControl.sol\":1494:1505  AccessNFTSC */\n  0x00\n  dup1\n    /* \"RegistrationandAccessControl.sol\":1494:1532  AccessNFTSC = IAccessNFT(_AccesSNFTSC) */\n  0x0100\n  exp\n  dup2\n  sload\n  dup2\n  0xffffffffffffffffffffffffffffffffffffffff\n  mul\n  not\n  and\n  swap1\n  dup4\n  0xffffffffffffffffffffffffffffffffffffffff\n  and\n  mul\n  or\n  swap1\n  sstore\n  pop\n    /* \"RegistrationandAccessControl.sol\":1566:1576  msg.sender */\n  caller\n    /* \"RegistrationandAccessControl.sol\":1548:1577  RegulatorAssigned(msg.sender) */\n  0xffffffffffffffffffffffffffffffffffffffff\n  and\n  0x969b0c69f5a0d99687626982003848a33e2867f8e326931493012c9dd0e9ceca\n  mload(0x40)\n  mload(0x40)\n  dup1\n  swap2\n  sub\n  swap1\n  log2\n    /* \"RegistrationandAccessControl.sol\":1417:1585  constructor(address _AccesSNFTSC){... */\n  pop\n    /* \"RegistrationandAccessControl.sol\":572:2719  contract Registration{... */\n  jump(tag_6)\n    /* \"#utility.yul\":88:205   */\ntag_8:\n    /* \"#utility.yul\":197:198   */\n  0x00\n    /* \"#utility.yul\":194:195   */\n  dup1\n    /* \"#utility.yul\":187:199   */\n  revert\n    /* \"#utility.yul\":334:460   */\ntag_10:\n    /* \"#utility.yul\":371:378   */\n  0x00\n    /* \"#utility.yul\":411:453   */\n  0xffffffffffffffffffffffffffffffffffffffff\n    /* \"#utility.yul\":404:409   */\n  dup3\n    /* \"#utility.yul\":400:454   */\n  and\n    /* \"#utility.yul\":389:454   */\n  swap1\n  pop\n    /* \"#utility.yul\":334:460   */\n  swap2\n  swap1\n  pop\n  jump\t// out\n    /* \"#utility.yul\":466:562   */\ntag_11:\n    /* \"#utility.yul\":503:510   */\n  0x00\n    /* \"#utility.yul\":532:556   */\n  tag_20\n    /* \"#utility.yul\":550:555   */\n  dup3\n    /* \"#utility.yul\":532:556   */\n  tag_10\n  jump\t// in\ntag_20:\n    /* \"#utility.yul\":521:556   */\n  swap1\n  pop\n    /* \"#utility.yul\":466:562   */\n  swap2\n  swap1\n  pop\n  jump\t// out\n    /* \"#utility.yul\":568:690   */\ntag_12:\n    /* \"#utility.yul\":641:665   */\n  tag_22\n    /* \"#utility.yul\":659:664   */\n  dup2\n    /* \"#utility.yul\":641:665   */\n  tag_11\n  jump\t// in\ntag_22:\n    /* \"#utility.yul\":634:639   */\n  dup2\n    /* \"#utility.yul\":631:666   */\n  eq\n    /* \"#utility.yul\":621:684   */\n  tag_23\n  jumpi\n    /* \"#utility.yul\":680:681   */\n  0x00\n    /* \"#utility.yul\":677:678   */\n  dup1\n    /* \"#utility.yul\":670:682   */\n  revert\n    /* \"#utility.yul\":621:684   */\ntag_23:\n    /* \"#utility.yul\":568:690   */\n  pop\n  jump\t// out\n    /* \"#utility.yul\":696:839   */\ntag_13:\n    /* \"#utility.yul\":753:758   */\n  0x00\n    /* \"#utility.yul\":784:790   */\n  dup2\n    /* \"#utility.yul\":778:791   */\n  mload\n    /* \"#utility.yul\":769:791   */\n  swap1\n  pop\n    /* \"#utility.yul\":800:833   */\n  tag_25\n    /* \"#utility.yul\":827:832   */\n  dup2\n    /* \"#utility.yul\":800:833   */\n  tag_12\n  jump\t// in\ntag_25:\n    /* \"#utility.yul\":696:839   */\n  swap3\n  swap2\n  pop\n  pop\n  jump\t// out\n    /* \"#utility.yul\":845:1196   */\ntag_3:\n    /* \"#utility.yul\":915:921   */\n  0x00\n    /* \"#utility.yul\":964:966   */\n  0x20\n    /* \"#utility.yul\":952:961   */\n  dup3\n    /* \"#utility.yul\":943:950   */\n  dup5\n    /* \"#utility.yul\":939:962   */\n  sub\n    /* \"#utility.yul\":935:967   */\n  slt\n    /* \"#utility.yul\":932:1051   */\n  iszero\n  tag_27\n  jumpi\n    /* \"#utility.yul\":970:1049   */\n  tag_28\n  tag_8\n  jump\t// in\ntag_28:\n    /* \"#utility.yul\":932:1051   */\ntag_27:\n    /* \"#utility.yul\":1090:1091   */\n  0x00\n    /* \"#utility.yul\":1115:1179   */\n  tag_29\n    /* \"#utility.yul\":1171:1178   */\n  dup5\n    /* \"#utility.yul\":1162:1168   */\n  dup3\n    /* \"#utility.yul\":1151:1160   */\n  dup6\n    /* \"#utility.yul\":1147:1169   */\n  add\n    /* \"#utility.yul\":1115:1179   */\n  tag_13\n  jump\t// in\ntag_29:\n    /* \"#utility.yul\":1105:1179   */\n  swap2\n  pop\n    /* \"#utility.yul\":1061:1189   */\n  pop\n    /* \"#utility.yul\":845:1196   */\n  swap3\n  swap2\n  pop\n  pop\n  jump\t// out\n    /* \"RegistrationandAccessControl.sol\":572:2719  contract Registration{... */\ntag_6:\n  dataSize(sub_0)\n  dup1\n  dataOffset(sub_0)\n  0x00\n  codecopy\n  0x00\n  return\nstop\n\nsub_0: assembly {\n        /* \"RegistrationandAccessControl.sol\":572:2719  contract Registration{... */\n      mstore(0x40, 0x80)\n      callvalue\n      dup1\n      iszero\n      tag_1\n      jumpi\n      0x00\n      dup1\n      revert\n    tag_1:\n      pop\n      jumpi(tag_2, lt(calldatasize, 0x04))\n      shr(0xe0, calldataload(0x00))\n      dup1\n      0xd7149fcf\n      gt\n      tag_10\n      jumpi\n      dup1\n      0xd7149fcf\n      eq\n      tag_6\n      jumpi\n      dup1\n      0xdd8fee14\n      eq\n      tag_7\n      jumpi\n      dup1\n      0xf26bcf5d\n      eq\n      tag_8\n      jumpi\n      dup1\n      0xfd13164d\n      eq\n      tag_9\n      jumpi\n      jump(tag_2)\n    tag_10:\n      dup1\n      0x0ea126f9\n      eq\n      tag_3\n      jumpi\n      dup1\n      0x21f2ca3b\n      eq\n      tag_4\n      jumpi\n      dup1\n      0xa15cd398\n      eq\n      tag_5\n      jumpi\n    tag_2:\n      0x00\n      dup1\n      revert\n        /* \"RegistrationandAccessControl.sol\":1614:2066  function registerUser(address _user, string memory _IPFSHash) public onlyRegulator{... */\n    tag_3:\n      tag_11\n      0x04\n      dup1\n      calldatasize\n      sub\n      dup2\n      add\n      swap1\n      tag_12\n      swap2\n      swap1\n      tag_13\n      jump\t// in\n    tag_12:\n      tag_14\n      jump\t// in\n    tag_11:\n      stop\n        /* \"RegistrationandAccessControl.sol\":2074:2351  function unregisterUser(address _user) public onlyRegulator{... */\n    tag_4:\n      tag_15\n      0x04\n      dup1\n      calldatasize\n      sub\n      dup2\n      add\n      swap1\n      tag_16\n      swap2\n      swap1\n      tag_17\n      jump\t// in\n    tag_16:\n      tag_18\n      jump\t// in\n    tag_15:\n      stop\n        /* \"RegistrationandAccessControl.sol\":939:987  mapping(address => uint256) public userAccessNFT */\n    tag_5:\n      tag_19\n      0x04\n      dup1\n      calldatasize\n      sub\n      dup2\n      add\n      swap1\n      tag_20\n      swap2\n      swap1\n      tag_17\n      jump\t// in\n    tag_20:\n      tag_21\n      jump\t// in\n    tag_19:\n      mload(0x40)\n      tag_22\n      swap2\n      swap1\n      tag_23\n      jump\t// in\n    tag_22:\n      mload(0x40)\n      dup1\n      swap2\n      sub\n      swap1\n      return\n        /* \"RegistrationandAccessControl.sol\":745:792  mapping(address => bool) public RegisteredUsers */\n    tag_6:\n      tag_24\n      0x04\n      dup1\n      calldatasize\n      sub\n      dup2\n      add\n      swap1\n      tag_25\n      swap2\n      swap1\n      tag_17\n      jump\t// in\n    tag_25:\n      tag_26\n      jump\t// in\n    tag_24:\n      mload(0x40)\n      tag_27\n      swap2\n      swap1\n      tag_28\n      jump\t// in\n    tag_27:\n      mload(0x40)\n      dup1\n      swap2\n      sub\n      swap1\n      return\n        /* \"RegistrationandAccessControl.sol\":663:687  address public regulator */\n    tag_7:\n      tag_29\n      tag_30\n      jump\t// in\n    tag_29:\n      mload(0x40)\n      tag_31\n      swap2\n      swap1\n      tag_32\n      jump\t// in\n    tag_31:\n      mload(0x40)\n      dup1\n      swap2\n      sub\n      swap1\n      return\n        /* \"RegistrationandAccessControl.sol\":799:856  mapping(address => bool) public RegisteredProgressOracles */\n    tag_8:\n      tag_33\n      0x04\n      dup1\n      calldatasize\n      sub\n      dup2\n      add\n      swap1\n      tag_34\n      swap2\n      swap1\n      tag_17\n      jump\t// in\n    tag_34:\n      tag_35\n      jump\t// in\n    tag_33:\n      mload(0x40)\n      tag_36\n      swap2\n      swap1\n      tag_28\n      jump\t// in\n    tag_36:\n      mload(0x40)\n      dup1\n      swap2\n      sub\n      swap1\n      return\n        /* \"RegistrationandAccessControl.sol\":2359:2716  function registerProgressOracle(address _oracle) public onlyRegulator{... */\n    tag_9:\n      tag_37\n      0x04\n      dup1\n      calldatasize\n      sub\n      dup2\n      add\n      swap1\n      tag_38\n      swap2\n      swap1\n      tag_17\n      jump\t// in\n    tag_38:\n      tag_39\n      jump\t// in\n    tag_37:\n      stop\n        /* \"RegistrationandAccessControl.sol\":1614:2066  function registerUser(address _user, string memory _IPFSHash) public onlyRegulator{... */\n    tag_14:\n        /* \"RegistrationandAccessControl.sol\":1332:1342  msg.sender */\n      caller\n        /* \"RegistrationandAccessControl.sol\":1319:1342  regulator == msg.sender */\n      0xffffffffffffffffffffffffffffffffffffffff\n      and\n        /* \"RegistrationandAccessControl.sol\":1319:1328  regulator */\n      0x01\n      0x00\n      swap1\n      sload\n      swap1\n      0x0100\n      exp\n      swap1\n      div\n      0xffffffffffffffffffffffffffffffffffffffff\n      and\n        /* \"RegistrationandAccessControl.sol\":1319:1342  regulator == msg.sender */\n      0xffffffffffffffffffffffffffffffffffffffff\n      and\n      eq\n        /* \"RegistrationandAccessControl.sol\":1311:1387  require(regulator == msg.sender, \"Only the regulator can run this function\") */\n      tag_41\n      jumpi\n      mload(0x40)\n      0x08c379a000000000000000000000000000000000000000000000000000000000\n      dup2\n      mstore\n      0x04\n      add\n      tag_42\n      swap1\n      tag_43\n      jump\t// in\n    tag_42:\n      mload(0x40)\n      dup1\n      swap2\n      sub\n      swap1\n      revert\n    tag_41:\n        /* \"RegistrationandAccessControl.sol\":1716:1731  RegisteredUsers */\n      0x02\n        /* \"RegistrationandAccessControl.sol\":1716:1738  RegisteredUsers[_user] */\n      0x00\n        /* \"RegistrationandAccessControl.sol\":1732:1737  _user */\n      dup4\n        /* \"RegistrationandAccessControl.sol\":1716:1738  RegisteredUsers[_user] */\n      0xffffffffffffffffffffffffffffffffffffffff\n      and\n      0xffffffffffffffffffffffffffffffffffffffff\n      and\n      dup2\n      mstore\n      0x20\n      add\n      swap1\n      dup2\n      mstore\n      0x20\n      add\n      0x00\n      keccak256\n      0x00\n      swap1\n      sload\n      swap1\n      0x0100\n      exp\n      swap1\n      div\n      0xff\n      and\n        /* \"RegistrationandAccessControl.sol\":1715:1738  !RegisteredUsers[_user] */\n      iszero\n        /* \"RegistrationandAccessControl.sol\":1707:1780  require(!RegisteredUsers[_user], \"This user has already been registered\") */\n      tag_45\n      jumpi\n      mload(0x40)\n      0x08c379a000000000000000000000000000000000000000000000000000000000\n      dup2\n      mstore\n      0x04\n      add\n      tag_46\n      swap1\n      tag_47\n      jump\t// in\n    tag_46:\n      mload(0x40)\n      dup1\n      swap2\n      sub\n      swap1\n      revert\n    tag_45:\n        /* \"RegistrationandAccessControl.sol\":1808:1817  regulator */\n      0x01\n      0x00\n      swap1\n      sload\n      swap1\n      0x0100\n      exp\n      swap1\n      div\n      0xffffffffffffffffffffffffffffffffffffffff\n      and\n        /* \"RegistrationandAccessControl.sol\":1799:1817  _user != regulator */\n      0xffffffffffffffffffffffffffffffffffffffff\n      and\n        /* \"RegistrationandAccessControl.sol\":1799:1804  _user */\n      dup3\n        /* \"RegistrationandAccessControl.sol\":1799:1817  _user != regulator */\n      0xffffffffffffffffffffffffffffffffffffffff\n      and\n      sub\n        /* \"RegistrationandAccessControl.sol\":1791:1865  require(_user != regulator, \"The role of the regulator cannot be changed\") */\n      tag_48\n      jumpi\n      mload(0x40)\n      0x08c379a000000000000000000000000000000000000000000000000000000000\n      dup2\n      mstore\n      0x04\n      add\n      tag_49\n      swap1\n      tag_50\n      jump\t// in\n    tag_49:\n      mload(0x40)\n      dup1\n      swap2\n      sub\n      swap1\n      revert\n    tag_48:\n        /* \"RegistrationandAccessControl.sol\":1901:1905  true */\n      0x01\n        /* \"RegistrationandAccessControl.sol\":1876:1891  RegisteredUsers */\n      0x02\n        /* \"RegistrationandAccessControl.sol\":1876:1898  RegisteredUsers[_user] */\n      0x00\n        /* \"RegistrationandAccessControl.sol\":1892:1897  _user */\n      dup5\n        /* \"RegistrationandAccessControl.sol\":1876:1898  RegisteredUsers[_user] */\n      0xffffffffffffffffffffffffffffffffffffffff\n      and\n      0xffffffffffffffffffffffffffffffffffffffff\n      and\n      dup2\n      mstore\n      0x20\n      add\n      swap1\n      dup2\n      mstore\n      0x20\n      add\n      0x00\n      keccak256\n      0x00\n        /* \"RegistrationandAccessControl.sol\":1876:1905  RegisteredUsers[_user] = true */\n      0x0100\n      exp\n      dup2\n      sload\n      dup2\n      0xff\n      mul\n      not\n      and\n      swap1\n      dup4\n      iszero\n      iszero\n      mul\n      or\n      swap1\n      sstore\n      pop\n        /* \"RegistrationandAccessControl.sol\":1918:1931  uint _tokenId */\n      0x00\n        /* \"RegistrationandAccessControl.sol\":1935:1946  AccessNFTSC */\n      dup1\n      0x00\n      swap1\n      sload\n      swap1\n      0x0100\n      exp\n      swap1\n      div\n      0xffffffffffffffffffffffffffffffffffffffff\n      and\n        /* \"RegistrationandAccessControl.sol\":1935:1951  AccessNFTSC.mint */\n      0xffffffffffffffffffffffffffffffffffffffff\n      and\n      0x1c351a9d\n        /* \"RegistrationandAccessControl.sol\":1952:1961  _IPFSHash */\n      dup4\n        /* \"RegistrationandAccessControl.sol\":1963:1968  _user */\n      dup6\n        /* \"RegistrationandAccessControl.sol\":1935:1969  AccessNFTSC.mint(_IPFSHash, _user) */\n      mload(0x40)\n      dup4\n      0xffffffff\n      and\n      0xe0\n      shl\n      dup2\n      mstore\n      0x04\n      add\n      tag_51\n      swap3\n      swap2\n      swap1\n      tag_52\n      jump\t// in\n    tag_51:\n      0x20\n      mload(0x40)\n      dup1\n      dup4\n      sub\n      dup2\n      0x00\n      dup8\n      gas\n      call\n      iszero\n      dup1\n      iszero\n      tag_54\n      jumpi\n      returndatasize\n      0x00\n      dup1\n      returndatacopy\n      revert(0x00, returndatasize)\n    tag_54:\n      pop\n      pop\n      pop\n      pop\n      mload(0x40)\n      returndatasize\n      not(0x1f)\n      0x1f\n      dup3\n      add\n      and\n      dup3\n      add\n      dup1\n      0x40\n      mstore\n      pop\n      dup2\n      add\n      swap1\n      tag_55\n      swap2\n      swap1\n      tag_56\n      jump\t// in\n    tag_55:\n        /* \"RegistrationandAccessControl.sol\":1917:1969  (uint _tokenId) = AccessNFTSC.mint(_IPFSHash, _user) */\n      swap1\n      pop\n        /* \"RegistrationandAccessControl.sol\":2003:2011  _tokenId */\n      dup1\n        /* \"RegistrationandAccessControl.sol\":1980:1993  userAccessNFT */\n      0x04\n        /* \"RegistrationandAccessControl.sol\":1980:2000  userAccessNFT[_user] */\n      0x00\n        /* \"RegistrationandAccessControl.sol\":1994:1999  _user */\n      dup6\n        /* \"RegistrationandAccessControl.sol\":1980:2000  userAccessNFT[_user] */\n      0xffffffffffffffffffffffffffffffffffffffff\n      and\n      0xffffffffffffffffffffffffffffffffffffffff\n      and\n      dup2\n      mstore\n      0x20\n      add\n      swap1\n      dup2\n      mstore\n      0x20\n      add\n      0x00\n      keccak256\n        /* \"RegistrationandAccessControl.sol\":1980:2011  userAccessNFT[_user] = _tokenId */\n      dup2\n      swap1\n      sstore\n      pop\n        /* \"RegistrationandAccessControl.sol\":2042:2047  _user */\n      dup3\n        /* \"RegistrationandAccessControl.sol\":2027:2058  UserRegistered(_user, _tokenId) */\n      0xffffffffffffffffffffffffffffffffffffffff\n      and\n      0xe29d35093005f4d575e1003753426b57a7f64378ba73332eef9c6ccc2b8decd6\n        /* \"RegistrationandAccessControl.sol\":2049:2057  _tokenId */\n      dup3\n        /* \"RegistrationandAccessControl.sol\":2027:2058  UserRegistered(_user, _tokenId) */\n      mload(0x40)\n      tag_57\n      swap2\n      swap1\n      tag_23\n      jump\t// in\n    tag_57:\n      mload(0x40)\n      dup1\n      swap2\n      sub\n      swap1\n      log2\n        /* \"RegistrationandAccessControl.sol\":1696:2066  {... */\n      pop\n        /* \"RegistrationandAccessControl.sol\":1614:2066  function registerUser(address _user, string memory _IPFSHash) public onlyRegulator{... */\n      pop\n      pop\n      jump\t// out\n        /* \"RegistrationandAccessControl.sol\":2074:2351  function unregisterUser(address _user) public onlyRegulator{... */\n    tag_18:\n        /* \"RegistrationandAccessControl.sol\":1332:1342  msg.sender */\n      caller\n        /* \"RegistrationandAccessControl.sol\":1319:1342  regulator == msg.sender */\n      0xffffffffffffffffffffffffffffffffffffffff\n      and\n        /* \"RegistrationandAccessControl.sol\":1319:1328  regulator */\n      0x01\n      0x00\n      swap1\n      sload\n      swap1\n      0x0100\n      exp\n      swap1\n      div\n      0xffffffffffffffffffffffffffffffffffffffff\n      and\n        /* \"RegistrationandAccessControl.sol\":1319:1342  regulator == msg.sender */\n      0xffffffffffffffffffffffffffffffffffffffff\n      and\n      eq\n        /* \"RegistrationandAccessControl.sol\":1311:1387  require(regulator == msg.sender, \"Only the regulator can run this function\") */\n      tag_59\n      jumpi\n      mload(0x40)\n      0x08c379a000000000000000000000000000000000000000000000000000000000\n      dup2\n      mstore\n      0x04\n      add\n      tag_60\n      swap1\n      tag_43\n      jump\t// in\n    tag_60:\n      mload(0x40)\n      dup1\n      swap2\n      sub\n      swap1\n      revert\n    tag_59:\n        /* \"RegistrationandAccessControl.sol\":2152:2167  RegisteredUsers */\n      0x02\n        /* \"RegistrationandAccessControl.sol\":2152:2174  RegisteredUsers[_user] */\n      0x00\n        /* \"RegistrationandAccessControl.sol\":2168:2173  _user */\n      dup3\n        /* \"RegistrationandAccessControl.sol\":2152:2174  RegisteredUsers[_user] */\n      0xffffffffffffffffffffffffffffffffffffffff\n      and\n      0xffffffffffffffffffffffffffffffffffffffff\n      and\n      dup2\n      mstore\n      0x20\n      add\n      swap1\n      dup2\n      mstore\n      0x20\n      add\n      0x00\n      keccak256\n      0x00\n      swap1\n      sload\n      swap1\n      0x0100\n      exp\n      swap1\n      div\n      0xff\n      and\n        /* \"RegistrationandAccessControl.sol\":2144:2214  require(RegisteredUsers[_user], \"This user is already not registered\") */\n      tag_62\n      jumpi\n      mload(0x40)\n      0x08c379a000000000000000000000000000000000000000000000000000000000\n      dup2\n      mstore\n      0x04\n      add\n      tag_63\n      swap1\n      tag_64\n      jump\t// in\n    tag_63:\n      mload(0x40)\n      dup1\n      swap2\n      sub\n      swap1\n      revert\n    tag_62:\n        /* \"RegistrationandAccessControl.sol\":2250:2255  false */\n      0x00\n        /* \"RegistrationandAccessControl.sol\":2225:2240  RegisteredUsers */\n      0x02\n        /* \"RegistrationandAccessControl.sol\":2225:2247  RegisteredUsers[_user] */\n      0x00\n        /* \"RegistrationandAccessControl.sol\":2241:2246  _user */\n      dup4\n        /* \"RegistrationandAccessControl.sol\":2225:2247  RegisteredUsers[_user] */\n      0xffffffffffffffffffffffffffffffffffffffff\n      and\n      0xffffffffffffffffffffffffffffffffffffffff\n      and\n      dup2\n      mstore\n      0x20\n      add\n      swap1\n      dup2\n      mstore\n      0x20\n      add\n      0x00\n      keccak256\n      0x00\n        /* \"RegistrationandAccessControl.sol\":2225:2255  RegisteredUsers[_user] = false */\n      0x0100\n      exp\n      dup2\n      sload\n      dup2\n      0xff\n      mul\n      not\n      and\n      swap1\n      dup4\n      iszero\n      iszero\n      mul\n      or\n      swap1\n      sstore\n      pop\n        /* \"RegistrationandAccessControl.sol\":2266:2277  AccessNFTSC */\n      0x00\n      dup1\n      sload\n      swap1\n      0x0100\n      exp\n      swap1\n      div\n      0xffffffffffffffffffffffffffffffffffffffff\n      and\n        /* \"RegistrationandAccessControl.sol\":2266:2282  AccessNFTSC.burn */\n      0xffffffffffffffffffffffffffffffffffffffff\n      and\n      0x42966c68\n        /* \"RegistrationandAccessControl.sol\":2283:2296  userAccessNFT */\n      0x04\n        /* \"RegistrationandAccessControl.sol\":2283:2303  userAccessNFT[_user] */\n      0x00\n        /* \"RegistrationandAccessControl.sol\":2297:2302  _user */\n      dup5\n        /* \"RegistrationandAccessControl.sol\":2283:2303  userAccessNFT[_user] */\n      0xffffffffffffffffffffffffffffffffffffffff\n      and\n      0xffffffffffffffffffffffffffffffffffffffff\n      and\n      dup2\n      mstore\n      0x20\n      add\n      swap1\n      dup2\n      mstore\n      0x20\n      add\n      0x00\n      keccak256\n      sload\n        /* \"RegistrationandAccessControl.sol\":2266:2304  AccessNFTSC.burn(userAccessNFT[_user]) */\n      mload(0x40)\n      dup3\n      0xffffffff\n      and\n      0xe0\n      shl\n      dup2\n      mstore\n      0x04\n      add\n      tag_65\n      swap2\n      swap1\n      tag_23\n      jump\t// in\n    tag_65:\n      0x20\n      mload(0x40)\n      dup1\n      dup4\n      sub\n      dup2\n      0x00\n      dup8\n      gas\n      call\n      iszero\n      dup1\n      iszero\n      tag_67\n      jumpi\n      returndatasize\n      0x00\n      dup1\n      returndatacopy\n      revert(0x00, returndatasize)\n    tag_67:\n      pop\n      pop\n      pop\n      pop\n      mload(0x40)\n      returndatasize\n      not(0x1f)\n      0x1f\n      dup3\n      add\n      and\n      dup3\n      add\n      dup1\n      0x40\n      mstore\n      pop\n      dup2\n      add\n      swap1\n      tag_68\n      swap2\n      swap1\n      tag_56\n      jump\t// in\n    tag_68:\n      pop\n        /* \"RegistrationandAccessControl.sol\":2337:2342  _user */\n      dup1\n        /* \"RegistrationandAccessControl.sol\":2320:2343  UserUnRegistered(_user) */\n      0xffffffffffffffffffffffffffffffffffffffff\n      and\n      0xa67e8fc9feb08a02091823b4fbe665462e2e0e787b747dddd2a680d5d6df207a\n      mload(0x40)\n      mload(0x40)\n      dup1\n      swap2\n      sub\n      swap1\n      log2\n        /* \"RegistrationandAccessControl.sol\":2074:2351  function unregisterUser(address _user) public onlyRegulator{... */\n      pop\n      jump\t// out\n        /* \"RegistrationandAccessControl.sol\":939:987  mapping(address => uint256) public userAccessNFT */\n    tag_21:\n      mstore(0x20, 0x04)\n      dup1\n      0x00\n      mstore\n      keccak256(0x00, 0x40)\n      0x00\n      swap2\n      pop\n      swap1\n      pop\n      sload\n      dup2\n      jump\t// out\n        /* \"RegistrationandAccessControl.sol\":745:792  mapping(address => bool) public RegisteredUsers */\n    tag_26:\n      mstore(0x20, 0x02)\n      dup1\n      0x00\n      mstore\n      keccak256(0x00, 0x40)\n      0x00\n      swap2\n      pop\n      sload\n      swap1\n      0x0100\n      exp\n      swap1\n      div\n      0xff\n      and\n      dup2\n      jump\t// out\n        /* \"RegistrationandAccessControl.sol\":663:687  address public regulator */\n    tag_30:\n      0x01\n      0x00\n      swap1\n      sload\n      swap1\n      0x0100\n      exp\n      swap1\n      div\n      0xffffffffffffffffffffffffffffffffffffffff\n      and\n      dup2\n      jump\t// out\n        /* \"RegistrationandAccessControl.sol\":799:856  mapping(address => bool) public RegisteredProgressOracles */\n    tag_35:\n      mstore(0x20, 0x03)\n      dup1\n      0x00\n      mstore\n      keccak256(0x00, 0x40)\n      0x00\n      swap2\n      pop\n      sload\n      swap1\n      0x0100\n      exp\n      swap1\n      div\n      0xff\n      and\n      dup2\n      jump\t// out\n        /* \"RegistrationandAccessControl.sol\":2359:2716  function registerProgressOracle(address _oracle) public onlyRegulator{... */\n    tag_39:\n        /* \"RegistrationandAccessControl.sol\":1332:1342  msg.sender */\n      caller\n        /* \"RegistrationandAccessControl.sol\":1319:1342  regulator == msg.sender */\n      0xffffffffffffffffffffffffffffffffffffffff\n      and\n        /* \"RegistrationandAccessControl.sol\":1319:1328  regulator */\n      0x01\n      0x00\n      swap1\n      sload\n      swap1\n      0x0100\n      exp\n      swap1\n      div\n      0xffffffffffffffffffffffffffffffffffffffff\n      and\n        /* \"RegistrationandAccessControl.sol\":1319:1342  regulator == msg.sender */\n      0xffffffffffffffffffffffffffffffffffffffff\n      and\n      eq\n        /* \"RegistrationandAccessControl.sol\":1311:1387  require(regulator == msg.sender, \"Only the regulator can run this function\") */\n      tag_70\n      jumpi\n      mload(0x40)\n      0x08c379a000000000000000000000000000000000000000000000000000000000\n      dup2\n      mstore\n      0x04\n      add\n      tag_71\n      swap1\n      tag_43\n      jump\t// in\n    tag_71:\n      mload(0x40)\n      dup1\n      swap2\n      sub\n      swap1\n      revert\n    tag_70:\n        /* \"RegistrationandAccessControl.sol\":2448:2473  RegisteredProgressOracles */\n      0x03\n        /* \"RegistrationandAccessControl.sol\":2448:2482  RegisteredProgressOracles[_oracle] */\n      0x00\n        /* \"RegistrationandAccessControl.sol\":2474:2481  _oracle */\n      dup3\n        /* \"RegistrationandAccessControl.sol\":2448:2482  RegisteredProgressOracles[_oracle] */\n      0xffffffffffffffffffffffffffffffffffffffff\n      and\n      0xffffffffffffffffffffffffffffffffffffffff\n      and\n      dup2\n      mstore\n      0x20\n      add\n      swap1\n      dup2\n      mstore\n      0x20\n      add\n      0x00\n      keccak256\n      0x00\n      swap1\n      sload\n      swap1\n      0x0100\n      exp\n      swap1\n      div\n      0xff\n      and\n        /* \"RegistrationandAccessControl.sol\":2447:2482  !RegisteredProgressOracles[_oracle] */\n      iszero\n        /* \"RegistrationandAccessControl.sol\":2439:2520  require(!RegisteredProgressOracles[_oracle], \"This oracle is already registered\") */\n      tag_73\n      jumpi\n      mload(0x40)\n      0x08c379a000000000000000000000000000000000000000000000000000000000\n      dup2\n      mstore\n      0x04\n      add\n      tag_74\n      swap1\n      tag_75\n      jump\t// in\n    tag_74:\n      mload(0x40)\n      dup1\n      swap2\n      sub\n      swap1\n      revert\n    tag_73:\n        /* \"RegistrationandAccessControl.sol\":2550:2559  regulator */\n      0x01\n      0x00\n      swap1\n      sload\n      swap1\n      0x0100\n      exp\n      swap1\n      div\n      0xffffffffffffffffffffffffffffffffffffffff\n      and\n        /* \"RegistrationandAccessControl.sol\":2539:2559  _oracle != regulator */\n      0xffffffffffffffffffffffffffffffffffffffff\n      and\n        /* \"RegistrationandAccessControl.sol\":2539:2546  _oracle */\n      dup2\n        /* \"RegistrationandAccessControl.sol\":2539:2559  _oracle != regulator */\n      0xffffffffffffffffffffffffffffffffffffffff\n      and\n      sub\n        /* \"RegistrationandAccessControl.sol\":2531:2607  require(_oracle != regulator, \"The role of the regulator cannot be changed\") */\n      tag_76\n      jumpi\n      mload(0x40)\n      0x08c379a000000000000000000000000000000000000000000000000000000000\n      dup2\n      mstore\n      0x04\n      add\n      tag_77\n      swap1\n      tag_50\n      jump\t// in\n    tag_77:\n      mload(0x40)\n      dup1\n      swap2\n      sub\n      swap1\n      revert\n    tag_76:\n        /* \"RegistrationandAccessControl.sol\":2655:2659  true */\n      0x01\n        /* \"RegistrationandAccessControl.sol\":2618:2643  RegisteredProgressOracles */\n      0x03\n        /* \"RegistrationandAccessControl.sol\":2618:2652  RegisteredProgressOracles[_oracle] */\n      0x00\n        /* \"RegistrationandAccessControl.sol\":2644:2651  _oracle */\n      dup4\n        /* \"RegistrationandAccessControl.sol\":2618:2652  RegisteredProgressOracles[_oracle] */\n      0xffffffffffffffffffffffffffffffffffffffff\n      and\n      0xffffffffffffffffffffffffffffffffffffffff\n      and\n      dup2\n      mstore\n      0x20\n      add\n      swap1\n      dup2\n      mstore\n      0x20\n      add\n      0x00\n      keccak256\n      0x00\n        /* \"RegistrationandAccessControl.sol\":2618:2659  RegisteredProgressOracles[_oracle] = true */\n      0x0100\n      exp\n      dup2\n      sload\n      dup2\n      0xff\n      mul\n      not\n      and\n      swap1\n      dup4\n      iszero\n      iszero\n      mul\n      or\n      swap1\n      sstore\n      pop\n        /* \"RegistrationandAccessControl.sol\":2700:2707  _oracle */\n      dup1\n        /* \"RegistrationandAccessControl.sol\":2675:2708  ProgressOracleRegistered(_oracle) */\n      0xffffffffffffffffffffffffffffffffffffffff\n      and\n      0x08e45bbe54ca47b241ce1773230bf52bc4727430e10ab655aea5d7e9d69e4ca9\n      mload(0x40)\n      mload(0x40)\n      dup1\n      swap2\n      sub\n      swap1\n      log2\n        /* \"RegistrationandAccessControl.sol\":2359:2716  function registerProgressOracle(address _oracle) public onlyRegulator{... */\n      pop\n      jump\t// out\n        /* \"#utility.yul\":7:82   */\n    tag_78:\n        /* \"#utility.yul\":40:46   */\n      0x00\n        /* \"#utility.yul\":73:75   */\n      0x40\n        /* \"#utility.yul\":67:76   */\n      mload\n        /* \"#utility.yul\":57:76   */\n      swap1\n      pop\n        /* \"#utility.yul\":7:82   */\n      swap1\n      jump\t// out\n        /* \"#utility.yul\":88:205   */\n    tag_79:\n        /* \"#utility.yul\":197:198   */\n      0x00\n        /* \"#utility.yul\":194:195   */\n      dup1\n        /* \"#utility.yul\":187:199   */\n      revert\n        /* \"#utility.yul\":211:328   */\n    tag_80:\n        /* \"#utility.yul\":320:321   */\n      0x00\n        /* \"#utility.yul\":317:318   */\n      dup1\n        /* \"#utility.yul\":310:322   */\n      revert\n        /* \"#utility.yul\":334:460   */\n    tag_81:\n        /* \"#utility.yul\":371:378   */\n      0x00\n        /* \"#utility.yul\":411:453   */\n      0xffffffffffffffffffffffffffffffffffffffff\n        /* \"#utility.yul\":404:409   */\n      dup3\n        /* \"#utility.yul\":400:454   */\n      and\n        /* \"#utility.yul\":389:454   */\n      swap1\n      pop\n        /* \"#utility.yul\":334:460   */\n      swap2\n      swap1\n      pop\n      jump\t// out\n        /* \"#utility.yul\":466:562   */\n    tag_82:\n        /* \"#utility.yul\":503:510   */\n      0x00\n        /* \"#utility.yul\":532:556   */\n      tag_122\n        /* \"#utility.yul\":550:555   */\n      dup3\n        /* \"#utility.yul\":532:556   */\n      tag_81\n      jump\t// in\n    tag_122:\n        /* \"#utility.yul\":521:556   */\n      swap1\n      pop\n        /* \"#utility.yul\":466:562   */\n      swap2\n      swap1\n      pop\n      jump\t// out\n        /* \"#utility.yul\":568:690   */\n    tag_83:\n        /* \"#utility.yul\":641:665   */\n      tag_124\n        /* \"#utility.yul\":659:664   */\n      dup2\n        /* \"#utility.yul\":641:665   */\n      tag_82\n      jump\t// in\n    tag_124:\n        /* \"#utility.yul\":634:639   */\n      dup2\n        /* \"#utility.yul\":631:666   */\n      eq\n        /* \"#utility.yul\":621:684   */\n      tag_125\n      jumpi\n        /* \"#utility.yul\":680:681   */\n      0x00\n        /* \"#utility.yul\":677:678   */\n      dup1\n        /* \"#utility.yul\":670:682   */\n      revert\n        /* \"#utility.yul\":621:684   */\n    tag_125:\n        /* \"#utility.yul\":568:690   */\n      pop\n      jump\t// out\n        /* \"#utility.yul\":696:835   */\n    tag_84:\n        /* \"#utility.yul\":742:747   */\n      0x00\n        /* \"#utility.yul\":780:786   */\n      dup2\n        /* \"#utility.yul\":767:787   */\n      calldataload\n        /* \"#utility.yul\":758:787   */\n      swap1\n      pop\n        /* \"#utility.yul\":796:829   */\n      tag_127\n        /* \"#utility.yul\":823:828   */\n      dup2\n        /* \"#utility.yul\":796:829   */\n      tag_83\n      jump\t// in\n    tag_127:\n        /* \"#utility.yul\":696:835   */\n      swap3\n      swap2\n      pop\n      pop\n      jump\t// out\n        /* \"#utility.yul\":841:958   */\n    tag_85:\n        /* \"#utility.yul\":950:951   */\n      0x00\n        /* \"#utility.yul\":947:948   */\n      dup1\n        /* \"#utility.yul\":940:952   */\n      revert\n        /* \"#utility.yul\":964:1081   */\n    tag_86:\n        /* \"#utility.yul\":1073:1074   */\n      0x00\n        /* \"#utility.yul\":1070:1071   */\n      dup1\n        /* \"#utility.yul\":1063:1075   */\n      revert\n        /* \"#utility.yul\":1087:1189   */\n    tag_87:\n        /* \"#utility.yul\":1128:1134   */\n      0x00\n        /* \"#utility.yul\":1179:1181   */\n      0x1f\n        /* \"#utility.yul\":1175:1182   */\n      not\n        /* \"#utility.yul\":1170:1172   */\n      0x1f\n        /* \"#utility.yul\":1163:1168   */\n      dup4\n        /* \"#utility.yul\":1159:1173   */\n      add\n        /* \"#utility.yul\":1155:1183   */\n      and\n        /* \"#utility.yul\":1145:1183   */\n      swap1\n      pop\n        /* \"#utility.yul\":1087:1189   */\n      swap2\n      swap1\n      pop\n      jump\t// out\n        /* \"#utility.yul\":1195:1375   */\n    tag_88:\n        /* \"#utility.yul\":1243:1320   */\n      0x4e487b7100000000000000000000000000000000000000000000000000000000\n        /* \"#utility.yul\":1240:1241   */\n      0x00\n        /* \"#utility.yul\":1233:1321   */\n      mstore\n        /* \"#utility.yul\":1340:1344   */\n      0x41\n        /* \"#utility.yul\":1337:1338   */\n      0x04\n        /* \"#utility.yul\":1330:1345   */\n      mstore\n        /* \"#utility.yul\":1364:1368   */\n      0x24\n        /* \"#utility.yul\":1361:1362   */\n      0x00\n        /* \"#utility.yul\":1354:1369   */\n      revert\n        /* \"#utility.yul\":1381:1662   */\n    tag_89:\n        /* \"#utility.yul\":1464:1491   */\n      tag_133\n        /* \"#utility.yul\":1486:1490   */\n      dup3\n        /* \"#utility.yul\":1464:1491   */\n      tag_87\n      jump\t// in\n    tag_133:\n        /* \"#utility.yul\":1456:1462   */\n      dup2\n        /* \"#utility.yul\":1452:1492   */\n      add\n        /* \"#utility.yul\":1594:1600   */\n      dup2\n        /* \"#utility.yul\":1582:1592   */\n      dup2\n        /* \"#utility.yul\":1579:1601   */\n      lt\n        /* \"#utility.yul\":1558:1576   */\n      0xffffffffffffffff\n        /* \"#utility.yul\":1546:1556   */\n      dup3\n        /* \"#utility.yul\":1543:1577   */\n      gt\n        /* \"#utility.yul\":1540:1602   */\n      or\n        /* \"#utility.yul\":1537:1625   */\n      iszero\n      tag_134\n      jumpi\n        /* \"#utility.yul\":1605:1623   */\n      tag_135\n      tag_88\n      jump\t// in\n    tag_135:\n        /* \"#utility.yul\":1537:1625   */\n    tag_134:\n        /* \"#utility.yul\":1645:1655   */\n      dup1\n        /* \"#utility.yul\":1641:1643   */\n      0x40\n        /* \"#utility.yul\":1634:1656   */\n      mstore\n        /* \"#utility.yul\":1424:1662   */\n      pop\n        /* \"#utility.yul\":1381:1662   */\n      pop\n      pop\n      jump\t// out\n        /* \"#utility.yul\":1668:1797   */\n    tag_90:\n        /* \"#utility.yul\":1702:1708   */\n      0x00\n        /* \"#utility.yul\":1729:1749   */\n      tag_137\n      tag_78\n      jump\t// in\n    tag_137:\n        /* \"#utility.yul\":1719:1749   */\n      swap1\n      pop\n        /* \"#utility.yul\":1758:1791   */\n      tag_138\n        /* \"#utility.yul\":1786:1790   */\n      dup3\n        /* \"#utility.yul\":1778:1784   */\n      dup3\n        /* \"#utility.yul\":1758:1791   */\n      tag_89\n      jump\t// in\n    tag_138:\n        /* \"#utility.yul\":1668:1797   */\n      swap2\n      swap1\n      pop\n      jump\t// out\n        /* \"#utility.yul\":1803:2111   */\n    tag_91:\n        /* \"#utility.yul\":1865:1869   */\n      0x00\n        /* \"#utility.yul\":1955:1973   */\n      0xffffffffffffffff\n        /* \"#utility.yul\":1947:1953   */\n      dup3\n        /* \"#utility.yul\":1944:1974   */\n      gt\n        /* \"#utility.yul\":1941:1997   */\n      iszero\n      tag_140\n      jumpi\n        /* \"#utility.yul\":1977:1995   */\n      tag_141\n      tag_88\n      jump\t// in\n    tag_141:\n        /* \"#utility.yul\":1941:1997   */\n    tag_140:\n        /* \"#utility.yul\":2015:2044   */\n      tag_142\n        /* \"#utility.yul\":2037:2043   */\n      dup3\n        /* \"#utility.yul\":2015:2044   */\n      tag_87\n      jump\t// in\n    tag_142:\n        /* \"#utility.yul\":2007:2044   */\n      swap1\n      pop\n        /* \"#utility.yul\":2099:2103   */\n      0x20\n        /* \"#utility.yul\":2093:2097   */\n      dup2\n        /* \"#utility.yul\":2089:2104   */\n      add\n        /* \"#utility.yul\":2081:2104   */\n      swap1\n      pop\n        /* \"#utility.yul\":1803:2111   */\n      swap2\n      swap1\n      pop\n      jump\t// out\n        /* \"#utility.yul\":2117:2263   */\n    tag_92:\n        /* \"#utility.yul\":2214:2220   */\n      dup3\n        /* \"#utility.yul\":2209:2212   */\n      dup2\n        /* \"#utility.yul\":2204:2207   */\n      dup4\n        /* \"#utility.yul\":2191:2221   */\n      calldatacopy\n        /* \"#utility.yul\":2255:2256   */\n      0x00\n        /* \"#utility.yul\":2246:2252   */\n      dup4\n        /* \"#utility.yul\":2241:2244   */\n      dup4\n        /* \"#utility.yul\":2237:2253   */\n      add\n        /* \"#utility.yul\":2230:2257   */\n      mstore\n        /* \"#utility.yul\":2117:2263   */\n      pop\n      pop\n      pop\n      jump\t// out\n        /* \"#utility.yul\":2269:2694   */\n    tag_93:\n        /* \"#utility.yul\":2347:2352   */\n      0x00\n        /* \"#utility.yul\":2372:2438   */\n      tag_145\n        /* \"#utility.yul\":2388:2437   */\n      tag_146\n        /* \"#utility.yul\":2430:2436   */\n      dup5\n        /* \"#utility.yul\":2388:2437   */\n      tag_91\n      jump\t// in\n    tag_146:\n        /* \"#utility.yul\":2372:2438   */\n      tag_90\n      jump\t// in\n    tag_145:\n        /* \"#utility.yul\":2363:2438   */\n      swap1\n      pop\n        /* \"#utility.yul\":2461:2467   */\n      dup3\n        /* \"#utility.yul\":2454:2459   */\n      dup2\n        /* \"#utility.yul\":2447:2468   */\n      mstore\n        /* \"#utility.yul\":2499:2503   */\n      0x20\n        /* \"#utility.yul\":2492:2497   */\n      dup2\n        /* \"#utility.yul\":2488:2504   */\n      add\n        /* \"#utility.yul\":2537:2540   */\n      dup5\n        /* \"#utility.yul\":2528:2534   */\n      dup5\n        /* \"#utility.yul\":2523:2526   */\n      dup5\n        /* \"#utility.yul\":2519:2535   */\n      add\n        /* \"#utility.yul\":2516:2541   */\n      gt\n        /* \"#utility.yul\":2513:2625   */\n      iszero\n      tag_147\n      jumpi\n        /* \"#utility.yul\":2544:2623   */\n      tag_148\n      tag_86\n      jump\t// in\n    tag_148:\n        /* \"#utility.yul\":2513:2625   */\n    tag_147:\n        /* \"#utility.yul\":2634:2688   */\n      tag_149\n        /* \"#utility.yul\":2681:2687   */\n      dup5\n        /* \"#utility.yul\":2676:2679   */\n      dup3\n        /* \"#utility.yul\":2671:2674   */\n      dup6\n        /* \"#utility.yul\":2634:2688   */\n      tag_92\n      jump\t// in\n    tag_149:\n        /* \"#utility.yul\":2353:2694   */\n      pop\n        /* \"#utility.yul\":2269:2694   */\n      swap4\n      swap3\n      pop\n      pop\n      pop\n      jump\t// out\n        /* \"#utility.yul\":2714:3054   */\n    tag_94:\n        /* \"#utility.yul\":2770:2775   */\n      0x00\n        /* \"#utility.yul\":2819:2822   */\n      dup3\n        /* \"#utility.yul\":2812:2816   */\n      0x1f\n        /* \"#utility.yul\":2804:2810   */\n      dup4\n        /* \"#utility.yul\":2800:2817   */\n      add\n        /* \"#utility.yul\":2796:2823   */\n      slt\n        /* \"#utility.yul\":2786:2908   */\n      tag_151\n      jumpi\n        /* \"#utility.yul\":2827:2906   */\n      tag_152\n      tag_85\n      jump\t// in\n    tag_152:\n        /* \"#utility.yul\":2786:2908   */\n    tag_151:\n        /* \"#utility.yul\":2944:2950   */\n      dup2\n        /* \"#utility.yul\":2931:2951   */\n      calldataload\n        /* \"#utility.yul\":2969:3048   */\n      tag_153\n        /* \"#utility.yul\":3044:3047   */\n      dup5\n        /* \"#utility.yul\":3036:3042   */\n      dup3\n        /* \"#utility.yul\":3029:3033   */\n      0x20\n        /* \"#utility.yul\":3021:3027   */\n      dup7\n        /* \"#utility.yul\":3017:3034   */\n      add\n        /* \"#utility.yul\":2969:3048   */\n      tag_93\n      jump\t// in\n    tag_153:\n        /* \"#utility.yul\":2960:3048   */\n      swap2\n      pop\n        /* \"#utility.yul\":2776:3054   */\n      pop\n        /* \"#utility.yul\":2714:3054   */\n      swap3\n      swap2\n      pop\n      pop\n      jump\t// out\n        /* \"#utility.yul\":3060:3714   */\n    tag_13:\n        /* \"#utility.yul\":3138:3144   */\n      0x00\n        /* \"#utility.yul\":3146:3152   */\n      dup1\n        /* \"#utility.yul\":3195:3197   */\n      0x40\n        /* \"#utility.yul\":3183:3192   */\n      dup4\n        /* \"#utility.yul\":3174:3181   */\n      dup6\n        /* \"#utility.yul\":3170:3193   */\n      sub\n        /* \"#utility.yul\":3166:3198   */\n      slt\n        /* \"#utility.yul\":3163:3282   */\n      iszero\n      tag_155\n      jumpi\n        /* \"#utility.yul\":3201:3280   */\n      tag_156\n      tag_79\n      jump\t// in\n    tag_156:\n        /* \"#utility.yul\":3163:3282   */\n    tag_155:\n        /* \"#utility.yul\":3321:3322   */\n      0x00\n        /* \"#utility.yul\":3346:3399   */\n      tag_157\n        /* \"#utility.yul\":3391:3398   */\n      dup6\n        /* \"#utility.yul\":3382:3388   */\n      dup3\n        /* \"#utility.yul\":3371:3380   */\n      dup7\n        /* \"#utility.yul\":3367:3389   */\n      add\n        /* \"#utility.yul\":3346:3399   */\n      tag_84\n      jump\t// in\n    tag_157:\n        /* \"#utility.yul\":3336:3399   */\n      swap3\n      pop\n        /* \"#utility.yul\":3292:3409   */\n      pop\n        /* \"#utility.yul\":3476:3478   */\n      0x20\n        /* \"#utility.yul\":3465:3474   */\n      dup4\n        /* \"#utility.yul\":3461:3479   */\n      add\n        /* \"#utility.yul\":3448:3480   */\n      calldataload\n        /* \"#utility.yul\":3507:3525   */\n      0xffffffffffffffff\n        /* \"#utility.yul\":3499:3505   */\n      dup2\n        /* \"#utility.yul\":3496:3526   */\n      gt\n        /* \"#utility.yul\":3493:3610   */\n      iszero\n      tag_158\n      jumpi\n        /* \"#utility.yul\":3529:3608   */\n      tag_159\n      tag_80\n      jump\t// in\n    tag_159:\n        /* \"#utility.yul\":3493:3610   */\n    tag_158:\n        /* \"#utility.yul\":3634:3697   */\n      tag_160\n        /* \"#utility.yul\":3689:3696   */\n      dup6\n        /* \"#utility.yul\":3680:3686   */\n      dup3\n        /* \"#utility.yul\":3669:3678   */\n      dup7\n        /* \"#utility.yul\":3665:3687   */\n      add\n        /* \"#utility.yul\":3634:3697   */\n      tag_94\n      jump\t// in\n    tag_160:\n        /* \"#utility.yul\":3624:3697   */\n      swap2\n      pop\n        /* \"#utility.yul\":3419:3707   */\n      pop\n        /* \"#utility.yul\":3060:3714   */\n      swap3\n      pop\n      swap3\n      swap1\n      pop\n      jump\t// out\n        /* \"#utility.yul\":3720:4049   */\n    tag_17:\n        /* \"#utility.yul\":3779:3785   */\n      0x00\n        /* \"#utility.yul\":3828:3830   */\n      0x20\n        /* \"#utility.yul\":3816:3825   */\n      dup3\n        /* \"#utility.yul\":3807:3814   */\n      dup5\n        /* \"#utility.yul\":3803:3826   */\n      sub\n        /* \"#utility.yul\":3799:3831   */\n      slt\n        /* \"#utility.yul\":3796:3915   */\n      iszero\n      tag_162\n      jumpi\n        /* \"#utility.yul\":3834:3913   */\n      tag_163\n      tag_79\n      jump\t// in\n    tag_163:\n        /* \"#utility.yul\":3796:3915   */\n    tag_162:\n        /* \"#utility.yul\":3954:3955   */\n      0x00\n        /* \"#utility.yul\":3979:4032   */\n      tag_164\n        /* \"#utility.yul\":4024:4031   */\n      dup5\n        /* \"#utility.yul\":4015:4021   */\n      dup3\n        /* \"#utility.yul\":4004:4013   */\n      dup6\n        /* \"#utility.yul\":4000:4022   */\n      add\n        /* \"#utility.yul\":3979:4032   */\n      tag_84\n      jump\t// in\n    tag_164:\n        /* \"#utility.yul\":3969:4032   */\n      swap2\n      pop\n        /* \"#utility.yul\":3925:4042   */\n      pop\n        /* \"#utility.yul\":3720:4049   */\n      swap3\n      swap2\n      pop\n      pop\n      jump\t// out\n        /* \"#utility.yul\":4055:4132   */\n    tag_95:\n        /* \"#utility.yul\":4092:4099   */\n      0x00\n        /* \"#utility.yul\":4121:4126   */\n      dup2\n        /* \"#utility.yul\":4110:4126   */\n      swap1\n      pop\n        /* \"#utility.yul\":4055:4132   */\n      swap2\n      swap1\n      pop\n      jump\t// out\n        /* \"#utility.yul\":4138:4256   */\n    tag_96:\n        /* \"#utility.yul\":4225:4249   */\n      tag_167\n        /* \"#utility.yul\":4243:4248   */\n      dup2\n        /* \"#utility.yul\":4225:4249   */\n      tag_95\n      jump\t// in\n    tag_167:\n        /* \"#utility.yul\":4220:4223   */\n      dup3\n        /* \"#utility.yul\":4213:4250   */\n      mstore\n        /* \"#utility.yul\":4138:4256   */\n      pop\n      pop\n      jump\t// out\n        /* \"#utility.yul\":4262:4484   */\n    tag_23:\n        /* \"#utility.yul\":4355:4359   */\n      0x00\n        /* \"#utility.yul\":4393:4395   */\n      0x20\n        /* \"#utility.yul\":4382:4391   */\n      dup3\n        /* \"#utility.yul\":4378:4396   */\n      add\n        /* \"#utility.yul\":4370:4396   */\n      swap1\n      pop\n        /* \"#utility.yul\":4406:4477   */\n      tag_169\n        /* \"#utility.yul\":4474:4475   */\n      0x00\n        /* \"#utility.yul\":4463:4472   */\n      dup4\n        /* \"#utility.yul\":4459:4476   */\n      add\n        /* \"#utility.yul\":4450:4456   */\n      dup5\n        /* \"#utility.yul\":4406:4477   */\n      tag_96\n      jump\t// in\n    tag_169:\n        /* \"#utility.yul\":4262:4484   */\n      swap3\n      swap2\n      pop\n      pop\n      jump\t// out\n        /* \"#utility.yul\":4490:4580   */\n    tag_97:\n        /* \"#utility.yul\":4524:4531   */\n      0x00\n        /* \"#utility.yul\":4567:4572   */\n      dup2\n        /* \"#utility.yul\":4560:4573   */\n      iszero\n        /* \"#utility.yul\":4553:4574   */\n      iszero\n        /* \"#utility.yul\":4542:4574   */\n      swap1\n      pop\n        /* \"#utility.yul\":4490:4580   */\n      swap2\n      swap1\n      pop\n      jump\t// out\n        /* \"#utility.yul\":4586:4695   */\n    tag_98:\n        /* \"#utility.yul\":4667:4688   */\n      tag_172\n        /* \"#utility.yul\":4682:4687   */\n      dup2\n        /* \"#utility.yul\":4667:4688   */\n      tag_97\n      jump\t// in\n    tag_172:\n        /* \"#utility.yul\":4662:4665   */\n      dup3\n        /* \"#utility.yul\":4655:4689   */\n      mstore\n        /* \"#utility.yul\":4586:4695   */\n      pop\n      pop\n      jump\t// out\n        /* \"#utility.yul\":4701:4911   */\n    tag_28:\n        /* \"#utility.yul\":4788:4792   */\n      0x00\n        /* \"#utility.yul\":4826:4828   */\n      0x20\n        /* \"#utility.yul\":4815:4824   */\n      dup3\n        /* \"#utility.yul\":4811:4829   */\n      add\n        /* \"#utility.yul\":4803:4829   */\n      swap1\n      pop\n        /* \"#utility.yul\":4839:4904   */\n      tag_174\n        /* \"#utility.yul\":4901:4902   */\n      0x00\n        /* \"#utility.yul\":4890:4899   */\n      dup4\n        /* \"#utility.yul\":4886:4903   */\n      add\n        /* \"#utility.yul\":4877:4883   */\n      dup5\n        /* \"#utility.yul\":4839:4904   */\n      tag_98\n      jump\t// in\n    tag_174:\n        /* \"#utility.yul\":4701:4911   */\n      swap3\n      swap2\n      pop\n      pop\n      jump\t// out\n        /* \"#utility.yul\":4917:5035   */\n    tag_99:\n        /* \"#utility.yul\":5004:5028   */\n      tag_176\n        /* \"#utility.yul\":5022:5027   */\n      dup2\n        /* \"#utility.yul\":5004:5028   */\n      tag_82\n      jump\t// in\n    tag_176:\n        /* \"#utility.yul\":4999:5002   */\n      dup3\n        /* \"#utility.yul\":4992:5029   */\n      mstore\n        /* \"#utility.yul\":4917:5035   */\n      pop\n      pop\n      jump\t// out\n        /* \"#utility.yul\":5041:5263   */\n    tag_32:\n        /* \"#utility.yul\":5134:5138   */\n      0x00\n        /* \"#utility.yul\":5172:5174   */\n      0x20\n        /* \"#utility.yul\":5161:5170   */\n      dup3\n        /* \"#utility.yul\":5157:5175   */\n      add\n        /* \"#utility.yul\":5149:5175   */\n      swap1\n      pop\n        /* \"#utility.yul\":5185:5256   */\n      tag_178\n        /* \"#utility.yul\":5253:5254   */\n      0x00\n        /* \"#utility.yul\":5242:5251   */\n      dup4\n        /* \"#utility.yul\":5238:5255   */\n      add\n        /* \"#utility.yul\":5229:5235   */\n      dup5\n        /* \"#utility.yul\":5185:5256   */\n      tag_99\n      jump\t// in\n    tag_178:\n        /* \"#utility.yul\":5041:5263   */\n      swap3\n      swap2\n      pop\n      pop\n      jump\t// out\n        /* \"#utility.yul\":5269:5438   */\n    tag_100:\n        /* \"#utility.yul\":5353:5364   */\n      0x00\n        /* \"#utility.yul\":5387:5393   */\n      dup3\n        /* \"#utility.yul\":5382:5385   */\n      dup3\n        /* \"#utility.yul\":5375:5394   */\n      mstore\n        /* \"#utility.yul\":5427:5431   */\n      0x20\n        /* \"#utility.yul\":5422:5425   */\n      dup3\n        /* \"#utility.yul\":5418:5432   */\n      add\n        /* \"#utility.yul\":5403:5432   */\n      swap1\n      pop\n        /* \"#utility.yul\":5269:5438   */\n      swap3\n      swap2\n      pop\n      pop\n      jump\t// out\n        /* \"#utility.yul\":5444:5671   */\n    tag_101:\n        /* \"#utility.yul\":5584:5618   */\n      0x4f6e6c792074686520726567756c61746f722063616e2072756e207468697320\n        /* \"#utility.yul\":5580:5581   */\n      0x00\n        /* \"#utility.yul\":5572:5578   */\n      dup3\n        /* \"#utility.yul\":5568:5582   */\n      add\n        /* \"#utility.yul\":5561:5619   */\n      mstore\n        /* \"#utility.yul\":5653:5663   */\n      0x66756e6374696f6e000000000000000000000000000000000000000000000000\n        /* \"#utility.yul\":5648:5650   */\n      0x20\n        /* \"#utility.yul\":5640:5646   */\n      dup3\n        /* \"#utility.yul\":5636:5651   */\n      add\n        /* \"#utility.yul\":5629:5664   */\n      mstore\n        /* \"#utility.yul\":5444:5671   */\n      pop\n      jump\t// out\n        /* \"#utility.yul\":5677:6043   */\n    tag_102:\n        /* \"#utility.yul\":5819:5822   */\n      0x00\n        /* \"#utility.yul\":5840:5907   */\n      tag_182\n        /* \"#utility.yul\":5904:5906   */\n      0x28\n        /* \"#utility.yul\":5899:5902   */\n      dup4\n        /* \"#utility.yul\":5840:5907   */\n      tag_100\n      jump\t// in\n    tag_182:\n        /* \"#utility.yul\":5833:5907   */\n      swap2\n      pop\n        /* \"#utility.yul\":5916:6009   */\n      tag_183\n        /* \"#utility.yul\":6005:6008   */\n      dup3\n        /* \"#utility.yul\":5916:6009   */\n      tag_101\n      jump\t// in\n    tag_183:\n        /* \"#utility.yul\":6034:6036   */\n      0x40\n        /* \"#utility.yul\":6029:6032   */\n      dup3\n        /* \"#utility.yul\":6025:6037   */\n      add\n        /* \"#utility.yul\":6018:6037   */\n      swap1\n      pop\n        /* \"#utility.yul\":5677:6043   */\n      swap2\n      swap1\n      pop\n      jump\t// out\n        /* \"#utility.yul\":6049:6468   */\n    tag_43:\n        /* \"#utility.yul\":6215:6219   */\n      0x00\n        /* \"#utility.yul\":6253:6255   */\n      0x20\n        /* \"#utility.yul\":6242:6251   */\n      dup3\n        /* \"#utility.yul\":6238:6256   */\n      add\n        /* \"#utility.yul\":6230:6256   */\n      swap1\n      pop\n        /* \"#utility.yul\":6302:6311   */\n      dup2\n        /* \"#utility.yul\":6296:6300   */\n      dup2\n        /* \"#utility.yul\":6292:6312   */\n      sub\n        /* \"#utility.yul\":6288:6289   */\n      0x00\n        /* \"#utility.yul\":6277:6286   */\n      dup4\n        /* \"#utility.yul\":6273:6290   */\n      add\n        /* \"#utility.yul\":6266:6313   */\n      mstore\n        /* \"#utility.yul\":6330:6461   */\n      tag_185\n        /* \"#utility.yul\":6456:6460   */\n      dup2\n        /* \"#utility.yul\":6330:6461   */\n      tag_102\n      jump\t// in\n    tag_185:\n        /* \"#utility.yul\":6322:6461   */\n      swap1\n      pop\n        /* \"#utility.yul\":6049:6468   */\n      swap2\n      swap1\n      pop\n      jump\t// out\n        /* \"#utility.yul\":6474:6698   */\n    tag_103:\n        /* \"#utility.yul\":6614:6648   */\n      0x5468697320757365722068617320616c7265616479206265656e207265676973\n        /* \"#utility.yul\":6610:6611   */\n      0x00\n        /* \"#utility.yul\":6602:6608   */\n      dup3\n        /* \"#utility.yul\":6598:6612   */\n      add\n        /* \"#utility.yul\":6591:6649   */\n      mstore\n        /* \"#utility.yul\":6683:6690   */\n      0x7465726564000000000000000000000000000000000000000000000000000000\n        /* \"#utility.yul\":6678:6680   */\n      0x20\n        /* \"#utility.yul\":6670:6676   */\n      dup3\n        /* \"#utility.yul\":6666:6681   */\n      add\n        /* \"#utility.yul\":6659:6691   */\n      mstore\n        /* \"#utility.yul\":6474:6698   */\n      pop\n      jump\t// out\n        /* \"#utility.yul\":6704:7070   */\n    tag_104:\n        /* \"#utility.yul\":6846:6849   */\n      0x00\n        /* \"#utility.yul\":6867:6934   */\n      tag_188\n        /* \"#utility.yul\":6931:6933   */\n      0x25\n        /* \"#utility.yul\":6926:6929   */\n      dup4\n        /* \"#utility.yul\":6867:6934   */\n      tag_100\n      jump\t// in\n    tag_188:\n        /* \"#utility.yul\":6860:6934   */\n      swap2\n      pop\n        /* \"#utility.yul\":6943:7036   */\n      tag_189\n        /* \"#utility.yul\":7032:7035   */\n      dup3\n        /* \"#utility.yul\":6943:7036   */\n      tag_103\n      jump\t// in\n    tag_189:\n        /* \"#utility.yul\":7061:7063   */\n      0x40\n        /* \"#utility.yul\":7056:7059   */\n      dup3\n        /* \"#utility.yul\":7052:7064   */\n      add\n        /* \"#utility.yul\":7045:7064   */\n      swap1\n      pop\n        /* \"#utility.yul\":6704:7070   */\n      swap2\n      swap1\n      pop\n      jump\t// out\n        /* \"#utility.yul\":7076:7495   */\n    tag_47:\n        /* \"#utility.yul\":7242:7246   */\n      0x00\n        /* \"#utility.yul\":7280:7282   */\n      0x20\n        /* \"#utility.yul\":7269:7278   */\n      dup3\n        /* \"#utility.yul\":7265:7283   */\n      add\n        /* \"#utility.yul\":7257:7283   */\n      swap1\n      pop\n        /* \"#utility.yul\":7329:7338   */\n      dup2\n        /* \"#utility.yul\":7323:7327   */\n      dup2\n        /* \"#utility.yul\":7319:7339   */\n      sub\n        /* \"#utility.yul\":7315:7316   */\n      0x00\n        /* \"#utility.yul\":7304:7313   */\n      dup4\n        /* \"#utility.yul\":7300:7317   */\n      add\n        /* \"#utility.yul\":7293:7340   */\n      mstore\n        /* \"#utility.yul\":7357:7488   */\n      tag_191\n        /* \"#utility.yul\":7483:7487   */\n      dup2\n        /* \"#utility.yul\":7357:7488   */\n      tag_104\n      jump\t// in\n    tag_191:\n        /* \"#utility.yul\":7349:7488   */\n      swap1\n      pop\n        /* \"#utility.yul\":7076:7495   */\n      swap2\n      swap1\n      pop\n      jump\t// out\n        /* \"#utility.yul\":7501:7731   */\n    tag_105:\n        /* \"#utility.yul\":7641:7675   */\n      0x54686520726f6c65206f662074686520726567756c61746f722063616e6e6f74\n        /* \"#utility.yul\":7637:7638   */\n      0x00\n        /* \"#utility.yul\":7629:7635   */\n      dup3\n        /* \"#utility.yul\":7625:7639   */\n      add\n        /* \"#utility.yul\":7618:7676   */\n      mstore\n        /* \"#utility.yul\":7710:7723   */\n      0x206265206368616e676564000000000000000000000000000000000000000000\n        /* \"#utility.yul\":7705:7707   */\n      0x20\n        /* \"#utility.yul\":7697:7703   */\n      dup3\n        /* \"#utility.yul\":7693:7708   */\n      add\n        /* \"#utility.yul\":7686:7724   */\n      mstore\n        /* \"#utility.yul\":7501:7731   */\n      pop\n      jump\t// out\n        /* \"#utility.yul\":7737:8103   */\n    tag_106:\n        /* \"#utility.yul\":7879:7882   */\n      0x00\n        /* \"#utility.yul\":7900:7967   */\n      tag_194\n        /* \"#utility.yul\":7964:7966   */\n      0x2b\n        /* \"#utility.yul\":7959:7962   */\n      dup4\n        /* \"#utility.yul\":7900:7967   */\n      tag_100\n      jump\t// in\n    tag_194:\n        /* \"#utility.yul\":7893:7967   */\n      swap2\n      pop\n        /* \"#utility.yul\":7976:8069   */\n      tag_195\n        /* \"#utility.yul\":8065:8068   */\n      dup3\n        /* \"#utility.yul\":7976:8069   */\n      tag_105\n      jump\t// in\n    tag_195:\n        /* \"#utility.yul\":8094:8096   */\n      0x40\n        /* \"#utility.yul\":8089:8092   */\n      dup3\n        /* \"#utility.yul\":8085:8097   */\n      add\n        /* \"#utility.yul\":8078:8097   */\n      swap1\n      pop\n        /* \"#utility.yul\":7737:8103   */\n      swap2\n      swap1\n      pop\n      jump\t// out\n        /* \"#utility.yul\":8109:8528   */\n    tag_50:\n        /* \"#utility.yul\":8275:8279   */\n      0x00\n        /* \"#utility.yul\":8313:8315   */\n      0x20\n        /* \"#utility.yul\":8302:8311   */\n      dup3\n        /* \"#utility.yul\":8298:8316   */\n      add\n        /* \"#utility.yul\":8290:8316   */\n      swap1\n      pop\n        /* \"#utility.yul\":8362:8371   */\n      dup2\n        /* \"#utility.yul\":8356:8360   */\n      dup2\n        /* \"#utility.yul\":8352:8372   */\n      sub\n        /* \"#utility.yul\":8348:8349   */\n      0x00\n        /* \"#utility.yul\":8337:8346   */\n      dup4\n        /* \"#utility.yul\":8333:8350   */\n      add\n        /* \"#utility.yul\":8326:8373   */\n      mstore\n        /* \"#utility.yul\":8390:8521   */\n      tag_197\n        /* \"#utility.yul\":8516:8520   */\n      dup2\n        /* \"#utility.yul\":8390:8521   */\n      tag_106\n      jump\t// in\n    tag_197:\n        /* \"#utility.yul\":8382:8521   */\n      swap1\n      pop\n        /* \"#utility.yul\":8109:8528   */\n      swap2\n      swap1\n      pop\n      jump\t// out\n        /* \"#utility.yul\":8534:8633   */\n    tag_107:\n        /* \"#utility.yul\":8586:8592   */\n      0x00\n        /* \"#utility.yul\":8620:8625   */\n      dup2\n        /* \"#utility.yul\":8614:8626   */\n      mload\n        /* \"#utility.yul\":8604:8626   */\n      swap1\n      pop\n        /* \"#utility.yul\":8534:8633   */\n      swap2\n      swap1\n      pop\n      jump\t// out\n        /* \"#utility.yul\":8639:8885   */\n    tag_108:\n        /* \"#utility.yul\":8720:8721   */\n      0x00\n        /* \"#utility.yul\":8730:8843   */\n    tag_200:\n        /* \"#utility.yul\":8744:8750   */\n      dup4\n        /* \"#utility.yul\":8741:8742   */\n      dup2\n        /* \"#utility.yul\":8738:8751   */\n      lt\n        /* \"#utility.yul\":8730:8843   */\n      iszero\n      tag_202\n      jumpi\n        /* \"#utility.yul\":8829:8830   */\n      dup1\n        /* \"#utility.yul\":8824:8827   */\n      dup3\n        /* \"#utility.yul\":8820:8831   */\n      add\n        /* \"#utility.yul\":8814:8832   */\n      mload\n        /* \"#utility.yul\":8810:8811   */\n      dup2\n        /* \"#utility.yul\":8805:8808   */\n      dup5\n        /* \"#utility.yul\":8801:8812   */\n      add\n        /* \"#utility.yul\":8794:8833   */\n      mstore\n        /* \"#utility.yul\":8766:8768   */\n      0x20\n        /* \"#utility.yul\":8763:8764   */\n      dup2\n        /* \"#utility.yul\":8759:8769   */\n      add\n        /* \"#utility.yul\":8754:8769   */\n      swap1\n      pop\n        /* \"#utility.yul\":8730:8843   */\n      jump(tag_200)\n    tag_202:\n        /* \"#utility.yul\":8877:8878   */\n      0x00\n        /* \"#utility.yul\":8868:8874   */\n      dup5\n        /* \"#utility.yul\":8863:8866   */\n      dup5\n        /* \"#utility.yul\":8859:8875   */\n      add\n        /* \"#utility.yul\":8852:8879   */\n      mstore\n        /* \"#utility.yul\":8701:8885   */\n      pop\n        /* \"#utility.yul\":8639:8885   */\n      pop\n      pop\n      pop\n      jump\t// out\n        /* \"#utility.yul\":8891:9268   */\n    tag_109:\n        /* \"#utility.yul\":8979:8982   */\n      0x00\n        /* \"#utility.yul\":9007:9046   */\n      tag_204\n        /* \"#utility.yul\":9040:9045   */\n      dup3\n        /* \"#utility.yul\":9007:9046   */\n      tag_107\n      jump\t// in\n    tag_204:\n        /* \"#utility.yul\":9062:9133   */\n      tag_205\n        /* \"#utility.yul\":9126:9132   */\n      dup2\n        /* \"#utility.yul\":9121:9124   */\n      dup6\n        /* \"#utility.yul\":9062:9133   */\n      tag_100\n      jump\t// in\n    tag_205:\n        /* \"#utility.yul\":9055:9133   */\n      swap4\n      pop\n        /* \"#utility.yul\":9142:9207   */\n      tag_206\n        /* \"#utility.yul\":9200:9206   */\n      dup2\n        /* \"#utility.yul\":9195:9198   */\n      dup6\n        /* \"#utility.yul\":9188:9192   */\n      0x20\n        /* \"#utility.yul\":9181:9186   */\n      dup7\n        /* \"#utility.yul\":9177:9193   */\n      add\n        /* \"#utility.yul\":9142:9207   */\n      tag_108\n      jump\t// in\n    tag_206:\n        /* \"#utility.yul\":9232:9261   */\n      tag_207\n        /* \"#utility.yul\":9254:9260   */\n      dup2\n        /* \"#utility.yul\":9232:9261   */\n      tag_87\n      jump\t// in\n    tag_207:\n        /* \"#utility.yul\":9227:9230   */\n      dup5\n        /* \"#utility.yul\":9223:9262   */\n      add\n        /* \"#utility.yul\":9216:9262   */\n      swap2\n      pop\n        /* \"#utility.yul\":8983:9268   */\n      pop\n        /* \"#utility.yul\":8891:9268   */\n      swap3\n      swap2\n      pop\n      pop\n      jump\t// out\n        /* \"#utility.yul\":9274:9697   */\n    tag_52:\n        /* \"#utility.yul\":9415:9419   */\n      0x00\n        /* \"#utility.yul\":9453:9455   */\n      0x40\n        /* \"#utility.yul\":9442:9451   */\n      dup3\n        /* \"#utility.yul\":9438:9456   */\n      add\n        /* \"#utility.yul\":9430:9456   */\n      swap1\n      pop\n        /* \"#utility.yul\":9502:9511   */\n      dup2\n        /* \"#utility.yul\":9496:9500   */\n      dup2\n        /* \"#utility.yul\":9492:9512   */\n      sub\n        /* \"#utility.yul\":9488:9489   */\n      0x00\n        /* \"#utility.yul\":9477:9486   */\n      dup4\n        /* \"#utility.yul\":9473:9490   */\n      add\n        /* \"#utility.yul\":9466:9513   */\n      mstore\n        /* \"#utility.yul\":9530:9608   */\n      tag_209\n        /* \"#utility.yul\":9603:9607   */\n      dup2\n        /* \"#utility.yul\":9594:9600   */\n      dup6\n        /* \"#utility.yul\":9530:9608   */\n      tag_109\n      jump\t// in\n    tag_209:\n        /* \"#utility.yul\":9522:9608   */\n      swap1\n      pop\n        /* \"#utility.yul\":9618:9690   */\n      tag_210\n        /* \"#utility.yul\":9686:9688   */\n      0x20\n        /* \"#utility.yul\":9675:9684   */\n      dup4\n        /* \"#utility.yul\":9671:9689   */\n      add\n        /* \"#utility.yul\":9662:9668   */\n      dup5\n        /* \"#utility.yul\":9618:9690   */\n      tag_99\n      jump\t// in\n    tag_210:\n        /* \"#utility.yul\":9274:9697   */\n      swap4\n      swap3\n      pop\n      pop\n      pop\n      jump\t// out\n        /* \"#utility.yul\":9703:9825   */\n    tag_110:\n        /* \"#utility.yul\":9776:9800   */\n      tag_212\n        /* \"#utility.yul\":9794:9799   */\n      dup2\n        /* \"#utility.yul\":9776:9800   */\n      tag_95\n      jump\t// in\n    tag_212:\n        /* \"#utility.yul\":9769:9774   */\n      dup2\n        /* \"#utility.yul\":9766:9801   */\n      eq\n        /* \"#utility.yul\":9756:9819   */\n      tag_213\n      jumpi\n        /* \"#utility.yul\":9815:9816   */\n      0x00\n        /* \"#utility.yul\":9812:9813   */\n      dup1\n        /* \"#utility.yul\":9805:9817   */\n      revert\n        /* \"#utility.yul\":9756:9819   */\n    tag_213:\n        /* \"#utility.yul\":9703:9825   */\n      pop\n      jump\t// out\n        /* \"#utility.yul\":9831:9974   */\n    tag_111:\n        /* \"#utility.yul\":9888:9893   */\n      0x00\n        /* \"#utility.yul\":9919:9925   */\n      dup2\n        /* \"#utility.yul\":9913:9926   */\n      mload\n        /* \"#utility.yul\":9904:9926   */\n      swap1\n      pop\n        /* \"#utility.yul\":9935:9968   */\n      tag_215\n        /* \"#utility.yul\":9962:9967   */\n      dup2\n        /* \"#utility.yul\":9935:9968   */\n      tag_110\n      jump\t// in\n    tag_215:\n        /* \"#utility.yul\":9831:9974   */\n      swap3\n      swap2\n      pop\n      pop\n      jump\t// out\n        /* \"#utility.yul\":9980:10331   */\n    tag_56:\n        /* \"#utility.yul\":10050:10056   */\n      0x00\n        /* \"#utility.yul\":10099:10101   */\n      0x20\n        /* \"#utility.yul\":10087:10096   */\n      dup3\n        /* \"#utility.yul\":10078:10085   */\n      dup5\n        /* \"#utility.yul\":10074:10097   */\n      sub\n        /* \"#utility.yul\":10070:10102   */\n      slt\n        /* \"#utility.yul\":10067:10186   */\n      iszero\n      tag_217\n      jumpi\n        /* \"#utility.yul\":10105:10184   */\n      tag_218\n      tag_79\n      jump\t// in\n    tag_218:\n        /* \"#utility.yul\":10067:10186   */\n    tag_217:\n        /* \"#utility.yul\":10225:10226   */\n      0x00\n        /* \"#utility.yul\":10250:10314   */\n      tag_219\n        /* \"#utility.yul\":10306:10313   */\n      dup5\n        /* \"#utility.yul\":10297:10303   */\n      dup3\n        /* \"#utility.yul\":10286:10295   */\n      dup6\n        /* \"#utility.yul\":10282:10304   */\n      add\n        /* \"#utility.yul\":10250:10314   */\n      tag_111\n      jump\t// in\n    tag_219:\n        /* \"#utility.yul\":10240:10314   */\n      swap2\n      pop\n        /* \"#utility.yul\":10196:10324   */\n      pop\n        /* \"#utility.yul\":9980:10331   */\n      swap3\n      swap2\n      pop\n      pop\n      jump\t// out\n        /* \"#utility.yul\":10337:10559   */\n    tag_112:\n        /* \"#utility.yul\":10477:10511   */\n      0x54686973207573657220697320616c7265616479206e6f742072656769737465\n        /* \"#utility.yul\":10473:10474   */\n      0x00\n        /* \"#utility.yul\":10465:10471   */\n      dup3\n        /* \"#utility.yul\":10461:10475   */\n      add\n        /* \"#utility.yul\":10454:10512   */\n      mstore\n        /* \"#utility.yul\":10546:10551   */\n      0x7265640000000000000000000000000000000000000000000000000000000000\n        /* \"#utility.yul\":10541:10543   */\n      0x20\n        /* \"#utility.yul\":10533:10539   */\n      dup3\n        /* \"#utility.yul\":10529:10544   */\n      add\n        /* \"#utility.yul\":10522:10552   */\n      mstore\n        /* \"#utility.yul\":10337:10559   */\n      pop\n      jump\t// out\n        /* \"#utility.yul\":10565:10931   */\n    tag_113:\n        /* \"#utility.yul\":10707:10710   */\n      0x00\n        /* \"#utility.yul\":10728:10795   */\n      tag_222\n        /* \"#utility.yul\":10792:10794   */\n      0x23\n        /* \"#utility.yul\":10787:10790   */\n      dup4\n        /* \"#utility.yul\":10728:10795   */\n      tag_100\n      jump\t// in\n    tag_222:\n        /* \"#utility.yul\":10721:10795   */\n      swap2\n      pop\n        /* \"#utility.yul\":10804:10897   */\n      tag_223\n        /* \"#utility.yul\":10893:10896   */\n      dup3\n        /* \"#utility.yul\":10804:10897   */\n      tag_112\n      jump\t// in\n    tag_223:\n        /* \"#utility.yul\":10922:10924   */\n      0x40\n        /* \"#utility.yul\":10917:10920   */\n      dup3\n        /* \"#utility.yul\":10913:10925   */\n      add\n        /* \"#utility.yul\":10906:10925   */\n      swap1\n      pop\n        /* \"#utility.yul\":10565:10931   */\n      swap2\n      swap1\n      pop\n      jump\t// out\n        /* \"#utility.yul\":10937:11356   */\n    tag_64:\n        /* \"#utility.yul\":11103:11107   */\n      0x00\n        /* \"#utility.yul\":11141:11143   */\n      0x20\n        /* \"#utility.yul\":11130:11139   */\n      dup3\n        /* \"#utility.yul\":11126:11144   */\n      add\n        /* \"#utility.yul\":11118:11144   */\n      swap1\n      pop\n        /* \"#utility.yul\":11190:11199   */\n      dup2\n        /* \"#utility.yul\":11184:11188   */\n      dup2\n        /* \"#utility.yul\":11180:11200   */\n      sub\n        /* \"#utility.yul\":11176:11177   */\n      0x00\n        /* \"#utility.yul\":11165:11174   */\n      dup4\n        /* \"#utility.yul\":11161:11178   */\n      add\n        /* \"#utility.yul\":11154:11201   */\n      mstore\n        /* \"#utility.yul\":11218:11349   */\n      tag_225\n        /* \"#utility.yul\":11344:11348   */\n      dup2\n        /* \"#utility.yul\":11218:11349   */\n      tag_113\n      jump\t// in\n    tag_225:\n        /* \"#utility.yul\":11210:11349   */\n      swap1\n      pop\n        /* \"#utility.yul\":10937:11356   */\n      swap2\n      swap1\n      pop\n      jump\t// out\n        /* \"#utility.yul\":11362:11582   */\n    tag_114:\n        /* \"#utility.yul\":11502:11536   */\n      0x54686973206f7261636c6520697320616c726561647920726567697374657265\n        /* \"#utility.yul\":11498:11499   */\n      0x00\n        /* \"#utility.yul\":11490:11496   */\n      dup3\n        /* \"#utility.yul\":11486:11500   */\n      add\n        /* \"#utility.yul\":11479:11537   */\n      mstore\n        /* \"#utility.yul\":11571:11574   */\n      0x6400000000000000000000000000000000000000000000000000000000000000\n        /* \"#utility.yul\":11566:11568   */\n      0x20\n        /* \"#utility.yul\":11558:11564   */\n      dup3\n        /* \"#utility.yul\":11554:11569   */\n      add\n        /* \"#utility.yul\":11547:11575   */\n      mstore\n        /* \"#utility.yul\":11362:11582   */\n      pop\n      jump\t// out\n        /* \"#utility.yul\":11588:11954   */\n    tag_115:\n        /* \"#utility.yul\":11730:11733   */\n      0x00\n        /* \"#utility.yul\":11751:11818   */\n      tag_228\n        /* \"#utility.yul\":11815:11817   */\n      0x21\n        /* \"#utility.yul\":11810:11813   */\n      dup4\n        /* \"#utility.yul\":11751:11818   */\n      tag_100\n      jump\t// in\n    tag_228:\n        /* \"#utility.yul\":11744:11818   */\n      swap2\n      pop\n        /* \"#utility.yul\":11827:11920   */\n      tag_229\n        /* \"#utility.yul\":11916:11919   */\n      dup3\n        /* \"#utility.yul\":11827:11920   */\n      tag_114\n      jump\t// in\n    tag_229:\n        /* \"#utility.yul\":11945:11947   */\n      0x40\n        /* \"#utility.yul\":11940:11943   */\n      dup3\n        /* \"#utility.yul\":11936:11948   */\n      add\n        /* \"#utility.yul\":11929:11948   */\n      swap1\n      pop\n        /* \"#utility.yul\":11588:11954   */\n      swap2\n      swap1\n      pop\n      jump\t// out\n        /* \"#utility.yul\":11960:12379   */\n    tag_75:\n        /* \"#utility.yul\":12126:12130   */\n      0x00\n        /* \"#utility.yul\":12164:12166   */\n      0x20\n        /* \"#utility.yul\":12153:12162   */\n      dup3\n        /* \"#utility.yul\":12149:12167   */\n      add\n        /* \"#utility.yul\":12141:12167   */\n      swap1\n      pop\n        /* \"#utility.yul\":12213:12222   */\n      dup2\n        /* \"#utility.yul\":12207:12211   */\n      dup2\n        /* \"#utility.yul\":12203:12223   */\n      sub\n        /* \"#utility.yul\":12199:12200   */\n      0x00\n        /* \"#utility.yul\":12188:12197   */\n      dup4\n        /* \"#utility.yul\":12184:12201   */\n      add\n        /* \"#utility.yul\":12177:12224   */\n      mstore\n        /* \"#utility.yul\":12241:12372   */\n      tag_231\n        /* \"#utility.yul\":12367:12371   */\n      dup2\n        /* \"#utility.yul\":12241:12372   */\n      tag_115\n      jump\t// in\n    tag_231:\n        /* \"#utility.yul\":12233:12372   */\n      swap1\n      pop\n        /* \"#utility.yul\":11960:12379   */\n      swap2\n      swap1\n      pop\n      jump\t// out\n\n    auxdata: 0xa26469706673582212200966493d16f3820fda419f71d567c6c02678e6027bce275e92dc58bf894c860b64736f6c63430008170033\n}\n",
				"bytecode": {
					"linkReferences": {},
					"object": "608060405234801562000010575f80fd5b506040516200124338038062001243833981810160405281019062000036919062000164565b3360015f6101000a81548173ffffffffffffffffffffffffffffffffffffffff021916908373ffffffffffffffffffffffffffffffffffffffff160217905550805f806101000a81548173ffffffffffffffffffffffffffffffffffffffff021916908373ffffffffffffffffffffffffffffffffffffffff1602179055503373ffffffffffffffffffffffffffffffffffffffff167f969b0c69f5a0d99687626982003848a33e2867f8e326931493012c9dd0e9ceca60405160405180910390a25062000194565b5f80fd5b5f73ffffffffffffffffffffffffffffffffffffffff82169050919050565b5f6200012e8262000103565b9050919050565b620001408162000122565b81146200014b575f80fd5b50565b5f815190506200015e8162000135565b92915050565b5f602082840312156200017c576200017b620000ff565b5b5f6200018b848285016200014e565b91505092915050565b6110a180620001a25f395ff3fe608060405234801561000f575f80fd5b506004361061007b575f3560e01c8063d7149fcf11610059578063d7149fcf146100e7578063dd8fee1414610117578063f26bcf5d14610135578063fd13164d146101655761007b565b80630ea126f91461007f57806321f2ca3b1461009b578063a15cd398146100b7575b5f80fd5b61009960048036038101906100949190610b97565b610181565b005b6100b560048036038101906100b09190610bf1565b6104b1565b005b6100d160048036038101906100cc9190610bf1565b610739565b6040516100de9190610c34565b60405180910390f35b61010160048036038101906100fc9190610bf1565b61074e565b60405161010e9190610c67565b60405180910390f35b61011f61076b565b60405161012c9190610c8f565b60405180910390f35b61014f600480360381019061014a9190610bf1565b610790565b60405161015c9190610c67565b60405180910390f35b61017f600480360381019061017a9190610bf1565b6107ad565b005b3373ffffffffffffffffffffffffffffffffffffffff1660015f9054906101000a900473ffffffffffffffffffffffffffffffffffffffff1673ffffffffffffffffffffffffffffffffffffffff1614610210576040517f08c379a000000000000000000000000000000000000000000000000000000000815260040161020790610d28565b60405180910390fd5b60025f8373ffffffffffffffffffffffffffffffffffffffff1673ffffffffffffffffffffffffffffffffffffffff1681526020019081526020015f205f9054906101000a900460ff161561029a576040517f08c379a000000000000000000000000000000000000000000000000000000000815260040161029190610db6565b60405180910390fd5b60015f9054906101000a900473ffffffffffffffffffffffffffffffffffffffff1673ffffffffffffffffffffffffffffffffffffffff168273ffffffffffffffffffffffffffffffffffffffff1603610329576040517f08c379a000000000000000000000000000000000000000000000000000000000815260040161032090610e44565b60405180910390fd5b600160025f8473ffffffffffffffffffffffffffffffffffffffff1673ffffffffffffffffffffffffffffffffffffffff1681526020019081526020015f205f6101000a81548160ff0219169083151502179055505f805f9054906101000a900473ffffffffffffffffffffffffffffffffffffffff1673ffffffffffffffffffffffffffffffffffffffff16631c351a9d83856040518363ffffffff1660e01b81526004016103da929190610ecc565b6020604051808303815f875af11580156103f6573d5f803e3d5ffd5b505050506040513d601f19601f8201168201806040525081019061041a9190610f24565b90508060045f8573ffffffffffffffffffffffffffffffffffffffff1673ffffffffffffffffffffffffffffffffffffffff1681526020019081526020015f20819055508273ffffffffffffffffffffffffffffffffffffffff167fe29d35093005f4d575e1003753426b57a7f64378ba73332eef9c6ccc2b8decd6826040516104a49190610c34565b60405180910390a2505050565b3373ffffffffffffffffffffffffffffffffffffffff1660015f9054906101000a900473ffffffffffffffffffffffffffffffffffffffff1673ffffffffffffffffffffffffffffffffffffffff1614610540576040517f08c379a000000000000000000000000000000000000000000000000000000000815260040161053790610d28565b60405180910390fd5b60025f8273ffffffffffffffffffffffffffffffffffffffff1673ffffffffffffffffffffffffffffffffffffffff1681526020019081526020015f205f9054906101000a900460ff166105c9576040517f08c379a00000000000000000000000000000000000000000000000000000000081526004016105c090610fbf565b60405180910390fd5b5f60025f8373ffffffffffffffffffffffffffffffffffffffff1673ffffffffffffffffffffffffffffffffffffffff1681526020019081526020015f205f6101000a81548160ff0219169083151502179055505f8054906101000a900473ffffffffffffffffffffffffffffffffffffffff1673ffffffffffffffffffffffffffffffffffffffff166342966c6860045f8473ffffffffffffffffffffffffffffffffffffffff1673ffffffffffffffffffffffffffffffffffffffff1681526020019081526020015f20546040518263ffffffff1660e01b81526004016106b29190610c34565b6020604051808303815f875af11580156106ce573d5f803e3d5ffd5b505050506040513d601f19601f820116820180604052508101906106f29190610f24565b508073ffffffffffffffffffffffffffffffffffffffff167fa67e8fc9feb08a02091823b4fbe665462e2e0e787b747dddd2a680d5d6df207a60405160405180910390a250565b6004602052805f5260405f205f915090505481565b6002602052805f5260405f205f915054906101000a900460ff1681565b60015f9054906101000a900473ffffffffffffffffffffffffffffffffffffffff1681565b6003602052805f5260405f205f915054906101000a900460ff1681565b3373ffffffffffffffffffffffffffffffffffffffff1660015f9054906101000a900473ffffffffffffffffffffffffffffffffffffffff1673ffffffffffffffffffffffffffffffffffffffff161461083c576040517f08c379a000000000000000000000000000000000000000000000000000000000815260040161083390610d28565b60405180910390fd5b60035f8273ffffffffffffffffffffffffffffffffffffffff1673ffffffffffffffffffffffffffffffffffffffff1681526020019081526020015f205f9054906101000a900460ff16156108c6576040517f08c379a00000000000000000000000000000000000000000000000000000000081526004016108bd9061104d565b60405180910390fd5b60015f9054906101000a900473ffffffffffffffffffffffffffffffffffffffff1673ffffffffffffffffffffffffffffffffffffffff168173ffffffffffffffffffffffffffffffffffffffff1603610955576040517f08c379a000000000000000000000000000000000000000000000000000000000815260040161094c90610e44565b60405180910390fd5b600160035f8373ffffffffffffffffffffffffffffffffffffffff1673ffffffffffffffffffffffffffffffffffffffff1681526020019081526020015f205f6101000a81548160ff0219169083151502179055508073ffffffffffffffffffffffffffffffffffffffff167f08e45bbe54ca47b241ce1773230bf52bc4727430e10ab655aea5d7e9d69e4ca960405160405180910390a250565b5f604051905090565b5f80fd5b5f80fd5b5f73ffffffffffffffffffffffffffffffffffffffff82169050919050565b5f610a2a82610a01565b9050919050565b610a3a81610a20565b8114610a44575f80fd5b50565b5f81359050610a5581610a31565b92915050565b5f80fd5b5f80fd5b5f601f19601f8301169050919050565b7f4e487b71000000000000000000000000000000000000000000000000000000005f52604160045260245ffd5b610aa982610a63565b810181811067ffffffffffffffff82111715610ac857610ac7610a73565b5b80604052505050565b5f610ada6109f0565b9050610ae68282610aa0565b919050565b5f67ffffffffffffffff821115610b0557610b04610a73565b5b610b0e82610a63565b9050602081019050919050565b828183375f83830152505050565b5f610b3b610b3684610aeb565b610ad1565b905082815260208101848484011115610b5757610b56610a5f565b5b610b62848285610b1b565b509392505050565b5f82601f830112610b7e57610b7d610a5b565b5b8135610b8e848260208601610b29565b91505092915050565b5f8060408385031215610bad57610bac6109f9565b5b5f610bba85828601610a47565b925050602083013567ffffffffffffffff811115610bdb57610bda6109fd565b5b610be785828601610b6a565b9150509250929050565b5f60208284031215610c0657610c056109f9565b5b5f610c1384828501610a47565b91505092915050565b5f819050919050565b610c2e81610c1c565b82525050565b5f602082019050610c475f830184610c25565b92915050565b5f8115159050919050565b610c6181610c4d565b82525050565b5f602082019050610c7a5f830184610c58565b92915050565b610c8981610a20565b82525050565b5f602082019050610ca25f830184610c80565b92915050565b5f82825260208201905092915050565b7f4f6e6c792074686520726567756c61746f722063616e2072756e2074686973205f8201527f66756e6374696f6e000000000000000000000000000000000000000000000000602082015250565b5f610d12602883610ca8565b9150610d1d82610cb8565b604082019050919050565b5f6020820190508181035f830152610d3f81610d06565b9050919050565b7f5468697320757365722068617320616c7265616479206265656e2072656769735f8201527f7465726564000000000000000000000000000000000000000000000000000000602082015250565b5f610da0602583610ca8565b9150610dab82610d46565b604082019050919050565b5f6020820190508181035f830152610dcd81610d94565b9050919050565b7f54686520726f6c65206f662074686520726567756c61746f722063616e6e6f745f8201527f206265206368616e676564000000000000000000000000000000000000000000602082015250565b5f610e2e602b83610ca8565b9150610e3982610dd4565b604082019050919050565b5f6020820190508181035f830152610e5b81610e22565b9050919050565b5f81519050919050565b5f5b83811015610e89578082015181840152602081019050610e6e565b5f8484015250505050565b5f610e9e82610e62565b610ea88185610ca8565b9350610eb8818560208601610e6c565b610ec181610a63565b840191505092915050565b5f6040820190508181035f830152610ee48185610e94565b9050610ef36020830184610c80565b9392505050565b610f0381610c1c565b8114610f0d575f80fd5b50565b5f81519050610f1e81610efa565b92915050565b5f60208284031215610f3957610f386109f9565b5b5f610f4684828501610f10565b91505092915050565b7f54686973207573657220697320616c7265616479206e6f7420726567697374655f8201527f7265640000000000000000000000000000000000000000000000000000000000602082015250565b5f610fa9602383610ca8565b9150610fb482610f4f565b604082019050919050565b5f6020820190508181035f830152610fd681610f9d565b9050919050565b7f54686973206f7261636c6520697320616c7265616479207265676973746572655f8201527f6400000000000000000000000000000000000000000000000000000000000000602082015250565b5f611037602183610ca8565b915061104282610fdd565b604082019050919050565b5f6020820190508181035f8301526110648161102b565b905091905056fea26469706673582212200966493d16f3820fda419f71d567c6c02678e6027bce275e92dc58bf894c860b64736f6c63430008170033",
					"opcodes": "PUSH1 0x80 PUSH1 0x40 MSTORE CALLVALUE DUP1 ISZERO PUSH3 0x10 JUMPI PUSH0 DUP1 REVERT JUMPDEST POP PUSH1 0x40 MLOAD PUSH3 0x1243 CODESIZE SUB DUP1 PUSH3 0x1243 DUP4 CODECOPY DUP2 DUP2 ADD PUSH1 0x40 MSTORE DUP2 ADD SWAP1 PUSH3 0x36 SWAP2 SWAP1 PUSH3 0x164 JUMP JUMPDEST CALLER PUSH1 0x1 PUSH0 PUSH2 0x100 EXP DUP2 SLOAD DUP2 PUSH20 0xFFFFFFFFFFFFFFFFFFFFFFFFFFFFFFFFFFFFFFFF MUL NOT AND SWAP1 DUP4 PUSH20 0xFFFFFFFFFFFFFFFFFFFFFFFFFFFFFFFFFFFFFFFF AND MUL OR SWAP1 SSTORE POP DUP1 PUSH0 DUP1 PUSH2 0x100 EXP DUP2 SLOAD DUP2 PUSH20 0xFFFFFFFFFFFFFFFFFFFFFFFFFFFFFFFFFFFFFFFF MUL NOT AND SWAP1 DUP4 PUSH20 0xFFFFFFFFFFFFFFFFFFFFFFFFFFFFFFFFFFFFFFFF AND MUL OR SWAP1 SSTORE POP CALLER PUSH20 0xFFFFFFFFFFFFFFFFFFFFFFFFFFFFFFFFFFFFFFFF AND PUSH32 0x969B0C69F5A0D99687626982003848A33E2867F8E326931493012C9DD0E9CECA PUSH1 0x40 MLOAD PUSH1 0x40 MLOAD DUP1 SWAP2 SUB SWAP1 LOG2 POP PUSH3 0x194 JUMP JUMPDEST PUSH0 DUP1 REVERT JUMPDEST PUSH0 PUSH20 0xFFFFFFFFFFFFFFFFFFFFFFFFFFFFFFFFFFFFFFFF DUP3 AND SWAP1 POP SWAP2 SWAP1 POP JUMP JUMPDEST PUSH0 PUSH3 0x12E DUP3 PUSH3 0x103 JUMP JUMPDEST SWAP1 POP SWAP2 SWAP1 POP JUMP JUMPDEST PUSH3 0x140 DUP2 PUSH3 0x122 JUMP JUMPDEST DUP2 EQ PUSH3 0x14B JUMPI PUSH0 DUP1 REVERT JUMPDEST POP JUMP JUMPDEST PUSH0 DUP2 MLOAD SWAP1 POP PUSH3 0x15E DUP2 PUSH3 0x135 JUMP JUMPDEST SWAP3 SWAP2 POP POP JUMP JUMPDEST PUSH0 PUSH1 0x20 DUP3 DUP5 SUB SLT ISZERO PUSH3 0x17C JUMPI PUSH3 0x17B PUSH3 0xFF JUMP JUMPDEST JUMPDEST PUSH0 PUSH3 0x18B DUP5 DUP3 DUP6 ADD PUSH3 0x14E JUMP JUMPDEST SWAP2 POP POP SWAP3 SWAP2 POP POP JUMP JUMPDEST PUSH2 0x10A1 DUP1 PUSH3 0x1A2 PUSH0 CODECOPY PUSH0 RETURN INVALID PUSH1 0x80 PUSH1 0x40 MSTORE CALLVALUE DUP1 ISZERO PUSH2 0xF JUMPI PUSH0 DUP1 REVERT JUMPDEST POP PUSH1 0x4 CALLDATASIZE LT PUSH2 0x7B JUMPI PUSH0 CALLDATALOAD PUSH1 0xE0 SHR DUP1 PUSH4 0xD7149FCF GT PUSH2 0x59 JUMPI DUP1 PUSH4 0xD7149FCF EQ PUSH2 0xE7 JUMPI DUP1 PUSH4 0xDD8FEE14 EQ PUSH2 0x117 JUMPI DUP1 PUSH4 0xF26BCF5D EQ PUSH2 0x135 JUMPI DUP1 PUSH4 0xFD13164D EQ PUSH2 0x165 JUMPI PUSH2 0x7B JUMP JUMPDEST DUP1 PUSH4 0xEA126F9 EQ PUSH2 0x7F JUMPI DUP1 PUSH4 0x21F2CA3B EQ PUSH2 0x9B JUMPI DUP1 PUSH4 0xA15CD398 EQ PUSH2 0xB7 JUMPI JUMPDEST PUSH0 DUP1 REVERT JUMPDEST PUSH2 0x99 PUSH1 0x4 DUP1 CALLDATASIZE SUB DUP2 ADD SWAP1 PUSH2 0x94 SWAP2 SWAP1 PUSH2 0xB97 JUMP JUMPDEST PUSH2 0x181 JUMP JUMPDEST STOP JUMPDEST PUSH2 0xB5 PUSH1 0x4 DUP1 CALLDATASIZE SUB DUP2 ADD SWAP1 PUSH2 0xB0 SWAP2 SWAP1 PUSH2 0xBF1 JUMP JUMPDEST PUSH2 0x4B1 JUMP JUMPDEST STOP JUMPDEST PUSH2 0xD1 PUSH1 0x4 DUP1 CALLDATASIZE SUB DUP2 ADD SWAP1 PUSH2 0xCC SWAP2 SWAP1 PUSH2 0xBF1 JUMP JUMPDEST PUSH2 0x739 JUMP JUMPDEST PUSH1 0x40 MLOAD PUSH2 0xDE SWAP2 SWAP1 PUSH2 0xC34 JUMP JUMPDEST PUSH1 0x40 MLOAD DUP1 SWAP2 SUB SWAP1 RETURN JUMPDEST PUSH2 0x101 PUSH1 0x4 DUP1 CALLDATASIZE SUB DUP2 ADD SWAP1 PUSH2 0xFC SWAP2 SWAP1 PUSH2 0xBF1 JUMP JUMPDEST PUSH2 0x74E JUMP JUMPDEST PUSH1 0x40 MLOAD PUSH2 0x10E SWAP2 SWAP1 PUSH2 0xC67 JUMP JUMPDEST PUSH1 0x40 MLOAD DUP1 SWAP2 SUB SWAP1 RETURN JUMPDEST PUSH2 0x11F PUSH2 0x76B JUMP JUMPDEST PUSH1 0x40 MLOAD PUSH2 0x12C SWAP2 SWAP1 PUSH2 0xC8F JUMP JUMPDEST PUSH1 0x40 MLOAD DUP1 SWAP2 SUB SWAP1 RETURN JUMPDEST PUSH2 0x14F PUSH1 0x4 DUP1 CALLDATASIZE SUB DUP2 ADD SWAP1 PUSH2 0x14A SWAP2 SWAP1 PUSH2 0xBF1 JUMP JUMPDEST PUSH2 0x790 JUMP JUMPDEST PUSH1 0x40 MLOAD PUSH2 0x15C SWAP2 SWAP1 PUSH2 0xC67 JUMP JUMPDEST PUSH1 0x40 MLOAD DUP1 SWAP2 SUB SWAP1 RETURN JUMPDEST PUSH2 0x17F PUSH1 0x4 DUP1 CALLDATASIZE SUB DUP2 ADD SWAP1 PUSH2 0x17A SWAP2 SWAP1 PUSH2 0xBF1 JUMP JUMPDEST PUSH2 0x7AD JUMP JUMPDEST STOP JUMPDEST CALLER PUSH20 0xFFFFFFFFFFFFFFFFFFFFFFFFFFFFFFFFFFFFFFFF AND PUSH1 0x1 PUSH0 SWAP1 SLOAD SWAP1 PUSH2 0x100 EXP SWAP1 DIV PUSH20 0xFFFFFFFFFFFFFFFFFFFFFFFFFFFFFFFFFFFFFFFF AND PUSH20 0xFFFFFFFFFFFFFFFFFFFFFFFFFFFFFFFFFFFFFFFF AND EQ PUSH2 0x210 JUMPI PUSH1 0x40 MLOAD PUSH32 0x8C379A000000000000000000000000000000000000000000000000000000000 DUP2 MSTORE PUSH1 0x4 ADD PUSH2 0x207 SWAP1 PUSH2 0xD28 JUMP JUMPDEST PUSH1 0x40 MLOAD DUP1 SWAP2 SUB SWAP1 REVERT JUMPDEST PUSH1 0x2 PUSH0 DUP4 PUSH20 0xFFFFFFFFFFFFFFFFFFFFFFFFFFFFFFFFFFFFFFFF AND PUSH20 0xFFFFFFFFFFFFFFFFFFFFFFFFFFFFFFFFFFFFFFFF AND DUP2 MSTORE PUSH1 0x20 ADD SWAP1 DUP2 MSTORE PUSH1 0x20 ADD PUSH0 KECCAK256 PUSH0 SWAP1 SLOAD SWAP1 PUSH2 0x100 EXP SWAP1 DIV PUSH1 0xFF AND ISZERO PUSH2 0x29A JUMPI PUSH1 0x40 MLOAD PUSH32 0x8C379A000000000000000000000000000000000000000000000000000000000 DUP2 MSTORE PUSH1 0x4 ADD PUSH2 0x291 SWAP1 PUSH2 0xDB6 JUMP JUMPDEST PUSH1 0x40 MLOAD DUP1 SWAP2 SUB SWAP1 REVERT JUMPDEST PUSH1 0x1 PUSH0 SWAP1 SLOAD SWAP1 PUSH2 0x100 EXP SWAP1 DIV PUSH20 0xFFFFFFFFFFFFFFFFFFFFFFFFFFFFFFFFFFFFFFFF AND PUSH20 0xFFFFFFFFFFFFFFFFFFFFFFFFFFFFFFFFFFFFFFFF AND DUP3 PUSH20 0xFFFFFFFFFFFFFFFFFFFFFFFFFFFFFFFFFFFFFFFF AND SUB PUSH2 0x329 JUMPI PUSH1 0x40 MLOAD PUSH32 0x8C379A000000000000000000000000000000000000000000000000000000000 DUP2 MSTORE PUSH1 0x4 ADD PUSH2 0x320 SWAP1 PUSH2 0xE44 JUMP JUMPDEST PUSH1 0x40 MLOAD DUP1 SWAP2 SUB SWAP1 REVERT JUMPDEST PUSH1 0x1 PUSH1 0x2 PUSH0 DUP5 PUSH20 0xFFFFFFFFFFFFFFFFFFFFFFFFFFFFFFFFFFFFFFFF AND PUSH20 0xFFFFFFFFFFFFFFFFFFFFFFFFFFFFFFFFFFFFFFFF AND DUP2 MSTORE PUSH1 0x20 ADD SWAP1 DUP2 MSTORE PUSH1 0x20 ADD PUSH0 KECCAK256 PUSH0 PUSH2 0x100 EXP DUP2 SLOAD DUP2 PUSH1 0xFF MUL NOT AND SWAP1 DUP4 ISZERO ISZERO MUL OR SWAP1 SSTORE POP PUSH0 DUP1 PUSH0 SWAP1 SLOAD SWAP1 PUSH2 0x100 EXP SWAP1 DIV PUSH20 0xFFFFFFFFFFFFFFFFFFFFFFFFFFFFFFFFFFFFFFFF AND PUSH20 0xFFFFFFFFFFFFFFFFFFFFFFFFFFFFFFFFFFFFFFFF AND PUSH4 0x1C351A9D DUP4 DUP6 PUSH1 0x40 MLOAD DUP4 PUSH4 0xFFFFFFFF AND PUSH1 0xE0 SHL DUP2 MSTORE PUSH1 0x4 ADD PUSH2 0x3DA SWAP3 SWAP2 SWAP1 PUSH2 0xECC JUMP JUMPDEST PUSH1 0x20 PUSH1 0x40 MLOAD DUP1 DUP4 SUB DUP2 PUSH0 DUP8 GAS CALL ISZERO DUP1 ISZERO PUSH2 0x3F6 JUMPI RETURNDATASIZE PUSH0 DUP1 RETURNDATACOPY RETURNDATASIZE PUSH0 REVERT JUMPDEST POP POP POP POP PUSH1 0x40 MLOAD RETURNDATASIZE PUSH1 0x1F NOT PUSH1 0x1F DUP3 ADD AND DUP3 ADD DUP1 PUSH1 0x40 MSTORE POP DUP2 ADD SWAP1 PUSH2 0x41A SWAP2 SWAP1 PUSH2 0xF24 JUMP JUMPDEST SWAP1 POP DUP1 PUSH1 0x4 PUSH0 DUP6 PUSH20 0xFFFFFFFFFFFFFFFFFFFFFFFFFFFFFFFFFFFFFFFF AND PUSH20 0xFFFFFFFFFFFFFFFFFFFFFFFFFFFFFFFFFFFFFFFF AND DUP2 MSTORE PUSH1 0x20 ADD SWAP1 DUP2 MSTORE PUSH1 0x20 ADD PUSH0 KECCAK256 DUP2 SWAP1 SSTORE POP DUP3 PUSH20 0xFFFFFFFFFFFFFFFFFFFFFFFFFFFFFFFFFFFFFFFF AND PUSH32 0xE29D35093005F4D575E1003753426B57A7F64378BA73332EEF9C6CCC2B8DECD6 DUP3 PUSH1 0x40 MLOAD PUSH2 0x4A4 SWAP2 SWAP1 PUSH2 0xC34 JUMP JUMPDEST PUSH1 0x40 MLOAD DUP1 SWAP2 SUB SWAP1 LOG2 POP POP POP JUMP JUMPDEST CALLER PUSH20 0xFFFFFFFFFFFFFFFFFFFFFFFFFFFFFFFFFFFFFFFF AND PUSH1 0x1 PUSH0 SWAP1 SLOAD SWAP1 PUSH2 0x100 EXP SWAP1 DIV PUSH20 0xFFFFFFFFFFFFFFFFFFFFFFFFFFFFFFFFFFFFFFFF AND PUSH20 0xFFFFFFFFFFFFFFFFFFFFFFFFFFFFFFFFFFFFFFFF AND EQ PUSH2 0x540 JUMPI PUSH1 0x40 MLOAD PUSH32 0x8C379A000000000000000000000000000000000000000000000000000000000 DUP2 MSTORE PUSH1 0x4 ADD PUSH2 0x537 SWAP1 PUSH2 0xD28 JUMP JUMPDEST PUSH1 0x40 MLOAD DUP1 SWAP2 SUB SWAP1 REVERT JUMPDEST PUSH1 0x2 PUSH0 DUP3 PUSH20 0xFFFFFFFFFFFFFFFFFFFFFFFFFFFFFFFFFFFFFFFF AND PUSH20 0xFFFFFFFFFFFFFFFFFFFFFFFFFFFFFFFFFFFFFFFF AND DUP2 MSTORE PUSH1 0x20 ADD SWAP1 DUP2 MSTORE PUSH1 0x20 ADD PUSH0 KECCAK256 PUSH0 SWAP1 SLOAD SWAP1 PUSH2 0x100 EXP SWAP1 DIV PUSH1 0xFF AND PUSH2 0x5C9 JUMPI PUSH1 0x40 MLOAD PUSH32 0x8C379A000000000000000000000000000000000000000000000000000000000 DUP2 MSTORE PUSH1 0x4 ADD PUSH2 0x5C0 SWAP1 PUSH2 0xFBF JUMP JUMPDEST PUSH1 0x40 MLOAD DUP1 SWAP2 SUB SWAP1 REVERT JUMPDEST PUSH0 PUSH1 0x2 PUSH0 DUP4 PUSH20 0xFFFFFFFFFFFFFFFFFFFFFFFFFFFFFFFFFFFFFFFF AND PUSH20 0xFFFFFFFFFFFFFFFFFFFFFFFFFFFFFFFFFFFFFFFF AND DUP2 MSTORE PUSH1 0x20 ADD SWAP1 DUP2 MSTORE PUSH1 0x20 ADD PUSH0 KECCAK256 PUSH0 PUSH2 0x100 EXP DUP2 SLOAD DUP2 PUSH1 0xFF MUL NOT AND SWAP1 DUP4 ISZERO ISZERO MUL OR SWAP1 SSTORE POP PUSH0 DUP1 SLOAD SWAP1 PUSH2 0x100 EXP SWAP1 DIV PUSH20 0xFFFFFFFFFFFFFFFFFFFFFFFFFFFFFFFFFFFFFFFF AND PUSH20 0xFFFFFFFFFFFFFFFFFFFFFFFFFFFFFFFFFFFFFFFF AND PUSH4 0x42966C68 PUSH1 0x4 PUSH0 DUP5 PUSH20 0xFFFFFFFFFFFFFFFFFFFFFFFFFFFFFFFFFFFFFFFF AND PUSH20 0xFFFFFFFFFFFFFFFFFFFFFFFFFFFFFFFFFFFFFFFF AND DUP2 MSTORE PUSH1 0x20 ADD SWAP1 DUP2 MSTORE PUSH1 0x20 ADD PUSH0 KECCAK256 SLOAD PUSH1 0x40 MLOAD DUP3 PUSH4 0xFFFFFFFF AND PUSH1 0xE0 SHL DUP2 MSTORE PUSH1 0x4 ADD PUSH2 0x6B2 SWAP2 SWAP1 PUSH2 0xC34 JUMP JUMPDEST PUSH1 0x20 PUSH1 0x40 MLOAD DUP1 DUP4 SUB DUP2 PUSH0 DUP8 GAS CALL ISZERO DUP1 ISZERO PUSH2 0x6CE JUMPI RETURNDATASIZE PUSH0 DUP1 RETURNDATACOPY RETURNDATASIZE PUSH0 REVERT JUMPDEST POP POP POP POP PUSH1 0x40 MLOAD RETURNDATASIZE PUSH1 0x1F NOT PUSH1 0x1F DUP3 ADD AND DUP3 ADD DUP1 PUSH1 0x40 MSTORE POP DUP2 ADD SWAP1 PUSH2 0x6F2 SWAP2 SWAP1 PUSH2 0xF24 JUMP JUMPDEST POP DUP1 PUSH20 0xFFFFFFFFFFFFFFFFFFFFFFFFFFFFFFFFFFFFFFFF AND PUSH32 0xA67E8FC9FEB08A02091823B4FBE665462E2E0E787B747DDDD2A680D5D6DF207A PUSH1 0x40 MLOAD PUSH1 0x40 MLOAD DUP1 SWAP2 SUB SWAP1 LOG2 POP JUMP JUMPDEST PUSH1 0x4 PUSH1 0x20 MSTORE DUP1 PUSH0 MSTORE PUSH1 0x40 PUSH0 KECCAK256 PUSH0 SWAP2 POP SWAP1 POP SLOAD DUP2 JUMP JUMPDEST PUSH1 0x2 PUSH1 0x20 MSTORE DUP1 PUSH0 MSTORE PUSH1 0x40 PUSH0 KECCAK256 PUSH0 SWAP2 POP SLOAD SWAP1 PUSH2 0x100 EXP SWAP1 DIV PUSH1 0xFF AND DUP2 JUMP JUMPDEST PUSH1 0x1 PUSH0 SWAP1 SLOAD SWAP1 PUSH2 0x100 EXP SWAP1 DIV PUSH20 0xFFFFFFFFFFFFFFFFFFFFFFFFFFFFFFFFFFFFFFFF AND DUP2 JUMP JUMPDEST PUSH1 0x3 PUSH1 0x20 MSTORE DUP1 PUSH0 MSTORE PUSH1 0x40 PUSH0 KECCAK256 PUSH0 SWAP2 POP SLOAD SWAP1 PUSH2 0x100 EXP SWAP1 DIV PUSH1 0xFF AND DUP2 JUMP JUMPDEST CALLER PUSH20 0xFFFFFFFFFFFFFFFFFFFFFFFFFFFFFFFFFFFFFFFF AND PUSH1 0x1 PUSH0 SWAP1 SLOAD SWAP1 PUSH2 0x100 EXP SWAP1 DIV PUSH20 0xFFFFFFFFFFFFFFFFFFFFFFFFFFFFFFFFFFFFFFFF AND PUSH20 0xFFFFFFFFFFFFFFFFFFFFFFFFFFFFFFFFFFFFFFFF AND EQ PUSH2 0x83C JUMPI PUSH1 0x40 MLOAD PUSH32 0x8C379A000000000000000000000000000000000000000000000000000000000 DUP2 MSTORE PUSH1 0x4 ADD PUSH2 0x833 SWAP1 PUSH2 0xD28 JUMP JUMPDEST PUSH1 0x40 MLOAD DUP1 SWAP2 SUB SWAP1 REVERT JUMPDEST PUSH1 0x3 PUSH0 DUP3 PUSH20 0xFFFFFFFFFFFFFFFFFFFFFFFFFFFFFFFFFFFFFFFF AND PUSH20 0xFFFFFFFFFFFFFFFFFFFFFFFFFFFFFFFFFFFFFFFF AND DUP2 MSTORE PUSH1 0x20 ADD SWAP1 DUP2 MSTORE PUSH1 0x20 ADD PUSH0 KECCAK256 PUSH0 SWAP1 SLOAD SWAP1 PUSH2 0x100 EXP SWAP1 DIV PUSH1 0xFF AND ISZERO PUSH2 0x8C6 JUMPI PUSH1 0x40 MLOAD PUSH32 0x8C379A000000000000000000000000000000000000000000000000000000000 DUP2 MSTORE PUSH1 0x4 ADD PUSH2 0x8BD SWAP1 PUSH2 0x104D JUMP JUMPDEST PUSH1 0x40 MLOAD DUP1 SWAP2 SUB SWAP1 REVERT JUMPDEST PUSH1 0x1 PUSH0 SWAP1 SLOAD SWAP1 PUSH2 0x100 EXP SWAP1 DIV PUSH20 0xFFFFFFFFFFFFFFFFFFFFFFFFFFFFFFFFFFFFFFFF AND PUSH20 0xFFFFFFFFFFFFFFFFFFFFFFFFFFFFFFFFFFFFFFFF AND DUP2 PUSH20 0xFFFFFFFFFFFFFFFFFFFFFFFFFFFFFFFFFFFFFFFF AND SUB PUSH2 0x955 JUMPI PUSH1 0x40 MLOAD PUSH32 0x8C379A000000000000000000000000000000000000000000000000000000000 DUP2 MSTORE PUSH1 0x4 ADD PUSH2 0x94C SWAP1 PUSH2 0xE44 JUMP JUMPDEST PUSH1 0x40 MLOAD DUP1 SWAP2 SUB SWAP1 REVERT JUMPDEST PUSH1 0x1 PUSH1 0x3 PUSH0 DUP4 PUSH20 0xFFFFFFFFFFFFFFFFFFFFFFFFFFFFFFFFFFFFFFFF AND PUSH20 0xFFFFFFFFFFFFFFFFFFFFFFFFFFFFFFFFFFFFFFFF AND DUP2 MSTORE PUSH1 0x20 ADD SWAP1 DUP2 MSTORE PUSH1 0x20 ADD PUSH0 KECCAK256 PUSH0 PUSH2 0x100 EXP DUP2 SLOAD DUP2 PUSH1 0xFF MUL NOT AND SWAP1 DUP4 ISZERO ISZERO MUL OR SWAP1 SSTORE POP DUP1 PUSH20 0xFFFFFFFFFFFFFFFFFFFFFFFFFFFFFFFFFFFFFFFF AND PUSH32 0x8E45BBE54CA47B241CE1773230BF52BC4727430E10AB655AEA5D7E9D69E4CA9 PUSH1 0x40 MLOAD PUSH1 0x40 MLOAD DUP1 SWAP2 SUB SWAP1 LOG2 POP JUMP JUMPDEST PUSH0 PUSH1 0x40 MLOAD SWAP1 POP SWAP1 JUMP JUMPDEST PUSH0 DUP1 REVERT JUMPDEST PUSH0 DUP1 REVERT JUMPDEST PUSH0 PUSH20 0xFFFFFFFFFFFFFFFFFFFFFFFFFFFFFFFFFFFFFFFF DUP3 AND SWAP1 POP SWAP2 SWAP1 POP JUMP JUMPDEST PUSH0 PUSH2 0xA2A DUP3 PUSH2 0xA01 JUMP JUMPDEST SWAP1 POP SWAP2 SWAP1 POP JUMP JUMPDEST PUSH2 0xA3A DUP2 PUSH2 0xA20 JUMP JUMPDEST DUP2 EQ PUSH2 0xA44 JUMPI PUSH0 DUP1 REVERT JUMPDEST POP JUMP JUMPDEST PUSH0 DUP2 CALLDATALOAD SWAP1 POP PUSH2 0xA55 DUP2 PUSH2 0xA31 JUMP JUMPDEST SWAP3 SWAP2 POP POP JUMP JUMPDEST PUSH0 DUP1 REVERT JUMPDEST PUSH0 DUP1 REVERT JUMPDEST PUSH0 PUSH1 0x1F NOT PUSH1 0x1F DUP4 ADD AND SWAP1 POP SWAP2 SWAP1 POP JUMP JUMPDEST PUSH32 0x4E487B7100000000000000000000000000000000000000000000000000000000 PUSH0 MSTORE PUSH1 0x41 PUSH1 0x4 MSTORE PUSH1 0x24 PUSH0 REVERT JUMPDEST PUSH2 0xAA9 DUP3 PUSH2 0xA63 JUMP JUMPDEST DUP2 ADD DUP2 DUP2 LT PUSH8 0xFFFFFFFFFFFFFFFF DUP3 GT OR ISZERO PUSH2 0xAC8 JUMPI PUSH2 0xAC7 PUSH2 0xA73 JUMP JUMPDEST JUMPDEST DUP1 PUSH1 0x40 MSTORE POP POP POP JUMP JUMPDEST PUSH0 PUSH2 0xADA PUSH2 0x9F0 JUMP JUMPDEST SWAP1 POP PUSH2 0xAE6 DUP3 DUP3 PUSH2 0xAA0 JUMP JUMPDEST SWAP2 SWAP1 POP JUMP JUMPDEST PUSH0 PUSH8 0xFFFFFFFFFFFFFFFF DUP3 GT ISZERO PUSH2 0xB05 JUMPI PUSH2 0xB04 PUSH2 0xA73 JUMP JUMPDEST JUMPDEST PUSH2 0xB0E DUP3 PUSH2 0xA63 JUMP JUMPDEST SWAP1 POP PUSH1 0x20 DUP2 ADD SWAP1 POP SWAP2 SWAP1 POP JUMP JUMPDEST DUP3 DUP2 DUP4 CALLDATACOPY PUSH0 DUP4 DUP4 ADD MSTORE POP POP POP JUMP JUMPDEST PUSH0 PUSH2 0xB3B PUSH2 0xB36 DUP5 PUSH2 0xAEB JUMP JUMPDEST PUSH2 0xAD1 JUMP JUMPDEST SWAP1 POP DUP3 DUP2 MSTORE PUSH1 0x20 DUP2 ADD DUP5 DUP5 DUP5 ADD GT ISZERO PUSH2 0xB57 JUMPI PUSH2 0xB56 PUSH2 0xA5F JUMP JUMPDEST JUMPDEST PUSH2 0xB62 DUP5 DUP3 DUP6 PUSH2 0xB1B JUMP JUMPDEST POP SWAP4 SWAP3 POP POP POP JUMP JUMPDEST PUSH0 DUP3 PUSH1 0x1F DUP4 ADD SLT PUSH2 0xB7E JUMPI PUSH2 0xB7D PUSH2 0xA5B JUMP JUMPDEST JUMPDEST DUP2 CALLDATALOAD PUSH2 0xB8E DUP5 DUP3 PUSH1 0x20 DUP7 ADD PUSH2 0xB29 JUMP JUMPDEST SWAP2 POP POP SWAP3 SWAP2 POP POP JUMP JUMPDEST PUSH0 DUP1 PUSH1 0x40 DUP4 DUP6 SUB SLT ISZERO PUSH2 0xBAD JUMPI PUSH2 0xBAC PUSH2 0x9F9 JUMP JUMPDEST JUMPDEST PUSH0 PUSH2 0xBBA DUP6 DUP3 DUP7 ADD PUSH2 0xA47 JUMP JUMPDEST SWAP3 POP POP PUSH1 0x20 DUP4 ADD CALLDATALOAD PUSH8 0xFFFFFFFFFFFFFFFF DUP2 GT ISZERO PUSH2 0xBDB JUMPI PUSH2 0xBDA PUSH2 0x9FD JUMP JUMPDEST JUMPDEST PUSH2 0xBE7 DUP6 DUP3 DUP7 ADD PUSH2 0xB6A JUMP JUMPDEST SWAP2 POP POP SWAP3 POP SWAP3 SWAP1 POP JUMP JUMPDEST PUSH0 PUSH1 0x20 DUP3 DUP5 SUB SLT ISZERO PUSH2 0xC06 JUMPI PUSH2 0xC05 PUSH2 0x9F9 JUMP JUMPDEST JUMPDEST PUSH0 PUSH2 0xC13 DUP5 DUP3 DUP6 ADD PUSH2 0xA47 JUMP JUMPDEST SWAP2 POP POP SWAP3 SWAP2 POP POP JUMP JUMPDEST PUSH0 DUP2 SWAP1 POP SWAP2 SWAP1 POP JUMP JUMPDEST PUSH2 0xC2E DUP2 PUSH2 0xC1C JUMP JUMPDEST DUP3 MSTORE POP POP JUMP JUMPDEST PUSH0 PUSH1 0x20 DUP3 ADD SWAP1 POP PUSH2 0xC47 PUSH0 DUP4 ADD DUP5 PUSH2 0xC25 JUMP JUMPDEST SWAP3 SWAP2 POP POP JUMP JUMPDEST PUSH0 DUP2 ISZERO ISZERO SWAP1 POP SWAP2 SWAP1 POP JUMP JUMPDEST PUSH2 0xC61 DUP2 PUSH2 0xC4D JUMP JUMPDEST DUP3 MSTORE POP POP JUMP JUMPDEST PUSH0 PUSH1 0x20 DUP3 ADD SWAP1 POP PUSH2 0xC7A PUSH0 DUP4 ADD DUP5 PUSH2 0xC58 JUMP JUMPDEST SWAP3 SWAP2 POP POP JUMP JUMPDEST PUSH2 0xC89 DUP2 PUSH2 0xA20 JUMP JUMPDEST DUP3 MSTORE POP POP JUMP JUMPDEST PUSH0 PUSH1 0x20 DUP3 ADD SWAP1 POP PUSH2 0xCA2 PUSH0 DUP4 ADD DUP5 PUSH2 0xC80 JUMP JUMPDEST SWAP3 SWAP2 POP POP JUMP JUMPDEST PUSH0 DUP3 DUP3 MSTORE PUSH1 0x20 DUP3 ADD SWAP1 POP SWAP3 SWAP2 POP POP JUMP JUMPDEST PUSH32 0x4F6E6C792074686520726567756C61746F722063616E2072756E207468697320 PUSH0 DUP3 ADD MSTORE PUSH32 0x66756E6374696F6E000000000000000000000000000000000000000000000000 PUSH1 0x20 DUP3 ADD MSTORE POP JUMP JUMPDEST PUSH0 PUSH2 0xD12 PUSH1 0x28 DUP4 PUSH2 0xCA8 JUMP JUMPDEST SWAP2 POP PUSH2 0xD1D DUP3 PUSH2 0xCB8 JUMP JUMPDEST PUSH1 0x40 DUP3 ADD SWAP1 POP SWAP2 SWAP1 POP JUMP JUMPDEST PUSH0 PUSH1 0x20 DUP3 ADD SWAP1 POP DUP2 DUP2 SUB PUSH0 DUP4 ADD MSTORE PUSH2 0xD3F DUP2 PUSH2 0xD06 JUMP JUMPDEST SWAP1 POP SWAP2 SWAP1 POP JUMP JUMPDEST PUSH32 0x5468697320757365722068617320616C7265616479206265656E207265676973 PUSH0 DUP3 ADD MSTORE PUSH32 0x7465726564000000000000000000000000000000000000000000000000000000 PUSH1 0x20 DUP3 ADD MSTORE POP JUMP JUMPDEST PUSH0 PUSH2 0xDA0 PUSH1 0x25 DUP4 PUSH2 0xCA8 JUMP JUMPDEST SWAP2 POP PUSH2 0xDAB DUP3 PUSH2 0xD46 JUMP JUMPDEST PUSH1 0x40 DUP3 ADD SWAP1 POP SWAP2 SWAP1 POP JUMP JUMPDEST PUSH0 PUSH1 0x20 DUP3 ADD SWAP1 POP DUP2 DUP2 SUB PUSH0 DUP4 ADD MSTORE PUSH2 0xDCD DUP2 PUSH2 0xD94 JUMP JUMPDEST SWAP1 POP SWAP2 SWAP1 POP JUMP JUMPDEST PUSH32 0x54686520726F6C65206F662074686520726567756C61746F722063616E6E6F74 PUSH0 DUP3 ADD MSTORE PUSH32 0x206265206368616E676564000000000000000000000000000000000000000000 PUSH1 0x20 DUP3 ADD MSTORE POP JUMP JUMPDEST PUSH0 PUSH2 0xE2E PUSH1 0x2B DUP4 PUSH2 0xCA8 JUMP JUMPDEST SWAP2 POP PUSH2 0xE39 DUP3 PUSH2 0xDD4 JUMP JUMPDEST PUSH1 0x40 DUP3 ADD SWAP1 POP SWAP2 SWAP1 POP JUMP JUMPDEST PUSH0 PUSH1 0x20 DUP3 ADD SWAP1 POP DUP2 DUP2 SUB PUSH0 DUP4 ADD MSTORE PUSH2 0xE5B DUP2 PUSH2 0xE22 JUMP JUMPDEST SWAP1 POP SWAP2 SWAP1 POP JUMP JUMPDEST PUSH0 DUP2 MLOAD SWAP1 POP SWAP2 SWAP1 POP JUMP JUMPDEST PUSH0 JUMPDEST DUP4 DUP2 LT ISZERO PUSH2 0xE89 JUMPI DUP1 DUP3 ADD MLOAD DUP2 DUP5 ADD MSTORE PUSH1 0x20 DUP2 ADD SWAP1 POP PUSH2 0xE6E JUMP JUMPDEST PUSH0 DUP5 DUP5 ADD MSTORE POP POP POP POP JUMP JUMPDEST PUSH0 PUSH2 0xE9E DUP3 PUSH2 0xE62 JUMP JUMPDEST PUSH2 0xEA8 DUP2 DUP6 PUSH2 0xCA8 JUMP JUMPDEST SWAP4 POP PUSH2 0xEB8 DUP2 DUP6 PUSH1 0x20 DUP7 ADD PUSH2 0xE6C JUMP JUMPDEST PUSH2 0xEC1 DUP2 PUSH2 0xA63 JUMP JUMPDEST DUP5 ADD SWAP2 POP POP SWAP3 SWAP2 POP POP JUMP JUMPDEST PUSH0 PUSH1 0x40 DUP3 ADD SWAP1 POP DUP2 DUP2 SUB PUSH0 DUP4 ADD MSTORE PUSH2 0xEE4 DUP2 DUP6 PUSH2 0xE94 JUMP JUMPDEST SWAP1 POP PUSH2 0xEF3 PUSH1 0x20 DUP4 ADD DUP5 PUSH2 0xC80 JUMP JUMPDEST SWAP4 SWAP3 POP POP POP JUMP JUMPDEST PUSH2 0xF03 DUP2 PUSH2 0xC1C JUMP JUMPDEST DUP2 EQ PUSH2 0xF0D JUMPI PUSH0 DUP1 REVERT JUMPDEST POP JUMP JUMPDEST PUSH0 DUP2 MLOAD SWAP1 POP PUSH2 0xF1E DUP2 PUSH2 0xEFA JUMP JUMPDEST SWAP3 SWAP2 POP POP JUMP JUMPDEST PUSH0 PUSH1 0x20 DUP3 DUP5 SUB SLT ISZERO PUSH2 0xF39 JUMPI PUSH2 0xF38 PUSH2 0x9F9 JUMP JUMPDEST JUMPDEST PUSH0 PUSH2 0xF46 DUP5 DUP3 DUP6 ADD PUSH2 0xF10 JUMP JUMPDEST SWAP2 POP POP SWAP3 SWAP2 POP POP JUMP JUMPDEST PUSH32 0x54686973207573657220697320616C7265616479206E6F742072656769737465 PUSH0 DUP3 ADD MSTORE PUSH32 0x7265640000000000000000000000000000000000000000000000000000000000 PUSH1 0x20 DUP3 ADD MSTORE POP JUMP JUMPDEST PUSH0 PUSH2 0xFA9 PUSH1 0x23 DUP4 PUSH2 0xCA8 JUMP JUMPDEST SWAP2 POP PUSH2 0xFB4 DUP3 PUSH2 0xF4F JUMP JUMPDEST PUSH1 0x40 DUP3 ADD SWAP1 POP SWAP2 SWAP1 POP JUMP JUMPDEST PUSH0 PUSH1 0x20 DUP3 ADD SWAP1 POP DUP2 DUP2 SUB PUSH0 DUP4 ADD MSTORE PUSH2 0xFD6 DUP2 PUSH2 0xF9D JUMP JUMPDEST SWAP1 POP SWAP2 SWAP1 POP JUMP JUMPDEST PUSH32 0x54686973206F7261636C6520697320616C726561647920726567697374657265 PUSH0 DUP3 ADD MSTORE PUSH32 0x6400000000000000000000000000000000000000000000000000000000000000 PUSH1 0x20 DUP3 ADD MSTORE POP JUMP JUMPDEST PUSH0 PUSH2 0x1037 PUSH1 0x21 DUP4 PUSH2 0xCA8 JUMP JUMPDEST SWAP2 POP PUSH2 0x1042 DUP3 PUSH2 0xFDD JUMP JUMPDEST PUSH1 0x40 DUP3 ADD SWAP1 POP SWAP2 SWAP1 POP JUMP JUMPDEST PUSH0 PUSH1 0x20 DUP3 ADD SWAP1 POP DUP2 DUP2 SUB PUSH0 DUP4 ADD MSTORE PUSH2 0x1064 DUP2 PUSH2 0x102B JUMP JUMPDEST SWAP1 POP SWAP2 SWAP1 POP JUMP INVALID LOG2 PUSH5 0x6970667358 0x22 SLT KECCAK256 MULMOD PUSH7 0x493D16F3820FDA COINBASE SWAP16 PUSH18 0xD567C6C02678E6027BCE275E92DC58BF894C DUP7 SIGNEXTEND PUSH5 0x736F6C6343 STOP ADDMOD OR STOP CALLER "
				},
				"gasEstimates": {
					"creation": {
						"codeDepositCost": "851400",
						"executionCost": "infinite",
						"totalCost": "infinite"
					},
					"external": {
						"RegisteredProgressOracles(address)": "2877",
						"RegisteredUsers(address)": "2833",
						"registerProgressOracle(address)": "32612",
						"registerUser(address,string)": "infinite",
						"regulator()": "2530",
						"unregisterUser(address)": "infinite",
						"userAccessNFT(address)": "2847"
					}
				},
				"methodIdentifiers": {
					"RegisteredProgressOracles(address)": "f26bcf5d",
					"RegisteredUsers(address)": "d7149fcf",
					"registerProgressOracle(address)": "fd13164d",
					"registerUser(address,string)": "0ea126f9",
					"regulator()": "dd8fee14",
					"unregisterUser(address)": "21f2ca3b",
					"userAccessNFT(address)": "a15cd398"
				}
			},
			"storageLayout": {
				"storage": [
					{
						"astId": 167,
						"contract": "RegistrationandAccessControl.sol:Registration",
						"label": "AccessNFTSC",
						"offset": 0,
						"slot": "0",
						"type": "t_contract(IAccessNFT)164"
					},
					{
						"astId": 169,
						"contract": "RegistrationandAccessControl.sol:Registration",
						"label": "regulator",
						"offset": 0,
						"slot": "1",
						"type": "t_address"
					},
					{
						"astId": 173,
						"contract": "RegistrationandAccessControl.sol:Registration",
						"label": "RegisteredUsers",
						"offset": 0,
						"slot": "2",
						"type": "t_mapping(t_address,t_bool)"
					},
					{
						"astId": 177,
						"contract": "RegistrationandAccessControl.sol:Registration",
						"label": "RegisteredProgressOracles",
						"offset": 0,
						"slot": "3",
						"type": "t_mapping(t_address,t_bool)"
					},
					{
						"astId": 181,
						"contract": "RegistrationandAccessControl.sol:Registration",
						"label": "userAccessNFT",
						"offset": 0,
						"slot": "4",
						"type": "t_mapping(t_address,t_uint256)"
					}
				],
				"types": {
					"t_address": {
						"encoding": "inplace",
						"label": "address",
						"numberOfBytes": "20"
					},
					"t_bool": {
						"encoding": "inplace",
						"label": "bool",
						"numberOfBytes": "1"
					},
					"t_contract(IAccessNFT)164": {
						"encoding": "inplace",
						"label": "contract IAccessNFT",
						"numberOfBytes": "20"
					},
					"t_mapping(t_address,t_bool)": {
						"encoding": "mapping",
						"key": "t_address",
						"label": "mapping(address => bool)",
						"numberOfBytes": "32",
						"value": "t_bool"
					},
					"t_mapping(t_address,t_uint256)": {
						"encoding": "mapping",
						"key": "t_address",
						"label": "mapping(address => uint256)",
						"numberOfBytes": "32",
						"value": "t_uint256"
					},
					"t_uint256": {
						"encoding": "inplace",
						"label": "uint256",
						"numberOfBytes": "32"
					}
				}
			},
			"userdoc": {
				"kind": "user",
				"methods": {},
				"version": 1
			}
		}
	}
}